:100000000100000000000000000200000447BA08E0
:100010001CF09FE51CF09FE51CF09FE51CF09FE5A0
:100020001CF09FE51CF09FE51CF09FE51CF09FE590
:1000300005390E2D0C0A00009009000094090000FB
:10004000EC090000F0090000F4090000F8090000C4
:10005000050A0000000000EA050100EA28008FE21E
:10006000000C90E800A08AE000B08BE001704AE24A
:100070000B005AE1FE00000A0F00BAE814E04FE25C
:10008000010013E303F0471013FF2FE124040500E0
:10009000C404050001C08FE21CFF2FE18A18037819
:1000A00001309C07A40F01D1047801301D1101D14A
:1000B00005780130013C05D0067801300E70013121
:1000C000013CF9D1002D11D004781B0701309B0FA2
:1000D0000C1B032B01D1037801301B02E41A6B1CAB
:1000E000267801340E700131013BF9D59142D6D307
:1000F00070470000102052E27800B0287800A12854
:10010000FBFFFF8A822EB0E13000B0283000A1282A
:1001100000409045004081451EFF2FE10030A0E3E4
:100120000040A0E30050A0E30060A0E3102052E2F2
:100130007800A128FCFFFF8A822EB0E13000A128C0
:10014000003081451EFF2FE104309FE503308FE032
:1001500013FF2FE14907000010402DE9C140B0E135
:10016000A34024E00100005A000070E20010E1E228
:10017000030013E10100005A002072E20030E3E2C4
:100180008A0200EB010114E30100000A000070E2A2
:100190000010E1E2020114E30100000A002072E213
:1001A0000030E3E21040BDE81EFF2FE110B504006F
:1001B00000F096E90068005D000706D5DF2C04D04A
:1001C0002000203810BC08BC18472000FAE70000C7
:1001D000194930B417220A6036224A60174A184C6F
:1001E0000021030C8D001B185351164B491C58431A
:1001F00000193729F5DB30BC70470120E8E770B4FF
:100200000D4C0E4D6068216883008E002F86AE2451
:1002100001000000FC01000000020000C092652304
:10022000EA58AE59491E401E9219EA503623002959
:10023000216002DA2360606003E00028606000DA79
:100240006360500070BC400870470000401C05000F
:10025000B09C0500E119D666CD0D010010B4042A4A
:100260000ED303000B439B070AD108C810C9A34251
:1002700002D1121F042AF8D2A34201D0001F091F85
:10028000002A02D1002010BC7047D30701D0521CB5
:1002900005E003780C78401C491CA34207D1037881
:1002A0000C78401C491CA34201D1921EF1D1181BAD
:1002B000E9E70000013050E0030052214202009AB9
:1002C000030052E3020080E0021081E02500009A62
:1002D000030010E301307115012042120130601556
:1002E000030010E3FAFFFF1A033011E29100000A45
:1002F000042052E21B00003A03C031E7020053E33E
:100300000800003A0F00008A0C38A0E104C031E573
:10031000042052E22C3883E1043020E5F9FFFF2A63
:10032000021081E20F0000EA0C3CA0E104C031E5BC
:10033000042052E22C3483E1043020E5F9FFFF2A47
:10034000011081E2070000EA0C34A0E104C031E5AD
:10035000042052E22C3C83E1043020E5F9FFFF2A1F
:10036000031081E20000A0E1822FB0E1013071258D
:1003700001C07125012051450130602501C0602573
:10038000012040451EFF2FE103000B43020070B423
:100390009B0710D10F4CE50100E008C208C91E1BE5
:1003A0009E432E42F9D01906090E1170521C0029E5
:1003B0000DD01B0AF7E70C78491C531C002C147055
:1003C00005D00C78491C5A1C002C1C70F3D170BC51
:1003D0007047000001010101030010E310402DE906
:1003E0000040A0E1030011030A00001A50E09FE55D
:1003F000042052E2060000BA043091E40EC043E04B
:1004000003C0CCE18EC31CE004308004F7FFFF0A78
:10041000041041E2042082E2012052E2F7D18F1D54
:1004200001000000F803000000020000347ADB9EA7
:10043000050000BA0130D1E4000053E30130C0E40C
:10044000F9FFFF1A0210A0E1E60100EB0400A0E1B1
:100450001040BDE81EFF2FE1010101010120D0E5A0
:100460000010D0E50230D0E50300D0E5021481E1B0
:10047000031881E1000C81E11EFF2FE12024A0E19F
:100480000000C1E50120C1E52028A0E10220C1E56E
:10049000202CA0E10320C1E51EFF2FE10000A0E118
:1004A0005A0000EB03002DE9BA0000EB0300BDE8A1
:1004B000820000FA0F002DE9B90000EB0F00BDE843
:1004C0001CC09FE50FC08CE001001CE30DE08F1203
:1004D0000FE0A0011CFF2FE101C08FE21CFF2FE104
:1004E00000F08AF86541030001402DE90000A0E119
:1004F000A10000FA0140BDE8000000EA0000E0E3CE
:10050000260000EA1EFF2FE110402DE9290000EB34
:100510001040BDE8040080E21EFF2FE1AD000000A6
:10052000013050E003005221B001009A020080E047
:10053000030010E3021081E0012042120130711526
:1005400001306015030010E3FAFFFF1A102052E299
:100550000500003A10402DE9185031E9102052E210
:10056000185020E9FBFFFF2A1040BDE8823EB0E1B1
:100570000810312908102029043031450430204565
:10058000030012E31EFF2F01822FB0E1B230712170
:1005900001205145B2306021012040451EFF2FE16E
:1005A0000C109FE51800A0E3563412EF1EFF2FE158
:1005B00054FFFFFF2600020004009FE51EFF2FE10D
:1005C0001EFF2FE1AC9D050010B5C046C0460800D7
:1005D00007D00178002904D005A100F024E9002803
:1005E00004D10448784410BC08BC18470020FAE73E
:1005F0004300000074FD040010B5C046C04604006E
:10060000C046C0462000FFF770EF10BC08BC18477A
:100610000E40A0E1660000EB04E0A0E101402DE9FE
:100620007B0000EB0040A0E10140BDE837E75BD56F
:1006300001000000F4050000000200002D8205EE1C
:1006400013402DE90100A0E3121DA0E3081084E58A
:10065000000084E51340BDE80010A0E1040084E53B
:100660000EF0A0E110402DE903002DE96D0000EB34
:100670000040A0E10300BDE8042094E50D30A0E1B6
:1006800000E082E003005EE1002081E50B00008ACB
:100690000E3093E0011A8EE26330A0E1071081E290
:1006A0000730C3E30710C1E3030051E10310A08149
:1006B000041084E51040BDE8020041E01EFF2FE178
:1006C0000020A0E10000A0E30000A0E11040BDE890
:1006D0001EFF2FE1F0B585B0C046C04605000C00F6
:1006E0004FF072E9002001950294C046C046039085
:1006F00001A8FFF748ED040001A80D00009303C80E
:100700001600C046C046C046C046FFF794FD002113
:100710000800C046C0460700FFF758EF04900021CC
:1007200007600800FFF75AFF411C04984160002150
:100730000800C046C04601000498816000210800FE
:10074000C046C04601000498C16000210800C046B0
:10075000C046010004980161C046C046C046C0467C
:10076000C046C046C046C046C046C046C046C04659
:10077000C046C046C046C046C046C046009B05B005
:100780002000049C29003200A646F0BC01B070474E
:1007900010B5C046C0460020C046C046C046C04650
:1007A000C046C04610BC08BC184700000000E0E38B
:1007B0000210E0E31EFF2FE110402DE90000A0E150
:1007C0001040BDE81EFF2FE10E50A0E1430000EBFA
:1007D00005E0A0E10050A0E10700C0E30D10A0E19A
:1007E0000A30A0E100D0A0E160D08DE220402DE9E8
:1007F000D55700FA2040BDE80060A0E30070A0E3F8
:100800000080A0E300B0A0E30710C1E305C0A0E1B1
:10081000C009ACE8C009ACE8C009ACE8C009ACE864
:1008200001D0A0E11EFF2FE104009FE51EFF2FE194
:100830001EFF2FE19C9D0500030010E38279548D7B
:1008400001000000F007000000020000D96ABB535D
:10085000030011031700001A00402DE984E09FE512
:10086000042090E4043091E40EC042E002C0CCE1E8
:100870008EC31CE003005201F8FFFF0A0040BDE8F0
:10088000030CA0E1020C50E0FF0E1C030700001A4D
:100890000308A0E1020850E0FF0C1C030300001A4B
:1008A0000304A0E1020450E0FF081C03020053000F
:1008B0006000A0111EFF2FE10120D0E40130D1E43F
:1008C000010052E3030052210400001A0120D0E489
:1008D0000130D1E4010052E303005221F5FFFF0A89
:1008E000030042E01EFF2FE10101010110B410BC22
:1008F0007047000000009FE51EFF2FE18C9D050062
:1009000004009FE51EFF2FE11EFF2FE1909D0500D3
:10091000913082E00300A0E10210A0E11EFF2FE170
:1009200000A000476C129FE534229FE5DB00A0E3A6
:1009300000F021E1021081E00310C1E3041041E264
:1009400001D0A0E100A0A0E300B0A0E314229FE545
:10095000D200A0E300F021E1021081E00310C1E326
:10096000041041E201D0A0E1D300A0E300F021E1B6
:10097000E8319FE5001083E5E0119FE5000091E577
:10098000040080E2E8119FE5E8319FE5D8219FE56A
:10099000000081E5002083E5020080E0D8119FE59A
:1009A0000020A0E3002081E5C0219FE5000082E552
:1009B000E4219FE5E4019FE52C0082E50700A0E328
:1009C000300082E50900A0E3000082E50B10A0E3FF
:1009D000101082E50130A0E3243082E5283082E562
:1009E000BC219FE51030A0E3083082E51EFF2FE117
:1009F0000EF0B0E1FF402DE900004FE101002DE9CC
:100A0000A0119FE5002091E51F2002E298319FE5AB
:100A1000823193E70FE0A0E113FF2FE188019FE50A
:100A20000810A0E3920102E00410A0E3012082E09C
:100A3000021090E724209DE5012082E024208DE52E
:100A40000100BDE800F069E1FF80FDE8112B4B2FAC
:100A500001000000EC090000000200001E73B90E46
:100A6000FEFFFFEAFEFFFFEAFEFFFFEA700000EA7A
:100A700003F03EF953480047F34627F0DBFF000040
:100A800040019FE540119FE5001080E53C019FE596
:100A9000001090E538019FE5001090E534319FE5A6
:100AA0000310C1E10030A0E3031081E1001080E5F4
:100AB00000619FE50235A0E3083186E518019FE556
:100AC000100F01EE14F19FE5900F07EE1EFF2FE1CE
:100AD0000C019FE50010E0E3001080E504019FE5B4
:100AE00004119FE5001080E500019FE5001090E5EE
:100AF000081081E3001080E5001090E5081011E275
:100B0000FCFFFF0A900F07EE1EFF2FE1100F11EE02
:100B10001EFF2FE1100F01EE1EFF2FE1010050E23A
:100B2000FDFFFF1A1EFF2FE1C4009FE5C4109FE5E3
:100B3000F720A0E3040081E4012042E20000A0E3EA
:100B4000040081E4012052E2FCFFFF1AA8009FE5A7
:100B5000A8109FE5001080E5A4009FE5A4109FE584
:100B6000001080E5A0009FE5A0109FE5001080E543
:100B70001EFF2FE15CFE00041000000000040000D6
:100B80000004000014FD000434FD000438FD0004DE
:100B90003CFD000401C05EE50C0053E10330DE378C
:100BA0000C30DE2783C08EE01CFF2FE198DA0500B1
:100BB000003000803F1F000000280080B038008017
:100BC000645905001950F0030C20008023387E5032
:100BD00000400190442000803CC600007C170000CB
:100BE000440000000C28008008280080020040001B
:100BF000C4200080F0F0F0F024FC0004D8FC0004D5
:100C0000C1080000DCFC000465B30400E0FC000443
:100C1000FD09000004F01FE5A405F40304F01FE53E
:100C20008009F40304F01FE50C0BF40304F01FE546
:100C3000540AF40304F01FE52451F00304F01FE507
:100C40004596F30304F01FE5757EF30304F01FE5FA
:100C50004B7EF30304F01FE58413F403C1A47DCDA0
:100C600001000000E80B000000020000EA9B07B34F
:100C700004F01FE55FC0F30304F01FE5B80AF403B6
:100C800004F01FE57009F40304F01FE54986F00342
:100C900004F01FE56786F00304F01FE51C0DF40364
:100CA00004F01FE5E7C2F30304F01FE5AF81F3038F
:100CB00004F01FE5FFACF00304F01FE51FABF003E9
:100CC00004F01FE579C1F30304F01FE5B93FF30316
:100CD00004F01FE5B77EF30304F01FE5594BF00362
:100CE00004F01FE5FD52F00304F01FE5B5C7F30360
:100CF00004F01FE58DC7F30304F01FE5C3C7F3033A
:100D000004F01FE599C7F30304F01FE5D1C7F3030F
:100D100004F01FE5A7C7F30304F01FE5000DF4037B
:100D200004F01FE5337EF30304F01FE5CFC5F303A2
:100D300004F01FE54D0BF40304F01FE5D7BBF303EC
:100D400004F01FE5EDBBF30304F01FE563BCF30300
:100D500004F01FE57316F20304F01FE54B16F203CF
:100D600004F01FE5779FF00304F01FE54F86F003C2
:100D700004F01FE5493FF30304F01FE5DF3FF303F1
:100D800004F01FE5B1A1F00304F01FE59F7FF3031A
:100D900004F01FE5EF7FF30304F01FE53780F30352
:100DA00004F01FE5D180F30304F01FE50D88F00384
:100DB00004F01FE52788F00304F01FE59FCBF20342
:100DC00004F01FE5D74FF30304F01FE52B52F303A4
:100DD00004F01FE5AD6EF20304F01FE5D172F303DA
:100DE00004F01FE5516EF20304F01FE5BFC6F303E4
:100DF00004F01FE5A7C6F30304F01FE5B3C6F30331
:100E000004F01FE523D8F30304F01FE563D8F303D0
:100E100004F01FE553D8F30304F01FE5C7C2F30342
:100E200004F01FE5D53AF00304F01FE5940BF4033A
:100E300004F01FE5EDC7F30304F01FE5F5CEF3035F
:100E400004F01FE571CFF30304F01FE51148F00330
:100E500004F01FE5B944F00304F01FE55149F00325
:100E600004F01FE5D14AF00304F01FE578EF6C5F52
:100E700001000000E40D000000020000F363D9C38C
:100E80009D49F00304F01FE5D121F00304F01FE5B4
:100E90009523F00304F01FE5C923F00304F01FE5D8
:100EA000D522F00304F01FE59917F00304F01FE5C5
:100EB0000114F00304F01FE5C91AF00304F01FE564
:100EC0001517F00304F01FE5F518F00304F01FE513
:100ED0003915F00304F01FE57519F00304F01FE560
:100EE000C115F00304F01FE5C535F00304F01FE55C
:100EF000C53CF00304F01FE56540F00304F01FE576
:100F0000613FF00304F01FE52D41F00304F01FE5FD
:100F10009942F00304F01FE57F92F00304F01FE50F
:100F2000FC0EF40304F01FE5F910F10304F01FE5D3
:100F300061ACF00304F01FE52D4DF10304F01FE553
:100F40007F1EF10304F01FE51502F30304F01FE513
:100F5000C76DF20304F01FE50102F30304F01FE57F
:100F6000E582F20304F01FE5EBACF00304F01FE5AB
:100F70006907F10304F01FE5F937F10304F01FE5F9
:100F8000B971F20304F01FE5453CF10304F01FE5DD
:100F90008903F10304F01FE58DFAF10304F01FE566
:100FA0009DF8F10304F01FE57500F20304F01FE55E
:100FB000D7E9F10304F01FE51519F20304F01FE56A
:100FC000A130F20304F01FE5C72FF20304F01FE580
:100FD000673FF30304F01FE5313FF30304F01FE51F
:100FE000018AF00304F01FE5258CF00304F01FE5EF
:100FF0005D44F20304F01FE5954BF20304F01FE596
:10100000713FF30304F01FE5D558F20304F01FE528
:10101000A772F30304F01FE5D30CF30304F01FE5FC
:1010200083E3F20304F01FE54912F30304F01FE524
:101030006951F10304F01FE55738F30304F01FE58D
:101040002735F30304F01FE53F4EF30304F01FE5DB
:10105000314EF30304F01FE58972F30304F01FE53A
:10106000DB51F30304F01FE57162F30304F01FE5A5
:101070000961F30304F01FE58B65F303560165A8CE
:1010800001000000E00F000000020000078B677EF7
:1010900004F01FE5A597F20304F01FE55767F3037B
:1010A00004F01FE53D51F30304F01FE54960F3032D
:1010B00004F01FE57766F30304F01FE5A752F3037E
:1010C00004F01FE5A94FF30304F01FE5B94FF30344
:1010D00004F01FE55F52F30304F01FE5DD67F3033F
:1010E00004F01FE56F97F20304F01FE5E950F303E6
:1010F00004F01FE58752F30304F01FE51362F303C6
:1011000004F01FE57351F30304F01FE51F18F20309
:1011100004F01FE56970F30304F01FE59B70F3030F
:1011200004F01FE53B71F30304F01FE54364F30390
:1011300004F01FE5936EF30304F01FE57718F20344
:1011400004F01FE5415FF30304F01FE52552F303AC
:1011500004F01FE56987F30304F01FE5BB57F303B1
:1011600004F01FE5B354F30304F01FE5B50DF203DB
:1011700004F01FE5A550F10304F01FE58759F303C0
:1011800004F01FE5CD59F30304F01FE5F959F3030B
:1011900004F01FE58B5AF30304F01FE5695BF303CA
:1011A00004F01FE5F155F30304F01FE5E150F303EC
:1011B00004F01FE56557F30304F01FE55B54F303E8
:1011C00004F01FE55B13F20304F01FE5FF10F203C8
:1011D00004F01FE5F916F20304F01FE57B16F20395
:1011E00004F01FE5CF54F20304F01FE5D371F303BD
:1011F00004F01FE5D3A6F20304F01FE52DD6F20399
:1012000004F01FE55348F10304F01FE5FB89F003E8
:1012100004F01FE58341F30304F01FE52B98F3036B
:1012200004F01FE59B9BF00304F01FE5CD79F30369
:1012300004F01FE5C579F30304F01FE55DB2F30385
:1012400004F01FE54FB7F10304F01FE5B700F10309
:1012500004F01FE5730DF10304F01FE5411CF103D9
:1012600004F01FE5510AF10304F01FE5691CF103C6
:1012700004F01FE5C565F10304F01FE52167F103E4
:1012800004F01FE50367F10304F01FE520C9EF96A2
:1012900001000000DC110000000200007990C0CEC7
:1012A000F166F10304F01FE519E5F10304F01FE511
:1012B00033E5F10304F01FE529E5F10304F01FE530
:1012C000659CF10304F01FE5B59CF10304F01FE5F4
:1012D000159CF10304F01FE59DB3F10304F01FE535
:1012E00039E5F10304F01FE55BB7F10304F01FE5F6
:1012F00073BAF10304F01FE58F35F20304F01FE524
:10130000715AF20304F01FE5B34CF20304F01FE539
:10131000EB49F20304F01FE5ED32F20304F01FE5A0
:10132000DFC1F20304F01FE5AB61F30304F01FE536
:10133000FFADF20304F01FE5FF2FF30304F01FE5F8
:101340009B33F30304F01FE5D942F30304F01FE5D8
:101350002B4EF30304F01FE52B44F30304F01FE5C9
:10136000EBC8F10304F01FE58D89F00304F01FE5DD
:10137000C78BF00304F01FE56FC2F20304F01FE512
:10138000A9C5F30304F01FE59781F30304F01FE5FB
:10139000D39FF00304F01FE52B99F00304F01FE541
:1013A0005D99F00304F01FE5F9A6F00304F01FE5D2
:1013B0000199F00304F01FE535A5F00304F01FE5E3
:1013C0004D9AF00304F01FE5137EF30304F01FE5CC
:1013D000C57DF30304F01FE58B82F30304F01FE5E2
:1013E0004D82F30304F01FE595C3F30304F01FE5FA
:1013F000BFC2F30304F01FE501C4F30304F01FE5CB
:101400009FBEF30304F01FE593BEF30304F01FE552
:10141000ABBEF30304F01FE51D95F00304F01FE5D8
:101420005B95F00304F01FE5697FF30304F01FE50B
:101430008795F00304F01FE50D96F00304F01FE517
:101440003F88F00304F01FE54F97F00304F01FE519
:101450001B6EF20304F01FE5140DF40304F01FE506
:10146000080DF40304F01FE529A1F30304F01FE5C0
:1014700055A1F30304F01FE531A5F30304F01FE5C4
:10148000D59FF30304F01FE5A79FF30304F01FE5C6
:10149000979EF30304F01FE5A79EF303E138C038DD
:1014A00001000000D8130000000200008D787E7358
:1014B00004F01FE587C0F30304F01FE59DC0F303AC
:1014C00004F01FE511C3F30304F01FE527C5F30380
:1014D00004F01FE58F81F30304F01FE5C1ECF00376
:1014E00004F01FE57D6FF20304F01FE50186F003B1
:1014F00004F01FE5B183F30304F01FE5497DF30316
:1015000004F01FE59333F20304F01FE5996EF20334
:1015100004F01FE5277FF30304F01FE5CFBEF303BC
:1015200004F01FE579C2F30304F01FE52FC2F303B3
:1015300004F01FE593C1F30304F01FE515C6F303A0
:1015400004F01FE563C6F30304F01FE5F37EF30325
:1015500004F01FE5757300C004F01FE5797300C047
:1015600004F01FE5EDBFF30304F01FE501C0F30332
:1015700004F01FE51FC0F30304F01FE50BC0F303E5
:1015800004F01FE5D7C2F30304F01FE57181F303F4
:1015900004F01FE545B3F30304F01FE5DBB3F303E9
:1015A00004F01FE5579FF30304F01FE505A6F303BE
:1015B00004F01FE5FFA8F30304F01FE531AAF303CD
:1015C00004F01FE505ADF30304F01FE54B98F303AA
:1015D00004F01FE589B5F30304F01FE5CD9EF30386
:1015E00004F01FE523A6F30304F01FE5ABC4F303E7
:1015F00004F01FE575BCF30304F01FE597C4F30383
:1016000004F01FE5C3C4F30304F01FE5DBC4F303D8
:1016100004F01FE5A1C2F30304F01FE5B5C2F30314
:1016200004F01FE591C2F30304F01FE597C2F30332
:1016300004F01FE597C6F30304F01FE5B1A5F3031B
:1016400004F01FE5A5A5F30304F01FE5A013F403C0
:1016500004F01FE589ADF30304F01FE58FB3F30336
:1016600004F01FE5BD9DF30304F01FE53DADF3035A
:1016700004F01FE5D1ABF30304F01FE5F7C4F30357
:1016800004F01FE58143F00304F01FE50D45F0036E
:1016900004F01FE50D42F00304F01FE50381F3039E
:1016A00004F01FE5A798F00304F01FE5384BC3DDF5
:1016B00001000000D4150000000200009480A00387
:1016C000C186F00304F01FE58F99F00304F01FE5D5
:1016D0004F9BF00304F01FE5BD9DF00304F01FE5F0
:1016E000E79CF00304F01FE5659CF00304F01FE5A0
:1016F000479DF00304F01FE54BA6F00304F01FE53F
:101700006B9EF00304F01FE5BB9EF00304F01FE5A1
:10171000C199F00304F01FE5C39AF00304F01FE53C
:10172000617EF30304F01FE53D2FF00304F01FE595
:101730001BC2F30304F01FE5A7C3F30304F01FE586
:10174000B9C3F30304F01FE5E5C1F30304F01FE59B
:101750002FBEF30304F01FE583C3F30304F01FE57A
:1017600047BEF30304F01FE559BEF30304F01FE581
:1017700031C3F30304F01FE529C3F30304F01FE5AD
:1017800095BDF30304F01FE551C0F30304F01FE51A
:10179000E545F00304F01FE5D16EF20304F01FE508
:1017A000A134F20304F01FE51B31F20304F01FE53E
:1017B000EF10F20304F01FE5BB2FF20304F01FE566
:1017C0006134F20304F01FE57B50F20304F01FE5DF
:1017D000978CF00304F01FE57105F20304F01FE598
:1017E000FBC3F30304F01FE5CDBCF30304F01FE5D6
:1017F0006BBDF30304F01FE5B1BBF30304F01FE579
:101800008DBFF30304F01FE5DBBCF30304F01FE519
:101810002D45F00304F01FE55405F40304F01FE523
:101820007FC7F30304F01FE59DC5F30304F01FE534
:10183000DFC7F30304F01FE547C7F30304F01FE518
:10184000C9BBF30304F01FE551C3F30304F01FE524
:1018500087BEF30304F01FE59951F00304F01FE580
:10186000CBC6F30304F01FE5DBC6F30370B5040039
:1018700008000025E20704D00FF05AFE1249114873
:10188000086012480078012819D1200702D500F01D
:101890001FF80500600602D50FF0CCFD05002006FC
:1018A00002D50FF0E3FD0500A00502D500F06AF8AF
:1018B00005006007800F02D00FF0F0FD2A3CAC3627
:1018C00001000000D01700000002000060681EBE8A
:1018D0000500280070BD000061A30200D8EE0004DE
:1018E000A8F900047FB525480078002843D10FF0FF
:1018F00001FE00222248D24300211BF0BDFA214EF6
:101900001F2230600189520308181F49000C009003
:1019100008681E4D90430F225203801808600A0089
:10192000A869252133F0E0F8686925216A4633F07B
:10193000DBF8154AA869262133F0D6F8144A6869FD
:10194000262133F0D1F8134CE080306800892081E3
:10195000FFF7BAE960814004000C0021A0812180DA
:10196000618031680A89019051180391A8692C217E
:1019700001AA33F0B9F8002004B070BDCCF900041E
:101980007C1100C0BCF90004B0F90004A03003C011
:10199000503003C0883303C0FEB50024334E344DAD
:1019A0002721686901AA33F09FF80198641CC007D9
:1019B00001D0B442F4D32F4C2F4E2088002822D1DE
:1019C00030680027002803D02C4909688847376011
:1019D0002B48FFF77EE9002830600FD001890A18F4
:1019E0002849521E89788A1812781207120F22800D
:1019F0006780E78000894018A0800DE022490868D0
:101A0000401C086008E068692D216A4633F06CF8D4
:101A1000E08800994018E080E1891C480429218968
:101A200002D162898918FFE70268118121880029A3
:101A300013D0016832680A60A088E2880523801804
:101A40003268108168690122FFF746E96088401C0E
:101A500060802088401E208005E000680189081809
:101A60006189FFF726E90020FEBD0000FFFF0000AE
:101A7000A03003C0883303C0C0F90004C8F90004D3
:101A80003C3003C05C3003C0A0130500BCF9000467
:101A90000022F0B5D2430021334887B01BF0ECF9A7
:101AA000324F334D386001896A460818000C0090A7
:101AB0002869252133F018F82E4A01266B461E713D
:101AC000D1880020002901D15E7100E0354E02B0BE
:101AD00001000000CC19000000020000A7711CE307
:101AE000587100206B460821987199725872D8710C
:101AF00018725089002805D0012805D0022807D186
:101B0000072002E0032000E006206B46187301E086
:101B10006B461973E868252101AA32F0EFFFE868E7
:101B2000262101AA32F0EAFF174A2869262132F05D
:101B3000E5FF164CE080386800892081FFF7CEE889
:101B400060814004000CA0810021268061803968FA
:101B50000A8904905118022006910590E8682C210A
:101B600004AA32F0CBFF0A48E1880088FFF7C2E8F8
:101B70000849C870002007B0F0BD00007C1100C00B
:101B8000B8F90004A03003C0503003C0783303C05C
:101B9000AAF900045C3003C070B504001C4D00209D
:101BA000E20708D06868002802D11B4A1948106073
:101BB00008000FF0A1FD1949097801291AD1210760
:101BC00004D517480078002815D00020610604D5F8
:101BD0001449002008600FF027FD210601D50FF001
:101BE0003FFDE10501D500F075F86107890F01D0CF
:101BF0000FF04EFD70BD0FF069FD6868002801D13F
:101C000000F012F868680228DFD1FFF74BFFDCE72D
:101C1000A03003C061A30200D8EE0004A8F90004BC
:101C2000CCF90004F41905007FB50022D24300214D
:101C300020481BF02BF9204E204D30600189204AAE
:101C40000818000C0090E868252132F057FF286939
:101C500025216A4632F052FF194AE868262132F0FF
:101C60004DFF184A2869262132F048FF164CE080C3
:101C7000306800892081FFF732E860814004000C61
:101C80000121A08121800021618031680A890190B1
:101C900051180391E8682C2101AA32F02FFF0B485C
:101CA000E1880088FFF726E80949C870002004B0E1
:101CB00070BD00007C1100C0B8F90004A03003C062
:101CC000B0F90004503003C0783303C0AAF900040F
:101CD0005C3003C0F8B50024534D54486C336EB3E8
:101CE00001000000C81B0000000200005399A25E22
:101CF000272100696A4632F00BFF0098641CC00778
:101D000001D0AC42F3D34F4D4F4E6888F1784F4F1E
:101D10004F4C88424BD12368242018816888E98879
:101D2000B2784843310080189880B078F21C80184F
:101D30000278F37812091B0712011B0F1A43027075
:101D4000B0783200093A80188278C37812021A43B8
:101D5000521C130A8370C2703A68130E0371130C7D
:101D60004371130A8371C2712268081D9288121F81
:101D70008A7122689288121F1212CA71226893888F
:101D8000083B0B729388083B1B1243711089801823
:101D90008A78091DFEF79CEF21682E488A88006822
:101DA0001123FEF7AEEF00206880206002E020687B
:101DB000002819D128481BF0D3F8042814D8002291
:101DC0002548D24300211BF06BF811212060C1800F
:101DD00020300221C1702168242008810020688001
:101DE000B0782430A88003E01C490868401C0860D3
:101DF000206800281AD01A49096808606888EA88AB
:101E00005043AA88801822681081E889042828890C
:101E100002D16A898018FFE7088109480122006918
:101E20000423FEF76EEF6888401C68800020E8817C
:101E30003868401C38600020F8BD0000FFFF00003B
:101E4000A03003C0783303C05C3003C0F419050030
:101E5000C4F90004F00905007C1100C09C130500C2
:101E6000B8F90004002070470120F0B5400285B0A9
:101E700013F074FA74490A6803231B029A430A6038
:101E8000724D002169612A68012A5FD129602869A1
:101E90006B46028941691418AA68002996781E7158
:101EA000D6785E7103D1002138F0F2FDBDE07307F2
:101EB00016D40A79022A03D116F058FB0028F5D16E
:101EC0006B4618790007800F0228286905D112F0A7
:101ED000EFFE0028EAD12869E5E724F02DF9A4E017
:101EE000507813780002184313002033863BA6C2B3
:101EF00001000000C41D0000000200004A617C2EA9
:101F0000C018236FC01CDE7980088000022E20D10B
:101F10000B79022B0DD19279D2070AD00F229201B0
:101F2000891809680D229201891849880A06120E3B
:101F300000E000224178037809021943103901704A
:101F4000090A41700092236F2268002102F0B8F85C
:101F50007CE0032E7DD12268002102F027F975E094
:101F60006A68012A6BD169603E494C6C0291E9694B
:101F70006669491CE961010702D5296A491C296281
:101F8000EF68F979032901D108218843002E03D194
:101F9000200015F0ABF952E00107334803D5A869DA
:101FA000401CA861F4E70390FEF7DAEA8079C007E5
:101FB00008D1B879800705D53079022802D03800D9
:101FC00031F01EFBE868C079022808D10398FEF7BB
:101FD000C8EA4178027809021143103909E0032860
:101FE0000AD10398FEF7BCEA41780278090211434E
:101FF00022390170090A4170A0884038A0800398F6
:10200000FEF7AEEA80780007800F022814D1174A45
:1020100000922089164A0119164B200002F06CFA32
:1020200000280CD0029904000DF0E6FB0299200074
:102030004AF0F4FF03E00CE0200032F073FA0E499E
:10204000074A080010327C3803F02CFD686900282C
:1020500001D127F083FC05B0F0BD000000A0009086
:102060008C440004609D0004A09D0004E89400C01E
:10207000F09400C078D8050010280500FFB58DB099
:10208000080016001D00179A169901927A4C0091CB
:102090003200A46801000D98A04700285CD1FEF72B
:1020A00042EE0690002005900120400207918459DD
:1020B000E800401B80190C90C07904900C98007ABD
:1020C00003900D98417802780802104344D0FF36FF
:1020D000C136B06A002801D0169800E01798002297
:1020E000009208900D9808220321002347F010FD6C
:1020F00007000D98002512300B9030E0FB4B57C4C1
:1021000001000000C01F000000020000BE89C29351
:102110002801401B00190E30FEF72CEA0B99801C99
:102120000622FEF731F9002822D12801401B0419AC
:102130000E34002F03D0B978039881420AD0B16AD7
:10214000200037F093FD0100B26A089837F0A3FD34
:1021500000280BD02000FEF70EEA1799017216989E
:1021600020730822201D06A9FEF7C6ED11B0F0BDB0
:102170006D1C207BA842CBD80D98417802780802CC
:1021800010430990093005042D0C002F05D1ED1CDA
:1021900003982D042D0C059022E0B878039988420D
:1021A0001ED00C98407A8007E0D519E00A980028E4
:1021B000DCD0B16A200037F068FD07063F0E380119
:1021C000C01B0019B16A0E3037F050FDB26A089991
:1021D00037F061FD0028C9D13900200041F0D4FC5E
:1021E000207B0A90617B8842E0D2201DFEF7C2E985
:1021F000471920000830FEF7BEE98742D6D82000F4
:10220000FEF7B8E90600201DFEF7B4E93618A81E4F
:102210003070000A707037000B9909370622B01C25
:10222000FEF76AED179830720D99099A203138003F
:10223000FEF762ED099805993818002905D00321A9
:1022400001700121417005998170207B0301181AEA
:1022500007190E3739003000FEF79CE90822381DB7
:1022600006A9FEF74AED16986B463873187C78730A
:102270000398B873207B401C2073201DFEF77AE979
:102280004019211DFEF786E970E700007827050058
:102290000349012010B5087000F0EAFC10BD0000F1
:1022A000E80905000020704710B504001248221804
:1022B0000889D38A40180C30002B16D1118B0029C5
:1022C00013D1518B002910D10B4B0100163306227C
:1022D000E018FEF712ED200002F026FE9122920097
:1022E000F021A018FEF72CED03E021001EF0D0FF36
:1022F0000400200010BD0000210200000949022056
:10230000086009490A2008600949084865053CBF7A
:1023100001000000BC21000000020000B656334E50
:1023200008600A49084808600A49094808600B49DA
:102330000948086070470000400605004406050093
:10234000CD19020048060500654C02004C06050048
:102350007938010050060500FD6A020054060500A8
:102360007CB50400FF2206216846FEF7F8EC0E2239
:102370002000694635F00CFF3AF0B0FD0500A17968
:1023800060791EF0C1FF07E0200018F047FBA2793A
:10239000617920001FF036F80400F5D128003AF0EA
:1023A000A2FD7CBDFEB506000F2080013018056837
:1023B000032000022C18206900282CD03AF08EFD52
:1023C0000190207B0127002826D0012820D102205F
:1023D00067612073A06935F04BFA00226320C000CA
:1023E00000922B18B179124A124835F0DDF90198A4
:1023F0003AF079FD3000FFF7B3FF4035287E400703
:1024000006D50121300005F0BFF8300010F03AFD8C
:1024100001983AF068FDFEBD00226320C0000092E2
:102420002B18B179024A034835F0BEF92773EFE75C
:1024300000879303D522000070B50C003AF04EFDE2
:1024400006002106090E01201EF05EFF002817D0AD
:102450000F21890141180968032212028C18227B7E
:102460000025012A0DD0022A07D14031097E4907F3
:1024700001D505F063FB2573656130003AF033FD4B
:1024800070BD2573F9E70000F8B505000F001600D0
:102490001C00180004F008FE012801D10020F8BD3E
:1024A000114B21685A680020914200D0481C2060DE
:1024B0009A68291F002A05D009680C4A090C914224
:1024C00000D0FEE74C23584344220019C56420681D
:1024D0003900584300190665206858430019083030
:1024E000FEF714EC0120F8BD480B0500EFBE00001C
:1024F00030B505000C00080004F00CFE012801D1E5
:10250000002030BD064A216812680020914200D0A8
:10251000481C206080000019856001207272AEB0F6
:1025200001000000B82300000002000042BE8DF34D
:1025300030BD0000480B050070B504000F2080017D
:1025400026183068C11DFF31FA31CA6B4E21095C73
:102550008A4201D3002070BD172149014018202173
:1025600003F000FA11214901000600226518000E4F
:10257000FF28EA8312D0401CE883FF200121353078
:1025800001553068FF30FF30801CC16B491C0129A8
:10259000C16303D14421200010F072FEE88B70BDAE
:1025A00002490148086070475924000018150500C9
:1025B00030B50025039C85710D7885704D78C57008
:1025C0001278027144710978890600D5038030BD04
:1025D000FFB50D21890104004518286A81B00A9FC2
:1025E0001E00002801D000F0B9FF00202862F7206B
:1025F000800025180021200004F0D0FF9C21280035
:10260000FEF7B2EB039A0299330028000097FFF718
:10261000CFFF05B0F0BD000070B50D000D490600FC
:1026200000240322FDF7C4FE002806D00A49032235
:102630003000FDF7BDFE002806D1F078012805D056
:10264000022801D12C000440200070BDEC07E40FEB
:10265000FAE70000D8F90400A4F9040013B56B46AA
:102660001A7819790020140703D50B0701D501202A
:102670001CBD530701D54B07F9D4D30701D0CB07B5
:10268000F5D19207F4D58907F1D41CBD034810B5E4
:10269000FDF784EF002800D0012010BD885E050002
:1026A000F8B504000D0000287ED0002D7CD0FF215D
:1026B000424800222D311AF01BFC002828607CD0F3
:1026C00020000C3000901EF085FE2968060048614D
:1026D00029680220087329681C20088128685A216B
:1026E0007C3041732968B02008812D680020B03506
:1026F0002F000F37F91FFDF762EF0F202871002020
:102700006871E07AA17A00020843010AA8700E28D5
:10271000E9700CD2E07AA17A000208430E21091A6E
:10272000C019FEF702EB0E20A8700020F381DED85E
:1027300001000000B4250000000200005B46538346
:10274000E8704CF087FA002800D0207A2873687B64
:10275000F1214008400008406873E07AA17A020243
:102760000A4300993800FEF7E6EA207B002814D1DE
:10277000607B002811D1A07B00280ED1E07B0028CF
:102780000BD1207C002808D1607C002805D13100C5
:102790000622CE313800FEF7CEEAA07C002816D102
:1027A000E07C002813D1207D002810D1607D002816
:1027B0000DD1A07D00280AD1E07D00E007E00028CF
:1027C00005D1044806220168B81DFEF7B4EAF8BD39
:1027D000C0410004BC0705000F49002810B501D115
:1027E000012010BDCA7B8B7B12021A430AD1002143
:1027F000FF220170193241708270120AC270017199
:10280000417107E04A7B0B7B12021A43921D08318B
:10281000FEF790EA002010BD065E0500FEB5002719
:10282000184E3C000297822060438519E87BA97B03
:102830000002084321D0082229006846FEF77AEA00
:10284000019900987940084317D18220604302A97A
:1028500080190830FFF72EFFE87BA97B00027D235B
:102860000843DB0058430090C1170191082228005B
:102870006946FEF760EA0298FEBD641C012CD2D3C3
:102880000020FEBD065E050010B5064C00200100CC
:10289000822242430B0A1219401C91730128D37300
:1028A000F6D310BD065E050010B504000648FDF71E
:1028B00080EE002806D0FF342134207D002801D08E
:1028C000012010BD002010BD885E05001CB5002849
:1028D000184C04D12100A0738231E07323E0C17849
:1028E0008278090211430A00FF3A193A1FD141794F
:1028F00003790A0201001A432000921D0830FEF7F6
:102900001AEAE07BA17B00027D230843DB005843E9
:102910000090C1170191082220006946FEF70AEADB
:10292000044904488231FDF754EE00201CBD01200B
:102930001CBD0000065E0500F0B50026614AFF924E
:1029400001000000B027000000020000AFAEED3E25
:102950003400354F8BB0FEF718EA09910890082231
:10296000391D6846FEF7F0E9009A0898019B09991D
:10297000801A99410BD30822391D02A8FEF7E4E919
:10298000029A0898039B0999801A99410CE0082241
:10299000391D04A8FEF7D8E904980599089A099BFF
:1029A000C043C943801859417D220023D200FEF75D
:1029B000C8E90D00069082211B486143823808183F
:1029C0000A90C17B827B0802104321D00A99082219
:1029D00004A8FEF7BAE904A807C82B00121A8B4115
:1029E00010D20A99082204A8FEF7AEE904A807C885
:1029F000801AA941039102900A98082202A9FEF7C1
:102A0000A4E905E00A98082208A1FEF79EE901263C
:102A1000641C012CCFD30822381D08A9FEF794E9C5
:102A200030000BB0F0BD0000885E05000000000023
:102A30000000000008B50168836A01290AD100225C
:102A400002600100044A18000092044A044B1C3141
:102A500000F008F808BD0000952800008449000433
:102A6000AC490004FFB583B00C0015001E00C97905
:102A7000A0790C9F00290BD02A00210002F084FECF
:102A8000002811D0A0792A00210004F067FA1DE087
:102A90003200210002F058FE002805D0A079320053
:102AA000210004F017FA11E0A0796B461871062294
:102AB0002100581DFEF748E9E0796B46D872094BB2
:102AC00037211D680398082301AAA847E1790197D7
:102AD0000091A37921890398220011F0C3F907B06E
:102AE000F0BD000088060500FFB583B002AA1E00F5
:102AF00003A8154C0092A46A07C80027A047002825
:102B000002D0029807B0F0BD002416E02001315C2D
:102B100000290FD085190498E91C0622FDF75CFCFA
:102B2000002807D169780398814203D10598A978D4
:102B300001270170641C2406240E04484068844266
:102B4000E4D33800DEE70000D82505006578621779
:102B500001000000AC2900000002000068B7EF632C
:102B600040060500F7B582B01600144B0399DC6AE5
:102B70000298002701ABA047002802D0019805B0B9
:102B8000F0BD002414E014206043315C00290CD017
:102B900085190398291D0622FDF728FC002804D179
:102BA00069780298814200D10127641C2406240E12
:102BB000034800688442E6D33800E0E7D8250500E2
:102BC00040060500002810B50DD0074B074A04E069
:102BD00089008478C9180C60001D01889142F7D1E2
:102BE0008478FF2CF4D110BD00200090FFFF00007E
:102BF00082000448101802681206120E8A4302600E
:102C0000704700000020009006490E20C043087065
:102C100048705931087048700871487108724872DC
:102C2000704700001907050003498000401800683C
:102C30000006000E7047000000200090820004484B
:102C4000101802681206120E0A4302607047000054
:102C500000200090094902780A7002794A7082784F
:102C600059310A7082794A7042780A7142794A7100
:102C7000C2780A72C07948727047000019070500CF
:102C8000014908707047000014070500024A8000DF
:102C9000801801607047000000200090704700001D
:102CA000042008B5FEF786E80028009009D0064AFF
:102CB0000449116005490160054801686846FEF74E
:102CC0007EE808BD4D5E0100F8F40004EF1300003B
:102CD000BC23F403F8B51F480569681C39D01020DF
:102CE000FEF768E80028009033D01B49002402C09A
:102CF000FF220A21FEF75AE824E0E80720D0601EF0
:102D00000D281DD8A0000019083800D500200100AA
:102D10001A314F2903DD4F210E2C00D03520009AA7
:102D2000091A121D41188C4608E04607C108760FA3
:102D30000127535CB740BB43401C53548445F4D82F
:102D40006D08641C002DD8D1044801686846FEF760
:102D500036E8F8BDE809050001140000888DB1923D
:102D600001000000A82B0000000200009C5F51DE63
:102D7000BC23F403F0B5844600260B483500C08917
:102D80000AE04C5D575D7C4003E0E70700D0761C0D
:102D90006410002CF9D16D1C8542F2DB6046C10045
:102DA0001E6005980160F0BD1C1C050070B5040094
:102DB0004D6808000368E968A669082B58D008DC4C
:102DC0009B1CFEF70AE80A65216868684968684F35
:102DD0004068162B5AD010DC092B5CD10C310D0049
:102DE00030001EF0B5FD002854D0E879A979020220
:102DF0000A432B00092130001DE0172B4BD1002086
:102E00002071A1683C311AE003208002FDF7E8EF51
:102E1000300030F06FFE300030F037FF012034F02A
:102E200002FF012019F086FE217D002932D03300F7
:102E3000E28ACE33DFE744F0B5FEA1681831200006
:102E4000FDF7D2EF26E01449300000F0DBFE00224F
:102E5000032130001300EEE72A686968300046F06D
:102E6000B9F917E02A686968300046F0D9FE11E028
:102E70000C310D0030001EF06BFD00280AD0E879FF
:102E8000A97902020A432B000821B4E70120B7E721
:102E90002068E060002070BD0408000070B50600E6
:102EA00010781400E02886B004D120001BF04EF802
:102EB000050000E011250021481EFDF79AEF227958
:102EC000E178A07803AB07C33300627821780191E1
:102ED000FF21029221310E2002A20095FDF78CEF16
:102EE00006B070BD526862626262626200000000F9
:102EF0003EB503F01BFD00282CD100F089FB002813
:102F000028D10C22009218480422062312A108F0AE
:102F1000A3F915480C2200920422001D0A2313A1D4
:102F200008F09AF9144C1548B1222100FDF748EF3A
:102F30001349002213A06B4607C322000A480F4919
:102F4000001F0C2308F0AEFA002803D13EF004FC69
:102F500000203EBD01203EBD434250726F63534D81
:102F6000454D7367510000001809050012371FB066
:102F700001000000A42D00000002000085A78FAE14
:102F8000434250726F634D7367510000A406000006
:102F9000844F0500C9E0010043422050726F630076
:102FA000054810B5006A08F006FB03480C22012111
:102FB0002C3008F00FFA10BDF4080500F8B5002217
:102FC00006000F001048110019F0C4FF040016D0CD
:102FD0002089082105192800FDF7D8EE29003000C6
:102FE000FDF71EEB291D3800FDF71AEB07482200FC
:102FF000806A0421002308F0CBF9002803D02000C8
:1030000019F0E8FF0120F8BDBC430004F4080500F6
:10301000F7B588B015000600406906900998403061
:10302000FDF7EEEA040024340790E078800607D527
:10303000B088103807043F0CB780603F002F02DCD7
:1030400000200BB0F0BD280030300390001F02902C
:1030500060782178000240180004000C0590E079A7
:10306000A17900024018617900024018217900021C
:103070004018049006984422007911484664099942
:10308000FDF780EE42F0CCFE0E49012008600E48AC
:103090002B00056009980C332030007E2100420788
:1030A000520F00923A040798120C00F0FFFE0399A9
:1030B000059808800299049808600120C1E7000083
:1030C000609D00049044000498440004F7B50F008C
:1030D000164E002426E02C2565437068291822200E
:1030E000405CB8421BD100981C310622FDF792F9D2
:1030F000002814D17068029A29182031C9789142A9
:103100000DD1405900280AD02C2060437168401826
:10311000001D11F0CBFB716800204851FEBD641CFE
:103120002406240E30788442D5D3FEBD0415050054
:10313000F7B507001EF0ECFF00283DD02FF030F966
:10314000002839D0380026F047FA002834D08F48BC
:10315000016A8F4E0C07FF25240F2D358C49C03690
:1031600006E00A2028F018FA8848006A0407240FAD
:103170008748C168890708D5B1698900BAE0BB5E94
:1031800001000000A02F000000020000714F311369
:1031900003D5052C03D0062C01D06D1EEBD2FF25E4
:1031A0002D3502E00A2028F001FA7E48C068800729
:1031B0000CD57D48006BC00308D5B069800005D5EB
:1031C000052C01D0062C01D16D1EEBD2774CA06AE4
:1031D00077490840A062606A7649084360628021AE
:1031E0000220FFF749FD012028F0E0F980210220AC
:1031F000FFF71CFD012028F0D9F90199380028F0CB
:10320000D3FE6D48FFF7FCFC0198029905062D0ED0
:103210002A00380019F080F8012019F047F9002F32
:1032200013D10298022807D00298032804D00198ED
:103230000E2801D1614806E032F03EFB012801D1A1
:103240005F4800E05F48FFF7DBFC5F4E029A0198A1
:10325000390039F017F8029A0198390039F0F0F87E
:10326000029A0198390039F0CDF8029A0198390094
:1032700039F074F8606A4F49C943084060620EF043
:103280005DF8019A0299380040F0F2F80DF086FFDF
:10329000012040F0B6F9029A290038002CF056FAC5
:1032A00004000100380040F0ABF9380026F09EF928
:1032B0000100380019F002F9022107200EF014F87D
:1032C00039F01EFD380026F091F9002804D01021B5
:1032D00007200EF009F803E0102107200EF05AF83D
:1032E0002100380040F078F92100380040F08AF9D8
:1032F00039F086FD380026F079F900281FD02A48D9
:10330000006B800317D407200EF03AF880090128DB
:1033100003D17069401C70610AE0022803D1B069D2
:10332000401CB06104E0032802D1F069401CF06148
:103330003069401C3061022107200EF02BF80DF09F
:10334000F9FF224C072021694003002F08D1814357
:103350002161206905214903084320611C4807E0D9
:1033600081432161206903214903084320611948F1
:103370002061380026F032F8380039F055FA01287B
:1033800007D10199380039F0C2FA01992077C012AB
:10339000010000009C310000000200000F5496A3C1
:1033A000380039F0AEFA2069082108432061012075
:1033B000FEBD00000000019000A7008040200080BA
:1033C00000A80080FCFDFFFFC0000080221F050058
:1033D000122505006E24050072240500140705005F
:1033E000C0A2008008A8000008680000F0B5002610
:1033F0000D4F3C68786810E08300DB199B681D89DD
:10340000EB181D786D076D0F954201D1603319736C
:1034100033001C2800D0431C180033001C2C00D0A3
:10342000631C8342E8D1F0BD9427050038B5050040
:10343000134B0C001B686A469847002801D000987F
:1034400038BD104900200A6807E014234343EB5CB1
:10345000002B0BD1401C0006000E9042F5D34968AA
:10346000002008E00201A25C002A01D0012038BD42
:10347000401C0006000E8842F4D3002038BD000036
:10348000D82505004006050070B5040085680020B9
:1034900086B0002D0590049016D0174E04AA009215
:1034A000F0893269290005ABFFF782FC13490598C2
:1034B000CA6B1218CA63F3898A6BD21800288A6310
:1034C00004D1086A401C086206B070BD307900283B
:1034D000FAD0FF2801D0401E3071A088402203920C
:1034E0000022019000920021FF20022304A20295F5
:1034F000FDF7A0ECE8E700001C1C05006C9C050033
:103500006262686D00000000F1B5002486B02600FC
:10351000250005A832F0E2F9012849D16B46587D13
:10352000C10601D4800643D56B46187D0007000F05
:1035300001283DD11F4F0190387802A932F0E6F9F9
:103540003978012934D0069A0B201056002903D16E
:103550006B46997D0D072D0F174F7968884206DA63
:10356000B968884208DDF868012601280FD10124D6
:10357000FDF764EC38610AE0FDF760EC396902F0B0
:10358000C9FB0E49884202D8F868012810D0F868B3
:10359000A0420DD0002E0BD1FC606B460083482664
:1035A000010000009833000000020000FBBC281E50
:1035B000187D01990207120F00922B00220002A829
:1035C00025F0DCFF07B0F0BD1406050080400004C4
:1035D000404B4C0007484178002909D10649096849
:1035E000012209054270490F02001C32515C8170B2
:1035F00080787047F89400C000200080002810B543
:1036000005D0002181730121017319F001FD10BD66
:1036100010B504000068002810D06A30FDF70EE8ED
:10362000002806D0FFF7EAFF216800206A31FDF785
:1036300016E82068FFF7E2FF0020206010BD0000C0
:1036400006480022702110B519F0A2FC002803D012
:10365000012181730221017310BD0000B0440004F8
:103660000B4808B502680C4900920800094A0B4B48
:1036700020382EF03DFD002801D0012008BD094969
:103680000748086008004AF02FF9002008BD000034
:10369000480A0500AC9D0004D0440004008B02C021
:1036A00011320100E09400C070B50500054C02E045
:1036B0002169406C884728000CF064F80028F7D195
:1036C00070BD0000480B050070B50500054C02E018
:1036D000E2680021904728000CF06CF80028F7D130
:1036E00070BD0000480B0500FFB585B004001E004A
:1036F0000E9D0698134F009504903F68079A06990F
:103700002000B847002814D12000002D039402D1D6
:10371000A1794D076D0F21005131022D0BD11022DF
:1037200002920191079B012204A903A8009607F0C9
:1037300017FB09B0F0BD0091079A0699330007F016
:103740009BFAF6E7CC260500FEB501220024120301
:103750000188914202D13C490E240CE0012252031F
:10376000914202D13949072405E00122D202914257
:1037700002D137491C2401800088364FB030388090
:1037800002E0012007F043FF334819F061FC050017
:103790003148082119F083FC06002F48102119F048
:1037A0007EFC30188542ECD12C4819F0F6A6DDF5E8
:1037B000010000009435000000020000E244F66EB3
:1037C00051FC05002A48082119F073FC060028481E
:1037D000102119F06EFC30188542DCD1254819F013
:1037E00041FC05002348082119F063FC060021482C
:1037F000102119F05EFC30188542CCD11E4D0022FC
:103800002868412131F006FA11F07EF91B4917486A
:1038100000F006FB1A48398801831C2C847601D1FC
:103820001C2205E00120032C00D960080206120EBC
:103830000421002048F098F81248114902680092CB
:10384000114A0A48114B2EF05DFC042001902868B3
:10385000422101AA31F0DEF9FEBD0000880E000011
:10386000101D000044070000F60805000C4100048C
:10387000C0410004444300044005050021B000009D
:103880002C410004480A0500204F0004001E01C01E
:10389000F0B589B06B46826841680892079141890A
:1038A000198381895983407B594E0028059002D1A4
:1038B0000121B17002E00021B1707170717C554F2F
:1038C00000294CD1002801D002280AD152480078A2
:1038D000012806D1B969F07B097B401A317C884206
:1038E0003DD04E480478002C01D144782AE00025D0
:1038F00021E04B4AE00081188B79002B04D006228E
:1039000007A8FCF7AFFD12E06B461B7E105C43403E
:10391000C87803420DD16B46587E4A7850400A79E8
:10392000104206D1987E8A78497950400840002894
:1039300004D0002D02D1641EDBD510E03849E00030
:103940004018C479022C46D0032C44D06B46197D14
:10395000BC6B002207A804ABA047002806D17B6BF4
:1039600000220D2107A8984709B0F0BD6B461A7DCB
:10397000032106A801AC07C40622009208210420F6
:1039800028A207ABFDF76AEA00281DD06B46187D18
:10399000002801D0022802D1307C401C30746B46D4
:1039A000187C06235843F9690622401807A9FDF739
:1039B00012EA386A1C4900898300181858AEACB264
:1039C00001000000903700000002000016AC48D350
:1039D0006B461A7CC008FDF754EACFE7FC6B03AADC
:1039E00005A907A804ABA047C3E76B46197DBD6BCB
:1039F000012207A804ABA8470028BAD0022C01D1A5
:103A0000012200E000227B6B002107A898476B464B
:103A1000187D002801D00228B0D1307C401C3074C1
:103A2000ACE70000A0F40004BC13050062F8000439
:103A300090970500909605006D6D6200E3130000FD
:103A4000FFB585B015000E0000220E9F13006946D9
:103A50000CC1AC1C6A80A978F32289088900114046
:103A60000831A970727BD20709D0002F03D0090753
:103A7000090FC0310BE00907090F403107E0002FA3
:103A800003D00907090F803101E00907090F2170F0
:103A9000F179B27909021143EA2904D1717B082234
:103AA0001143717305E0E92903D1617820221143A4
:103AB000617001792A000C320492921DCE30EF27FA
:103AC0000029039202901AD0012947D002293DD142
:103AD00008990622A81DFDF788E902990498062294
:103AE000FDF782E9089903980622891DFDF77CE914
:103AF00060780221400840000843384025E00299E0
:103B00000622A81DFDF770E91E48062201680498E8
:103B1000FDF76AE9F079B17900020843E62802D19D
:103B20000299062201E0089906220398FDF75CE954
:103B3000607801210843FD2108401349607009683D
:103B40003840497CC907C90E084360702800062226
:103B50001A306946FDF748E909B0F0BD0899062218
:103B6000A81DFDF742E90748062201680498FDF701
:103B70003CE9029903980622FDF736E9607840088F
:103B80004000D8E7BC070500C0070500312818D061
:103B900009DC11280DD012280FD021280BD02228A3
:103BA00007D10520704732280DD0332807D0772859
:103BB000F8D00020704704207047012070470A2089
:103BC00070470820704709207047002873B84BA938
:103BD000010000008C39000000020000D1B54A8EBF
:103BE00001DD002004E06521C943884200DA0800B5
:103BF0004042000600167047002801DD002004E066
:103C00006421C943884200DA0800404200060016D9
:103C10007047662801DD662002E0002800DA0020F7
:103C20000006001670470000F8B5150006000800F1
:103C30002EF008FD002825D039F0C8F907001248F9
:103C4000FDF7F0E8040015D010490122088892031E
:103C5000C004C00C80182071000A60710888401CE4
:103C600008802868A11DFCF718ED074821001438CA
:103C7000FDF714E9380039F0AEF9FF21491C300096
:103C8000FFF7D8F9F8BD00005C9405007C1305002F
:103C9000002210B520F020FB10BD0000084810B530
:103CA00001684908490001600648416818229143AB
:103CB000416005210448C901FDF7A4E810BD0000DA
:103CC00080AF008040A50080989D02C010B50DF027
:103CD00067FB05480DF082FA0DF05EFB0248001DFF
:103CE000FEF7C0FF10BD0000689700C010B5FFF7D9
:103CF000EDFFFFF7D3FF10BD044B10B51870DA626B
:103D0000D96100F005F800F02BF810BD489700C00D
:103D10000D48002101600D4A82600A22C2604161A3
:103D2000052181610A490A78022A03D140224A709A
:103D3000084902E020224A700749016007494868A3
:103D4000182210434860704780AF0080989D02C0E1
:103D5000489700C0011000000118000040A5008035
:103D6000184870B5012400782500022803D00225E8
:103D7000032800D0002537F0F9FC022802D00328E0
:103D800000D000241048FEF76DFF012C03D10E482F
:103D9000BC30FEF767FF0C48ED00CC302818A400BB
:103DA0000059FEF75FFF0DF0FBFA07480C380DF0E5
:103DB00015FA0548E430281800590DF00FFA0DF0F7
:103DC000EBFA70BD489700C04C9800C070B5002554
:103DD0000F4C104E6068401C60603068B71564CCB2
:103DE00001000000883B000000020000255DF43364
:103DF000A16A401AE169884202D937F0CDFB05007B
:103E00000A49086840084000086008680122104319
:103E100008603068A062E16A002901D02800884764
:103E2000280070BD489700C000A6008080AF0080C9
:103E3000002910B50FD0CC1DF9342269824208D177
:103E4000E031087F022804D1034960690E222FF077
:103E500013FC0020206110BD5F05050010B5C0698E
:103E600040698847002800D0012010BD03494868F8
:103E700001229202904348607047000000A0009029
:103E800070B500248300CC50074D210008E04B00A2
:103E90009E187678864200D1D454491C0906090E32
:103EA0002B689942F3D370BD40060500F0B500229F
:103EB00012250B4E2423534300219F198B00FB181E
:103EC0005C78844200D15D70491C0906090E0929FD
:103ED000F4D3521C1206120E032AEBD3F0BD0000DD
:103EE000800E0500124870B50468124EA10706D571
:103EF00000210161B26D0120904702208443200619
:103F0000000F03D0E02084431020044300250AE082
:103F1000E00706D0A8003258002A02D0210028006D
:103F2000904764086D1C002CF2D1002070BD000089
:103F300000280080D4470004FFB589B003AA05001B
:103F400000200490012003901299414C01920091AD
:103F500024681F003D4E0B9A0A992800A0470028AC
:103F600002D003980DB0F0BD3A48002101603A48F4
:103F7000390011F010FE0B9881210004C90041188E
:103F8000354808384160B0698047A8780107890F33
:103F9000022908D10009082805D170680406129882
:103FA000240E049002E030680406240EE878C1076D
:103FB00004D0800702D5A41D2406240E2B0039004E
:103FC00077690B9A0A98B847B068129B0206120EDE
:103FD00000920B9A290005A805F02BFA1E4805A9A6
:103FE000383011F0D8FD2200290005A818584740A4
:103FF00001000000843D0000000200003CA52A43AF
:1040000005F0E4F9194805A9483011F0CEFD049AED
:10401000290005A805F0FAF9144805A9583011F04F
:10402000C4FDB068129A03061B0E290005A805F00E
:10403000ABF90E4805A9203011F0B7FD0A990B48DD
:104040000831083881630A99C163074A116801235E
:10405000DB031943116001680122114301608AE703
:104060002C0B05006027050000B1009008A000900F
:10407000FFB587B0140002AA050010993C4E0091CC
:10408000019276680A9B08992200B047002802D066
:1040900002980BB0F0BD3749002008603648210077
:1040A00011F083FD0898012100048902411832486B
:1040B00008384160314FB8698047A8780107890FF7
:1040C000022907D10009082804D17868109E040647
:1040D000240E03E038680406240E0026E878C107A1
:1040E00004D0800702D5A41D2406240E00220092CD
:1040F000109B089A290003A805F0A5F91E4803A9FA
:10410000383011F052FD2200290003A805F05EF9B5
:10411000194803A9483011F048FD3200290003A8CE
:1041200005F074F9144803A9583011F03EFD109AB7
:104130002900002303A805F027F90F4803A9203020
:1041400011F033FD0C480A99083881633A69F9681F
:10415000891849192031C163064A11680123DB031C
:10416000194311600168012211430160002090E7AA
:104170006027050000B1009008A000902C0B0500FE
:10418000F7B582B014000700006800900190039812
:1041900000254030FCF784EA06000198F178406978
:1041A000490605D4C030007B400726D4012524E011
:1041B000002C02D1002005B0F0BDA07AC0071CD0B1
:1041C000E079012805D103992200684610F028F90A
:1041D00005E0039922000423684600F01FFB050058
:1041E00000983860B079C00707D1012D05D1A079BA
:1041F000800702D520002FF0A3FA280018A3181971
:1042000001000000803F000000020000C84D94FE45
:10421000DBE700007FB582B004001D001F480A9E46
:10422000046041F057FE1E4901200860E0784021FB
:104230000843E070288F2084200000212030817006
:10424000B1012031C170686B606238F0DDFE06009C
:104250006B46187C23004207520F00926078227848
:10426000010211432A0028330C322000FFF70AFF15
:10427000607821780002084310302070000A6070D6
:10428000300038F0C6FE288F401C0004000C288740
:1042900002D1686B401C686306B070BD9444000492
:1042A0008C440004F0B50500080085B0140001211D
:1042B00003911F0021000C321C316B4607C32900FB
:1042C0002031238F626B0E00280001F03BFFF07855
:1042D000B9010843F070208F401C0004000C2087B7
:1042E00002D1606B401C6063687829780002084343
:1042F0000C302870000A6870039805B0F0BD00000B
:10430000FFB581B004001E001B48046041F0E2FDCF
:104310001A4901200860E07840210843E070A07845
:10432000002201071500890F022903D1000908287E
:1043300000D10125307BA11C887730000C30CA7772
:104340002031070048F056FE38F05EFE0600009768
:104350006078217803020B431F006B46187B3B00FB
:104360004107490F2200280048F0B8FC300038F01F
:1043700050FE05B0F0BD0000944400048C440004DD
:10438000F7B5012188B01500079108218C4604215A
:104390008E46184B00214032127A1C686B46260C60
:1043A0001E73260A5E739C7313019B1A5E19737B3E
:1043B000002B02D01027012100E008270023FF1E58
:1043C00007E0F41803ADED185B1CA47B1B061B0E65
:1043D000EC70BB42F5DB00910999019262468A1AA2
:1043E000714641182031203003AB01F0E7FF0798F8
:1043F0000BB0F0BD00A6008010B5D37904000020FA
:10440000022B03D12068FEF75DFE10BD49D9129D35
:10441000010000007C410000000200002D1AC9F9D3
:10442000032BFCD1206810F0B7FF10BD08B501893F
:1044300009180B6F4069DA79022A19D10279022A28
:104440000ED10A6E9279D2070AD00F2292018018FB
:1044500000680D229201801840880206120E00E0CA
:10446000002200920A68086E0021FFF7DDFE06E0D8
:10447000032A04D10A68086E0021FFF74BFF0020D1
:1044800008BD0000FFB58DB0040006AA02AF179E5C
:10449000169D199918980196009507C70EA96C4F9B
:1044A0000EC92000FF69B847002802D0069811B055
:1044B000F0BD60690790208900190890417E027E56
:1044C0000802104300090B900898007E0007000FB7
:1044D0000A9008984178027808021043683800046E
:1044E000000C09900A98002832D1286800280CD1C5
:1044F000584F02E00120FCF7FEEC5749386A0022D1
:1045000018F08CFD00282860F4D052492868096909
:10451000884730000EF02EFE2868306001894D4B30
:104520004718380024307060DB6820220899380072
:104530009847099860303870000A787047480068DA
:104540004449C9694018B0602968606948611AE047
:104550003068002802D00189471806D13D4B618997
:104560009B68E0880322984741E0B07C0A99401C90
:1045700088423ED178783A780102099811430818A8
:104580003870000A78700F990091099A089901977C
:1045900070680E9B121D283101F0A6FE00282ED156
:1045A000109819998000401834300C90FCF78CE872
:1045B0000C99401CFCF798E80E99189A009101920A
:1045C0000F9B109A079839000FF0FAFC214F0798BB
:1045D00079698847BB686189E08803229847286821
:1045E00018F05CFD30000EF0C5FD002028600020B2
:1045F0005DE7184B6189E0889B680322EEE7189914
:1046000038000EF0FDFD134920008969884708989D
:10461000C078400712D478783978000288096F068C
:10462000010000007843000000020000D9F2774446
:10463000084329680C4B88809B686189E0880322C5
:10464000984730000EF0A0FD28680021296038E767
:104650000B98308271680998081870600A98B074D5
:1046600086E7000068260500840605002C06000089
:1046700000A60080FFB589B00400160003AA1299B5
:10468000724F01920091BF691D000A993200B8472C
:10469000002802D003980DB0F0BD0A98417E027E3A
:1046A00008021043000908900A98007E0007000FD6
:1046B00007900BD10A98C078400707D40A98417830
:1046C000027808021043A0802000E4E7A088202898
:1046D00003D920380004000C00E000200490129858
:1046E00000780128079808D1002808D0584B618924
:1046F0009B68E0880322984756E0002834D112993D
:1047000000200870306800280DD1514F02E00120D0
:10471000FCF7FAEB7D21386A0022090118F088FCC9
:1047200000283060F3D04A490020059009693068BC
:10473000884728000EF028FD306828600189444B26
:104740004718380020306860DB6820220A9938005A
:104750009847404800683E49C9694018A8603168D8
:1047600060694861059834E0288A089988420AD12E
:1047700028680622018941180A980C310C30FBF791
:10478000B7FE002812D0306818F092FC304B6189D7
:104790009B68E0880322984728000EF0F5FC1298E9
:1047A0000121017000203060002074E72868018931
:1047B0004718A87C0799401C8842E4D1787839785A
:1047C00000020843049940183870000A78700420E9
:1047D00005900421091A0498081806900CD0059930
:1047E0000A981B4B4118DB686868069A2031984785
:1047F00068680699401868600A98C078400720D415
:10480000049800280AD17878397800020843A188F2
:104810002022511A401A3870000A78707878397856
:104820000002084331680A4B88809B68D55ED753E5
:10483000010000007445000000020000C00AA93415
:104840006189E0880322984728000EF0A7FC3068B1
:104850000021316029E7089828820798A8744FE75B
:10486000682605008406050000A60080FFB5080044
:104870008DB01E0017000D990D6800210691696921
:10488000002A059112D040300C90FBF732EF040063
:104890008119C0782031400602D4A88811B0F0BD3B
:1048A0006078227800021043682801D80020F5E7DC
:1048B000080009786B46197741785977817899779C
:1048C000C1788E093101891BCF19797B002903D06A
:1048D00010220121069100E008220021D21E9446F8
:1048E00005E07A1807AB5B18927B491CDA706145CA
:1048F000F7D3E178490702D4217E090721D02E4A57
:104900002E492F4801AB07C333002E4A0092069A66
:10491000280007A9FFF7CAFD040003D10D98002164
:104920000160C3E70D98046020890C990019FBF71A
:10493000F0EE4178027808021043A08001200B902D
:1049400037E0069901940091617823780A021A43AE
:10495000643A011D07AB01F0DBFC00280B900FD07F
:10496000164920000EF060FC6078217800020843B0
:1049700008382070000A6070A8880838A88018E0FD
:104980000D48B1000C1834342000FBF7B2EE401C87
:104990002100FBF7BEEE0C98FBF7AAEE3900074AA0
:1049A0000E31019200910100069B059832000FF034
:1049B0001BFB0B9872E70000F04A00048CD805003E
:1049C00078D80500F49400C0F8B5060036F040F938
:1049D0000027FF43002803D143F0B4FF00282CD068
:1049E00032899019417903790906091419430C1881
:1049F0000E32881805062D0E300036F058F90028C2
:104A000007D1617D227D0802083510432D062D0E49
:104A100003E0607B217B00020843094988420CD1F6
:104A20002200A11D300035810BF073FE002804D058
:104A300030000EF071FB0020F8BD3800CA38D17884
:104A400001000000704700000002000034E21789F6
:104A5000F8BD0000888E00000348816801225205DD
:104A600011438160704700000028008030B50022AB
:104A70004368002B0DD1CA6001604160496800297C
:104A800003D0017A491C017230BD417A491C417240
:104A900030BD4B68002B04D1CA604268D1604160D0
:104AA000F3E70024057A0268230002E01400D268CC
:104AB0005B1C9D42FADC002CCA6001D10160E0E77A
:104AC000002AE160DDD14160DBE700000248806838
:104AD0000006000E704700002C09050003484168DD
:104AE00001229202114341607047000000A0009033
:104AF000F7B588B00600314B09999D68140003ABE7
:104B0000A847002802D003980BB0F0BD002E53D068
:104B10000998002850D0002C4ED020783500340061
:104B200001077135603400292EDA25480022FF2163
:104B30000068D243913118F08FFA018906000F18EE
:104B40000999102204A8FCF7A0E90021019700911F
:104B5000207CE17B00020843C2082B00022104A84C
:104B600003F0A6FD207CE17B00020843083002042C
:104B7000120C100AE273207439002800FCF784E953
:104B8000300018F0A9FA15E0400715D530003F3085
:104B90001021060043F05AFE207CE37B0102FF2235
:104BA0001943521C0192009109982B0010223100E8
:104BB0000CF000FB0120A7E70020A5E76C2705000B
:104BC000680B0500FEB505000C0000784006400E9D
:104BD00002900020019000908020FCF7AEE9314E59
:104BE0000700336928006A4601A99847A868019917
:104BF00040180190E8680099401800903800FCF7D0
:104C00009CE97068002805D0B16800980860F168D8
:104C1000019808600199002942D000986423584304
:104C2000FCF74EE9206002980022FF21FCF788E99A
:104C30000199884205D802980022FF21FCF784E9F7
:104C400027E002980022FF21FCF782E934587F0315
:104C5000010000006C49000000020000F3FB15D4C5
:104C60000199884205D802980022FF21FCF77EE9CD
:104C70000CE002980022FF21FCF77CE901998842B0
:104C800008D802980022FF21FCF778E921688842C1
:104C900010D80BE02869316888420BD302980022B3
:104CA000FF21FCF76CE92168884201D80020FEBD95
:104CB0000120FEBD0220FEBD2415050001004A6949
:104CC000C96980688A4201D9511A08187047017071
:104CD000002141608160C160016141618161C16108
:104CE000704701697D22D200914201D20A310161EF
:104CF000704710B503785B065B0E0E2B0AD3C469B0
:104D00004369A34206D91B1B0B608069834201D90A
:104D1000181A106010BD70B502780B7E5406D509C4
:104D20004268640ED21842600A19203252784E7DD1
:104D3000ED011300A64205D1897E002902D05B1E39
:104D40001B061B0E002D03D0012A01D901221300DE
:104D5000C168C918C160816889188160100070BD80
:104D6000F0B50600002713B43B000D4C019922005A
:104D7000FBF764EB2200FCF706E90D000199002225
:104D800004003B00921B8B4103DA2000290003B092
:104D9000F0BD0022D2432900A0185141F7E70000DE
:104DA00000CA9A3BF0B5002613B482B0154F0298A2
:104DB0000399C019714100910190FFF7D1FF0400E0
:104DC0000D0003990298FFF7CBFF001969410522F6
:104DD000FCF7D8E804000D00039902980A22FCF7BA
:104DE000D2E8001BA94102DA0399029801E0009978
:104DF0000198FFF7B5FF33003A00FBF720EB05B051
:104E0000F0BD000000CA9A3B10B504008EB06846A1
:104E100000F006F8200069462DF07AFF0EB010BDB4
:104E2000FFB581B004000D001E002D4F039A7F686E
:104E3000B847002851D138212000FCF734E8039806
:104E4000002801D0022000E001200421102D0BD108
:104E500002222270002208436270A07061B003E752
:104E600001000000684B0000000200000713AB695E
:104E7000000A2A003100E070A01D33E00127202D38
:104E800018D13A0A277008436270A070000AE070D7
:104E900010223100A01DFCF70CE831002000082290
:104EA00018311630FCF704E83100082210312000D8
:104EB0001E3017E00D2D01D0052D18D100222270D3
:104EC00008436270A070000AE0700398002802D0C6
:104ED000A271E77102E0F08CA071E27120002A005B
:104EE00031000830FBF7E4EF280A2571607105B046
:104EF000F0BD0000CC260500F7B582B00E00134BC4
:104F000002989C68150001ABA047002803D06B46AF
:104F1000187905B0F0BD0E4F002411E02001295C86
:104F200001290AD140194178B14206D10299C01C29
:104F30000622FBF705FB002805D0641C2406240E7E
:104F400078688442EAD32000E3E70000D825050012
:104F50004006050010B504000020E20702D008005A
:104F60000CF092FD0C490978012914D1210701D5D3
:104F700000F014F8610601D50CF034FD210601D5CE
:104F80000CF044FDE10501D500F05EF86107890FE2
:104F900001D00CF04DFD10BDA8F90004244870B5F7
:104FA00086B00078002802D0002006B070BD214DE8
:104FB00000242868002802D018F0A2F82C601E4EA9
:104FC0003068002802D018F09BF8346000221B489B
:104FD000D243002118F054F82860194902890A8147
:104FE000F02253004A8102228B810A804C80018981
:104FF000144D0818019200930290E8682C216A462B
:105000002FF076FE01206B461873587308209C73AE
:1050100098745C74DC731C741C75E868252103AA01
:105020002FF066FEE868262103AA2FF061FEBBE799
:10503000CCF90004B8F90004BCF900047C1100C0EC
:10504000783303C0A03003C00022FF2170B5D243E3
:105050001D48491C18F014F81C4C1D4E0025002852
:1050600020602ED0202101810321C1808878B426C0
:1050700001000000644D0000000200001EEB7519E5
:105080002030C17021687089888027200881F089CC
:10509000022801D1002200E07289708988801248BC
:1050A0000823C068FBF786EF2068242101810F499F
:1050B00024300A790270497903230907090F4170E6
:1050C000216889888170216809488A880068D21C13
:1050D000FBF710EF25600020F58170BD081100C0BE
:1050E000BCF90004783303C0A03003C05C3003C0B7
:1050F000F00905009121890041180079012801D0AB
:10510000022809D100224A608A600A60C03188689A
:10511000002801D002608A607047F3B583B0002494
:105120000498039E05062D1611E00298874207D2C7
:105130003000FBF706EB02000299380004F0C8FAD1
:10514000641C240624160C21614303980E183000B9
:105150000830FBF7F6EA0700301DFBF7F2EA87425A
:1051600002901AD804988442DFDD16E00C216943CE
:1051700003980E183000FBF7E4EA0700301DFBF738
:10518000E0EA019030000830FBF7DAEA01993A00D2
:105190000EF0AEF86D1E2D062D16AC42E6DD05B004
:1051A000F0BD00000349884201D100207047012072
:1051B00070470000381901C08A4208D2D108081887
:1051C0005107490F012302788B409A4302707047C0
:1051D000F7B582B02423070004981F4958434618A6
:1051E00037F058FF01901D480569049A2805C40D41
:1051F0000399380004F09EF90127194BFF071EE0C0
:105200007069E10040184268002111601955316948
:10521000491EA14209D1F168090139430160280002
:1052200001252D038543002409E0B16808350901F3
:105230003943ED04641CED0C2404240C0160185D5A
:105240000028DDD128040499000CFBF7B8EE019882
:1052500037F025FF05B0F0BD00A000C080A300809E
:10526000B0A100C073B52CF0B9FB04001BD020899D
:105270000519280039F0B4FE4D2028731DC033B93C
:1052800001000000604F000000020000EA03CBA410
:105290000020687328000422103001A9FBF71CEEDF
:1052A0000420A8720020E872019821002CF04EFD25
:1052B000002802D1200017F037FF7CBD70B5050033
:1052C0000F208001281806681F2040012818583632
:1052D0000129817003D1280000F076F904E0022949
:1052E00005D1280000F00CFA716F040008E00329D2
:1052F00001D0042909D1280000F068F8B16F04003A
:10530000280002F01BFD200070BD012070BD0000D0
:105310000F218901401810B50068872189004018C5
:1053200004490A680100FF31FF302931401C00F0B8
:1053300003F810BDBC07050070B504000D00160091
:10534000A4B014221CA115A8FBF7CEED002C30D080
:10535000002D2ED0062231001AA8FBF7BEED202129
:10536000280043F09BFA1BA820222900801CFBF791
:10537000B4ED202105A843F091FA15A8FBF72CEE17
:105380000300202226200DA901AD07C51AAA00920C
:10539000202115AA05A804F0E5FA0DA82EC82EC4F0
:1053A000103C12991198E161A06114991398616100
:1053B000206124B070BD000047726F7570206B656E
:1053C0007920657870616E73696F6E00F0B50400C6
:1053D00089B00AF021FC070002D1012009B0F0BD1C
:1053E0003889C0190590417900790902014305986F
:1053F0000E18F7208000251832000F20133280018C
:1054000020180692046828002CF0A0FEE86802909C
:10541000A8680390D120800022180092A87821006B
:105420008006C00FC20358318032300002AB0891B1
:105430000AF062FA069ACF2150780D2208409201B4
:10544000A1184A889207920E1043069A50703000B5
:105450000A884030C27309880422090A0174CF20E7
:105460008000211830005130FBF736ED30007130EC
:105470000490A8782B49020701D4C20630D50498BD
:1054800010226118FBF728ED04981030BA47CEBC03
:10549000010000005C5100000002000094186C1430
:1054A0000490300060300790017CC27B09021143F8
:1054B0001031C173090A01745820005D400720D5DE
:1054C000CD208000211804980822FBF710ED0498E5
:1054D000CB218900083008226118FBF708ED0798F6
:1054E000017CC27B0802079910431030C873000A80
:1054F000087406E0800604D5089A6118300039F077
:10550000EFFC29002A1D64313000FFF723FB307DBA
:1055100029004207520F5431300002F021FB059957
:105520001230020A8870CA70B8800F21380035F036
:10553000CFFB00205CE700001C030000F3B583B044
:10554000002201890918029146692148110017F0CB
:10555000B5FD040002D1012005B0F0BD35F0A4FB7B
:105560000004000C2081082705190F21280027734B
:10557000FBF7C0EC49F0BEF928730F20287100201A
:105580006871380AAF71E871B0686061B0796870AD
:10559000002200920F4A2E000F3602993000931D10
:1055A00002F018FB049900224031300002F0D8FAD2
:1055B0001230A870000AE870607B01210843607314
:1055C0000548A0610F21200035F082FB0020C3E7D1
:1055D000444300045F05050075330300F0B5050082
:1055E00085B00AF023FB040002D1012005B0F0BD14
:1055F0002089061970793179000208438719F7204C
:1056000080002D1828002CF0ABFDE8680190A868F8
:105610000290280014302021039043F049F9039AA6
:1056200000920122D202291D380001AB0AF06EF966
:1056300038006030017CC27B080210435F300504F3
:105640002D0C380029000E3023F0E8FA1235280A14
:10565000B570F0700F212000A58035F039FB0020D7
:10566000C4E70000FFB583B0002201890918029148
:1056700046692648110017F021FD050002D10120DE
:1056800007B0F0BD35F010FB0004000C288108279E
:1056900044190F2120002F73FBF72CEC5F2633B346
:1056A00001000000585300000002000060F0D2A981
:1056B00049F02AF920730F20207100206071380A08
:1056C000A771E071B0686861B0796070049A009267
:1056D000144A26000F3602993000931D02F084FA16
:1056E000B07C01280CD00F4A3000921D911F713000
:1056F00000232DF0B3FE31006031C873000A087436
:10570000069A0599300002F035FA1230A070000AAE
:10571000E0700F21280035F0E5FA0020BAE700001C
:10572000444300045F050500F0B585B007000AF0AA
:1057300087FA060002D1012005B0F0BD308980193A
:105740000390417900790902014303980D18F7206D
:1057500080003C180F2080013818076820002CF0CA
:1057600009FDE0680190A0682200143200920290C6
:10577000A07811218006C00FC003C9014218211D65
:10578000280001AB0AF0CCF8A0782849020701D420
:10579000C2060CD57A18506A00282ED0407829000D
:1057A000801C6031030AC8730B74516A0DE08006D7
:1057B00027D57A18906A00281FD040782900801CCD
:1057C0006031030AC8730B74916A020028007130BB
:1057D000FBF796EBA078800613D5C72080003A002F
:1057E00039185832280039F085FB2100221D643118
:1057F0002800FFF7B9F9002803D1300017F0A8FC02
:1058000099E7287D21004207520F5431280002F009
:10581000B1F903991230020A8870CA70B0800F2162
:10582000300035F05FFA002086E7000040030000FA
:10583000F7B582B00022060000891100801901909E
:105840002B48776917F044FC040002D1012005B011
:10585000F0BD35F033FA0004000C20810821051951
:1058600021730F212800FBF750EB49F04DF8287306
:105870000F202871002068710820A8710020E871AD
:10588000B8686061B879687000220092194A2F00E8
:105890000F3701993800931D02F0A6F903990022F1
:1058A0004031380002F066F91230A87037417C6749
:1058B00001000000545500000002000079080CD9D6
:1058C000000AE8700398406F00280BD0607B01212C
:1058D000084360730498002801D00C4800E00C488D
:1058E000A06109E00498002803D030002DF012FFD9
:1058F00002E030002DF018FF0F21200035F0FCF9F8
:105900000020AEE7444300045F050500A93303000F
:10591000BD330300F8B505000E000C4B14009F6961
:105920006B46B847002801D00098F8BD2200290036
:105930003000FFF713FB06494968884203D2000193
:105940000019C068F8BD0020C043F8BDD825050087
:1059500040060500F7B582B00700174B03995C6954
:10596000150001ABA047002802D0019805B0F0BD9A
:10597000124E002412E014206043295C01290AD150
:1059800041194878B84206D10398091D0622FAF752
:1059900009FE002805D0641C2406240E30688442C9
:1059A000E9D33068844202D10020C043DEE71420EE
:1059B00060434019C068D9E7D825050040060500B6
:1059C000FF30413010B5806900F001F810BD10B50E
:1059D00004000B000020D10509D42100180035F087
:1059E00019FE0006000EFBF71AEB0004000C10BDB8
:1059F00010B536F00DF8FBF712EB10BD014800882A
:105A000070470000201F050010B507220A70002211
:105A10000C004A70891C2EF0C3FF002806D0811E9E
:105A2000A170090A801C0006000EE17010BD38B597
:105A30001400049AFF30009241308069220000F087
:105A400001F838BDFFB581B000240E0015000A9F93
:105A5000D10505D42A003100FFF7B9FF4004040C3A
:105A6000049A3B0029003000FBF7DCEA001900042F
:105A7000000C05B0F0BD38B51400049A0092220065
:105A800000F001F838BDFFB581B006001D000A9F87
:105A9000FFF7AEFF0400039A02992B003000009735
:105AA000FBF7C4EA00190004000C05B0F0BD0000CB
:105AB00024235843114930B54018C16977F6CEE325
:105AC0000100000050570000000200008DE0B264A9
:105AD00005690B05DC0D01236D1E1B03A54213D0C8
