:100000000100000000000000000400000094511AEC
:100010001CF09FE51CF09FE51CF09FE51CF09FE5A0
:100020001CF09FE51CF09FE51CF09FE51CF09FE590
:1000300009420E5C0C35050090340500943405002F
:10004000EC340500F0340500F4340500F834050004
:1000500005350500000000EAE54B01EA28008FE2C3
:10006000000C90E800A08AE000B08BE001704AE24A
:100070000B005AE1DE4B010A0F00BAE814E04FE230
:10008000010013E303F0471013FF2FE1C8500500F0
:100090009851050001C08FE21CFF2FE18A180378F8
:1000A00001309C07A40F01D1047801301D1101D14A
:1000B00005780130013C05D0067801300E70013121
:1000C000013CF9D1002D11D004781B0701309B0FA2
:1000D0000C1B032B01D1037801301B02E41A6B1CAB
:1000E000267801340E700131013BF9D59142D6D307
:1000F00070470000102052E27800B0287800A12854
:10010000FBFFFF8A822EB0E13000B0283000A1282A
:1001100000409045004081451EFF2FE10030A0E3E4
:100120000040A0E30050A0E30060A0E3102052E2F2
:100130007800A128FCFFFF8A822EB0E13000A128C0
:10014000003081451EFF2FE104309FE503308FE032
:1001500013FF2FE129320500F8B5050001F0B7FCC7
:100160000027FF43002804D1686902F0BAF800288C
:100170002DD02A89501941790379090609141943A8
:100180000C180E3288180606360E280001F092FC74
:10019000002807D1617D227D08020836104336060B
:1001A000360E03E0607B217B0002084301F045FC32
:1001B00000280CD02200A11D28002E8102F036FA62
:1001C000002804D0280000F006FC0020F8BD38000C
:1001D000F8BD002070470000794870B5042B046812
:1001E00040680ED14C610B895B18DC799D79230244
:1001F0002B43E52B01D1162300E0042353F05CEAE6
:1002000003E0012B01D14C61F8E7002070BD70B50F
:100210000C006B4D1600052B1BD120890019C178ED
:1002200082780802104303D1200000F0D4FB04E0E0
:100230002000FFF791FF002801D1012070BD2000B0
:1002400000F075F8002814D1320021002868052339
:100250000DE0032B06D1200001F029FC3200210023
:10026000032304E0022B04D1A8683200210053F0DC
:1002700024EA002070BD10B5514C206800280CD134
:1002800001F01FFC20604F4A2021A06053F018EAC3
:100290004D4A6068202153F014EA10BD10B5484C57
:1002A0002068002808D00022132153F00AEA2068B1
:1002B00053F00AEA0020206010BD002143A010B5D1
:1002C00053F006EA3E4C6060FFF7D5FFFFF781FF71
:1002D0002068002803D000220D2153F0F2E900200D
:1002E00010BD70B504000D0000F0F5F80600012007
:1002F00020733849206988420AD12904090C07D0A3
:10030000280C6081344822000068532153F0D8E95A
:10031000200053F0E2E9300000F0E2F870BD020086
:10032000274810B50068682153F0CAE910BD10B520
:10033000040001F090FB002840D02089264B0019D2
:10034000417902790906091411430918888AC21FE4
:10035000F93A0CD1081B16302081A08821001638EC
:100360000204120CA2801868163A052323E0012229
:100370009202904202D12200502105E00522120291
:10038000904208D122005121186853F09AE92000C8
:1003900000F021FB11E0C21FFF3AFA3A0DD1081B11
:1003A00016302081A088210016380204120CA28089
:1003B0001868163A152353F080E9012010BD00009B
:1003C00064520500C9010000FF010000776C616EF6
:1003D00000000000445205002852050010B553F0FB
:1003E000F2E853F07EE9002010BD0121C907FF4863
:1003F0004163FF498163FF49416305218163704780
:10040000FD4810B5006800022BD5F84C91CDC1F025
:1004100001000000FC030000000400005AEF5E131E
:10042000FB4A0020C11C6163A36B81005350031D74
:100430006363A36B8918801C0C284B60F2DBF548C2
:10044000FFF777FFFF21F44A2D3102E0401C88427C
:10045000FCDB50780028F9D0EB480E306063EF48A1
:10046000A063C0076063EE48A063E74860630520AF
:10047000A063012010BDE748401CFFF75AFFFEE7CC
:10048000E54910B5486004F0C7FB10BD10B504F095
:1004900067FCE448802153F032E9E348DC2153F063
:1004A0002EE9E1481421DC3053F028E9DE485021E0
:1004B000F03053F024E9002010BD202800D3FEE7DF
:1004C000D84A80001358002B00D0FEE711500020BE
:1004D0007047D44A00218000115008007047D3486B
:1004E0000068002800D001207047802010B553F02C
:1004F0000AE910BD10B553F006E910BD0268836823
:10050000C1681000184770B5052805D2C64D840093
:10051000DC352B59002B01D0012070BD2C23434327
:10052000C14E9B192B5135000401F035285160193B
:10053000C260816000214160BD491961586100209D
:1005400070BDFEB50E001700052816D2B64902018F
:10055000F031B54B55186968DC33840000290DD1A2
:10056000012201970096029218594369026953F0DB
:10057000CEE8002801D101206860FEBD18591D0099
:1005800053F0C8E828593A00310053F0C8E8285918
:1005900053F0C8E8FEBD10B5040053F0C8E8206071
:1005A00010BD9D4970B50878401C0006000E08700B
:1005B000012149044018FFF7BCFE9E4D6C6AE0071C
:1005C00005D053F0B8E804F0C9FCA81768629A4E49
:1005D000A0070CD5A86A02218843A8622020F060F9
:1005E000491F6962B1680143B16004F0AFFC600764
:1005F00005D5A86A04218843A86204F03AFD2007C3
:100600000AD5A86A08218843A8628020F060C943FF
:100610006962B1680143B160012070BD864870B560
:100620000468804EA10706D500210161B26D01204A
:100630009047022084432006000F03D0E02084432B
:100640001020044300250AE0E00706D0A800325835
:10065000002A02D021002800904764086D1C002C5D
:10066000F2D1002070BD70B5FF25734C6D1CE560A4
:1006700072480068002801D0002102E07048002183
:10068000006853F05CE8A0682843A060012070BDBA
:1006900070B50124684D8440EC601FF006F8A8682E
:1006A0002043A860012070BD63480121C90310B533
:1006B000C160644A136A634C0023403C23601362A8
:1006C00082680A438260012010BD5B480121090451
:1006D00010B5C1605B4A536A5A4C0023403C6360CA
:1006E000536282680A438260012010BD70B5012404
:1006F000514E8440F46003F03DFE050003F0BCF968
:10070000002805D0680509D5282016F09FFF05E0D0
:10071000280703D504F092F804F0F9F8280003F054
:1007200034FE280003F036FEB0682043B06001209C
:1007300070BDF0B50024384F3F4E083708E0C519AA
:100740006868FFF7BAFE696801208840B060641CE1
:10075000E00039580029F2D13B491720FFF7ADFEE0
:10076000FFF74DFE0120C005B0600020F0BDF8B5D8
:10077000234D4035EC68E00702D0A817E86004403C
:10078000600704D50420C043E860042084432006A9
:1007900006D58020C043E8608020844352F0D2EF29
:1007A000200709D50820C043E8600820844321F0D1
:1007B00080FA082002F033FEA00606D52020C043B0
:1007C000E8602020844303F017F8200407D50126B1
:1007D000F603300052F0B6EFF043E860B443600334
:1007E000400F06D00720000421000140C943E96002
:1007F00084432002000F55D0200249D5004925E04E
:1008000040200080070000FF0100008000290080D8
:10081000705501C0400001000801000453907F7D25
:1008200001000000F80700000004000009358D7F7A
:10083000FF0C0000070080FF943A00043815000404
:1008400078FC0004D90400000030008000280080FB
:1008500064520500F055050080E80080F1030000B7
:100860004039C8688A011043C8603D4800680028C4
:1008700003D188048078800702D401200005044356
:1008800003F0ECFD002803D002F090FF02F0A9FF76
:10089000344900208874802003F05CFE0120C005EC
:1008A00052F05AEF0F273F0526003E40300002F07D
:1008B000D1FCF043E860BC43E000400F09D00727BB
:1008C000BF0626003E40300002F031FCF043E860F5
:1008D000BC43E00612D51020C043E86010208443DA
:1008E00003F001FF002809D00DF0ACFA002805D074
:1008F0001C4900208874102002F09CFA600003D587
:100900001948E860C0438443A00003D51748E86055
:10091000C0438443002C06DA0120C00702F022FC09
:1009200010488138E860124881680122920511431D
:100930008160F8BD0E4B0122920510B5DA60FFF719
:1009400020FF012010BD70B50125094C2D07E56081
:100950000CF0D5F9A0682843A060012070BD00000C
:10096000C855050080000080FFFFFFBFFFFFFFDFCD
:100970000028008010B50400002A03D0200003F0F6
:1009800027FD00E00024200010BD7CB50C00150000
:10099000497923790906091419430B198188426999
:1009A0002433602914D9603920328180517EC906F0
:1009B000CA0F00922A0001A905F000F9A071000AEF
:1009C000E0710198001B2071000A607101207CBD5C
:1009D00000207CBD30B504002020208165692018EE
:1009E000AD7A05706469E47A44700171090A417155
:1009F000110A8271C171190A8370C17030BD00285B
:100A000010B507D00169002905D14189C0880322AA
:100A10000DF02CFB10BD52F074EE10BD10B5018925
:100A2000C1220818418D0024D200914208D1010052
:100A3000062212310C3052F09BF9002800D101241B
:100A4000200010BDFEB504000020070002900190B8
:100A5000208901260519A8780007800F022800D0F8
:100A600000266069407A02280CD12000FFF7D6FFEB
:100A7000012807D12020A7802073FF49C868401CA7
:100A8000C860FEBDA0880028FBD00DF0E8FF00285C
:100A900067D0280005F03FF900285AD1002E12D067
:100AA0000122200069460EF0D2F900280BD00098F0
:100AB000002800D0012000284BD000214F200DF04D
:100AC0007BFE029008E0200001A90EF0B7F8002894
:100AD00000D0012000283CD00DF0A1FF002848D014
:100AE000E6480125056116F0ECFD16F0EAFC002849
:100AF0000CD117F01AF8002808D1E1480760E14846
:100B00000780DE488570032016F0AAFD0299FF20B9
:100B10000DF0B1FFDC4D2888002804D0DB4904200B
:100B20000856401C0AD00225012004F06DF96D1E04
:100B300009D0D248007A0028F6D104E00DF05EFF1B
:100B4000CE482F8007721D2016F08AFDCB48C76063
:100B50000FE06B46187900280BD12020A780207366
:100B6000FEBD002EFCD00222200069460EF06FF977
:100B700001E0002EF4D016F0B8FC0028F0D0A088D8
:100B80000028EDD014F015FC0028E9D114F0FBFB8F
:100B90000028E5D120890019C178CA0701D1801D3C
:100BA00000E01230BA4AD37B002B0ED01289092AFA
:100BB0000BD10078C00708D0880602D516F0DFFDFB
:100BC000FEBD1B2016F04CFDFEBD0AF0FBFD01280A
:100BD000FAD016F0AFFDFEBDF7B500220700487849
:100BE0000E00097805020D4320352800323001043B
:100BF000A848090C52F0B4ED040020D028001230AF
:100C0000A08067612027E0191221278152F0ACED06
:100C10002B04029A1B0C12212000FFF7DBFE32206E
:100C2000208120182A00310052F0A2EDE2A6D3D292
:100C300001000000F40B000000040000FD5AF8CB96
:100C40002000FFF709FFA088002804D12000FFF74B
:100C5000E0FE0020FEBD278116F066FC002802D0D1
:100C6000052016F007FDFFF754FC914B05008F4857
:100C700021001C68002200680523A0472800FFF718
:100C80004DFC0120FEBDFFB50120904083B0039FC5
:100C90000406240EFF376137387B0E001500204212
:100CA0002ED1FF229132462301A902A80DF06CFD3E
:100CB000002825D0387B182120433873019C10343C
:100CC000200052F05CED0698002801D1052000E0DC
:100CD0000D20607225722000627A0C990A3052F061
:100CE00052ED310006220C31A01C52F04CED01995E
:100CF000182088720020C872029903980DF010FD28
:100D000007B0F0BD1A004AE68288602A10D9603A1E
:100D1000828048790A790006001410432430087153
:100D2000000A4871E62088710020C87101207047D0
:100D3000002070471FB501AA0400009202AA03AB6D
:100D400017F09BFA01980204029812140104091486
:100D5000200017F0FDFB20000399C030418201996B
:100D600081820299C18220000EF00CFF1FBDF1B5F7
:100D7000002486B02600250005A80EF04DFA0028B4
:100D8000BED06B46587DC10601D48006B8D56B46EF
:100D9000187D0007000F0128B2D1464F0190387826
:100DA00002A90EF04DFA39780129A9D0069A0B2034
:100DB0001056002903D16B46997D0D072D0F334F37
:100DC0003968884206DA7968884208DDB868012601
:100DD000002895D0012452F0DAEC38610BE052F093
:100DE000D6EC396905F08CFC3349884203D8B868E1
:100DF000002885D00124B868A04281D0002E0BD1F4
:100E0000BC606B46187D01990207120F00922B00FF
:100E1000220002A803F050FE72E7F3B595B005007A
:100E20000A2009900020079004900390169800284B
:100E30007ED028896E69411920220BA852F0A2ECBD
:100E40000BA808AB0A90D87BC1071C4868441490D3
:100E500002D10A98801D00E0149805901698183069
:100E600052F098EC08AB997B0007C40F0A070020EA
:100E7000920F022A03D10909090700D50120169F04
:100E800020432037002835D01AE000006804000411
:100E9000681C0004DC020004A455050094550500FC
:100EA000AC020004F8730500080500046852050050
:100EB00020540500D4520500404B4C003E00000079
:100EC000FFF727FB0190387EFC4A41070A98490F3B
:100ED0000C3004F089FA0A28099008D2002C06D0B8
:100EE0000998F64900014018C168491CC160019881
:100EF000FFF714FB1698FFF73AFF288920216C189A
:100F0000203829812071000A10AB6071988800098F
:100F10002072000A6072B07A2070F07A6070A8883F
:100F2000002802D1287B20283FD108ABD87B00E0E5
:100F3000F7E0800601D50120039008AB987B0107FC
:100F4000890F022931D10009000720D5DC4800783B
:100F500000281CD014F0CEFC002818D0387EC00623
:100F600015D5D8480068002811D0D7480068002857
:100F70000DD015F0B4FB002809D00DF03FFA012880
:100F800005D0D2480068002801D10120049016F055
:100F9000CBFA002809D00A9804F0C7FE002804D133
:100FA00002201CF095F912F0D6FF16993000FFF7D9
:100FB000C1FE3100C03116201391085E0CF006F816
:100FC000207313991220085E0BF0F3FF08AB6073D7
:100FD000987B0009000703D5387E4007400F00E0EA
:100FE000FF20A072A888002804D00A9804F09DFE73
:100FF000002872D00020A070E070A888002802D1DC
:10100000287B202845D1A07A15F012FB00280AD0B1
:101010000398002804D0002130000AF09EF902E075
:10102000AB490020087005980078C00714D107F07C
:1010300096FB0028387E07D0C006C30F543E4F15DC
:1010400001000000F00F000000040000AE802BA79C
:10105000049A0399300008F0F9F806E0C006C30FBF
:10106000049A0399300008F072FC049008AB987B56
:1010700003990209300015F0E6FB0498012812D10B
:101080009948008800280BD0984800220068462123
:1010900052F03EEB002803D095490120087002E091
:1010A000162016F0F1FAFFF73EFA07000A9804F04E
:1010B00046FE002815D08F4E3068002811D0200041
:1010C00014990622183052F068EBEB20A071002032
:1010D0000200E07188483468290000680523A047B1
:1010E00002E02800FFF79FFC380022E0FFE7387E8F
:1010F000C0090DD0169A21002800FFF70FFE002826
:101100001CD10020A070E0702800FFF78CFC12E0DA
:101110000A9B169A21002800FFF7FEFD00280DD13A
:10112000A070E070FFF7FFF904002800FFF77BFCD8
:101130002000FFF7FDF9002017B0F0BDA888A070CF
:10114000000A22000B32E0701698D11C04F025FD35
:10115000707A02287ED130001BF046FF1121490130
:101160000690401800780190002008AB0890987F06
:10117000C00708D0012008900198C0077CD00198D2
:10118000800779D420E014981CF098FF002807907D
:1011900072D0707A02286FD10798407BC0066BD559
:1011A0000799F07AC97A88427DD109980A2863D3D1
:1011B00001984007019802D4C0075DD004E0C00741
:1011C0009FD0019840079CD44C48002201884C488D
:1011D000032318F070F9002800904AD00099A888DD
:1011E000888000F094FC00990004000C0881009AAB
:1011F00008211173009940180F21019052F0C8EA9C
:1012000001981021017100214171E079A279010258
:10121000019811438171090AC1710698406A012839
:1012200008D10798002805D0707B000702D50198E7
:10123000A17A01736079217900060014084301192D
:101240000198AA88103052F0A8EA009930694861E4
:10125000F17A00E010E0019841700199B07A0870CD
:101260000199A8888870000AC8700098042100F0CD
:101270003BFC08980028A3D016F060F9002802D0A3
:10128000052016F001FAFFF74EF90290194B1A48A3
:1012900029001D68002200680523A8470298FFF76F
:1012A00047F9A07A00E00BE015F0CCF900282ED029
:1012B0000398012826D1002130000AF058F826E0D2
:1012C00001980007D8D509980A28D5D319E7000056
:1012D000343C0004CE540500E0540500DC54050005
:1012E00030550500CD5405007074050064520500AA
:1012F000C95405002054050068520500B255050088
:10130000F40400040398002801D1FF4908700598EF
:101310000078C00714D107F02CFA0028387E07D0D7
:10132000C006C30F049A0399300007F08FFF06E050
:10133000C006C30F049A0399300008F008FB04901C
:1013400008AB987B03990209300015F07CFA0498E9
:10135000012812D1ED48008800280BD0EC4800226B
:101360000068462152F0D4E9002803D0E949012061
:10137000087002E0162016F087F90120DCE6FFB5C0
:101380009DB0060008003768002115911F997C69FF
:10139000002910D040301C9052F006EA2099050038
:1013A0004118C0782031400602D4B88821B0F0BD81
:1013B0002888682801D80020F8E717AA169100921B
:1013C0001F99169818AA15AB04F077FC280004F0B2
:1013D000AEFC002851D0D048002104AA01AB07C3BD
:1013E00010ABCE4A00921D7F1A7D38002B0018A941
:1013F00006F093FF05002CD12000FF306130017B07
:10140000090623D5002C0CD00521C9016118C96932
:10141000002906D010AB1A7F920068328B585B1CF3
:101420008B50017B4906490E01731C9852F0BCE9B0
:1014300010AB1D7F1F992A01521B52180E320092C9
:1014400001001B7D2A002000FFF727FCD791CD4724
:1014500001000000EC1300000004000011450E1410
:1014600000203060B1E7356028891C99401951F09F
:10147000E4ED0088A8802000FF30613010AB1B7FB6
:1014800001263200017B9A40914301731DE010ABAD
:10149000197D009101952A8816991698643A091DBC
:1014A00018AB04F081FE06001CD0200010AB1A7FA0
:1014B000FF3061300123017B9340994301732888F9
:1014C00008382880B8880838B880002C08D0052053
:1014D000C0012018C069002802D0416E491C416635
:1014E00030006DE7002C14D00520C0012018C16920
:1014F00000290ED010AB1A7F920068328B585B1C0B
:101500008B50C1690A69521C0A61C069C168491CD3
:10151000C1601C9852F052E9010010AB187F1F9A6D
:1015200003011B1A9A180E320092020010AB1B7DA9
:101530002000FFF7BCFBD3E700280CD00521C90130
:101540004118C869002806D00269521C0261C869A6
:10155000C16C491CC1647047F7B590B015000E000E
:101560001098076800200B9008007C6940300F90AD
:1015700052F024E90E9024300A9020001DF0B6F9B4
:10158000002813D00A98290009AA08AB04F05EFAD3
:1015900000280BD0002C08D00520C0012018C069FD
:1015A0000028F8D0016D491C016582E00E98008882
:1015B00068287ED92A004C3268380304111F081F9E
:1015C0000692021F059103921C3A04900C39383898
:1015D0000092203602910190307E1B0C4607760F58
:1015E0001A000A990E98330004F01CFD06000E98AC
:1015F00004F0A7FB002839D00CAA0BA90192002007
:1016000000910B900A9A0E993B00300004F0CFF93C
:1016100000284ED0474A0092474A444B0E99380062
:1016200006F0B3FD002802D11099086041E010993E
:1016300007000860018908180F9951F0FEEC0E9020
:101640000B98002840D00CAA00920A990E982B0003
:101650003A0004F0DBF9060036D11EE00E988079DE
:10166000C107C90F20001AF072FD22E0002E23D01E
:101670003007800F0FD0002C1BD00520C00121188F
:10168000C869002815D0C26C521CC264C8690169BF
:10169000491C01610DE0B0070BD5002CDED0052000
:1016A000C0012018C0690028D8D00168491C016019
:1016B000D4E7002013B0F0BD0E980E9900881438BE
:1016C0000880B8881438B8806B46998C089A28002E
:1016D00004F0B7F9002E0AD1002C08D00520C00173
:1016E0002018C069002802D0416E491C41660120C3
:1016F000E0E7F7B582B01400002502980768039868
:101700000197403052F05AE80600C0787F694006E1
:1017100016D42037B87E400743D40FE0CD540500DF
:101720007074050064520500C9540500B4F5050045
:10173000884501C07C4501C0844501C0012530E0D9
:10174000002C02D1002005B0F0BDA07AC00721D046
:10175000E0790007000F012805D10399220001A8B4
:10176000FFF7FAFE05E003992200042301A8FFF722
:1017700010FE0299050001980860B079C00710D1E9
:10178000002D0ED0A07980070BD52100380000F085
:10179000FBFE06E00520C0013818C0698168491CBD
:1017A00081602800CFE7F0B597B00027029756E197
:1017B0000020049002F08BF90C980007C00FC000C5
:1017C000039005980189081806A90AF0FEFD1698ED
:1017D000002805D1059800218180FFF72EF93EE110
:1017E00016980C301CF074FC040005D116990120E9
:1017F00012311CF090FC0400169920000EF0A7FF97
:101800000028E7D1002CE5D005994C61607A0228C8
:101810000CD120001BF080FB0C300290607B169AEC
:10182000C0060599C00F04F03DF91CE0207A01289C
:1018300008D12300169A9C3304F03EF920001CF0D6
:10184000F7FF10E0042808D11698C078820701D568
:10185000C00708D10020888005E0230065172E66A8
:1018600001000000E817000000040000429FDD783E
:10187000169A9C33012004F04CF905980189091847
:10188000CA78D20701D18D1D01E00D001235052265
:10189000D201A618F269002A02D0136B5B1C1363F5
:1018A0002A78D20705D0F269002A02D0536B5B1C5C
:1018B00053638288002A4FD0039A002A26D12A78BF
:1018C000D2071AD123000A22FF336B3300921699F4
:1018D0009A1E04F053F905988088002816D120003C
:1018E00006A9FFF745FA0598FFF7B1F8F069002857
:1018F00002D0016A491C0162BBE02D221201A2182C
:1019000004F02BF9059880880028D4D0607A02284A
:1019100027D1200006A912F01DF916990298C9785E
:10192000007DC906C90F884202D0200011F0DCFDFD
:1019300020000FF031F8200010F0B2F9012803D197
:101940001699200011F054FA02984030007C0328C8
:1019500003D00599002088806DE0059880880028D4
:1019600069D02878C0070AD102F0B8F8002806D15B
:10197000059808AB8188DA7C06A808F0EFF816987D
:1019800004F0DCF8002812D00598564A8188574B9D
:101990004039818000920189534A091806F0FFFB03
:1019A000002866D0059001890818169043E0169823
:1019B0008079C00701D0F06800E03069002801D0CC
:1019C00007000837002F49D0F9790807000F0228CF
:1019D00001D0032810D1FF346134628916990120A7
:1019E000002A00D0002004F0A3F905982B003A004B
:1019F00006A91DF03FFE17E0012801D0080729D1F4
:101A000000201DF06DFC0028FAD13A0006A905A8B7
:101A1000FFF779FE002804D10598002829D000217D
:101A200081800498002806D0F8790007000F02286A
:101A300008D0032806D00598FFF72CF8059806A9CA
:101A4000FFF709FA08F0B9FA002812D0012008F0CF
:101A50000EFB17E02648FEF79EFCFEE7F069816862
:101A6000491C81601698BF21C07808401699C8703B
:101A70006FE70121002006AA0AF072FE00280590F7
:101A800000D09FE61B498020C04308610CF0AAFBF0
:101A9000002802D0042008F0EAFA17490020C860A4
:101AA00008617FE416491548086017491548086021
:101AB00070470200154B012001009A4200D000211E
:101AC00003231B029A4200D0002008437047010004
:101AD00049690020002904D0097A0120042900D096
:101AE000002070477C4501C0844501C0B4F5050065
:101AF0000200010000A50080681C0004C51400005D
:101B000018530500080500041C530500888E0000CA
:101B1000022110B5017301000D481C220068042346
:101B200051F006EE10BD40690069704710B540697C
:101B30001CF06DFC10BDB0207047010005A010B571
:101B400051F002EE10BD10B540691FF014FE10BD3B
:101B5000685205007364696F00000000F3B500244B
:101B600006002500002881B014D0707A022811D018
:101B700002E0012003F070F928006D1C022807D252
:101B800000221100FF4851F014EE0400F1D00AE0E9
:101B9000002C08D10022FC481100032317F09FFC01
:101BA000040000D1FEBD6661FFF7C5FF0004000C14
:101BB0002081082705190F212800277351F0FCED1B
:101BC00030001DF0C5FA28730F20287100206871BD
:101BD000380AAF71E871B07A2870F07A68700298AC
:101BE0000F3505602000FEBD10B504000321323022
:101BF00051F0E2ED20001C21353051F0DEED2034B3
:101C0000A07D01210843A07510BD10B50400FFF7A9
:101C1000EBFF2000FF30FF220421953051F0DCED76
:101C20002000FF30413001220021426181610174B6
:101C3000EC3806F0EFF910BD0B21890170B544189E
:101C4000A169002926D1007A002803D0032801D0F9
:101C500004281FD1FEF77BFC0500CC480021FF22A1
:101C600099324A438258002A0AD1FF23C7526D682D
:101C700001000000E41B000000040000B6F0A8CC46
:101C80009933594301220E1842503000FFF7C7FF25
:101C9000A66102E0491C0229EBDB2800FEF766FC86
:101CA000A069002800D1FEE770BD0B218901401812
:101CB0008169002902D000220A608261704710B554
:101CC0000289123112189170090AD1700F21FFF7A1
:101CD00029FF10BD0A000B218901411810B589693F
:101CE000263151F088ED10BD0C3A13061B0E102260
:101CF000102B10B500D81A000B239B01C018806967
:101D00000831FF306D3051F066ED10BD10B50400A4
:101D100008004979C90615D5010060318A784B78E9
:101D2000110219430922633005F063FF002809D02E
:101D30000B21890161188B694278811DA433200031
:101D4000FFF7D2FF012010BDF8B50D00060006F028
:101D500052F9040025D029002A00AC31503220006D
:101D6000009105F079FF01206867E81DF930070050
:101D7000806803F042FA0021B9602079022812D16C
:101D80002000603081784078090201432000009AE9
:101D9000633005F04DFF70692100FFF7B7FF0028A1
:101DA00011D10020F8BD20006030817840780A020F
:101DB000024321000098633151F00CEDA0798006B8
:101DC000800FC03568822000F8BDF3B581B00C00EB
:101DD000019806F010F905001ED00121F8200153EA
:101DE0000026F42006516879C00622D5E01DF9309E
:101DF0000700806803F001FA22002100AC31503264
:101E00000C002800BE6005F027FF019829004069FA
:101E1000FFF77CFF002801D10020FEBD28006030C4
:101E2000817840780902014328002200633005F0E0
:101E3000FFFE2800FEBD0B218901401810B5806906
:101E4000543006F08DF910BD7CB50C0015000699D4
:101E500000910B21079A89014018019280692A009C
:101E60003530210005F046FC7CBDFFB585B00E0085
:101E70001D000189446908180390200004A9FFF798
:101E800077FE070002D1012009B0F0BD0B208001D0
:101E900000962618B2690399130004982C33263251
:101EA00005F042FF0498817C012910D000220092A5
:101EB0000192B269010013002C33263271312000E7
:101EC000FFF7C2FF04996031C873000A08740799CC
:101ED00004982B00012205F050FE01003800FFF7A6
:101EE000EEFE0020D0E70B229201801810B5806929
:101EF000353005F034FD10BD10B504008EB06846D5
:101F000005F0A9FD200069461EF045F80EB010BD91
:101F100070B505000B2080012C18A0692822010053
:101F2000FF312931D83051F06AEC01212800FFF748
:101F3000DAFFA3690100D83301222800FFF7DCFF94
:101F400070BD10B544692000FFF7E2FF0B2080014F
:101F5000201881690122C0310A618069C03040695E
:101F6000002803D0817AFD2211408172002010BD2B
:101F700070B5002145692800FFF7B5FF0B218901E5
:101F80006C18A3690100FF335B1C00222800FFF7D7
:101F9000B3FFA069012105E0C0050004F4040004BA
:101FA000BC6E0500C0308160A069C030C268002AE4
:101FB00002D1C1600EF07FFE002070BDF7B584B085
:101FC00005000E004769008903A9401902903800F6
:101FD000FFF7CEFD040002D1012007B0F0BD0B20B9
:101FE0000022800138180092826902991300039838
:101FF0002C33263205F098FE31000398012240313F
:10200000002305F0BAFD0700706F00280BD0607B3D
:102010000121084360730698002801D0FB4800E0C6
:10202000FB48A06109E00698002803D0280000F0D2
:1020300033FB02E02800FFF784FF39002000FFF7A0
:102040003EFE0020C9E7FEB50E00018945690F1864
:10205000280001A9FFF78CFD040001D10120FEBD7D
:102060000B20002280012818009282690198130039
:102070002C332632390005F057FE3100BADEA87A3B
:1020800001000000E01F000000040000E52A7BA022
:10209000019801224031002305F079FD617B012286
:1020A00011436173E049A16101002000FFF711FEB7
:1020B0000020FEBDF7B586B00B21890106980026E9
:1020C00040694518AC6906985434210005F09DFF1D
:1020D000070016D0A8693A3005F0CEFA002829D0BA
:1020E000A8693A3005F0DCFA0028A86904D04179E3
:1020F000801D16F04FFB02E0263004F0AEFF060014
:1021000001D10020CAE6A8693A3005F0A3FE02001A
:1021100021002000D431503002AB07C322004032EE
:10212000B43901920091079A08992300300005F014
:1021300014FF01262200210006984032203100239E
:10214000FFF79DFE002801D0002608E0012E06D1F1
:1021500039000931200005F058FC0020A06730004C
:102160009CE670B5050040690B218901401886691D
:10217000280054363100FFF732FE040001D1002060
:1021800070BD20790122022800D0002231002800F1
:10219000FFF71EFF002801D0200070BD210009318B
:1021A000300005F032FCEAE770B5050040690B210C
:1021B000890140188669280054363100FFF7CEFDAA
:1021C00004000AD031002800FFF747FF002804D19F
:1021D00021000931300005F018FC002070BDF8B571
:1021E00005000E00008917004019817900240907B5
:1021F00016D54079C00709D02800FFF7B2FFF8BD17
:10220000012002F03DFE641C2406240E3A00310039
:102210002800FFF74FFF0028F1D1072CF0D3F8BDBD
:102220002800FFF7C1FFF8BDFEB50C000600086FDF
:102230001700401C06D1E06E401C03D1200005F0C1
:10224000FDFEFEBDFEF797F9050002E00021FEF756
:1022500098F8764851F0E0EA0028F7D12800FEF718
:102260008FF9300001A9FFF78DFC0500E9D00B20A4
:10227000800136180094B269019813002C3326327D
:10228000390005F0A5FDB0693A3005F0E3FD020024
:10229000B0692030417E807D0907CB0F8006C10FD9
:1022A000019805F09EFEE06E401C0128E06602D118
:1022B000206F401C2067210001980122403100233B
:1022C00005F065FC01002800FFF703FDFEBDF3B536
:1022D00081B006000B2080013518A8690400FF308A
:1022E0005530070000685434002820D0FC20005DE1
:1022F00000901AF03FFC029A21003000FFF794FF93
:102300000098002814D0012811D1A869484A20302B
:10231000017D0823491C01750098210005F002FF8A
:10232000444A4549200008237E6105F0E7FEFEBDD2
:102330003F4A00982100082305F0F4FEA8692030E8
:10234000C17C491CC174FEBD70B50E0011000B228A
:1023500092018418A569FF22543515325051A069A5
:1023600006222C3051F040EAA069062226303100C6
:1023700051F03AEA314A32492800082305F0A2FE1A
:1023800070BD0B21890140188069002803D02030DE
:10239000407DC007C00F7047FFB581B00500160033
:1023A0000A9FFFF7EEFF002812D02800FFF74DFD2F
:1023B0000B2080012C18A0690299801D320051F079
:1023C00014EAA0693A00467104992800FFF7BCFF9F
:1023D00005B0F0BD0B21890140188069FF30413004
:1023E00080690006000E70470B218901401808B56E
:1023F0008069C08E009008BD020010B5FFF7C1FFD4
:1024000000280BD00B2080011018816920314A7DF3
:10241000520852004A758069FFF7FAFB10BD0000B0
:10242000FD250000A71E0000D51E0000243D00046D
:10243000997F0000409C0000C57F000080969800B6
:10244000ED7F00000B2189014018806901222030B6
:10245000417D11434175704770B5060086B0140088
:102460000D000AA807C8002901D1059105A900930C
:1024700001AB07C30B2080013018806923000100E5
:10248000FF31953135302A0004F0F5FFA59972D857
:1024900001000000DC23000000040000CDBBFE1D95
:1024A00006B070BDF0B506000B2080013418A0699D
:1024B0000F0041791500801D8FB016F075F90028C6
:1024C00010D001002B003A0001A805F024FA3000DA
:1024D00001A91DF074FD3000FFF7C1FCA0690121C6
:1024E000C030C1600FB0F0BD70B505000B20800199
:1024F0002C18A0692030417DC90712D0817DC90602
:102500000FD5007E00220007C10F2800FFF7CAFF89
:10251000A06901222030007E0007C10F2800FFF7CC
:10252000C1FF70BD0FB50B218901401881696B4651
:10253000FF319A8881318A8281691A7AFF3181312B
:102540008A758069197BFF308130C1750FBD30B548
:102550000B24A40100198469FF348134257D0D709A
:10256000647D4C708169FF318131897D1170806992
:10257000FF308130C07D187030BD30B50B24A40110
:10258000001984692034A57D0D70E47D4C7081694B
:102590002031097E117080692030407E187030BD76
:1025A0000B21890110B54418A06900280BD0FF3019
:1025B0004130C069002806D002F033FEA069002136
:1025C000FF304130C16133E7EAE70B218901401850
:1025D0008069FF306D30704703000A0000B5FFF7D7
:1025E000DAFEFD21002814D00B2080011818836921
:1025F000C0335A6180690300C033002A08D02030FC
:10260000407DC00701D0186909E0907A08409072B7
:1026100000BD002AFCD0187B4307F6D5C007002870
:10262000F3D100BD2C492B480860704770B50C00F1
:102630000B2189011500401882692900FF32521CC4
:10264000200005F009FB04222900200005F0E5FA2E
:10265000002800D0801D70BD70B5050088B01FA097
:102660000068079000200E006B46059004900390D0
:102670000690197C082001430491197B07AC0143A3
:102680000391187D202108431875039B049A05992E
:102690002800FFF747FF002206A90094029201914B
:1026A0000599280004AA03ABFFF7E0FE00223100E1
:1026B0002800130000920192FFF7DAFB08B070BD0A
:1026C00010B50400FFF751FC2000FFF765FC002067
:1026D000AEE60000391C0000B86E0500000FAC0229
:1026E00070B50025038944691B185E78002E11D04F
:1026F000032E1AD1237A042B02D116F03CFE07E0F8
:10270000637A022B02D11FF0F8F801E0FFF771FDA8
:1027100001250AE0607A032801D0012805D1187943
:10272000012802D108000FF0EEF9280070BD10B5A5
:1027300016F05CF8002010BD10B516F057F810BD6B
:1027400010B5C18802290AD0032908D0052906D16D
:102750000169C18000210161FEF797F901E051F0A4
:1027600016E800221421FF48806951F004E810BDEA
:10277000F8B50124FC4851F05AE8050079D02889C1
:1027800040190678407800020643B00A0090F748E6
:10279000B7050078BF0D02280AD10098032801D19F
:1027A000032F05D000220C21300020F0EEFA41E189
:1027B000012020F0A3F90098052873D006DC012839
:1027C00009D003283AD004286DD035E006286BD014
:1027D0003F286AD030E03B00353B51F02CE808053B
:1027E0000A0F14191E23282D2900300021F0AAFAFF
:1027F0001BE12900300021F0FEFA16E1290030002B
:1028000021F0FAFA11E12900300021F0A6FE0CE1D6
:102810002900300021F011FF07E12900300021F0EC
:1028200018FF02E12900300021F09EFFFDE02900A1
:10283000300021F0C8FFF8E00024F8E03B00622FF0
:102840002BD017DC362B0FD008DC012B20D0032B2C
:102850001AD0152B08D0162BEED11EE0372B1CD02A
:102860005F2B2CD0612BE7D12900300020F0D6FE61
:10287000DBE0EEE0633B50F0DEEF090B1E19272B87
:102880000635303A0600D7E7300020F005FECCE0F0
:102890002900300020F0A2FEC7E0290041CEA84761
:1028A00001000000D8270000000400009E612D7187
:1028B000300020F0F9FEC2E04AE027E075E08DE04C
:1028C0002900300020F0C2FFB9E0300020F0A2FF64
:1028D000B5E02900300021F0DFFCB0E0300021F04D
:1028E000C5F8ACE02900300021F0D2F8A7E02900BB
:1028F000300021F010FDA2E02900300021F03DFD64
:102900009DE02900300021F0A8FA98E0052F1BD0A7
:1029100008DC012F0ED0022F98D12900300020F0C2
:102920004CFF8CE0092F0AD00A2F8FD1300021F004
:10293000C4F884E02900300020F012FF7FE0290075
:10294000300020F026FF7AE0300021F0D3F876E066
:102950003B0050F07AEF0C07080D12071707070726
:102960001C20250772E72900300021F036FD66E0C3
:102970002900300021F069FD61E02900300021F0DC
:1029800098FD5CE02900300021F0BBFD57E03000ED
:1029900020F0BFFD53E02900300020F0EBFD4EE0B9
:1029A0002900300021F080FA49E03B0050F04CEF64
:1029B0000A0606060706060606110C0646E7290063
:1029C000300021F011F93AE02900300021F01FF920
:1029D00035E02900300021F048F930E05A2F20D0AE
:1029E0000ADC222F27D0232F16D0592FBAD1290045
:1029F000300020F0F9FF22E05B2F08D0612F15D0C6
:102A0000622FAFD12900300021F0D1F817E0290062
:102A1000300020F076FF12E02900300020F0A2FF05
:102A20000DE02900300021F003F808E02900300013
:102A300021F0A0F803E02900300021F079F8002C03
:102A400002D1300020F09CF9280050F0AAEE4A484C
:102A500000220069142150F098EE484850F0F8EE3A
:102A6000002800D090E60120F8BD10B5434814308E
:102A700050F0E6EE040001D1012010BD20890019BC
:102A80004178027808021043082831D007DC03009F
:102A900050F0DAEE08401A1A1E22262A2A400D2883
:102AA0002AD009DC0A282BD00B282DD00C2831D1B4
:102AB000210021F0F2FE2DE00E2829D0802829D116
:102AC000210021F03BFB25E0210021F0B9FA21E0B3
:102AD000210021F0C7FA1DE0210021F0D5FA19E00C
:102AE000210021F0E3FA15E0210021F003FB11E0C1
:102AF000210021F011FB0DE0210021F069FB09E02C
:102B0000210021F0A4FB05E0210021F0B8FE01E046
:102B100021F023FB200050F044EEA7E7164810B543
:102B200000690022142150F030EE10BD15487047A6
:102B300070B50124144D1148283050F082EE002861
:102B400006D0417B21434173856121F0EEFEF2E71F
:102B5000012070BDFEB50025ED43074C0B4E31271B
:102B60003F030095E06808220F2101AB02F0FCF959
:102B70000198C00716D00BE01452050084AA050086
:102B8000A8A40500452A0000552A000010100300E3
:102B90003000FDF728FC00210800FFF7F3FD3800A6
:102BA000FDF721FC019880070AD5A948FDF71BFC19
:102BB00000210800FFF7BCFF19204003FDF713FCBC
:102BC000019840070AD5A348FDF70DFC0021080035
:102BD000FFF74BFF0D208003FDF705FC0198000770
:102BE000BFD59D48FDF7FFFB0021080022F023FD23
:102BF0000720C003FDF7F7FBB3E73EB5984C9748B5
:102C0000E06020000C3002F0A0F994489549943817
:102C1000A060002294A06B4607C301228F492000C8
:102C20009202203108300C2302F01CF9002801D058
:102C300001203EBD8F490120487500203EBD10B5E2
:102C40008D4850F0FEED002802D050F0AAEDF7E7D5
:102C50008948143050F0F4ED002802D050F0A0ED77
:102C6000F6E78548283050F0ECED002802D050F00F
:102C700098EDF6E720F098FB002010BD7D49152067
:102C800010B508560024002803D1FFF7B6FF040052
:102C900001E0401C48750020FFF7D1FF200010BD67
:102CA000744915200856002801D0401EBC8F6AB90F
:102CB00001000000D42B0000000400006A0E58C57B
:102CC000487500207047FEB50C0016001D00FDF78A
:102CD00070FC0090A680674E012D2DD16C4800221B
:102CE000C8211FF037FF0028019013D021890389E4
:102CF00009198A781818D51CC822D21A17043F0C53
:102D00002A00BD4200D33A0050F08CEDBD4200D302
:102D10003D00A580200050F04EED306900221421C6
:102D200050F03CED019800282BD05848019950F004
:102D30009EED0722012108E00B2D08D15348210008
:102D4000143050F094ED07220421F06817E0022DB2
:102D500017D13068002809D0607B012108436073D7
:102D60004C48A061200050F026ED0AE047482100C1
:102D7000283050F07CED484807220068012102F01D
:102D8000F9F80098FDF71AFC0020FEBD38B5434C59
:102D9000444922680092424A3D48434B50F06AED54
:102DA00022680092414A42494248434B50F062ED4A
:102DB0003648142150F006ED34481421143050F0F8
:102DC00002ED32481421283050F0FCEC29483E4AEC
:102DD00041682E483C308160384901613849416181
:102DE000384981610021C16141620262816250F013
:102DF00046ED002038BD002134A010B550F0D6ECCF
:102E00001C4C002820611CD06068002150F0CEECE2
:102E10000028A06115D0020020691A2150F0BEECF4
:102E20002D4A2069042150F0BAEC274A206920215C
:102E300050F0B4EC002129A050F0B8EC00286061FB
:102E400001D1012010BDA2691A2150F0A8ECA068A0
:102E500002F02EF8206900220D2150F0A0EC002095
:102E600010BD0000202003004040030080800300CC
:102E700064A60500145205007D2A0000416D7068AB
:102E800063695461736B0000A8A4050084AA05005F
:102E900030520500552A00007C01000490520500C4
:102EA000C8AD05003C520500A05501C0E0AD0500CD
:102EB0005052050044520500605C01C0A52B000083
:102EC000C92B0000672B0000DB2B0000616D705FD9
:102ED0007364696F000000007D2600006274616DFC
:102EE000705F70616C00000010B50400302022F0AB
:102EF00054FF01F059FCE00602D519F0D1FE10BDD7
:102F000019F070FE10BD10B501F002FB002803D0CF
:102F100000F0A6FC00F0BFFC0020FFF7E5FF10BDAD
:102F200070470000022910B505D0032903D00429F9
:102F300001D0052903D1C04BFF21491C9960042A07
:102F400005D0052A03D0062A01D0072A07D1002878
:102F500005D100210A2208000B0041F09BFA10BDA8
:102F60007047042803D2B5498000085C7047FF20F1
:102F7000704710B50C000020FFF7F3FFA04201D10D
:102F800000F092FA0120FFF7ECFFA04201D100F01F
:102F90008DFC0220FFF7E5FFA04201D1FFF7B3FF50
:102FA0000320FFF7DEFFA04201D123F023F910BD7B
:102FB00010B50C000020FFF7D4FFA04201D100F0B3
:102FC0008DFA0120FFF7CDFFA04201D100F073FC84
:102FD0000220FFF7C6FFA04201D1FFF7A1FF0320A7
:102FE000FFF7BFFFA04201D123F00FF910BD042964
:102FF00010B507D004DC022904D0032906D101E072
:10300000052903D100F011FA002800D0012010BDDD
:10301000022910B505D0032903D0042901D00529C0
:1030200001D100F0B1F910BD022910B505D0032976
:1030300003D0042901D0052901D100F05CF910BDAD
:10304000FF280BD07D4A00218B00D35C834202D144
:103050000806000E7047491C0429F5D3FF2070476D
:10306000FF280CD0754A00218B009B185B788342A7
:1030700002D18800105C7047491C0429F4D3FF205A
:103080007047042804D26D4980004018407870478A
:10309000FF207047FF280CD0684A00218B00D35CCA
:1030A000834203D18800801840787047491C042966
:1030B000F4D3FF207047FF280CD0604A7E2CADA1CE
:1030C00001000000D02F00000004000039D48BA9BB
:1030D00000218B00D35C834203D188008018807864
:1030E0007047491C0429F4D3FF207047F7B582B01C
:1030F00007000E000C2901D2092F02D3002005B0D1
:10310000F0BD00255249A8000A5CBA421ED14418FD
:10311000A278B2421AD02806000E3900019022F09F
:1031200089FF002812D0A670E07804994007400F6C
:10313000C9000843E07001983200390022F07CFF9A
:10314000002808D0E07802210843E0706D1C042DAF
:10315000D8D30120D3E73E48AA00FF211018817080
:10316000E0784007400FE070C8E7F0B506000800BF
:10317000374F002204219300FC5CB44209D1DD19D1
:10318000EC7823000B43002802D02300FB242340CB
:10319000EB70521C042AEED3F0BD2D4A00218B00A7
:1031A000D35C834206D188008018C0784007C017DE
:1031B000401C7047491C0429F1D30020704770B5AA
:1031C00005000C00100001F029FA200050F028EB57
:1031D0002800FFF74FFF022805D0032803D004285A
:1031E00001D0052803D1200000F098F870BD200020
:1031F00022F04EFE70BD10B50400C00005D50122BE
:10320000120311040C20FFF7DAFF200105D501227B
:10321000D20211040B20FFF7D2FF600105D5012275
:10322000920211040A20FFF7CAFF10BD0120C0035B
:1032300010B501F0F3F90120C00750F0F2EA05499A
:1032400008698A0D9043086110BD000000280080C5
:103250003003000480200080F3B581B00198FFF7AF
:10326000F9FE04000198FFF71FFF05000198FFF722
:103270002CFF012706003F05022C02D1042D24D18A
:103280000BE0002C03D0012C01D0032C1DD12B1FEF
:1032900050F0EEEA0403080E141B102001F0BEF9F2
:1032A000380010E0202001F0B9F9012040050AE0C3
:1032B000402001F0B3F90120800504E0802001F0F6
:1032C000ADF90120C00550F0E8EA0298002816D1B7
:1032D0000198FFF762FF002811D0331F50F0C8EAB1
:1032E000060F0F0F0F07040F0021102005E06F4994
:1032F000A0004018C0780021C00826F009FEFF2277
:1033000001991000FFF73FFEFEBD0800002110B537
:10331000FFF7A2FF66490020887410BD10B50400B5
:10332000C00203D501210220FFF796FFA00203D5BA
:1033300001210320FFF790FF600203D50121042043
:10334000FFF78AFF200203D501210520FFF784FF44
:1033500001200007844205D04010844202D0401072
:1033600084421AD1FF208206A11808D0891804D0FF
:10337000C206891804D10C2002E00B2000E00A20CC
:10338000FFF778FE022805D0032803D0042801D0D7
:10339000052802D10121FFF75FFF10BDF8B5040039
:1033A0000E0017000800FFF790FE0500002C03D068
:1033B000012C01D0032C2AD13B1F50F05AEA040300
:1033C0000C151E28102001F023F9102001F02CF913
:1033D0000120000519E0202001F01AF9202001F059
:1033E00023F90120400510E0402001F011F94020B0
:1033F00001F01AF90120800507E0802001F008F9AA
:10340000802001F011F90120C00550F04AEA2B1F7D
:1034100050F02EEA060F0F0F0F07040F01211020A6
:1034200005E02249A0004018C0780121C00826F01C
:103430006FFDFF2231001000FFF7C4FDF8BD70B52D
:1034400004000020022C2ED0002C01D0012C13D11E
:10345000184D00222868462150F0AAE9002820D102
:1034600028680022082150F0A4E9002819D150F062
:103470001CEA002815D00120032C13D10E4C002289
:103480002068462150F094E900280AD120680022E3
:10349000082150F08EE9002803D11FF057FB0028C7
:1034A00001D1002070BD012070BD00003003000478
:1034B00080000080F055050024520500022010B560
:1034C00022F075FC01F02EF8002803D04412E3F23C
:1034D00001000000CC330000000400008611AE1A89
:1034E00000F0D2F900F0EBF925F081FF01E026F0C1
:1034F00069F80028FBD00021082208000B0040F0EA
:10350000DDFF10BD022010B522F018FC10BD70B513
:103510000020FFF73AFD04000020FFF7C6FD05007C
:10352000012022F04EFC8E49486802221043486078
:103530008C491005886001F0B1F8082050F07AE954
:103540002A0021000020FFF701FD70BD70B5FDF7D6
:1035500044F8050084480068C00710D00020FFF739
:10356000D6FF7D20C00024F0C2FF002050F0AAE961
:10357000040002E0002050F0A6E9A042FAD02800A2
:10358000FDF730F870BD002010B5FFF7FEFC040019
:103590000020FFF78AFD020021000020FFF758FD00
:1035A00010BD10B5FDF719F804006F4800688007DA
:1035B00001D5FFF7E8FF2000FDF714F810BD00204B
:1035C00010B5FFF7E2FC04000020FFF76EFD0200DB
:1035D00021000020FFF71FFD002800D0012010BDB2
:1035E00038B500F0A9FF002826D1401E00905E48A3
:1035F0005E4C0068C00711D06068401C18D0A068FD
:1036000022F03EFC5A4950F062E90090616888421D
:1036100001D3002000E0081A009009E0684640F05D
:10362000A0FD00280CD00098606022F025FCA0606E
:1036300021780098884203D3FFF7C1FF002801D109
:10364000002038BD012038BD474810B50068C007CC
:1036500005D0FFF7C5FF002801D0012010BD0020D4
:1036600010BD002010B5FFF790FC04000020FFF70C
:103670001CFD020021000020FFF7DEFC10BD10B58C
:10368000FFF79DFF002804D0002040F0AEFF002887
:1036900001D1002010BD012010BD334810B50068D5
:1036A00080070DD433480078022809D1FFF7CCFFFA
:1036B000002805D0FFF7E3FF002801D0FFF7D1FF76
:1036C00010BD70B50020FFF760FC04000020FFF77C
:1036D000ECFC29490500096817204883082050F0B0
:1036E000EAE800F0D3FF00F0C9FF1E4901204005C1
:1036F000C8602A0021000020FFF746FC18484168F6
:10370000022291434160012022F018FB70BD70B588
:10371000154D2868C00722D1FFF762FF00280BD1A2
:10372000124CE06822F0ACFB1449884204D922F024
:10373000A3FBE06040F04AFA2868C0070FD1FFF70A
:103740004FFF00280BD0FCF748FF0400FFF748FFAD
:10375000002801D0FFF7B5FF2000FCF743FF70BD44
:1037600040200080002800801C03000478520500DF
:10377000E2040000E35F050054F9000480841E00A9
:10378000F8B5FCF72AFFCC4D07002868002830D197
:1037900025F0B0F886211F2025F009F825F088F8DB
:1037A000C64E3068012109070843C91088433060BC
:1037B00000F034FF040000F031FFA042FBD030687D
:1037C0000921490608433060BD49C8690822904371
:1037D000C861BB494031886A80229043886225F0E5
:1037E00089F80821202024F0EDFF25F061F8012060
:1037F00028603800FCF7F6FEF8BDF8B5FCF7EDFEE2
:10380000AD4D0090286801283AD125F0AFFB002883
:1038100007D125F06FF80821202024F0C8FF25F0FB
:1038200047F8A7494031886A802210438862A4483B
:10383000C1690826B143C161A04F386851050843EA
:10384000C9108843386000F0E9FE040000F0E6FE8D
:10385000A042FBD00A2024F04AFE9949C8693043AF
:10386000C8613868092149068843386025F042F864
:1038700004211F2024F0A6FF25F01AF8002028605C
:103880000098FCF7AFFEF8BD012010B5FFF77DFBF7
:103890008C490968CA0711D0C9060FD506280DD072
:1038A0000120C00300F0BEFE0120C00750F002E876
:1038B000834840300169820D1143016110BD012030
:1038C00010B5FFF762FB062803D000F035FE002894
:1038D000FBD110BD082010B522F073FA0FC554209B
:1038E00001000000C837000000040000D5CB7D7641
:1038F00010BD082010B522F02BFA10BD38B50020FD
:1039000000900120FFF74BFB04000120FFF7D7FBDD
:103910000500042022F05FFAFFF779FF00F00CFFAA
:1039200020204FF092EF00F0DBFE68464FF0DCEF16
:1039300001216A4AC906002800D0009891602A0037
:1039400021000120FFF70CFB38BD10B5FCF74FFE3E
:10395000040061480068400702D50020FFF7CEFF51
:103960002000FCF749FE10BD012010B5FFF717FB42
:1039700004000120FFF7A3FB020021000120FFF754
:1039800054FB002800D0012010BD08B568464FF058
:10399000B0EF002803D0FFF7E7FF002801D1002097
:1039A00008BD012008BD4C4810B50068400705D58A
:1039B000FFF7EBFF002801D0012010BD002010BD53
:1039C00070B50120FFF7EBFA04000120FFF777FB49
:1039D00005000020FFF7E3FAA04204D02A002100EE
:1039E0000120FFF733FB70BD3B4810B500680007AE
:1039F00009D4FFF7D8FF002805D0FFF7B5FF00284E
:103A000001D0FFF7DDFF10BD10B500F07BFE3048A0
:103A10004030816A324A114081623249086903228A
:103A2000D202104308612B48016A4908490001622B
:103A3000274801682C4A1140016010BD38B50020AC
:103A400000900120FFF7ABFA04000120FFF737FBDD
:103A5000050020204FF038EF00F065FE1F490120DF
:103A6000C006C86068464FF040EF002808D1FFF755
:103A7000CBFF4FF042EF002808D0FFF78BFE05E0A8
:103A80000098002800D0012000F030F82A00210022
:103A90000120FFF783FA042022F05AF938BD0E48BE
:103AA00010B5006840070FD4FFF76FFF00280BD058
:103AB000FCF79DFD0400FFF768FF002801D0FFF729
:103AC000BDFF2000FCF798FD10BD000088520500E6
:103AD00040210080402000801C030004002800805A
:103AE000FDFF7FCC40220080F5FFFFBF70B500F0E6
:103AF000F7FD1A48816A1A4A11400722D20511437C
:103B000081621648C0300169164A1140016125F0F2
:103B100037FA154D154E002802D1286A3043286225
:103B2000134C2078FF2809D124F0EEFE122024F057
:103B30003DFE04210840207024F0C4FE20780028B7
:103B400002D1286A30432862044940390868094A8A
:103B50001040094A8018086070BD00008021008074
:103B6000FDFFFFCFFEC7FFFF4020008001000100E6
:103B70008C520500F0FFFF9F0E000040FF48406898
:103B80007047FF498869401C88617047FC49086A92
:103B9000496A704710B52BF07DFE002809D0FCF76C
:103BA00026FDF64A117C002901D0491E1174FCF74C
:103BB00023FD10BD70B5022019F0F8FB07E02000CE
:103BC00039F0BFFEE27AA17A200019F064FC04000B
:103BD000F5D119F0EBFB002801D039F0B2FE00F06E
:103BE0000DFFE8490869022290430861E34C002573
:103BF000A561E548257460612BF065FE656170BDC7
:103C0000F3B5040083B04FF07CEE0090DB48DB4D51
:103C10002038007E0E00603D0027002844D1D8499E
:103C20002A69086A496A6B69121A8B411ED2009A86
:103C300028696969801AD54AB1418518E0697941D6
:103C4000010604D5A581E58126F06CFD06E080061D
:103C500005D5A581E58126F065FD40002D1AE069B6
:103C6000012189020843E061606885800498C549A4
:103C7000800040394018006B3A2780020190BF480D
:103C8000E75F4069009AFB17C11780187141C01B9C
:103C9000019A99410023801A9941616120616088ED
:103CA0000121C9030843608005B0F0BDF8B50400E8
:103CB0000D004FF026EEB34BAA00403BD218136B19
:103CC0006268002692781507AD0F022D0ED11709F4
:103CD000042F0BD1A94A9D02603A92690B00978884
:103CE000310038185941401BB1410FE0E58DB5084E
:103CF00001000000C43B00000004000021A408C231
:103D0000012D14D112090E2A11D19B0202001800B4
:103D10000D00101A2B00B341642219008018714164
:103D20006161206160880121C90308436080F8BD9A
:103D3000F3B50C0083B00027C869C00403D5208DFB
:103D400081054D0E1BE0E06A0026350001900EE073
:103D50000199A8004118042202A84FF08CED6B468F
:103D6000D87A6D1C0007000F86190E2D02D26078DC
:103D7000B042EDD26B4618898005450E187AC0070F
:103D800000D00127E069290002040398120C2FF0EB
:103D9000C1F90600012F02D10E352D062D0E6068E7
:103DA00001230288E0690104090C28004FF0B6EDF8
:103DB0007C498019096B081860877FE7F8B50220F5
:103DC00019F0FEFA0500FF21774800222D314FF04F
:103DD0004AED060079D00221B020317334183081C9
:103DE000A078F32280088000104008300007000F00
:103DF0004030A070E0784008400008431040CF21D8
:103E00000840BF210840E0702D200001291806223B
:103E10000D00A01D4FF02EED2000062229000C30D1
:103E20004FF03CED20000622290012304FF022ED29
:103E3000002020801C2035183081742128004FF08C
:103E4000EAEC534A2F00162060372C66603A7873EC
:103E50005088A87010004030017E002904D0C1882D
:103E6000A1808089A87002E09069C088A080A868BD
:103E7000FF21491C0843A860022019F0A1FA7061D3
:103E80004A48007E800607D4A878002804D0A86895
:103E9000012189070843A86007203873A868052115
:103EA00089020843A86030002FF000FE3A490869F3
:103EB0000222104308613649012088611C3148689C
:103EC000401C48600120F8BDFFE731491C314869BA
:103ED000401C48610020F6E72E4910B5CA6800244E
:103EE00082421ED10020C86029488069002803D181
:103EF000FFF764FF04000AE02D4801694069814230
:103F000005D02C4807220068012101F05BF8204908
:103F10002039087E002804D0002C03D12B2013F078
:103F200021FC10BD0128FCD10220087610BD10B57F
:103F3000184C2169814204D12E2013F013FC00207B
:103F4000206110BD38B504001149002088614FF090
:103F5000E2EC104A002C5162106204D00C481C3074
:103F60000168491C01600A4C203C207E02282AD1AD
:103F70000C49C031C86802231843C860106901F0B9
:103F80008CF908220092E2880B48024B002115E0D0
:103F90005072050098520500C0A20080FFFFFF7F0D
:103FA000A60E000040A60080300500044453000423
:103FB00000A0008070030004F33D0000103301F006
:103FC0001AF90320207638BDFEB54FF0A4EC0C00A2
:103FD0000090FCF716FBFE4DFE490190287CC96954
:103FE000084326D128002038017E07000026403FE4
:103FF000002904D080887B6D3A6D31000AE02BF0F7
:1040000007FC002801D168690AE0B8697B6940882B
:104010003A6931008018009A5941801AA1416861BB
:10402000002806DD2FF06DFF002802D0287C401C00
:1040300028740198FCF7EAFAFEBDF8B5012000F0FB
:10404000C1FC4FF068ECE24AE24E603A51651065FF
:10405000F06801F022F9DE4CDF4F203C207E002585
:10406000002858D04FF056ECB26AF36A801ADB4A47
:1040700099412B00121A8B4101D2E56130E0E069D1
:1040800001282DD122F032FA032817D822F01CFA89
:10409000002813D1E088FF30F5300004000CB8424E
:1040A000E08000D9E780A088CD49FF38F5380004CA
:1040B000000C8842A0802ED2A1802CE0E088C84964
:1040C00064380004000C8842E08000D2E180A088BF
:1040D000C44964300004000C8842A080ECD81AE087
:1040E00022F0CCF9002803D03068E080706811E03D
:1040F000B069002801D0B56109E0BB492BDC2EAEC8
:1041000001000000C03F000000040000727EDBAE32
:1041100082008A58002A04D1401C0728F8D3E7807F
:1041200001E06089E0802089A080AF4B08220092E6
:10413000A288B34800210C3301F067F801202076F3
:104140007069B04F01280DD1FCF765FA7561796986
:10415000302291437961AC494A6A02239A434A6208
:10416000FCF75EFA9F49A0884861386902218843BC
:104170003861FFF733FFB0E6F8B50400994E706878
:10418000002836D0FCF747FA35000700203D287E8E
:10419000002C1ED0002829D12868002826D070685D
:1041A000002823D02BF03EFB00281FD122F064F919
:1041B000002803D122F06CF9002817D09349C86871
:1041C000012252059043C8604FF0B6EBFFF73FFF66
:1041D0000CE000280AD0844C206901F068F8E068FF
:1041E00001F065F8FFF7FAFC002028763800FCF7AC
:1041F00017FA72E67C498A6882420DD100208860F5
:10420000012048617F4841693022114341617E4964
:10421000486A0222104348627047F8B52BF002FB4F
:10422000704D714C603D00280FD0A86800280CD05C
:10423000A06801F03CF8082200921922230074487B
:1042400052010021083300F0E0FF664E203E307E30
:10425000002810D003280FD122F01AF9002804D02A
:104260006A49C86802229043C860206901F01FF8BB
:104270002E2013F081FA30E60128FCD14FF054EBE8
:104280002A6D6B6D821A9941B0880B000021801A4B
:104290009941604D00040014A842ECDAE06801F096
:1042A00006F8514B0822009255482A0000210C3391
:1042B00000F0ABFF11E6F8B521380127494D4A4E11
:1042C000BF0203004FF0FCEA0E2D2D2D2D2D2D2DBC
:1042D00037082E7B3133A82D6868002821D0FCF7E1
:1042E0009AF904002BF09EFA002817D00020FFF75F
:1042F00043FF4FF022EB4549C868012252051043A5
:10430000C86041488038816AFF229204114381626B
:10431000380000F0D5F8380000F0C5F82000FCF7B0
:104320007FF9DAE500F07BF8D7E5012000E0002016
:10433000FFF722FFD1E52B4C603CE088002804D138
:1043400020002430A061A08803E026494439401EA3
:10435000A161E0800120A060380000F0A4F84FF0D7
:10436000E4EA6161206105F08AFAF06800F09FFFDD
:1043700008220092A0691C4B0288214800210C33BE
:1043800000F043FF70691F4F01280ED1FCF743F97D
:104390000021716179693022914379611A4A536A27
:1043A00002218B435362FCF73BF9A06940886861A6
:1043B0003869022188433861FFF710FE8DE5FF243C
:1043C000F5346C61FFF70AFEF06800F070FF064BF1
:1043D000082200920A48220000210C3300F015FF49
:1043E0007BE500005072050098520500D859000086
:1043F00020A10700B80B000050460000D41403C0F1
:104400009D3D0000C0A20080C0A8008000A70080E1
:10441000A540000034080000FFF719FE5DE51C48C8
:1044200070B54068002831D0FCF7F5F8194C06004B
:10443000E06800F03CFF0025E56005F038FAA06870
:1044400000F035FF1448A560416930229143416175
:104450001248416A02229143416210488038816AC1
:10446000FF22920491438162440D200000F028F85D
:10447000200000F020F8064860388560FFF7AEFBAA
:104480003000FCF7CDF80120FFF776FE70BD00008C
:104490005072050098520500C0A20080C0A800809C
:1044A0000948C069704708490A6902430A618A6974
:1044B00002438A617047044A116981431161704760
:1044C0000149C043C8617047802100800A490A48F9
:1044D000403942685204FCD44A68002AF9D1704736
:1044E000074906480860704710B525F0BBFC10BDB1
:1044F00010B525F023FC10BD40E800807D4300008E
:104500001C570500FA480068816801229B78913C9D
:1045100001000000BC43000000040000708703B8E5
:104520001204114381608168FF222032114301226D
:104530005203914381600100C0310A6880231A430D
:104540000A6040310A681A430A6041689A001143C0
:1045500041604168D200114341607047E9480068FA
:1045600000680004000C7047E648006841680122BA
:104570001205114341607047E2480068416801221A
:104580001205914341607047DE480068806BC005AA
:10459000C00F7047DB480068416801225204914314
:1045A00041607047D74800684168012252041143B6
:1045B00041607047D3480068816B002904DA816B41
:1045C0000906090FFBD17047806B7047CD48006822
:1045D000816B0906090FFBD1704709040143C948E3
:1045E000006881617047C74909688A69120C120422
:1045F00002438A617047C3490968CA68120C1204F1
:104600000243CA607047BF4909684A69120C120424
:1046100002434A61704709040143BA480068C16314
:104620007047B84909684A68120A120202434A6090
:104630007047B4480068816BC907FCD0416801220B
:10464000D203914341607047AE4909680A6B086321
:1046500048680122D203104348607047A9480068A7
:10466000406A7047A7480068C06A7047A54800685C
:10467000406B7047A3490968CA698243CA617047A1
:10468000A0490968CA690243CA6170479D4909681F
:104690000A6A02430A6270479A4909680A6A8243B1
:1046A0000A62704797480068806B8007C00F7047A8
:1046B00094480068806B0007C00F704791480068FD
:1046C000C030016840221143016070478D48006886
:1046D000C030416837229143416070478948006883
:1046E000C0304168082291434160704785480068A6
:1046F000C03041680822114341607047814800681A
:10470000C030016801221143016070477D48006894
:10471000C030016849084900016070477948006865
:104720004168012292041143416081681211914352
:104730008160FF30401C4168490849004160704772
:1047400070480068C11DF9314A6801231A434A6064
:1047500041689A049143416081681211114381605C
:10476000704768480068FF30401C4168022291434E
:104770004160704763480068FF30401C4168022276
:104780001143416070475F480068FF30401C01687A
:1047900001221143016070475A480068FF30401CF5
:1047A0000168490849000160704756480068803038
:1047B00041684908490041607047524800688030AC
:1047C0004168012211434160704770B54D4D286822
:1047D0008030016801221143016001684A4C49029E
:1047E00005D50168A14301600A204EF090EF2868CA
:1047F000803001682143016070BD424800680100BB
:1048000080310A68520852000A60816BC900FCD4EA
:1048100070473C48006880300068C007C00F704790
:104820003848006880300168374A9143016070471A
:1048300034480068803041680622914341607047E7
:10484000304A12688032536A09011B0F1B0709099D
:104850000B435362116A4003C90CC904400B014366
:10486000116210681F2109048843012109054018BD
:1048700010601068490008431060704721480068C4
:104880008030C068704730B51E4C21680A69012528
:104890002D042A430A610A008032156910615069AB
:1048A00053619069F02090618868102210438860FD
:1048B00088682023984388602068416B426B8A4255
:1048C000FCD0FFF7DBFF0028F6D120688168194390
:1048D00081604168012252031143416030BD0948A3
:1048E00000688030006970470648006881682022AF
:1048F000114381607047034800688168202291431A
:104900008160704768010004000040001749096891
:1049100080310A681F23DB05C0069A430E3651F129
:1049200001000000B847000000040000235DD0D45F
:10493000000902430A600868012212071043086058
:10494000E9E70F48006880680003C00FE3E70C4800
:10495000006881680122D20411438160DBE70848C6
:10496000006881680122D20491438160D3E7044842
:10497000006880300168FF22521C11430160CAE7C1
:10498000680100043F488068002800D0012070477B
:1049900010B503F07AFF00280ED0FFF7F3FF0028D0
:1049A0000AD03948C16802229143C1603548406845
:1049B000C00FC0072BF009F910BD10B5314CA1682C
:1049C00081420ED1FFF7E4FF60684004400CFFF71E
:1049D00086FD60684004400CFFF786FD0020A06063
:1049E000606010BD08B5274B5A6802435A60082220
:1049F00000920A0025480021083300F01AFC08BD87
:104A000070B5050000240820FFF76EFD1E488030B9
:104A1000C06A400013D424F0F8FA00280FD0082010
:104A2000FFF755FD002D01D10124E40720000821E6
:104A3000084314490968FFF7D5FF002070BD1249EB
:104A4000C86802229043C860012070BD0E48C1684A
:104A500002221143C16070470B48C0680221084020
:104A60007047082010B5FFF73AFD0820FFF73CFD1E
:104A7000044CA068002804D000F02DFC0020A060A9
:104A8000606010BDC852050000A7008043480000C8
:104A9000AD4908220028C86801D0104300E09043C7
:104AA000C8607047A94800214160FF21017070472C
:104AB000F0B503252D03A448A54CC030C20D9302C8
:104AC000870C0029A04E016A0AD011430162016AD5
:104AD00099430162606B284360633068384309E0A2
:104AE00091430162016A19430162606BA8436063EC
:104AF0003068B8433060F0BD38B505000024684622
:104B00000AF020FC002802D1002D1AD10BE0002D64
:104B10000BD16B465878C10713D0400611D5987851
:104B20000007000F0BE001240BE0012D09D16B46BB
:104B30005878810705D5C00903D098780009012865
:104B4000F1D0200038BD73B56B4605005C79600775
:104B500008D57E4E7068002804D17E4830F016F8E3
:104B6000012070602800FFF7C7FF0106090E28002A
:104B7000FFF79EFF600703D46B461879000900D049
:104B80000120FFF785FF7CBD33B56B46002899797E
:104B900002D10807000F02E0012813D108096E4A6C
:104BA0006949D443803100280DD06C4B6C4D0128ED
:104BB0000DD0092810D00F2804D1C817C86008618B
:104BC000C86108623CBDCA600A61CC6102E0CB608A
:104BD0000A61CD610C623CBDCB6062480861CD6169
:104BE0006148EEE7F0B50028047A45780679477900
:104BF00026D001290CD10599012909D1012A06D114
:104C00006540D90700D06640990700D567402C0061
:104C100001782A0609040A4321020A434A49224329
:104C2000C0314A628279C37812041B021A433243AC
:104C30008A62C279807812043B021A430243CA6234
:104C4000F0BDF0B50026050087B06B46187D370033
:104C500034001E75002D06960ED145205875987D9E
:104C60000120987518720221587299720421D97224
:104C700018735873997310E047206B465875987DE8
:104C800090209875092018720A22587211219A7280
:104C9000D97218735A73997312216B46D9731874A9
:104CA00005992800FFF74FFF05992800FFF76CFFD3
:104CB000069823000207120F00923A00310002A862
:104CC000FFF790FF012007B0F0BDF0B50025070009
:104CD0001E482E0001782C00B94285B032D00770F2
:104CE00004A80AF02FFB002804D13800FFF7A9FF21
:104CF00005B0F0BD6B46187C0007000F012805D8F1
:104D0000380001A90AF032FB002801D10020EFE7AA
:104D100004993800FFF717FF04993800FFF734FFB4
:104D20006B46587CC10601D4800600D5850C271D32
:104D300001000000B44B000000040000D732A56061
:104D400001256B46187C23000207120F00923200E7
:104D5000290001A8FFF750FF0120D3E700A700803A
:104D6000D45205000021008000A0008011DD55DD37
:104D70001FDF5FDFEF2FAF2FF1FDF5FDFEF2FAF23F
:104D800070B50024434D01E08047641CA000285802
:104D90000028F9D170BD10B54EF0F0ED002024F0E0
:104DA00020F923F016FE002023F053FD23F052FDDE
:104DB00023F082FD23F0C2FF24F0B2F824F01BF9A7
:104DC00024F01CF823F0BBFF23F0C0FF002010BD2F
:104DD00010B524F023FF24F048FF00F041F924F03F
:104DE000DCFE002801D0012010BD24F0F2FE0020DE
:104DF00010BD10B5002420F0F7FE28482649416276
:104E0000274981622749C1622748416B08229143A3
:104E1000416322494031086A244A10400862200058
:104E20003FF0E0FF002010BD432221481202002184
:104E300010B500F025F801221E481203002100F0F1
:104E40001FF801221C491D48D20200F00EF805226D
:104E50001B491C48520200F008F824F0F2FEFFF74C
:104E60005DFB24F0D8F8002010BD30B59408002276
:104E700003E09300CD58521CC550A242F9D330BD77
:104E80009308002210B502E09400521C01519A428E
:104E9000FAD310BD402501C00F0020000020008083
:104EA00080808080800A808040A80080FFCFFFCF74
:104EB00000A70004003003C0006EF40300F40004F7
:104EC0000076F40300EA00043EB5002001220290BF
:104ED000342102A824F018FD00281BD15E490120CE
:104EE0000870029824F01AFD5C4CFF252D35A52290
:104EF000290020004EF0F2EC0C22042101920091D6
:104F0000029822000A212B0024F0F7FD002801D08E
:104F100001203EBD00203EBDFEB50D001600089FDD
:104F20000A9A0999002800D1FEE70468002C00D1F4
:104F3000FEE702920191320029002000009724F040
:104F4000FEFCFEBD10B54EF01EED0006000E10BDBD
:104F500010B54EF01CED0006000E10BD002810B577
:104F600001D04EF018ED10BD38B514006A464EF071
:104F700016ED00982070002038BD10B504004EF0EA
:104F800012ED2060002010BD10B54EF010ED10BDE8
:104F90007CB50D001600079A0699002800D1FEE79F
:104FA0000468002C00D1FEE7019200913200290034
:104FB000200024F0A2FD002800D165637CBD10B55F
:104FC000416B24F0B1FD10BD7CB50C001500069AB4
:104FD000002800D1FEE70068002800D1FEE700218C
:104FE000019200912A00210024F0D7FC7CBD10B56D
:104FF00024F0F2FC10BD10B524F0F9FC10BD00281F
:1050000010B500D1FEE70068002800D1FEE724F0CB
:10501000F7FC10BD10B524F0FDFC10BD38B5140030
:10502000049A0092220024F01AFD38BD002810B521
:1050300000D1FEE70068002800D1FEE724F043FD20
:1050400010BD10B524F049FD112800D1122010BD6B
:1050500010B524F04AFD10BD6C0100047816000460
:105060001C480021C94341601B4841600169B022CE
:1050700011430161816A02221143816217488168EC
:10508000202211438160704770B580204EF0EEEB16
:1050900011498D690F4900264A680C68954200D86D
:1050A00000E0641C4EF0E2EB6D1C68423100801998
:1050B000614170BD07480168491C01600021C94376
:1050C000416070470448806902494A68904200D8AC
:1050D00048607047DC5205000030008000280080E6
:1050E000EA48006AEA494968081A7047E7480169CE
:1050F000820C91430161E6494968C16001690B2254
:105100001203114301617047E0480169820D914328
:105110000161E04A4021D1600421C94341627047E6
:1051200070B50400FFF7E2FFC82C00D2C824D849AC
:105130004868844200D30400D44804229D650DB021
:1051400001000000B04F00000004000084E8760C6D
:10515000D2434262D44A936840252B4393608460D3
:10516000026905235B021A430261C8688047200078
:1051700070BD01684A69026000200861C948006882
:1051800082684A6181607047002307E082688A4232
:1051900002D3521A826000E0836040690028F5D192
:1051A000704770B5040000200BE04E680D690B6875
:1051B0002000FFF7DEFF002B02D0310028009847C7
:1051C00001202168002902D08A68002AEDD070BD34
:1051D00010B5026802E0100052691430002A03D0B2
:1051E0008B689468A342F6D84A61016010BD10B57F
:1051F000AC4C20680069002803D02069401C206165
:1052000010BDFFF78BFFFFF775FF0300FFF778FF77
:105210002168CA689A4201D960681B184868190059
:10522000FFF7B2FF2068001DFFF7BBFF2068416851
:1052300000290FD0FFF75EFF21684A6801001000C7
:10524000FFF7A2FF206840688068FFF773FF2168BE
:10525000C86010BD0021C16010BDFFB581B0002441
:105260001D00FFF75BFF80204EF00AEB8D4E009093
:10527000306800278168002921D00C0049698160CD
:105280000168491C016001D1012101600198206081
:105290000298606030680068206103986761A060D0
:1052A0000A982073FFF726FF31684A680100100052
:1052B000FFF76AFF30682100001DFFF789FF3068A3
:1052C0004168002907D00069002804D18868FFF7E9
:1052D00031FF3168C860002C07D02069002804D055
:1052E000002D00D02860012403E0002D00D02F60A5
:1052F000002400984EF0C4EA200005B0F0BDF8B5D7
:105300000025070067482E000468241D002F20D0C8
:1053100080204EF0B6EA030007E00169B94202D1ED
:1053200001252E0001E0040014342068002801D07B
:10533000002DF2D0002E02D02000FFF71AFF5948AE
:1053400000684068002801D1FFF7E8FE18004EF021
:1053500098EA3000F8BD70B580204EF092EA514CCA
:105360000500216801200861486800280FD0FFF778
:10537000D5FE4EF002EB2268D1619061FFF7BAFED4
:10538000010020684068FFF7FFFEFFF7B9FE280024
:105390004EF076EA70BD70B580204EF072EA414D55
:1053A000060028680169002916D0002101614068C3
:1053B000002811D04EF0E0EA2C68A269E369801A57
:1053C000994101006068FFF7DFFE28684068806847
:1053D000FFF7B0FE2968C86030004EF052EA70BD99
:1053E000F7B582B000250E00FFF7B5FF80204EF024
:1053F00048EA01902B480027006844680CE0002E22
:1054000002D0207B304206D0A5684EF0B6EA029A60
:105410004019794103C26469002C01D0002DEED0FF
:1054200001984EF02EEA0498002801D1FFF7B3FF4F
:10543000002D06D0FFF75EFE854201D32D1A00E055
:105440000125280059E7F8B5060000273D00802017
:105450004EF016EA0090134801684C6817E0207B74
:10546000400711D5A068B0420ED80020002DA060E2
:1054700006D0606928600B4800684168616144603B
:10548000FFF789FF012702E0250064691435002C2D
:1054900001D0002FE3D000984EF0F2E93800F8BDBB
:1054A00000300080E45205000028008030B5002262
:1054B000FA4C256807E018235343C35C002B0BD13B
:1054C000521C1206120EAA42F5D36268002008E0B0
:1054D0000301CB5C002B01D0012030BD401C000635
:1054E000000E9042F4D3002030BD182358434018DA
:1054F0000169491C01617047F7B515000600E74FC7
:10550000002417E018206043295C00290FD04119BE
:105510004878B0420BD10198091D06224DF0DCFC01
:10552000002804D11821614349190861FEBD641C9B
:105530002406240E38688442E4D3FEBDF7B5150076
:105540000E00D64F002411E02001295C15B0E108BF
:1055500001000000AC530000000400003B2D53BFCD
:1055600001290AD140194178B14206D10099C01CE5
:1055700006224DF0BBFC002805D0641C2406240E36
:1055800078688442EAD32000FEBD0300080010B50D
:1055900014001900FFF7DCFFC5494968884203D2AF
:1055A000002100010019C16010BDF7B5150007000A
:1055B000BF4E002412E018206043295C01290AD163
:1055C00041194878B84206D10198091D06224DF0CC
:1055D0008DFC002805D0641C2406240E306884420B
:1055E000E9D33068844202D10020C043FEBD1820B8
:1055F000604340190069FEBD0300080010B51400A7
:105600001900FFF7A5FFAA494968884203D20001A3
:105610000019C06810BD0020C04310BDF7B51500CB
:105620000600A348002440681CE02101695C0029B1
:1056300015D1301D4EF062E927017C196070019888
:105640003100A070E01C062214314EF050E9012018
:10565000E8550020E06001200003608104E0641C44
:105660002406240E8442E0D3914880688047FEBD22
:105670001823594310B58C188D4A616912699047F7
:10568000002802D0E17826F044F810BDFFB583B0C1
:105690000F00874D0C9EE968039888470D30012163
:1056A000814000242800019100683BE018216143FB
:1056B000715C002933D1381D4EF020E91821614377
:1056C00002918D19687005983900A870281D06226E
:1056D00014314EF00CE90299012070540698E870DC
:1056E000380008304EF00AE9002802D109200002F3
:1056F00002E0C300181800026861696901988142DC
:1057000001D90198686100202861287301200003F5
:105710006881039832002100FFF7AAFF04E0641CAF
:105720002406240E8442C1D361488068804707B0B4
:10573000F0BDFFB581B01E0000273C0016E020013F
:10574000315C00290FD085190298E91C06224DF022
:10575000CDFB002807D168780199884203D10398CE
:10576000A97801270170641C2406240E5048406863
:105770008442E4D3380005B0F0BDF7B51600002729
:105780003C0014E018206043315C00290CD08519DE
:105790000198291D06224DF0A9FB002804D1697843
:1057A0000098814200D10127641C2406240E404841
:1057B00000688442E6D33800FEBDFFB581B01E000C
:1057C00000273C0016E018206043315C00290ED011
:1057D00085190298291D06224DF088FB002806D164
:1057E00069780198814202D1039801270470641CF2
:1057F0002406240E2E4800688442E4D33800BAE719
:10580000F8B50D0007002A4E00240CE01820604374
:10581000285C002804D02A0021003800FFF728FF68
:10582000641C2406240E30688442EFD3F8BD70B5A2
:1058300000248300CC501E4D210008E04B009E1830
:105840007678864200D1D454491C0906090E2B688B
:105850009942F3D370BD80000858704770B500219D
:10586000134D0C0007E04A004B1D1618491C090691
:105870007370090E84542A689142F4D370BD0C4AA7
:105880000023DB4310B5126800210CE04C00045DDE
:10589000002C05D10122490042540818835604E027
:1058A000491C0906090E9142F0D3180010BD0000F2
:1058B00000530500234B10B51B68040000209C42D8
:1058C000F4D218236343D45C002CEFD09818C0782E
:1058D00008700120EAE7FFB581B080200A9E4DF0F4
:1058E000DAEF00901748002420E018276743F05DA6
:1058F000002818D0BD1968780299884213D10199FF
:10590000281D06224DF0F2FA00280CD11820604321
:1059100003998019C07808700499A878087000204D
:10592000F055286106E0641C2406240E0548006832
:105930008442DAD300984DF0AEEF02488068804789
:1059400019E7000000530500F94801888288914258
:105950001FD10189828991421BD1018AAEFA4BDDA8
:1059600001000000A85700000004000068F780D381
:10597000828A914217D1018B808B814213D1F148E9
:1059800020300188828891420DD10189828991421B
:1059900009D1018A828A914205D1018B808B814293
:1059A00001D1012070470020704730B55B070C78AB
:1059B0005B0FE408E4001C439F23039D1C400C7014
:1059C00054040AD5920408D5C269FF24641C2243FA
:1059D000C2610878184020300870002D03D0087884
:1059E00080221043087030BD0122120302430F20B1
:1059F0000002824308021043704710B5038D9B05D7
:105A00005B0E032B11D900290CD0C16920248023FF
:105A1000002A09D0CA0502D42143994301E0194361
:105A2000A143C161012010BDF9E7002010BDFFB501
:105A300081B00E001F0001890A9D0C18242120004E
:105A40004DF05AEFA421002F02D00120000300E006
:105A5000002008436080032080030543280A257145
:105A600060712000062231000C304DF04AEF03999E
:105A70000622A01D4DF044EF200005B0F0BD70B52A
:105A8000040016001D000622801D4DF03AEF200094
:105A9000062231000C304DF034EF200006222900A0
:105AA00012304DF02EEF70BDFFB581B004000E0036
:105AB00017000B9D20214DF020EFA078F321084026
:105AC000B10008430007000F39010843A0700A9A8B
:105AD00004992B002000FFF7D2FFCEE70300082037
