:1000000005000000000000000C0000009D32BB1144
:100010000C200080FFFFFFFFBC7E9A49010000001A
:1000200000000000000400000094511A1CF09FE53D
:100030001CF09FE51CF09FE51CF09FE51CF09FE580
:100040001CF09FE51CF09FE51CF09FE50B3E0E1891
:1000500038070000BC060000C006000018070000BA
:100060001C070000200700002407000031070000E3
:10007000000000EA700000EA28008FE2000C90E81F
:1000800000A08AE000B08BE001704AE20B005AE168
:100090006900000A0F00BAE814E04FE2010013E320
:1000A00003F0471013FF2FE1D08A0400C08B040037
:1000B00001C08FE21CFF2FE18A18037801309C07F2
:1000C000A40F01D1047801301D1101D10578013050
:1000D000013C05D0067801300E700131013CF9D1A8
:1000E000002D11D004781B0701309B0F0C1B032B34
:1000F00001D1037801301B02E41A6B1C267801340D
:100100000E700131013BF9D59142D6D37047000002
:10011000102052E27800B0287800A128FBFFFF8A67
:10012000822EB0E13000B0283000A1280040904578
:10013000004081451EFF2FE10030A0E30040A0E316
:100140000050A0E30060A0E3102052E27800A12854
:10015000FCFFFF8A822EB0E13000A12800308145EB
:100160001EFF2FE104309FE503308FE013FF2FE1E6
:100170007504000010B5040000F096E80068005D0A
:10018000000706D5DF2C04D02000203810BC08BCA6
:1001900018472000FAE710B4042A0ED303000B43DB
:1001A0009B070AD108C810C9A34202D1121F042A12
:1001B000F8D2A34201D0001F091F002A02D100205B
:1001C00010BC7047D30701D0521C05E003780C78AF
:1001D000401C491CA34207D103780C78401C491CE1
:1001E000A34201D1921EF1D1181BE9E703000B4392
:1001F000020070B49B0710D10F4CE50100E008C26B
:1002000008C91E1B9E432E42F9D01906090E117013
:10021000521C00290DD01B0AF7E70C78491C531C0F
:10022000002C147005D00C78491C5A1C002C1C7032
:10023000F3D170BC70470000010101010000A0E192
:100240003A0000EB03002DE99A0000EB0300BDE843
:10025000620000FA0F002DE9990000EB0F00BDE8E5
:100260001CC09FE50FC08CE001001CE30DE08F1265
:100270000FE0A0011CFF2FE101C08FE21CFF2FE166
:1002800000F04AF85512030001402DE90000A0E1FA
:10029000810000FA0140BDE8000000EA0000E0E350
:1002A000060000EA1EFF2FE110402DE9090000EBD7
:1002B0001040BDE8040080E21EFF2FE12D00000089
:1002C0000C109FE51800A0E3563412EF1EFF2FE13B
:1002D000D4FFFFFF2600020004009FE51EFF2FE170
:1002E0001EFF2FE1D016050010B5C046C04608001D
:1002F00007D00178002904D005A100F024E90028E6
:1003000004D10448784410BC08BC18470020FAE720
:1003100043000000E086040010B5C046C04604005B
:10032000C046C0462000FFF7B0EF10BC08BC18471D
:100330000E40A0E1660000EB04E0A0E101402DE9E1
:100340007B0000EB0040A0E10140BDE813402DE937
:100350000100A0E3121DA0E3081084E5000084E57D
:100360001340BDE80010A0E1040084E50EF0A0E118
:1003700010402DE903002DE96D0000EB0040A0E1E5
:100380000300BDE8042094E50D30A0E100E082E028
:1003900003005EE1002081E50B00008A0E3093E04F
:1003A000011A8EE26330A0E1071081E20730C3E357
:1003B0000710C1E3030051E10310A081041084E59C
:1003C0001040BDE8020041E01EFF2FE10020A0E147
:1003D0000000A0E30000A0E11040BDE81EFF2FE1F7
:1003E000F0B585B0C046C04605000C0047F0F8EBFC
:1003F000002001950294C046C046039001A8FFF773
:10040000B2EE040001A80D00009303C81600C04618
:10041000C046C046C04600F09EEA00210800C04623
:10042000C0460700FFF758EF8FD7E64A01000000EB
:10043000FC030000000400005AEF5E13049000214A
:1004400007600800FFF75AFF411C04984160002133
:100450000800C046C04601000498816000210800E1
:10046000C046C04601000498C16000210800C04693
:10047000C046010004980161C046C046C046C0465F
:10048000C046C046C046C046C046C046C046C0463C
:10049000C046C046C046C046C046C046009B05B0E8
:1004A0002000049C29003200A646F0BC01B0704731
:1004B00010B5C046C0460020C046C046C046C04633
:1004C000C046C04610BC08BC184700000000E0E36E
:1004D0000210E0E31EFF2FE110402DE90000A0E133
:1004E0001040BDE81EFF2FE10E50A0E1430000EBDD
:1004F00005E0A0E10050A0E10700C0E30D10A0E17D
:100500000A30A0E100D0A0E160D08DE220402DE9CA
:10051000B94E00FA2040BDE80060A0E30070A0E3FF
:100520000080A0E300B0A0E30710C1E305C0A0E194
:10053000C009ACE8C009ACE8C009ACE8C009ACE847
:1005400001D0A0E11EFF2FE104009FE51EFF2FE177
:100550001EFF2FE1C0160500030010E30300110386
:100560001700001A00402DE984E09FE5042090E484
:10057000043091E40EC042E002C0CCE18EC31CE026
:1005800003005201F8FFFF0A0040BDE8030CA0E1A0
:10059000020C50E0FF0E1C030700001A0308A0E144
:1005A000020850E0FF0C1C030300001A0304A0E142
:1005B000020450E0FF081C03020053006000A01179
:1005C0001EFF2FE10120D0E40130D1E4010052E30D
:1005D000030052210400001A0120D0E40130D1E4CC
:1005E000010052E303005221F5FFFF0A030042E03D
:1005F0001EFF2FE10101010110B410BC7047000083
:1006000000009FE51EFF2FE1B016050004009FE5E6
:100610001EFF2FE11EFF2FE1B4160500913082E08E
:100620000300A0E10210A0E11EFF2FE100A000479F
:10063000C0129FE588229FE5DB00A0E300F021E1E6
:10064000021081E00310C1E3041041E201D0A0E1F7
:1006500000A0A0E300B0A0E368229FE5D200A0E3E1
:1006600000F021E1021081E00310C1E3041041E237
:1006700001D0A0E1D300A0E300F021E13C329FE5EE
:10068000001083E534129FE5000091E5040080E24C
:100690003C129FE53C329FE52C229FE5000081E55E
:1006A000002083E5020080E02C129FE50020A0E3FB
:1006B000002081E514229FE5000082E538229FE5B5
:1006C00038029FE52C0082E50700A0E3300082E5B8
:1006D0000900A0E3000082E50B10A0E3101082E502
:1006E0000130A0E3243082E5283082E510229FE526
:1006F0001030A0E3083082E51EFF2FE10EF0B0E1DC
:10070000FF402DE900004FE101002DE9F4119FE5C4
:10071000002091E51F2002E2EC319FE5823193E752
:100720000FE0A0E113FF2FE1DC019FE50810A0E33B
:10073000920102E00410A0E3012082E0021090E7A1
:1007400024209DE5012082E024208DE50100BDE804
:1007500000F069E1FF80FDE8FEFFFFEAFEFFFFEA2F
:10076000FEFFFFEA810000EA03F0F4FF684800475B
:10077000F34627F027F8000094019FE50010E0E31E
:10078000001080E58C019FE5001090E588019FE551
:10079000001090E584319FE50310C1E10030A0E333
:1007A000031081E1001080E554619FE50235A0E36C
:1007B000083186E568019FE5100F01EE64F19FE5C1
:1007C000900F07EE1EFF2FE15C019FE50010E0E3B4
:1007D000001080E554019FE554119FE5001080E56D
:1007E00050019FE5001090E5081081E3001080E5BE
:1007F000001090E5081011E2FCFFFF0A900F07EED1
:100800001EFF2FE1100F11EE1EFF2FE1100F01EE62
:100810001EFF2FE1010050E2FDFFFF1A1EFF2FE136
:1008200014019FE514119FE5F720A0E3040081E483
:10083000012042E20000A0E3FEBFD6D0010000008C
:10084000F80700000004000009358D7F040081E4F2
:10085000012052E2FCFFFF1AF8009FE5F8109FE527
:10086000001080E5F4009FE5F4109FE5001080E59E
:10087000F0009FE5F0109FE5001080E51EFF2FE1DE
:100880007F402DE90952A0E3E0409FE5283094E540
:10089000DC409FE5003084E5D8609FE50000A0E3E0
:1008A000430150E1402195B5002186B7010080B297
:1008B000FAFFFFBA0001A0E1002094E5020050E138
:1008C0004011D5B50010C6B7010080B2FAFFFFBADB
:1008D0007F80BDE85C3E01041000000000040000C1
:1008E000E0030000143D0104343D0104383D0104DF
:1008F0003C3D010401C05EE50C0053E10330DE37EE
:100900000C30DE2783C08EE01CFF2FE184600500E1
:10091000003000803F1F000000280080B0380080B9
:10092000E0D0040019E8F0030C20008000400190A2
:10093000442000803CC600007C17000044000000FA
:100940000C2800800828008002004000C42000809D
:10095000F0F0F0F0243C0104D83C0104ED05000067
:10096000DC3C0104E9370400E03C010429070000F5
:100970000010009054A104001009050004F01FE5C8
:10098000FBBBF50304F01FE524E9F00304F01FE5C9
:100990004355F40304F01FE50D56F40304F01FE57E
:1009A0003356F40304F01FE5DB55F40304F01FE5B0
:1009B0000755F40304F01FE5C9EEF00304F01FE54A
:1009C000790EF10304F01FE5D14EF40304F01FE5A6
:1009D0009D0EF10304F01FE5630EF10304F01FE523
:1009E00010BFF50304F01FE59CC8F50304F01FE5F4
:1009F0009F51F40304F01FE55351F40304F01FE585
:100A00007951F40304F01FE55352F40304F01FE599
:100A10003151F40304F01FE5B0BCF50304F01FE509
:100A20005DEFF00304F01FE508C0F50304F01FE5D7
:100A30007768F50304F01FE5BCBEF50304F01FE57D
:100A4000A0BCF50304F01FE54317F10304F01FE514
:100A50008516F10304F01FE5C923F50304F01FE533
:100A6000CF24F50304F01FE528C0F50304F01FE5CB
:100A70004DB1F40304F01FE55CB8F50304F01FE585
:100A8000A59FF40304F01FE5A9D5F40304F01FE5C6
:100A9000E3D5F40304F01FE56930F10304F01FE52A
:100AA0008730F10304F01FE5D0C1F50304F01FE522
:100AB000E537F40304F01FE57D86F10304F01FE53C
:100AC0000360F10304F01FE5C346F10304F01FE5E2
:100AD00025EDF00304F01FE5AFB3F40304F01FE5C8
:100AE0009DF7F40304F01FE55B12F10304F01FE52A
:100AF000E160F10304F01FE5BF5EF10304F01FE5C0
:100B0000779AF40304F01FE5156DF50304F01FE573
:100B10006D9AF40304F01FE521D6F40304F01FE5F9
:100B20003BD6F40304F01FE5F5D5F40304F01FE50C
:100B300011ABF40304F01FE553B2F40304F01FE516
:100B40003F01F50304F01FE52BEEF00304F01FE571
:100B5000EFEDF00304F01FE5B9EEF00304F01FE53C
:100B60009B99F40304F01FE53D99F40304F01FE59D
:100B7000DF0EF10304F01FE563ABF40304F01FE59F
:100B8000156EF50304F01FE5C948F50304F01FE5F1
:100B9000D79CF40304F01FE54B9DF40304F01FE51C
:100BA000536AF50304F01FE51BC8F40304F01FE5C6
:100BB000D966F50304F01FE54967F50304F01FE566
:100BC000FD26F10304F01FE5E756F40304F01FE5EA
:100BD0005357F40304F01FE57157F40304F01FE5C5
:100BE0001357F40304F01FE54B0EF10304F01FE567
:100BF00083B6F40304F01FE5A388F50304F01FE5B2
:100C0000058CF50304F01FE55F8AF50304F01FE58A
:100C10003128F10304F01FE5612AF10304F01FE518
:100C2000711DF10304F01FE5858BF50304F01FE54A
:100C30009189F50304F01FE559B8F40304F01FE5AA
:100C400087B8F40304F01FE5278101E501000000E7
:100C5000F40B000000040000FD5AF8CBB5B8F40313
:100C600004F01FE53937F50304F01FE59944F1035B
:100C700004F01FE5734BF10304F01FE56F30F1033F
:100C800004F01FE52DF8F30304F01FE5BDF7F303AF
:100C900004F01FE5830FF40304F01FE5850FF40350
:100CA00004F01FE553F8F30304F01FE5AD4DF10325
:100CB00004F01FE54B10F10304F01FE59B10F10356
:100CC00004F01FE5E310F10304F01FE57D11F103CB
:100CD00004F01FE53F36F10304F01FE5BCC1F50346
:100CE00004F01FE5878CF50304F01FE5F11CF10308
:100CF00004F01FE5272EF10304F01FE5A326F103FE
:100D000004F01FE56D2DF10304F01FE5A522F103AA
:100D100004F01FE5CF22F10304F01FE5131CF103DB
:100D200004F01FE5992BF10304F01FE59D2CF1035E
:100D300004F01FE59F2DF10304F01FE54FBAF40303
:100D400004F01FE58FB3F40304F01FE5D5D2F003E0
:100D500004F01FE5FDEAF00304F01FE511E0F003E5
:100D600004F01FE550BFF50304F01FE5B9DCF00304
:100D700004F01FE551E1F00304F01FE559E3F0032F
:100D800004F01FE5D1E2F00304F01FE59DE1F0035C
:100D900004F01FE5D1B9F00304F01FE595BBF003A3
:100DA00004F01FE5C9BBF00304F01FE5D5BAF0035A
:100DB00004F01FE599AFF00304F01FE501ACF00368
:100DC00004F01FE5C9B2F00304F01FE515AFF0030E
:100DD00004F01FE5F5B0F00304F01FE539ADF003B2
:100DE00004F01FE575B1F00304F01FE5C1ADF00399
:100DF00004F01FE5C5CDF00304F01FE5C5D4F003F2
:100E000004F01FE565D8F00304F01FE561D7F00397
:100E100004F01FE52DD9F00304F01FE599DAF00383
:100E200004F01FE5433FF10304F01FE540B8F5036C
:100E300004F01FE5B4C1F50304F01FE591C8F10308
:100E400004F01FE5EB37F40304F01FE5233AF40345
:100E500004F01FE52F38F40304F01FE548C0F50344
:100E600004F01FE5D716F40304F01FE547D7F1039C
:100E700004F01FE5D3ECF10304F01FE5BF60F103BC
:100E800004F01FE5A56CF10304F01FE5B55EF10366
:100E900004F01FE52106F20304F01FE507C6F30383
:100EA00004F01FE57935F30304F01FE558BEF503A0
:100EB00004F01FE57588F30304F01FE57936F303AA
:100EC00004F01FE511C6F30304F01FE5910AF203D5
:100ED00004F01FE5DF38F30304F01FE56B8FF20326
:100EE00004F01FE559A4F20304F01FE5FD1FF2030F
:100EF00004F01FE5A568F20304F01FE52DF5F103EA
:100F000004F01FE509D8F10304F01FE54331F103B4
:100F100004F01FE5F91EF20304F01FE5692BF2034C
:100F200004F01FE5952BF20304F01FE5512CF203AA
:100F300004F01FE5D31FF20304F01FE5D124F203F0
:100F400004F01FE541BAF20304F01FE5DBF7F303F9
:100F500004F01FE5ED36F30304F01FE52FB1F203B3
:100F600004F01FE5A557F20304F01FE541A8F203C2
:100F700004F01FE533B8F20304F01FE579A8F2038B
:100F800004F01FE5D7BDF20304F01FE5E7D2F2033A
:100F900004F01FE5FDCDF20304F01FE5D536F103A3
:100FA00004F01FE53539F10304F01FE52D08F303C4
:100FB00004F01FE5C5FBF20304F01FE55DFCF2033E
:100FC00004F01FE53732F10304F01FE55132F1035D
:100FD00004F01FE56135F30304F01FE5B935F303B1
:100FE00004F01FE5E5F7F30304F01FE56336F103B2
:100FF00004F01FE5D582F30304F01FE58F36F303F9
:1010000004F01FE57DA3F30304F01FE557D9F203B5
:1010100004F01FE57F0BF40304F01FE533D9F2035E
:1010200004F01FE58D0AF40304F01FE5C383F30306
:1010300004F01FE54D25F40304F01FE5455BF303C1
:1010400004F01FE5B11BF30304F01FE55D24F40376
:1010500004F01FE5CF0BF403667E8F7701000000DC
:10106000F00F000000040000AE802BA704F01FE585
:101070005320F40304F01FE5AD26F40304F01FE54C
:101080008733F40304F01FE5AD2DF40304F01FE5EE
:101090000915F40304F01FE50110F40304F01FE543
:1010A0007D09F40304F01FE5DBD8F20304F01FE52B
:1010B0005D37F40304F01FE53D32F30304F01FE550
:1010C000E131F30304F01FE5F52FF40304F01FE50D
:1010D0009928F40304F01FE5E527F40304F01FE565
:1010E0008112F40304F01FE54313F40304F01FE539
:1010F0003132F10304F01FE549A4F20304F01FE5C7
:101100007B5DF20304F01FE5D9D3F20304F01FE581
:1011100083DFF20304F01FE56118F30304F01FE519
:1011200049ABF40304F01FE59BFBF30304F01FE558
:10113000B907F40304F01FE53F5BF40304F01FE577
:10114000253DF40304F01FE5AF47F10304F01FE56C
:1011500011D5F10304F01FE5C973F20304F01FE594
:101160007579F20304F01FE5BB75F20304F01FE587
:101170003977F20304F01FE5CD88F20304F01FE590
:1011800073ABF20304F01FE507D0F20304F01FE590
:10119000451DF30304F01FE5196DF30304F01FE58B
:1011A000C909F40304F01FE57997F30304F01FE580
:1011B0008D93F30304F01FE51194F30304F01FE58E
:1011C000FBEBF30304F01FE57B31F30304F01FE5B1
:1011D0009D44F40304F01FE5C343F40304F01FE54A
:1011E0005DB6F40304F01FE55B9DF40304F01FE516
:1011F000B927F10304F01FE5452DF10304F01FE5C5
:101200003595F40304F01FE5DD94F40304F01FE5C5
:10121000EB95F40304F01FE53996F40304F01FE5A1
:101220002B97F40304F01FE51597F40304F01FE572
:10123000CFADF40304F01FE56994F40304F01FE557
:10124000D927F10304F01FE5EF24F50304F01FE5AF
:101250002B8BF50304F01FE54312F10304F01FE5A7
:10126000CF4BF10304F01FE54D45F10304F01FE5FA
:101270005D45F10304F01FE5E552F10304F01FE5BD
:101280002345F10304F01FE53751F10304F01FE596
:101290005D5DF10304F01FE54D46F10304F01FE529
:1012A00083ABF40304F01FE599ABF40304F01FE5EE
:1012B0006F32F50304F01FE58529F50304F01FE5FF
:1012C000DD28F50304F01FE55128F50304F01FE5C0
:1012D0002B2BF50304F01FE5712AF50304F01FE53D
:1012E0001B2AF50304F01FE56732F50304F01FE540
:1012F000952AF50304F01FE5D32AF50304F01FE552
:101300000536F50304F01FE5A9AFF40304F01FE56B
:1013100071B9F40304F01FE525B9F40304F01FE5E7
:101320009DAFF40304F01FE565B9F40304F01FE575
:10133000C5FAF00304F01FE541A6F40304F01FE52D
:10134000A72EF10304F01FE5052BF10304F01FE5C0
:101350006799F40304F01FE5ED98F40304F01FE52A
:101360002DADF40304F01FE59731F50304F01FE5FC
:1013700063F6F40304F01FE54BC6F40304F01FE525
:10138000C199F40304F01FE52F9AF40304F01FE55C
:101390004935F50304F01FE5DD35F50304F01FE5DD
:1013A0004164F50304F01FE5C597F40304F01FE55D
:1013B000E52DF50304F01FE535CAF40304F01FE53D
:1013C000B5AFF40304F01FE5FB48F50304F01FE597
:1013D0008D58F40304F01FE5E904F10304F01FE560
:1013E0002B0EF10304F01FE5DD0DF10304F01FE502
:1013F0003958F40304F01FE50105F10304F01FE57B
:101400000F09F10304F01FE53B08F10304F01FE5A9
:10141000C157F40304F01FE57158F40304F01FE50D
:101420005758F40304F01FE521B0F40304F01FE55E
:10143000FFBBF50304F01FE5EDB2F40304F01FE574
:1014400001B3F40304F01FE5E5AFF40304F01FE576
:101450005DB4F40304F01FE5C1BFF50304F01FE51C
:101460008FB7F40304F01FE57DEA1C4A0100000079
:10147000EC1300000004000011450E1443B3F40304
:1014800004F01FE57FB7F40304F01FE5F557F103FF
:1014900004F01FE5B3FAF20304F01FE5910FF10326
:1014A00004F01FE56932F10304F01FE5F742F10390
:1014B00004F01FE5676EF40304F01FE57B64F4039A
:1014C00004F01FE57F63F40304F01FE50567F403F0
:1014D00004F01FE515A6F40304F01FE575B1F4034D
:1014E00004F01FE589B1F40304F01FE5D7B3F4035A
:1014F00004F01FE52D8FF40304F01FE565CFF4031E
:1015000004F01FE58D93F40304F01FE5254BF5036C
:1015100004F01FE5474BF50304F01FE5E192F403E7
:1015200004F01FE5B9CCF40304F01FE533CBF4035A
:1015300004F01FE557C9F40304F01FE53B93F403DF
:1015400004F01FE57BCAF40304F01FE551CEF40359
:1015500004F01FE533CEF40304F01FE5ED90F4032F
:1015600004F01FE525CCF40304F01FE567B7F4038E
:1015700004F01FE573B7F40304F01FE55BB7F40351
:1015800004F01FE58B10F50304F01FE5690FF50368
:1015900004F01FE5B10FF50304F01FE5D70FF503C5
:1015A00004F01FE57D7500C004F01FE58B7500C0D9
:1015B00004F01FE58FFBF40304F01FE57913F50336
:1015C00004F01FE5D5FBF40304F01FE58513F503D4
:1015D00004F01FE59113F50304F01FE5E908F50396
:1015E00004F01FE5B12DF50304F01FE51910F50314
:1015F00004F01FE55110F50304F01FE5D5F7F403DF
:1016000004F01FE511FAF40304F01FE507BCF4032E
:1016100004F01FE5A7F7F40304F01FE577F9F403DE
:1016200004F01FE50F14F10304F01FE5A313F10309
:1016300004F01FE56113F10304F01FE55313F103F8
:1016400004F01FE561F8F00304F01FE5FB26F50345
:1016500004F01FE5F912F10304F01FE55946F50304
:1016600004F01FE58B46F50304F01FE59546F503EE
:1016700004F01FE53B4CF50304F01FE53B12F103BA
:1016800004F01FE53BFDF00304F01FE5ADFCF003A3
:1016900004F01FE5C50FF10304F01FE547F8F00360
:1016A00004F01FE569A4F10304F01FE58BFDF003CE
:1016B00004F01FE553F8F00304F01FE59D91F403D7
:1016C00004F01FE523A0F40304F01FE5F991F403EF
:1016D00004F01FE5FD23F50304F01FE57BF8F40398
:1016E00004F01FE50713F50304F01FE5FD11F503F2
:1016F00004F01FE52712F50304F01FE5C111F503FF
:1017000004F01FE517FEF40304F01FE55113F50381
:1017100004F01FE56113F50304F01FE5A912F503BA
:1017200004F01FE5C900F50304F01FE5D712F50327
:1017300004F01FE58912F50304F01FE59912F50383
:1017400004F01FE527F9F40304F01FE55F14F50327
:1017500004F01FE5A114F50304F01FE5EB14F503F5
:1017600004F01FE5A5F4F40304F01FE55315F50399
:1017700004F01FE583FEF40304F01FE54B11F503AD
:1017800004F01FE5F319F50304F01FE5590FF50305
:1017900004F01FE5A30BF50304F01FE5B50BF503FB
:1017A00004F01FE5193AF50304F01FE56539F50368
:1017B00004F01FE5BB0EF50304F01FE5AB39F5039C
:1017C00004F01FE5F33AF50304F01FE5890EF10379
:1017D00004F01FE5610DF10304F01FE5AF5BF103B9
:1017E00004F01FE50F33F30304F01FE52130F1038C
:1017F00004F01FE5FD32F10304F01FE5D33BF403D1
:1018000004F01FE5B7F4F20304F01FE5A335F40379
:1018100004F01FE51D36F40304F01FE52932F3033D
:1018200004F01FE575F8F00304F01FE54F0FF10316
:1018300004F01FE583F8F00304F01FE5FDF7F00363
:1018400004F01FE519F9F00304F01FE5853AF503EC
:1018500004F01FE53F45F50304F01FE5E516F50329
:1018600004F01FE54168F50304F01FE5F13FF503BF
:1018700004F01FE5353FF50302E0021B0100000004
:10188000E817000000040000429FDD7804F01FE527
:10189000D741F50304F01FE5CD45F50304F01FE53E
:1018A0000341F50304F01FE58744F50304F01FE549
:1018B000DF14F10304F01FE5E944F50304F01FE52C
:1018C0001343F50304F01FE5AF79F50304F01FE5BA
:1018D0001133F50304F01FE5B392F40304F01FE5A0
:1018E0004B43F50304F01FE52FB3F40304F01FE5A9
:1018F000D1BEF40304F01FE5B1BEF40304F01FE50C
:1019000035B3F40304F01FE5017300C004F01FE5D4
:10191000D9AFF40304F01FE5DBB5F40304F01FE5D1
:101920007D8EF40304F01FE5ADF4F40304F01FE52D
:1019300095F7F40304F01FE5F7B1F40304F01FE595
:101940006BB2F40304F01FE599F9F00304F01FE50E
:10195000EB7400C004F01FE584BDF50304F01FE53F
:101960009D0FF10304F01FE51B0FF10304F01FE5C9
:10197000757500C004F01FE5797500C004F01FE51F
:101980006D9EF40304F01FE5899EF40304F01FE547
:10199000B9A3F40304F01FE569A3F40304F01FE501
:1019A000B335F50304F01FE5EDA3F40304F01FE5E0
:1019B0007FA6F40304F01FE5B3A0F40304F01FE5D1
:1019C000AFA5F40304F01FE539A5F40304F01FE507
:1019D000C3A5F40304F01FE52FA7F40304F01FE5EB
:1019E00081A2F40304F01FE523A2F40304F01FE531
:1019F0009FA1F40304F01FE5DDA0F40304F01FE54C
:101A000017A1F40304F01FE579A4F40304F01FE523
:101A1000F3A4F40304F01FE5B7B0F40304F01FE5EA
:101A2000CBB0F40304F01FE5EDB0F40304F01FE5C0
:101A3000D5B0F40304F01FE5939DF40304F01FE513
:101A40009FB3F40304F01FE5779DF40304F01FE552
:101A50001B7500C004F01FE583CEF40304F01FE5FE
:101A6000B1CEF40304F01FE59D98F40304F01FE5E4
:101A70004F92F40304F01FE54198F40304F01FE5CE
:101A80006B93F40304F01FE58B98F40304F01FE557
:101A9000CF8EF40304F01FE51D12F10304F01FE5DF
:101AA0002B06F50304F01FE50B05F50304F01FE515
:101AB0000B68F50304F01FE54907F50304F01FE583
:101AC0009107F50304F01FE5F55AF40304F01FE550
:101AD0005387F40304F01FE53164F40304F01FE5B9
:101AE0006186F40304F01FE52F77F40304F01FE58B
:101AF000277CF40304F01FE5417CF40304F01FE5A8
:101B00007F75F40304F01FE5ED7DF40304F01FE599
:101B10000370F40304F01FE5EF7BF40304F01FE50A
:101B20002580F40304F01FE55F5BF40304F01FE578
:101B30003374F40304F01FE58F63F40304F01FE52E
:101B4000DB88F40304F01FE5B563F40304F01FE53C
:101B5000B974F40304F01FE5C974F40304F01FE53D
:101B60009374F40304F01FE501D7F40304F01FE5B8
:101B7000E1ADF40304F01FE523D7F40304F01FE5FF
:101B80006FBEF40304F01FE533BEF40304F01FE559
:101B9000E1D6F40304F01FE551B5F40304F01FE5AA
:101BA0007DB5F40304F01FE50DB5F40304F01FE563
:101BB00093B5F40304F01FE5F317F10304F01FE5F8
:101BC00031BAF40304F01FE591BAF40304F01FE501
:101BD0008DBCF40304F01FE5E5CFF40304F01FE52A
:101BE000DDD0F40304F01FE579BDF40304F01FE534
:101BF0007DB9F40304F01FE5B7B9F40304F01FE561
:101C00009BBDF40304F01FE5C3C3F40304F01FE518
:101C10008FCBF40304F01FE5C5CBF40304F01FE5FC
:101C20005F01F10304F01FE51371F40304F01FE5F5
:101C3000CF77F40304F01FE55B70F40304F01FE5B5
:101C40007D6BF40304F01FE54375F40304F01FE516
:101C5000AB64F40304F01FE5F97BF40304F01FE523
:101C60009372F40304F01FE5AD80F40304F01FE564
:101C7000AB86F40304F01FE5CB61F40304F01FE529
:101C80005D80F40304F01FE5968C498E010000008E
:101C9000E41B000000040000B6F0A8CC1961F403B6
:101CA00004F01FE5F17EF40304F01FE5C587F4039B
:101CB00004F01FE52B71F40304F01FE5936FF403A8
:101CC00004F01FE5E9D1F40304F01FE5EFB4F403D9
:101CD00004F01FE5DDBCF40304F01FE581DBF00335
:101CE00004F01FE50DDDF00304F01FE50DDAF0034D
:101CF00004F01FE5A917F10304F01FE54308F503FD
:101D000004F01FE5AF11F10304F01FE5CF44F10328
:101D100004F01FE5F144F10304F01FE5EB30F1039B
:101D200004F01FE5AF49F10304F01FE57747F10325
:101D300004F01FE5D948F10304F01FE55D48F10305
:101D400004F01FE53949F10304F01FE5554AF1039A
:101D500004F01FE5BD4AF10304F01FE5C145F1039E
:101D600004F01FE5EB46F10304F01FE58F45F10396
:101D700004F01FE55DF8F30304F01FE55742F1039B
:101D800004F01FE521F5F20304F01FE58BF5F203E3
:101D900004F01FE5F9F1F20304F01FE5FF43F1033E
:101DA00004F01FE55525F10304F01FE5DF2FF103D3
:101DB00004F01FE58749F50304F01FE5B987F50333
:101DC00004F01FE55D82F50304F01FE59185F5033E
:101DD00004F01FE53949F50304F01FE5998CF5037C
:101DE00004F01FE53723F10304F01FE5ED25F103AF
:101DF00004F01FE52F2FF10304F01FE57DDEF4034F
:101E000004F01FE5E731F50304F01FE53DC7F003DB
:101E100004F01FE5B79EF40304F01FE503DDF403AF
:101E200004F01FE5ABD8F40304F01FE5CFD9F403A9
:101E300004F01FE561D8F40304F01FE511DBF4039F
:101E400004F01FE5D5DBF40304F01FE5D7E3F4034A
:101E500004F01FE5F9EAF40304F01FE59DE5F4033F
:101E600004F01FE511E6F40304F01FE529E5F4038F
:101E700004F01FE585E6F40304F01FE5F9E6F4033A
:101E800004F01FE5B9E4F40304F01FE56DE7F40383
:101E900004F01FE58BE8F40304F01FE575E9F40393
:101EA00004F01FE55FEAF40304F01FE53FEBF403E1
:101EB00004F01FE5EDE7F40304F01FE547E4F40345
:101EC00004F01FE531EAF40304F01FE5C7EBF40367
:101ED00004F01FE551F3F40304F01FE557EBF4039E
:101EE00004F01FE535ECF40304F01FE527EDF403DF
:101EF00004F01FE5F5EFF40304F01FE53DF2F403F1
:101F000004F01FE5C7F2F40304F01FE511EAF4033F
:101F100004F01FE5FFE3F40304F01FE571E4F403AC
:101F200004F01FE5E1E4F40304F01FE553E5F403D6
:101F300004F01FE5C7E5F40304F01FE53BE6F403F6
:101F400004F01FE5AFE6F40304F01FE523E7F40314
:101F500004F01FE597E7F40304F01FE519E8F40324
:101F600004F01FE5DFE8F40304F01FE5CFE9F40314
:101F700004F01FE5AF04F50304F01FE585F6F40354
:101F800004F01FE555FFF40304F01FE56DB4F403FE
:101F900004F01FE5BDBEF40304F01FE5F5F4F403FF
:101FA00004F01FE54DB4F40304F01FE5EDF4F40371
:101FB00004F01FE57FF5F40304F01FE5F3B3F40329
:101FC00004F01FE5EBB3F40304F01FE533F7F4036B
:101FD00004F01FE57316F50304F01FE58516F503FD
:101FE00004F01FE5B9B2F40304F01FE57F16F50312
:101FF00004F01FE5C515F50304F01FE59B16F50376
:1020000004F01FE5E91FF10304F01FE5C136F503F5
:1020100004F01FE51B37F50304F01FE5051EF1036F
:1020200004F01FE50716F50304F01FE5ADF6F40311
:1020300004F01FE539FAF40304F01FE57B0EF50305
:1020400004F01FE5C30AF50304F01FE53B0CF5039C
:1020500004F01FE56132F30304F01FE54F09F403B8
:1020600004F01FE55F09F40304F01FE527F0F20315
:1020700004F01FE54BF5F20304F01FE50914F30328
:1020800004F01FE5CB38F10304F01FE5CB33F10377
:1020900004F01FE5C934F103E9FFFF9C01000000D3
:1020A000E01F000000040000E52A7BA004F01FE50B
:1020B0008F39F10304F01FE53DC5F20304F01FE57D
:1020C000C7B7F40304F01FE50993F40304F01FE518
:1020D0005BB2F40304F01FE51FC2F40304F01FE534
:1020E0000BB8F40304F01FE591AFF40304F01FE50F
:1020F000B7BFF40304F01FE53DAEF40304F01FE5A1
:1021000075AEF40304F01FE5C3C0F40304F01FE54B
:10211000D9B8F40304F01FE521C9F40304F01FE566
:10212000EDCDF40304F01FE5A7C3F40304F01FE5AD
:10213000F9C3F40304F01FE51DC1F40304F01FE527
:1021400097B0F40304F01FE50FBBF40304F01FE5A0
:10215000D5BBF40304F01FE577C0F40304F01FE5DA
:10216000C1D6F40304F01FE583D6F40304F01FE5A1
:1021700055D6F40304F01FE587C3F40304F01FE50C
:10218000E5DDF00304F01FE52DDDF00304F01FE5AD
:10219000853EF50304F01FE51D38F50304F01FE547
:1021A000E338F50304F01FE5BB38F50304F01FE541
:1021B000B71BF10304F01FE5651CF10304F01FE5F4
:1021C000DB29F50304F01FE5F729F50304F01FE50B
:1021D0004718F10304F01FE5F0B7F50304F01FE51D
:1021E000C918F10304F01FE5953FF50304F01FE55E
:1021F000C93FF50304F01FE59732F50304F01FE52E
:10220000B529F50304F01FE5ED32F50304F01FE5F1
:102210008128F50304F01FE5E5DEF40304F01FE573
:10222000072FF50304F01FE57B31F50304F01FE5EC
:10223000B731F50304F01FE58731F50304F01FE51E
:1022400083EFF00304F01FE5A530F50304F01FE56C
:10225000ED30F50304F01FE50132F50304F01FE54E
:102260002931F50304F01FE5D131F50304F01FE532
:102270007F30F50304F01FE54531F50304F01FE559
:10228000812DF50304F01FE5FBBCF40304F01FE50A
:10229000C314F10304F01FE5EFABF40304F01FE5F2
:1022A0003FA7F40304F01FE533ADF40304F01FE58A
:1022B0001BFFF00304F01FE575FFF00304F01FE5BA
:1022C00009FFF00304F01FE537FFF00304F01FE5FA
:1022D000253CF50304F01FE58F1FF50304F01FE50F
:1022E0009514F10304F01FE51D1AF50304F01FE532
:1022F000A323F50304F01FE58518F50304F01FE59B
:102300003519F50304F01FE50D17F50304F01FE57B
:102310003318F50304F01FE54517F50304F01FE536
:102320006718F50304F01FE5D7A5F40304F01FE5D3
:1023300019A3F40304F01FE53713F10304F01FE5BC
:10234000CD17F50304F01FE509B0F40304F01FE511
:1023500015B0F40304F01FE587FFF00304F01FE558
:10236000F5FEF00304F01FE58F2FF10304F01FE5E5
:10237000672FF10304F01FE5B120F10304F01FE51E
:102380001967F50304F01FE5C5F8F40304F01FE531
:10239000FDF8F40304F01FE5EF01F50304F01FE579
:1023A0002D08F50304F01FE5C9FFF40304F01FE551
:1023B0007D26F50304F01FE5B3FFF40304F01FE5E9
:1023C0007D66F50304F01FE54D02F50304F01FE5FB
:1023D000737400C004F01FE5F1F5F40304F01FE589
:1023E00087B3F40304F01FE599B4F40304F01FE588
:1023F00011B4F40304F01FE57D7400C004F01FE580
:102400004903F50304F01FE52B02F50304F01FE573
:102410003D27F50304F01FE58F27F50304F01FE5C2
:10242000D127F50304F01FE50528F50304F01FE5A7
:102430005F01F50304F01FE5C901F50304F01FE592
:1024400069FDF40304F01FE51304F50304F01FE530
:1024500099E9F00304F01FE50110F10304F01FE512
:10246000F10FF10304F01FE50F16F10304F01FE56F
:1024700067C2F40304F01FE597F8F00304F01FE5CA
:102480000BF8F00304F01FE58304F50304F01FE5E7
:10249000BD82F50304F01FE52303F50304F01FE5F7
:1024A0000D03F50304F01FE5BD6F4C300100000083
:1024B000DC23000000040000CDBBFE1D8B7400C0B7
:1024C00004F01FE55926F50304F01FE5CBBEF40325
:1024D00004F01FE5D7BEF40304F01FE50F93F403E7
:1024E00004F01FE5A547F50304F01FE5E946F503F1
:1024F00004F01FE50F58F40304F01FE57F8FF40389
:1025000004F01FE5EB9BF40304F01FE5CB9AF40302
:1025100004F01FE5DF9AF40304F01FE5259BF403A4
:1025200004F01FE58F9BF40304F01FE56D9BF4039B
:1025300004F01FE54F9BF40304F01FE5259DF40311
:1025400004F01FE52D9CF40304F01FE52B4DF5036B
:1025500004F01FE5D54BF50304F01FE5134CF5031C
:1025600004F01FE559ADF40304F01FE5494FF503EE
:1025700004F01FE5B54AF50304F01FE5B94BF50378
:1025800004F01FE5154FF50304F01FE5574BF50365
:1025900004F01FE57F4DF50304F01FE5734AF503D2
:1025A00004F01FE5D54CF50304F01FE5A949F50338
:1025B00004F01FE56549F50304F01FE53B4AF50308
:1025C00004F01FE541B1F40304F01FE5C34DF5032A
:1025D00070B5040008000025E20704D0FEF71CEAED
:1025E00012491148086012480078012819D12007C3
:1025F00002D500F01FF80500600602D5FEF710EACC
:102600000500200602D5FEF710EA0500A00502D558
:1026100000F06AF805006007800F02D0FEF708EAB4
:102620000500280070BD00005190020050370104E1
:10263000042C01047FB525480078002843D1FEF71B
:10264000FCE900222248D2430021FEF7FAE9214E9C
:102650001F2230600189520308181F49000C0090A6
:1026600008681E4D90430F225203801808600A002C
:10267000A8692521FEF7E8E9686925216A46FEF781
:10268000E4E9154AA8692621FEF7DEE9144A6869DB
:102690002621FEF7DAE9134CE080306800892081BA
:1026A000FEF7D6E960814004000C0021A081218062
:1026B000618031680A89019051180391A8692C2121
:1026C00001AAFEF7C2E9002004B070BD202C01046D
:1026D0003C1100C0102C010450BA07C0ACBA07C0AE
:1026E0005CBA07C094BB07C0FEB50024334E344D1E
:1026F0002721686901AAFEF7A8E90198641CC007B0
:1027000001D0B442F4D32F4C2F4E2088002822D180
:1027100030680027002803D02C49096888473760B3
:102720002B48FEF79AE9002830600FD001890A187B
:102730002849521E89788A1812781207120F2280AF
:102740006780E78000894018A0800DE02249086872
:10275000401C086008E068692D216A46FEF774E9AC
:10276000E08800994018E080E1891C48042921890B
:1027700002D162898918FFE7026811812188002946
:1027800013D0016832680A60A088E28805238018A7
:102790003268108168690122FEF762E96088401C96
:1027A00060802088401E208005E0006801890818AC
:1027B0006189FEF75AE90020FEBD0000FFFF00001E
:1027C000ACBA07C094BB07C0142C01041C2C010434
:1027D0003CBA07C068BA07C0282C0104102C0104B9
:1027E0000022F0B5D2430021334887B0FEF728E934
:1027F000324F334D386001896A460818000C00904A
:1028000028692521FEF720E92E4A01266B461E7114
:10281000D1880020002901D15E7100E058710020AC
:102820006B460821987199725872D8711872508944
:10283000002805D0012805D0022807D1072002E092
:10284000032000E006206B46187301E06B46197305
:10285000E868252101AAFEF7F8E8E868262101AA20
:10286000FEF7F2E8174A28692621FEF7EEE8164C33
:10287000E080386800892081FEF7EAE86081400442
:10288000000CA08100212680618039680A890490AB
:102890005118022006910590E8682C2104AAFEF741
:1028A000D4E80A48E1880088FEF7E2E80849C870E1
:1028B000002007B0F0BD0000B9A89EA601000000EE
:1028C000D8270000000400009E612D713C1100C05B
:1028D0000C2C0104ACBA07C05CBA07C084BB07C0AB
:1028E000062C010468BA07C070B504001C4D002016
:1028F000E20708D06868002802D11B4A1948106016
:102900000800FEF7C4E81949097801291AD12107FE
:1029100004D517480078002815D00020610604D59A
:10292000144900200860FEF7B6E8210601D5FEF73D
:10293000B6E8E10501D500F075F86107890F01D00F
:10294000FEF7B0E870BDFEF7B2E86868002801D174
:1029500000F012F868680228DFD1FFF74BFFDCE7D0
:10296000ACBA07C05190020050370104042C010496
:10297000202C010408A304007FB50022D2430021CB
:102980002048FEF768E8204E204D30600189204A3B
:102990000818000C0090E8682521FEF760E8286917
:1029A00025216A46FEF75AE8194AE8682621FEF70B
:1029B00056E8184A28692621FEF750E8164CE080B0
:1029C000306800892081FEF74EE860814004000CE9
:1029D0000121A08121800021618031680A89019054
:1029E00051180391E8682C2101AAFEF738E80B483A
:1029F000E1880088FEF746E80949C870002004B065
:102A000070BD00003C1100C00C2C0104ACBA07C022
:102A100050BA07C05CBA07C084BB07C0062C0104CB
:102A200068BA07C0F8B50024534D544827210069FF
:102A30006A46FEF714E80098641CC00701D0AC4257
:102A4000F3D34F4D4F4E6888F1784F4F4F4C88422B
:102A50004BD12368242018816888E988B2784843DC
:102A6000310080189880B078F21C80180278F378D2
:102A700012091B0712011B0F1A430270B0783200B3
:102A8000093A80188278C37812021A43521C130A3A
:102A90008370C2703A68130E0371130C4371130AEA
:102AA0008371C2712268081D9288121F8A71226880
:102AB0009288121F1212CA7122689388083B0B7207
:102AC0009388083B1B124371108980188A78091D6E
:102AD000FDF7F0EF21682E488A8800681123FDF782
:102AE000CAEF00206880206002E02068002819D129
:102AF0002848FDF7E4EF042814D800222548D243E3
:102B00000021FDF7A8EF11212060C18020300221B3
:102B1000C17021682420088100206880B0782430AA
:102B2000A88003E01C490868401C08602068002851
:102B30001AD01A49096808606888EA885043AA8848
:102B4000801822681081E8890428288902D16A89BE
:102B50008018FFE708810948012200690423FDF776
:102B60008AEF6888401C68800020E8813868401C33
:102B700038600020F8BD0000FFFF0000ACBA07C0BD
:102B800084BB07C068BA07C008A30400182C01045E
:102B9000749104003C1100C0242C01040C2C01048D
:102BA00000207047F0B503220021704E12023368F6
:102BB00035002035012B85B060D100285ED16C48EE
:102BC0000368934303603160296032691189506959
:102BD0008C18B16800284F88019701D1100018E0C7
:102BE0006B465B795B071BD44179022905D1010053
:102BF000100012F097FE00280ED16B4618790007DE
:102C0000800F0228306908D10BF0D6FD0028F3D1DF
:102C10003069002132F0ECFB98E022F049FC95E0AD
:102C20000B880A0020329A18236FD21C9608DA7992
:102C3000B600022A1AD14279022A0BD18979C90732
:102C400008D01DF073F90D2189014018408A020651
:102C5000120E00E0002230880021103830800092EF
:102C6000236F2268300001F043FE74E0032A75D11F
:102C700022680021300001F07FFE6CE07368012BB8
:102C800064D1012862D13B4B18681C6894431C60D6
:102C90007160696038490C6808310291B1696769EF
:102CA000491CB161010702D5F169491CF161002F8E
:102CB00005D00107314806D57069401C70612000BD
:102CC00011F040FE42E00390E12BDE5701000000CE
:102CD000D42B0000000400006A0E58C5FDF7FCEE7E
:102CE0008079C00708D1F0688179890704D579799E
:102CF000022901D02DF00CFEF068C079022805D120
:102D00000398FDF7EAEE0188103906E0032805D1A3
:102D10000398FDF7E2EE018822390180A08840384F
:102D2000A0800398FDF7D8EE80780007800F022876
:102D300013D1184A00922089174A0119174B200015
:102D4000FDF7CEEE00280BD00299040008F002FD3A
:102D50000299200042F09EFE02E020002EF01AFBB5
:102D60000F490800AC3802F0DBFB2868002804D1CA
:102D70006868002801D125F0F3FC05B0F0BD000023
:102D8000C002000400A0009000A800909874000405
:102D9000E0740004EC9600C0F49600C0645E050088
:102DA000ACAC04000349012010B5087000F0C8FC69
:102DB00010BD0000689104000020704710B50400A9
:102DC000FF308230C28B088940180C30002A1AD19B
:102DD0002100FF31A2310A88002A14D14988002934
:102DE00011D101002000FF300622A030FDF76CEE6B
:102DF000200002F037F82000FF21FF301931B130F8
:102E0000FDF772EE03E021001CF012FF0400200029
:102E100010BD000009490220086009490A20086025
:102E20000949084808600A49084808600A490948E9
:102E300008600B4909480860704700005C2D0104D8
:102E4000602D010409090200642D0104A54302005C
:102E5000682D0104C9D800006C2D0104215E020018
:102E6000702D01043EB5FF220400062101A8FDF7E4
:102E700040EE0022009220000E2301AA01A930F0AA
:102E800023F934F007FA0500E179A0791CF042FF3C
:102E900007E0200015F06AFBE279A17920001CF020
:102EA000BDFF0400F5D1280034F0F9F93EBD000063
:102EB000F1B582B002981DF043F803210902050024
:102EC0004418206A002837D034F0E4F90190207FBC
:102ED00065270126FF0000282FD0012829D10220D4
:102EE00066622077A06AFDF708EE00220092184A79
:102EF00018480299EB19FDF704EE019834F0CFF968
:102F00000298FFF7AFFFE035287B40070BD502980A
:102F100003F0B4FB002806D00298012103F091FDD4
:102F200002980AF071F8606A01040298090C3BF0FB
:102F300091FB019834F0B3F9FEBD00220092044ADF
:102F400004480299EB19FDF7DCED2677F1E7000064
:102F500000879303512E0000F8B50D0034F09AF964
:102F60000700002D22D028001CF0EAFF00281DD009
:102F7000032109024418217F0026012917D00229C4
:102F800011D1E030007B400707D5280003F076FB25
:102F9000002802D0280003F01BFE2677310028000D
:102FA00066623BF057FB380034F079F9F8BD2677BC
:102FB000F9E7F8B51C000F001D6800263100782DD8
:102FC00001D0772D04D03100782D00D0691C491C28
:102FD0006368994201D10020F8BD782D00D06E1CA5
:102FE0002421714326600919C860206824235843AE
:102FF000391D001902612068182258430019143045
:10300000FDF762ED20682423584301193800203071
:10301000037E02000B77407E4877206824235843C4
:10302000127D00192030C178D206E723920F194093
:10303000D2001143C17038004030FDF74EED2168D9
:10304000242359430919C8620120F8BD30B5002472
:103050000A682300282A01D0272A04D02300282A1E
:1030600000D0531C5B1C4D68AB4201D1002030BD29
:103070002300282A00D0531C9A000B605118886046
:10308000012030BD70B504001CF05AFF09218901F0
:1030900046182221095CB2688A4201D3002070BD23
:1030A000B922920020218018FDF72EED2500FF3572
:1030B00000060021A135000EFF28E98016D0401C33
:1030C000E880607A1021084360721EF08DF90006D6
:1030D00003D4062120001DF02499A32B0100000039
:1030E000D02F00000004000039D48BA973FFB06812
:1030F000401C0128B06003D1442120002CF094FA38
:10310000E88870BD0249014808607047F92F000047
:10311000642E0104FFB581B004001E001CF00AFFFC
:10312000070020001CF016FF0B2189016518686B51
:10313000002801D001F08CF800206863200003F023
:10314000A7FA002803D00021200003F084FC2437D4
:103150009C213800FDF7D2EC0A9A0092039A02995A
:1031600033003800FDF7DEEC05B0F0BD034810B5C4
:10317000FDF7BCEC002800D0012010BDEAD504000A
:10318000F8B504000D0000287ED0002D7CD0FF2172
:10319000434800222D31FDF772EC002828607DD0D5
:1031A00020000C3000901CF023FE296806004861C6
:1031B00029680220087329681C20088128685A2180
:1031C0007C3041732968B02008812D680020B0351B
:1031D0002F000F37F91FFDF7AAEC0F2028710020F0
:1031E0006871E07AA17A00020843010AA8700E28EB
:1031F000E9700CD2E07AA17A000208430E21091A84
:10320000C019FDF750EC0E20A8700020E87043F0C4
:1032100097FF002800D0207A2873687BF1214008AE
:10322000400008406873E07AA17A02020A430099DC
:103230003800FDF754EC207B002814D1607B002877
:1032400011D1A07B00280ED1E07B00280BD1207C7F
:10325000002808D1607C002805D131000622983171
:103260003800FDF73CECA07C002817D1E07C00285A
:1032700014D1207D002811D1607D00280ED1A07DC1
:1032800000280BD1E07D00E008E0002806D167208F
:10329000C00031180622B81DFDF720ECF8BD000073
:1032A000880100040F49002810B501D1012010BD8C
:1032B000CA7B8B7B12021A430AD10021FF220170C4
:1032C000193241708270120AC2700171417107E0B7
:1032D0004A7B0B7B12021A43921D0831FDF7FEEB6D
:1032E000002010BD68D50400FEB50027184E3C0034
:1032F0000297822060438519E87BA97B000208437E
:1033000021D0082229006846FDF7E8EB01990098D2
:103310007940084317D18220604302A98019083000
:10332000FFF72EFFE87BA97B00027D230843DB002B
:1033300058430090C1170191082228006946FDF703
:10334000CEEB0298FEBD641C012CD2D30020FEBD42
:1033500068D5040010B5064C0020010082224243CB
:103360000B0A1219401C91730128D373F6D310BDB8
:1033700068D5040010B504000548FDF7B8EB002837
:1033800004D0607AC00601D5012010BD002010BD18
:10339000EAD504001CB50028184C04D12100A07304
:1033A0008231E07323E0C1788278090211430A0078
:1033B000FF3A193A1FD1417903790A0201001A43F1
:1033C0002000921D0830FDF78AEBE07BA17B000214
:1033D0007D230843DB0058430090C1170191082268
:1033E00020006946FDF77AEB044904488231FDF775
:1033F0009EEB00201CBD01201CBD000068D5040010
:10340000F0B500263400354F8BB0FDF794EB0991F1
:1034100008900822391D6846FDF760EB009A08986D
:10342000019B0999801A99410BD30822391D02A8E2
:10343000FDF754EB029A0898039B0999801A994169
:103440000CE00822391D04A8FDF748EB0498059903
:10345000089A099BC043C943801859417D22002323
:10346000D200FDF76CEB0D00069082211B486143F2
:10347000823808180A90C17B827B0802104321D051
:103480000A99082204A8FDF72AEB04A807C82B0014
:10349000121A8B4110D20A99082204A8FDF71EEBDC
:1034A00004A807C8801AA941039102900A9808222B
:1034B00002A9FDF714EB05E00A98082208A1FDF720
:1034C0000EEB0126641C012CCFD30822381D08A95D
:1034D000FDF704EB30000BB0F0BD0000EAD50400AE
:1034E00000000000000000003E2E9FEF01000000E1
:1034F000CC330000000400008611AE1A08B5016844
:10350000836A01290AD1002202600100044A1800DE
:103510000092044A044B1C31FDF71EEB08BD00006D
:10352000CD330000502300047823000406490E2008
:10353000C043087048702E31087048700871487197
:103540000872487270470000E28E0400F3B5D22082
:103550008FB0FDF706EB4021084203D03C48092616
:10356000019003E03A4809300B2601900F98310092
:10357000FDF7A2EA00252C000395029528E0CC2057
:10358000FDF7EEEA000900014006400E2043010667
:10359000090ECC20FDF7E8EAD120FDF7E2EA0004AD
:1035A000A70004A9C851D020FDF7DAEA04A9C95937
:1035B0000002084304A9C851CF20FDF7D2EA04A9AC
:1035C000C959084304A9C85103994018641C0390C1
:1035D000B442D4DB039800281AD0002404AF14E0CE
:1035E000A00038580102081A0399FDF76AEA0F99FA
:1035F0000006000E085541190D0601992D0E0957B8
:10360000414302980818641C0290B442E8DB09E0C8
:103610000F9AFF21701E0D001154019908560302E4
:10362000181A02900F980F9A0178FF20401B091872
:103630001170019A002151564143029808181099BF
:10364000002902D0109900120880300011B0F0BD9E
:10365000CC7B0400F8B5800117001D4B050C00223F
:103660009856002800DC42421006000E1F261F2834
:1036700000D20600202905D0402905D0802905D098
:10368000002404E0102402E0202400E03024290675
:10369000090ECD20FDF768EA290ACE20FDF764EA7D
:1036A000D220FDF75EEA410949013143002F02D1E2
:1036B0004020014301E0BF200140D220FDF754EA41
:1036C000210080200143CC20FDF74EEAF8BD000028
:1036D000E28E0400094902780A7002794A70827801
:1036E0002E310A7082794A7042780A7142794A71A1
:1036F000C2780A72C079487270470000E28E0400F6
:103700000149487070470000DC8E0400704710B516
:1037100017F06EFC10BD70B5050000F015F900281B
:1037200003D100F025F9002801D0012400E0002495
:10373000002D02D000F0FEF800E00020204370BD14
:10374000042008B5FDF714EA0028009006D00449CB
:103750000160044801686846FDF70EEA08BD0000F4
:10376000EF13000030DDF503F8B51F484569681C0C
:1037700039D01020FDF7FCE90028009033D01B4918
:10378000002402C0FF220A21FDF7C6E924E0E80771
:1037900020D0601E0D281DD8A0000019083800D5C3
:1037A000002001001A314F2903DD4F210E2C00D0DB
:1037B0003520009A091A121D41188C4608E0460768
:1037C000C108760F0127535CB740BB43401C5354DC
:1037D0008445F4D86D08641C002DD8D104480168D4
:1037E0006846FDF7CAE9F8BD6891040001140000BD
:1037F00030DDF50300B5037C00210A00803BFDF7B6
:10380000C0E90C07080A0B0D0E151510111314153D
:10381000012201210AE00222022107E00422042100
:1038200004E01022102101E008220821044BD8886E
:1038300088431043D880002005F072F800BD0000D6
:103840004CA30400044910B502480978012200F095
:1038500047F910BD87FC000051A10400FFB581B0FD
:1038600006000D003C292CD82F0009373806000E21
:10387000FDF78AE9040024D0208916490019016067
:103880000021017114492A00096841711149C7805A
:10389000083078390160868085710399C01DFDF775
:1038A00028E90E480022006821000123FDF700E905
:1038B0000498002803D100210120FDF76AE905B032
:1038C000F0BDB30512219B0DB20A0420FDF764E997
:1038D000F5E700000A14000030DDF503B0A5040090
:1038E000034810B5006800224B21FDF7D6E810BD53
:1038F000B0A5040070B5064C49B9FBEE010000000C
:10390000C837000000040000D5CB7D76258800F084
:1039100053F8054A20881388411BC918401A1180A2
:10392000208070BDB2250104B42501040449054A74
:10393000497812780120914200D0002070470000A1
:1039400000000290000002900348FB21C08808405C
:1039500000D00120704700004CA30400084900205B
:103960000A2242435218127A022A01D101207047DA
:10397000401C0004000C0228F2D300207047000015
:103980009019010403488421C088084000D0012018
:10399000704700004CA3040010B580242000641C74
:1039A0002404240C00F008F8BF2CF7D901480421A6
:1039B000017010BD51A10400F8B500240600803844
:1039C000104B11490004000C1A5C0D880F4F52195E
:1039D0000A801C5411E0A0003D58A8880005000D85
:1039E000B04207D11C3D2000FDF7E4E82800FDF7B8
:1039F000E6E802E0641C2406240E054800788442B0
:103A0000E9D3F8BD80E80004B2250104C0E8000451
:103A1000A425010410B5C178827809020A4324382C
:103A20001C21431801810849C1610321197107490B
:103A300009685971111D418401000548042300687B
:103A4000FDF740E810BD00000B1400002CDDF5036D
:103A5000B0A504000A4930B40978002903D0094907
:103A60000988002903D00849096830BC0847074A7B
:103A7000074C11788B00491CE050117030BC704726
:103A8000A3250104B2250104BC250104A4250104D9
:103A9000C0E8000470B50B00C288052918D18188E0
:103AA000104C121D247809051204090D120C002C6B
:103AB00011D00C00803C3F2C0DD80B4C25886D1E7E
:103AC00025800A4C611880390C78641C0C7002E067
:103AD000121F1204120C010005481C390068FCF783
:103AE000F2EF70BDA3250104B225010480E80004B3
:103AF00078910400FEB56B46140007000806001616
:103B00001970062605005A7031F0A4FD6B46010AB3
:103B10009870D970010C1971000E58710449230076
:103B20000D70310038006A46FFF7A2FEFEBD0000AE
:103B300051A10400F8B5040008004D680368E96865
:103B4000A669092B74D009DC9B1CFDF724E80BA3A4
:103B500022A6A6A673A6A6796880A600172B68D011
:103B600005DC152B72D0162B70D101208EE0182B9E
:103B70006CD02A2B6AD1002E68D03179032965D107
:103B80007179012962D12A68696830003DF04AFDE7
:103B900082E003208002FDF716E830002DF048F89F
:103BA00030002DF0EEF80120FDF710E83079032801
:103BB00023D130001CF088FA0500300002F0A6FE88
:103BC00000281AD0686C002817D0252040012D1835
:103BD0002879FF2807D068462EF0E4FF28790122D3
:103BE00069462FF023FC0D21890104207118087308
:103BF0000022110030000DF025F8012016F076FCAF
:103C0000217D002948D03300E28A98332CE03CF033
:103C1000BDFAA16818312000FCF7DCEF3CE01F4939
:103C2000300000F037FD0022032130001300EEE7E2
:103C30001CE02AE02A68696830003DF0D3FE2BE0E2
:103C40002A68696830003EF041FB25E025E00C3130
:103C50000D0030001CF078FD00281DD0E879A9790E
:103C600002020A432B0008213000D0E70C310D007E
:103C700030001CF069FD00280ED0E879A979020215
:103C80000A43092130002B00C1E700202071A16800
:103C90003C31C0E72068E0600020F8BD0408000067
:103CA00070B5060010781400E02886B004D120001A
:103CB00018F0B6F9050000E011250021481EFCF7B8
:103CC0008EEF2279E178A07803AB07C333006278E6
:103CD00021780191FF21029221310E2002A200954C
:103CE000FCF780EF06B070BD526862626262626289
:103CF000000000003EB502F079FA00282CD100F057
:103D00000BFB002828D10C228C222D66010000001C
:103D1000C43B00000004000021A408C2009218481F
:103D20000422062312A104F007F815480C22009281
:103D30000422001D0A2313A103F0FEFF144C1548B2
:103D4000B1222100FCF7FCEE1349002213A06B46C0
:103D500007C322000A480F49001F0C2304F012F980
:103D6000002803D137F0B2FA00203EBD01203EBD4D
:103D7000434250726F63534D454D736751000000CD
:103D80008C900400434250726F634D736751000082
:103D9000A4060000101705007DC601004342205014
:103DA000726F6300054810B5C06904F062F90348FA
:103DB0000C220121283004F073F810BD6C9004002F
:103DC000F8B5002206000F0010481100FCF774EE51
:103DD000040016D02089082105192800FCF780EE80
:103DE00029003000FCF7C0EE291D3800FCF7BCEEBE
:103DF00007482200406A0421002304F02FF800281D
:103E000003D02000FCF7E4EE0120F8BD40020004DE
:103E10006C900400F0B5040087B04069049008007D
:103E20000E0017004030FCF780EE0690243005901D
:103E3000C078800607D5A088103805042D0CA58011
:103E4000603D002D02DC002007B0F0BD04981CF09E
:103E5000F3FC002805D00598390003AA02ABFCF753
:103E6000D0EE13484422046031000830FCF754EED1
:103E700001203BF091F80F49012008600E482036E0
:103E80000760307E0122D20241070192490F2A04C5
:103E90003B00009105990698120C0C33FCF7B4EE28
:103EA0006B469989029A3800FCF7B2EE0120CBE705
:103EB00098740004C4020004CC020004F8B50400A5
:103EC0000D00160018F076FA984FB86A9849084025
:103ED000B862786A97490843786280210220FCF72B
:103EE0009CEE012025F074FF80210220FCF798EE63
:103EF000012025F06DFF2900200026F073FA8E487E
:103F0000FCF792EE2A06120E31002000009215F006
:103F100075FE002C10D1022E05D0032E03D00E2DDD
:103F200001D1864806E02DF01DFF012801D184480B
:103F300000E08448FCF778EE15F0FEFE15F008FF6F
:103F400032002100280032F007FC32002100280056
:103F500032F0DCFC32002100280032F0B3FC3200E9
:103F60002100280032F04EFC786A7249C9430840AB
:103F700078623FF023FA2A003100200039F00EF871
:103F800008F08BFC20001DF0C5FA002802D01DF0BF
:103F900045FB0AE028F050FE07063F0E28F052FECF
:103FA0000006000E390029F09FF91021042008F0C6
:103FB000B1FD00993200200028F0B2FD060001009A
:103FC000200039F06BF820001DF0A4FA00280DD174
:103FD000200024F0B5F90100200015F0C5FE2000F6
:103FE00024F0AEF90100200039F05AF8022207212E
:103FF000012008F031FD33F005F820001DF08AFAA9
:1040000000280DD1200024F09BF9002804D01021B5
:10401000072008F013FD03E01021072008F07AFDC7
:104020003100200039F026F83100200039F052F834
:1040300033F0A4F81021042008F000FD200024F043
:104040007FF9414E002820D04048006B800317D4F0
:104050000720FCF7EEED8009012803D13069401CF0
:1040600030610AE0022803D17069401C706104E0ED
:10407000032802D1B069401CB061F068401CF060B8
:1040800002220721012008F053FD3FF0B5F8304827
:10409000032207212F4F436A92044903002C10D1B9
:1040A00093434362426A0123DB041A434262386944
:1040B0008843386138690521490308433861264837
:1040C0000FE093434362426A01239B041A43426216
:1040D00038698843386138690321490308433861E6
:1040E0001E4838613078A04219D0200034701DF08D
:1040F00011FA002803D10021200023F01CFF20002A
:1041000032F029FE200032F099FD012803D1290068
:10411000200032F0F6FD290015133BB2010000002B
:10412000C03F000000040000727EDBAE200032F0D1
:1041300007FE38690821084338610120F8BD0000F6
:1041400000A80080FCFDFFFFC000008098A70400CD
:104150001CAB040078AA04007CAA0400DC8E0400D6
:104160004020008000230080C0A2008008A800003A
:10417000086800000149FF2008707047DC8E0400C9
:10418000F0B500260D4F3C68786810E08300DB191D
:104190009B681D89EB181D786D076D0F954201D145
:1041A000603319733300282800D0431C18003300F3
:1041B000282C00D0631C8342E8D1F0BD00AC040081
:1041C000F1B500242600250086B031F095FD0700EA
:1041D00005A82DF0D9FD002848D06B46587DC106B2
:1041E00001D4800642D56B46187D0007000F0128D8
:1041F0003CD10190380002A92DF010FE012F35D0DE
:1042000006990B200856002F03D16B46997D0D07A8
:104210002D0F174F3968884206DA7968884208DD21
:10422000B8680126002821D00124FCF710EDF860C1
:104230000BE0FCF70CEDF968FCF70CED0D4988423A
:1042400003D8B868002811D00124B868A0420DD066
:10425000002E0BD1BC606B46187D01990207120F2E
:1042600000922B00220002A823F0DAFF07B0F0BD75
:10427000C4000004404B4C0007484178002909D194
:1042800006490968012209054270490F02002432DB
:10429000515C817080787047FC9600C000200080DF
:1042A00010B504000BD0200054211C30FCF74EEC5C
:1042B0000020A073012020732000FCF794EC10BDB7
:1042C00010B504000068002810D06A30FCF736EC06
:1042D000002806D0FFF7E4FF216800206A31FCF7D0
:1042E0004EEC2068FFF7DCFF0020206010BD0000CE
:1042F00011480022702110B5FCF7E8EB04000FD143
:104300000D48002270210C30FCF7E0EB040007D1CF
:1043100000220A48110003233FF024FD040008D0C6
:104320000120A07302202073200054211C30FCF7D0
:104330000EEC200010BD0000F80200044C01000447
:1043400038B5114C12492268080000920F4A114BEF
:104350001030FCF784EC00280CD122680C49009244
:104360000A4A083108000C4B30321430FCF776EC66
:10437000002801D0012038BD09490848086008001C
:1043800041F006FF002038BD24920400E4740004CC
:10439000E8020004B41D05002423050051D10000EB
:1043A000408C040010B5040002E0006810F006FB29
:1043B000200007F0D5F90028F7D110BD10B5040092
:1043C00002E0002131F050F8200007F0E0F9002869
:1043D000F7D110BDFEB501220024120301889142DD
:1043E00002D13D4914240CE001225203914202D132
:1043F0003A490A2405E00122D202914202D1384909
:10440000282401800088374FB030388002E0012036
:1044100003F047FE3448FCF78EEB050032480821D4
:10442000FCF720EC060030481021FCF71CEC30189B
:104430008542ECD12D48FCF77EEB05002B48082186
:10444000FCF710EC060029481021FCF70CEC3018A2
:104450008542DCD12648FCF76EEB05002448082194
:10446000FCF700EC060022481021FCF7FCEB3018AA
:104470008542CCD11F4D002228684121FCF72AEB50
:104480000AF06EF81C491848FCF7F0EB1B48398815
:104490008180282C847101D1282205E00120032C81
:1044A00000D960080206120E042100203FF034FDFE
:1044B0001348124902680092124A0B48124BFCF74B
:1044C000CEEB3FF03FFD042001902868422101AA75
:1044D000FCF700EBFEBD0000880E0000101D000080
:1044E000440700006E9004004C01000488010004A1
:1044F00018020004488C0400697B00005801000485
:1045000024920400782C0004003B01C0FFB583B066
:1045100004001E000F0005990C98891C00220291CE
:10452000130069460CC10122816CEC880100000077
:10453000BC43000000040000708703B8F979BB7920
:1045400009021943E92900D00022797BC907C90F64
:10455000FCF79AEB0500F879B97900020843EA28DC
:1045600003D1797B0822114379736721C90062184E
:1045700023792100194F9831012B08D10B000598A0
:104580003100FCF786EB1AE0012000031BE06379A1
:10459000022B09D10A000598B31D3100FCF778EB16
:1045A0000120400205430FE0E62801D10B0000E0A6
:1045B00033000598FCF76CEBFF20401C054338687E
:1045C00000790028E0D1054302980622058005986D
:1045D00069461A30FCF7B4EA07B0F0BD6C8F0400EE
:1045E000312818D009DC11280DD012280FD021282D
:1045F0000BD0222807D10520704732280DD0332850
:1046000007D07728F8D00020704704207047012099
:1046100070470A207047082070470920704700281B
:1046200001DD002004E06521C943884200DA08006A
:104630004042000600167047002801DD002004E01B
:104640006421C943884200DA08004042000600168F
:104650007047662801DD662002E0002800DA0020AD
:104660000006001670470000F8B5150006000800A7
:104670002BF044FD002825D032F048FE07001248F8
:10468000FCF73AEA040015D0104901220888920389
:10469000C004C00C80182071000A60710888401C9A
:1046A00008802868A11DFCF774EA07482100143827
:1046B000FCF7F2EA380032F02EFEFF21491C3000F0
:1046C000FFF792FBF8BD000074FF0400DCA00400BB
:1046D000002210B51FF05AF810BD0000084810B5B0
:1046E0000168490849000160064841681822914361
:1046F000416005210448C901FCF706EA10BD00002D
:1047000080AF008040A50080640703C010B53EF074
:1047100069FE0548FCF7C4EA3EF082FD0248001D30
:10472000FCF796EA10BD0000189A00C010B5FFF71C
:10473000EDFFFFF7D3FF10BD044B10B51870DA6220
:10474000D96100F005F800F02BF810BDF89900C011
:104750000D48002101600D4A82600A22C260416159
:10476000052181610A490A78022A03D140224A7050
:10477000084902E020224A70074901600749486859
:10478000182210434860704780AF0080640703C060
:10479000F89900C0011000000118000040A5008039
:1047A000184870B5012400782500022803D002259E
:1047B000032800D0002531F0C1FA022802D00328D6
:1047C00000D000241048FCF744EA012C03D10E4825
:1047D000BC30FCF73EEA0C48ED00CC302818A400B1
:1047E0000059FCF736EA3EF0FDFD07480C38FCF7AF
:1047F00058EA0548E43028180059FCF752EA3EF020
:104800000FFD70BDF89900C0FC9A00C070B500257E
:104810000F4C104E6068401C60603068A16A401AFE
:10482000E169884202D931F0A3F905000A49086814
:1048300040084000086008680122104308603068A2
:10484000A062E16A002901D028008847280070BDD5
:10485000F89900C000A6008080AF0080F0B500226B
:1048600012250B4E2423534300219F198B00FB1864
:104870005C78844200D15D70491C0906090E092943
:10488000F4D3521C1206120E032AEBD3F0BD000023
:104890009A990400174870B50468174EA10706D509
:1048A00000210161B26D012090470220844320065F
:1048B000000F03D0E020844310200443200508D5D6
:1048C000F26A002A02D000210B2090470120C0028A
:1048D000844300250AE0E00706D0A8003258002AE9
:1048E00002D021002800904764086D1C002CF2D1F2
:1048F000002070BD0028008040210004F7B582B080
:1049000014000700006800900190039800254030D3
:10491000FCF71EE906000198F1784069490605D4C4
:104920002030807D400726D4012524E0002C02D1D0
:10493000002005B0F0BDA07A1B5BEC730100000005
:10494000B847000000040000235DD0D4C0071CD08D
:10495000E079012805D103992200684609F0C4FADC
:1049600005E0039922000423684600F0CDF8050015
:1049700000983860B079C00707D1002D05D0A07924
:10498000800702D520002CF009F82800DBE70000A2
:104990007FB582B004000C331D480A9E04601D00E0
:1049A00000203AF017FB1B4901200860E078402105
:1049B0000843E070A88D2084200000212030817001
:1049C000B1012031C170A86A606232F0A9FC060012
:1049D0006B46187C00224107490F01922300009189
:1049E000218828332A002000FCF768E9208810304D
:1049F0002080300032F099FCA88D401C0004000C8F
:104A0000A88502D1A86A401CA86206B070BD00004B
:104A1000C8020004C0020004FFB581B004001E00FB
:104A20001948046000203AF0D5FA184901200860BE
:104A3000E07840210843E070A078002201071500CB
:104A4000890F022903D10009082800D10125307BF4
:104A5000A11C887730000C30CA7720310600FCF7A3
:104A600032E932F05DFC009607006B46187B268821
:104A70004107490F33002200280040F037FC38007E
:104A800032F053FC05B0F0BDC8020004C0020004BF
:104A900010B5D37904000020022B03D12068FFF762
:104AA000D7F910BD032BFCD120680AF025F910BD01
:104AB000F8B501890C18256F4069E979266E02293D
:104AC00017D1417902290BD1B179C90708D01BF060
:104AD0007DFA0D2189014018408A0206120E00E07D
:104AE0000022009222682B0000213000FFF750FFC7
:104AF00007E0032905D122682B0000213000FFF7D1
:104B00008BFF0020F8BD0000FFB58DB00600080047
:104B1000356800210691696905910F991F000029E8
:104B20000FD040300C90FCF71EE80400C719C07885
:104B30002037400602D4A88811B0F0BD208868282C
:104B400001D80020F8E707AA00920F99380008AAB8
:104B500006ABFCF7BCE82000FCF7BCE800281CD042
:104B60002A4A2B492B4801AB07C36B462A4A0092BD
:104B70001C7F1A7E2800230008A9FCF7B0E8040077
:104B800001D13060DDE7346020890C990019FCF711
:104B90000AE800880126A08036E06B46197E019461
:104BA00000912288391D643A380008ABFCF79AE876
:104BB00006000AD016492000FCF798E8208808383B
:104BC0002080A8880838A8801EE06B461C7F0F480C
:104BD000A1000D1834352800FBF7C4EF401C290054
:104BE000FBF7E0EF0C98FBF7BEEF0F9923011B1BBF
:104BF00059180E31064A0091019201006B461B7E46
:104C000005982200FCF776E8300095E704270004B9
:104C1000785E0500645E0500F89600C0F8B50600F1
:104C200030F044FC0027FF43002803D13BF0E8FFAD
:104C300000282DD032899019417903790906091489
:104C400019430C180E32881805062D0E300030F06E
:104C50005EFC002807D1617D227D080208351043E3
:104C60002D062D0E03E0607B217B000208432BF014
:104C7000ADFA00280CD02200A11D3000358107F0CC
:104C80008AF9002804D0300008F094FA0020F8BD1A
:104C90003800F8BD03488168012252051143816044
:104CA000704700000028008030B500224368002BC8
:104CB0000DD1CA60016041604968002903D0017AC2
:104CC000491C017230BD417A491C417230BD4B68AC
:104CD000002B04D1CA604268D1604160F3E7002430
:104CE000057A0268230002E01400D2685B1C9D4232
:104CF000FADC002CCA6001D10160E0E7002AE16023
:104D0000DDD14160DBE70000024880680006000E4C
:104D100070470000A090040001697D22D2009142FA
:104D200001D20A310161704710B503785B065B0E52
:104D30000E2B0AD3C4694369A34206D91B1B0B601F
:104D40008069834201D9181A9A2B98170100000034
:104D5000B44B000000040000D732A560106010BD05
:104D600010B504008EB06846FBF7D2EF200069460C
:104D70002BF056FC0EB010BD10B504000020E20769
:104D800002D00800FBF7C8EF0C490978012914D1BB
:104D9000210701D500F014F8610601D5FBF7C0EF3B
:104DA000210601D5FBF7C0EFE10501D500F05EF863
:104DB0006107890F01D0FBF7BCEF10BD042C010483
:104DC000244870B586B00078002802D0002006B0D4
:104DD00070BD214D00242868002802D0FBF720EF89
:104DE0002C601E4E3068002802D0FBF71AEF3460AA
:104DF00000221B48D2430021FBF786EE28601949A8
:104E000002890A81F02253004A8102228B810A80A2
:104E10004C800189144D0818019200930290E868B3
:104E20002C216A46FBF774EE01206B461873587309
:104E300008209C7398745C74DC731C741C75E8689F
:104E4000252103AAFBF764EEE868262103AAFBF7F5
:104E500060EEBBE7202C01040C2C0104102C010493
:104E60003C1100C084BB07C0ACBA07C00022FF21C0
:104E700070B5D2431D48491CFBF746EE1C4C1D4E35
:104E80000025002820602ED0202101810321C1802F
:104E90002030C17021687089888027200881F089BE
:104EA000022801D1002200E07289708988801248AE
:104EB0000823C068FBF740EF2068242101810F49D7
:104EC00024300A790270497903230907090F4170D8
:104ED000216889888170216809488A880068D21C05
:104EE000FBF722EE25600020F58170BD181100C08F
:104EF000102C010484BB07C0ACBA07C068BA07C055
:104F00007491040001000279FF31B131012A02D00D
:104F10004079022809D100224A608A600A60C031C3
:104F20008869002801D002608A617047034988427D
:104F300001D100207047012070470000E40A03C03F
:104F4000F7B582B02423070004981F495843461838
:104F500032F0F0F901901D480569049A2805C40D46
:104F60000399380002F024FC0127194BFF071EE0CB
:104F70007069E100401842680021116019553169DB
:104F8000491EA14209D1F168090139430160280095
:104F900001252D038543002409E0B1680835090186
:104FA0003943ED04641CED0C2404240C0160185DED
:104FB0000028DDD128040499000CFBF7C2EE01980B
:104FC00032F0BDF905B0F0BDD424000480A3008008
:104FD0008426000403B583B064224D2301A902A8EE
:104FE0002AF028FB002813D001980422103004A9CD
:104FF000FBF7BAED0199042088720020C87202996B
:1050000004982AF049FD002802D10298FBF708EE27
:1050100005B000BDF8B505000C001AF0D1FF07007F
:1050200028001AF0DDFF06002A20EC36012CC455BA
:1050300003D1280000F08EF804E0022C05D12800EE
:1050400000F0FEF8716F040008E0032C01D0042C7E
:1050500009D1280000F009F8B16F0400280001F020
:1050600035FE2000F8BD0120F8BDF0B585B0060082
:1050700003A906F0D1FC050002D1012005B0F0BD66
:1050800030001AF09DFF040030001AF0A9FF06005E
:10509000243420002AF054FED521E06889007218DB
:1050A0000190A06800920290A07831008006C00FA5
:1050B000C203EC31039880320F0001ABFBF744EEE2
:1050C000CB218900721803983B00A11CFBF740EE2E
:1050D00021000398221D6431FBF73EEE0398012264
:1050E000017D4B0721005B0F5431FBF73AEE0100C5
:1050F000280009F09DFD0020C0E700007CB50D00F0
:10510000018942690E18100001A900F053FB040048
:1051100001D101207CBD002200920C4A019831008F
:10512000931DFBF722EE2900019801224031002354
:10513000FBF716EE617B0122114361730449A16103
:105140000100200009F074FD00207CBD678C040084
:10515000D10603007FB50500B1EE06EB01000000AB
:10516000B04F00000004000084E8760C1AF032FF13
:105170000400280003A906F059FC050002D1012013
:1051800004B070BD243420002AF0E4FDE0680190F2
:10519000A06802902000143020210600FBF7F2EDF9
:1051A00001220398D202211D01AB0096FBF7D6ED38
:1051B000039A10006030017CC37B080218435F3003
:1051C000010401209073090C0320D07308020B0A1C
:1051D00018431074000A5074280009F033FD0020B1
:1051E000CEE70000FFB583B01C000E0001894269C4
:1051F0000F18100002A900F0E7FA050002D1012003
:1052000007B0F0BD124A02983900931D0096FBF7D3
:10521000B6ED0298817C01290DD0002200920C4A43
:105220007130921D911F00232BF012FB0299603107
:10523000C873000A08740599029823000122FBF73D
:105240009AED0100280009F0FDFC0020D8E70000DD
:10525000678C04007FB503A9050006F0E7FB060094
:1052600002D1012004B070BD28001AF0B3FE040082
:1052700028001AF0BFFE0500243420002AF06AFD41
:10528000E0680190A0682200143200920290A07899
:1052900011218006C00FC003C90142180398211DC7
:1052A00001ABFBF75CED0D2189016818836B426B44
:1052B0000398A11CFBF76AED002812D0A0788006A5
:1052C00013D5CB2080002A0029180398EC32FBF775
:1052D00062ED21000398221D6431FBF748ED0028A0
:1052E00003D13000FBF7A6ECBBE7039D0122297D2B
:1052F00028004B0721005B0F5431FBF73CED010008
:10530000300009F09FFC0020ACE70000F0B505007C
:105310000E0029894069491985B00191170003A938
:1053200000F052FA040002D1012005B0F0BD0022C5
:105330000092154A01990398931DFBF720ED310067
:105340000398012240310023FBF714ED0290706FA7
:1053500000280AD0607B01210843002F607301D030
:105360000A4800E00A48A06108E0002F03D02800A6
:105370002BF0A6FA02E028002BF0ACFA02992000EC
:1053800009F060FC0020D0E7678C040005070300EB
:105390001907030013000A00803010B5416C006C3F
:1053A000FBF7FCEC10BD00000148008870470000CE
:1053B00096A7040010B507220A7000220C004A705C
:1053C000891C2CF04DF9002806D0811EA170090A15
:1053D000801C0006000EE17010BD7CB5140080300A
:1053E000069A009301920A00416C006C2300FBF7BF
:1053F000DAEC7CBD38B51400049A00922200FBF769
:10540000D6EC38BD24235843114930B54018C16942
:1054100005690B05DC0D01236D1E1B03A54213D08E
:10542000140AE4000919C904C90C1206C16101D1AA
:10543000C16903E00831C904C90CC1610A057724B8
:10544000120DE400A24201D98B43C361C06930BD93
:10545000D4240004242358431349F0B54018C169EB
:1054600044690905C90DCA000669A3180022751E02
:105470001B6801273F053B408D4205D1C1693F12A2
:105480008F430021C76105E0C7690837FF04FF0C9F
:10549000491CC761002B05D1CB00E318521C964272
:1054A0008161E5D2C069F0BDD424000470B5040068
:1054B0000E00150064211000FBF770EB36E06078F9
:1054C000801CB04234DC207828280ED005DC20284F
:1054D0000DD025280DD1AC6423E0292803D0442821
:1054E00007D1EC651DE0EC641BE02C6519E06C65F0
:1054F00017E029002000FBF75EEC002811D120788E
:10550000DD280ED1A01C01F019FA002800D0AC65EE
:105510002078DD2805D1A01C01F000FA002800D079
:105520002C666078A41C361AB61E0419002EC6D14B
:10553000300070BDF0B524238E46002158438C46C0
:1055400023494018C1690905CA0D82614169D30028
:10555000CB180121090324E01C68A50201D5E4074A
:105560002ED10469641E94427DF583210100000060
:10557000AC530000000400003B2D53BF0BD1C268A8
:1055800001241201E40722431A60C3690A009A4306
:10559000C26100220BE0846801252401ED072C4341
:1055A0001C60C3690833DB04DB0C521CC361436914
:1055B000D4001B198261C469056A26052F05360DC2
:1055C0003F0DBE42D2D10C400D40AC42CED0614620
:1055D000012904D1C069714608805868F0BD0020D7
:1055E000F0BD0000D4240004F3B581B0254835E0B7
:1055F000029806F0E7F8040034D06768002F2AD03C
:1056000002982500816808350E000836009118229E
:105610002900301DFBF7BCEA3100287A20310876DA
:10562000687A4876087DE7221040EA7BD206920F1E
:10563000D2001043087528001830FBF7B2EA310099
:105640004031FBF7CEEA00993A0008312000FFF71D
:105650003DFA002806D120680FF0E2F909484068B9
:105660000028C5D007480068002809D1019806F035
:10567000C0F8002804D0034920390861FFF736FA42
:10568000FEBD0000E00200040749401E8978414346
:105690000648807808180649097840180006000E68
:1056A000432800D3422070478025010424A1040030
:1056B00094A70400F7B582B006002D482B4D007862
:1056C0000F002C00012819D0022827D003284AD126
:1056D00030F04AFB010024391C292FD8049A244BAE
:1056E00000920222390030009E3302F0BFF804001D
:1056F000A84238D020000321090231E0049A1C4B53
:105700000092062239003000303302F0AFF8040076
:10571000A84228D02000FF21491C21E0049A144B04
:1057200000920522390030006C3302F09FF804002B
:10573000A84218D020000121490211E0643828282D
:1057400011D8049A0A4B0092072239003000B23374
:1057500002F08CF80400A84205D020003121090194
:10576000084305B0F0BD2000FBE70000FFFF00008C
:10577000F89900C043185B0800D10123411A13486F
:1057800002290BDC002A1AD011490978012906D117
:10579000242B03D3682B01D8FF20801D70470229DA
:1057A00005D1062BFAD3222BF8D80A4870470329D3
:1057B000FCD1152BFAD3682BF8D8074870475B1E2D
:1057C000172BFBD8FF20000270470000FFFF0000EE
:1057D000F89900C00502000017030000F3B500248B
:1057E00006002500002881B014D07079022811D05D
:1057F00002E0012002F087FC28006D1C022807D27D
:10580000002219481100FBF794E90400F1D00AE0E6
:10581000002C08D100221548110003233EF0D4FAD1
:10582000040000D1FEBD66612FF04EFE0004000CA6
:105830002081082705190F2128002773FBF78CE921
:1058400041F01CFB28730F20287100206871380A72
:10585000AF71E871B0792870F079687002980F35EF
:1058600005602000FEBD0000180200044C01000489
:10587000F8B5032500263A4F3A4C2078002811D07D
:1058800001282BD0022836D0032833D110F062FB38
:10589000B8422FD0A088401E0004000CA080ECD19C
:1058A0002670EAE710F056FBB84223D00006000E3F
:1058B0000121E070012821700BD002280BD00328B1
:1058C00007D0FF28D9D0022020702220FBF780EAE1
:1058D000D3E7A58001E00420A080E68009F03EF92E
:1058E0002078012806D00028C7D00328C5D023205F
:1058F000FBF76EEAF8BD1CA000686D46009007E05B
:1059000002216156695C814207D1A078401CA070D9
:1059100002202056042805DA00E0A67010F01AFBD9
:10592000B842EDD1A0780428E4D110480022252106
:10593000FBF7FEE80121C18001890D4A09180A60C0
:105940000C4A8A808E710C491C2209684161010051
:105950000A4801230068FBF7FCE8A6702670F8BD32
:1059600003FCFFFFECA5040001030C00181100C0AC
:1059700092130000030C0000B709FFDC01000000D7
:10598000A85700000004000068F780D3709104005D
:10599000609F00C0F0B506000C001F00002585B018
:1059A00001F054FF002804D0012817D0022815D197
:1059B0000C25032E07D1A178607801AA23C2227892
:1059C000009209A205E020780022029208A2019527
:1059D00000900021FF205B23FBF754E90020387082
:1059E0000A98057005B0F0BD5662626262620000FE
:1059F0005662626262000000F8B50C00122801D203
:105A0000012500E000252B4E7078002804D0207975
:105A1000FF2801D02FF036FD21792748FF29017199
:105A200009D17078002804D02FF02CFD01202FF030
:105A30006DFC0020F8BD2178017061784170A1787B
:105A40008170E178C17061794171A1798171E179E9
:105A5000C171217A01728C46617A4172E37AA27A2D
:105A60001B021A434281237B002D037303D00023C2
:105A7000036104230BE0A57B637B2D022B43E57BB5
:105A8000277C2D043F063D432B430361637C002AA2
:105A9000037507D0094B4800185A824202D8604665
:105AA0000E2801D91220F8BDC806C00FB0702FF023
:105AB000B5FCBEE74CA6040098160500CCDFF50344
:105AC000FEB5282358430F004549BE7A4018F97A9D
:105AD0007B7A09020E43397A1B02194304002034F1
