:100000000100000000000000000400000094511AEC
:100010001CF09FE51CF09FE51CF09FE51CF09FE5A0
:100020001CF09FE51CF09FE51CF09FE51CF09FE590
:100030000C3E0E1E48AD020020AD020024AD0200B1
:1000400028AD02002CAD020030AD020034AD02003C
:1000500041AD0200000000EA3AAA00EA28008FE25F
:10006000000C90E800A08AE000B08BE001704AE24A
:100070000B005AE133AA000A0F00BAE814E04FE27D
:10008000010013E303F0471013FF2FE160C40200E7
:1000900000C5020001C08FE21CFF2FE18A1803781F
:1000A00001309C07A40F01D1047801301D1101D14A
:1000B00005780130013C05D0067801300E70013121
:1000C000013CF9D1002D11D004781B0701309B0FA2
:1000D0000C1B032B01D1037801301B02E41A6B1CAB
:1000E000267801340E700131013BF9D59142D6D307
:1000F00070470000102052E27800B0287800A12854
:10010000FBFFFF8A822EB0E13000B0283000A1282A
:1001100000409045004081451EFF2FE10030A0E3E4
:100120000040A0E30050A0E30060A0E3102052E2F2
:100130007800A128FCFFFF8A822EB0E13000A128C0
:10014000003081451EFF2FE104309FE503308FE032
:1001500013FF2FE1B5AA0200F8B5050001F0DFFAA0
:100160000027FF43002804D1686901F07DFD0028C5
:100170002DD02A89501941790379090609141943A8
:100180000C180E3288180606360E280001F0BAFA4E
:10019000002807D1617D227D08020836104336060B
:1001A000360E03E0607B217B0002084301F08BFAEE
:1001B00000280CD02200A11D28002E8101F0F8FE9D
:1001C000002804D0280000F004FB0020F8BD38000F
:1001D000F8BD002070470000464810B5046840682C
:1001E000042B01D14C6102E0012B02D14C612AF0B9
:1001F00076EE002010BD70B50C003E4D1600052BAC
:1002000016D120890019C17882780802104303D1E1
:10021000200000F0DEFA04E02000FFF79DFF002838
:1002200001D1012070BD32002100286805230DE0B6
:10023000032B06D1200001F062FA320021000323D3
:1002400004E0022B04D1A868320021002AF046EE17
:10025000002070BD70B500F0CAF8264C050020687B
:1002600000280CD101F055FA2060234A2021A0601B
:100270002AF038EE214A606820212AF034EE280066
:1002800000F0BAF870BD70B500F0B1F8194C050077
:100290002068002808D0002213212AF024EE2068CC
:1002A0002AF024EE00202060280000F0A5F870BDA0
:1002B000002113A010B52AF01EEE0E4C6060FFF76F
:1002C000C9FFFFF786FF2068002803D000220D2118
:1002D0002AF008EE002010BD70B5040000F087F889
:1002E00005000120207320002AF008EE280000F00D
:1002F00083F870BD84C50200C9010000E701000059
:10030000776C616E0000000010B52AF078ED2AF0DD
:10031000FAED002010BDF848012149034161F74979
:100320000161F7494161052101617047F54810B548
:10033000006800022BD5F04AF34B0020C11C0901D4
:100340005161146981005C50041D240154611469D9
:10035000C918801C0C284C60F0DBFF21EB4B2D31C1
:1003600002E0401C8842FCDB18780028F9D0E44801
:10037000E0305061E6481061012040035061E548DB
:100380001061DF48506105201061012010BDFEE7BB
:10039000DE4910B5486002F01DFF10BD10B502F037
:1003A000B9FFDD4880212AF0B2EDDC48DC212AF0DB
:1003B000AEEDDA481421DC302AF0A8EDD748502100
:1003C000F0302AF0A4ED002010BD202800D3FEE775
:1003D000D14A80001358002B00D0FEE711500020B6
:1003E0007047CD4A002180001150080070478020DE
:1003F00010B52AF090ED10BD10B52AF08CED10BDAF
:1004000002688368C1681000184770B5D17831CF91
:1004100001000000FC030000000400005AEF5E131E
:10042000052805D2C24D8400DC352B59002B01D0A4
:10043000012070BD2C234343BD4E9B192B51350029
:100440000401F03528516019C260816000214160CB
:10045000B84919615861002070BDFEB50E00170043
:10046000052816D2B2490201F031B14B551869681E
:10047000DC33840000290DD10122019700960292FD
:100480001859436902692AF054ED002801D101206E
:100490006860FEBD18591D002AF04EED28593A003B
:1004A00031002AF04EED28592AF04EEDFEBD10B570
:1004B00004002AF04EED206010BD70B59E4D6C6AB0
:1004C000E00705D02AF048ED03F064F9A817686248
:1004D0009A4EA0070CD5A86A02218843A862202062
:1004E000F060491F6962B1680143B16003F04AF9E5
:1004F000600705D5A86A04218843A86203F0D3F8F1
:1005000020070AD5A86A08218843A8628020F060E5
:10051000C9436962B1680143B160012070BD874879
:1005200070B50468814EA10706D500210161B26D46
:1005300001209047022084432006000F03D0E020D2
:1005400084431020044300250AE0E00706D0A800F9
:100550003258002A02D021002800904764086D1C00
:10056000002CF2D1002070BD70B5FF24734D641CC7
:10057000EC6073480068002802D000212AF0F0ECFB
:10058000A8682043A860012070BD70B501246B4DA0
:100590008440EC6014F094FEA8682043A860012019
:1005A00070BD66480121C90310B5C160654A136A70
:1005B000644C0023403C2360136282680A438260DB
:1005C000012010BD5D480121090410B5C1605D4ADC
:1005D000536A5C4C0023403C6360536282680A4368
:1005E0008260012010BDF0B500244D4F534E0837F6
:1005F00008E0C5196868FFF7F2FE696801208840C5
:10060000B060641CE00039580029F2D14E4917202F
:10061000FFF7E5FEFFF789FE0120C005B06000206E
:10062000F0BDF8B5494DEC68E00702D0A817E860C6
:100630000440200606D58020C043E8608020844323
:1006400001F027FE200407D50126F603300001F053
:1006500020FEF043E860B4436003400F06D007205B
:10066000000421000140C943E96084432002000FD7
:1006700009D00F273F0526003E40300001F0BEFDA7
:10068000F043E860BC43E000400F09D00727BF06F5
:1006900026003E40300001F057FDF043E860BC43C7
:1006A000E0060FD51020C043E8601020844301F01D
:1006B000F9FE002806D006F0BBFD002802D010206D
:1006C00001F0A9FC600003D52148E860C0438443E1
:1006D000A00003D51F48E860C0438443002C05DA1E
:1006E0000120C00701F04BFD1B48E86013498868F2
:1006F0000122920510438860F8BD104B012292053B
:1007000010B5DA60FFF78DFF012010BD8029008051
:10071000070000FF1020000000310080E0DF00C073
:1007200000000004FF0C0000070080FFEC03000441
:10073000AC020004F10300000034008000300080AF
:1007400084C5020080E800801D0300008022008034
:10075000FFFFFFBFFFFFFFDFFFFFFF7F10B50400BC
:10076000002A03D0200001F0ADFD00E000242000AD
:1007700010BD7CB50C0015004979237909060914D0
:1007800019430B19818842692433602914D96039CF
:1007900020328180517EC906CA0F00922A0001A929
:1007A0002AF0E2EBA071000AE0710198001B2071B1
:1007B000000A607101207CBD00207CBD30B50400C2
:1007C0002020208165692018AD7A05706469E47A7B
:1007D00044700171090A4171110A8271C171190ACB
:1007E0008370C17030BD002810B507D001690029A1
:1007F00005D14189C088032206F0DAFD10BD2AF038
:1008000088EB10BDFEB50400002002900190208905
:1008100001250719B8782E000007800F091B4084B6
:1008200001000000F80700000004000009358D7F7A
:10083000022800D00026A088002867D007F0CFFA51
:10084000002864D038002AF09EEB002857D1002EF3
:1008500012D001222000694607F0B5FC00280BD019
:100860000098002800D00120002848D000214F2007
:1008700007F022F9029008E0200001A907F096FB9A
:10088000002800D00120002839D007F088FA00287D
:1008900045D0FF4F3D610DF0BDFF0DF0AAFE0028D1
:1008A0000BD10EF0A9F9002807D1FA490860FA49DE
:1008B00008800320BD700DF07CFF0299FF2007F037
:1008C0009AFAF64D2888002804D0F54904200856E5
:1008D000401C09D00225012002F0A0FD6D1E08D0A9
:1008E000387A0028F7D104E007F01DFA00202880AC
:1008F00038721C200DF05DFF0020F8600FE06B46A1
:10090000187900280BD1A08020202073FEBD002E76
:10091000FCD002222000694607F055FC01E0002EC1
:10092000F4D00DF07AFE0028F0D0A0880028EDD099
:100930000CF0E3F90028E9D10CF0C9F90028E5D161
:1009400020890019C178CA0701D1801D00E012304A
:10095000D44A137D002B0ED0128A092A0BD10078BD
:10096000C00708D0880602D50DF09FFFFEBD1A20F3
:100970000DF01FFFFEBD0DF081FFFEBDF7B500229B
:10098000070048780E00097805020D43203528003D
:1009900032300104C448090C2AF0F8EA040020D0DF
:1009A00028001230A08067612027E01912212781DA
:1009B0002AF0F0EA2B04029A1B0C12212000FFF708
:1009C00007FF3220208120182A0031002AF0E6EAB1
:1009D0002000FFF721FFA088002804D12000FFF7A6
:1009E0000CFF0020FEBD27810DF02CFE002802D058
:1009F00005200DF0DEFEFFF70EFDAD4B0500AB4808
:100A000021001C68002200680523A0472800FFF78A
:100A100007FD0120FEBDFFB50120904083B0039F7C
:100A20000406240EFF37813738790E001500204266
:100A30002FD1FF229132462301A902A807F01AF80C
:100A4000002826D03879172120433871019C1034B2
:100A500020002AF0A0EA0698002801D1052000E035
:100A60000D20607225722000627A0C990A302AF0FB
:100A700096EA310006220C31A01C2AF090EA607A36
:100A800001990A308872000AC8720299039806F028
:100A9000BDFF07B0F0BD1A0075E68288602A10D944
:100AA000603A828048790A790006001410432430A5
:100AB0000871000A4871E62088710020C871012081
:100AC0007047002070471FB501AA0400009202AAD7
:100AD00003AB0EF010FC01980204029812140104FA
:100AE000091420000EF0A4FD20000399C0304182BB
:100AF000019981820299C182200007F0BAFE1FBDD0
:100B0000F1B500242600250086B005F001FA0700A3
:100B100005A82AF048EA0028BBD06B46587DC106DC
:100B200001D48006B5D56B46187D0007000F01285B
:100B3000AFD10190380002A92AF038EA012FA8D0DD
:100B400006990B200856002F03D16B46997D0D079F
:100B50002D0F584F3968884206DA7968884208DDD7
:100B6000B8680126002894D001242AF024EAF8600D
:100B70000BE02AF020EAF9682AF020EA4E49884280
:100B800003D8B868002884D00124B868A04221D0D6
:100B9000002E1FD1BC602AF016EA00280FD047496A
:100BA000C9696031C97B002909D06B46D97A4140B7
:100BB000D972597A41405972197C414019746B4677
:100BC000187D01990207120F00922B00220002A843
:100BD00001F0B1FD5DE7F3B591B005000A20069084
:100BE0000020049002900190129800286AD0288971
:100BF0006E694119202208A82AF0D0E908A80790B8
:100C0000129818302AF0E2E908AB99780007C40F6F
:100C10000A070020920F022A03D10909090700D50B
:100C20000120129F20432037002819D05CDF4E4C52
:100C300001000000F40B000000040000FD5AF8CB96
:100C4000FFF7F3FB0090387E224A41070798490FCF
:100C50000C302AF0CAE90A28069008D2002C06D0E7
:100C600006981C4900014018C168491CC1600098E1
:100C7000FFF7E0FB1298FFF74DFF288920216C1841
:100C8000203829812071000A6B466071188F000995
:100C90002072000A6072B07A2070F07A6070A888C2
:100CA00000281AE084F70200ECC8020098C802008D
:100CB00088C8020098C7020038F7020078000004D4
:100CC00088C502003CC6020050000004404B4C00A6
:100CD0006C04000458060004BDE002D1287B2028E3
:100CE0003DD108ABD878800601D50120019008AB32
:100CF00098780107890F022931D10009000720D512
:100D0000FE48007800281CD00CF07EFD002818D08A
:100D1000387EC00615D5FA480068002811D0F94879
:100D2000006800280DD00CF017FE002809D006F04E
:100D30000AFD012805D0F4480068002801D10120EF
:100D400002900DF089FC002809D007982AF024E9C8
:100D5000002804D1022013F0D7FA0AF0CAFD129934
:100D60003000FFF7BAFE3100C03116201091085E46
:100D700005F06FFB207310991220085E05F05CFBF4
:100D800008AB607398780009000703D5387E4007E8
:100D9000400F00E0FF20A072A888002804D0079828
:100DA0002AF0FAE8002838D00027A770E770A88852
:100DB000002802D1287B20282BD1A07A0CF073FDCB
:100DC000002809D00198002804D00021300003F049
:100DD0009EFD01E0CD48077008AB987801990209A3
:100DE00030000CF067FE0298012812D1C848008834
:100DF00000280BD0C7480022006846212AF090E85E
:100E0000002803D0C4490120087002E015200DF02D
:100E1000DAFC2800FFF7FBFC1DE0387EC00907D094
:100E2000129A21002800FFF742FE00287ED015E02C
:100E3000079B129A21002800FFF737FE00280DD1EA
:100E4000A070E070FFF7F1FA04002800FFF7DFFC64
:100E50002000FFF7EFFA002013B0F0BDA888A070C3
:100E6000000A22000B32E0701298D11C2AF0C0E870
:100E7000707A02287ED1300012F06FF911214901F9
:100E800003904018077B002008AB0590987CC007B2
:100E900006D001200590F80775D0B80773D41EE07E
:100EA0000CA8801C12F0C7FE002804906BD0707A4A
:100EB000022868D10498407BC00664D50498F17A72
:100EC000C07A81427ED106980A285CD3780702D482
:100ED000F80758D003E0F8077ED078077CD48F4815
:100EE000002201888E4803230EF03BFD002800906D
:100EF00046D00098A988818000F027FC0099000462
:100F0000000C0881009908220A73009947180F21E4
:100F100038002AF04AE81020387100207871E07912
:100F2000A17900020843B871000A00E054E0F871AA
:100F30000398806A012807D10498002804D0707BA8
:100F4000000701D5A07A3873607921790006001472
:100F5000084301193800AA8810302AF02AE80098BE
:100F600031694161F07A7870B07A3870A888B870C9
:100F7000000A00E007E0F8700098042100F0D2FBBE
:100F80000598002828D00DF067FB002802D0052026
:100F90000DF019FCFFF749FA634B0700614829007F
:100FA0001D68002200680523A8473800FFF742FAB1
:100FB000A07A0CF078FC002817D0019801280FD1F6
:100FC000002100E003E0300003F0A1FC0DE0380751
:100FD000D9D506980A28D6D30020A070E07018E76B
:100FE0000198002801D14949087008AB9878019907
:100FF000020930000CF05EFD0298012812D144482D
:10100000008800280BD0434800220068462129F0C0
:1010100088EF002803D040480121017002E015202C
:101020000DF0D1FB012017E7FFB59DB006000800C9
:101030003768002115911F997C6900293889AD28EE
:1010400001000000F00F000000040000AE802BA79C
:1010500010D040301C9029F0CEEF209905004118A7
:10106000C0782031400602D4B88821B0F0BD28886D
:10107000682801D80020F8E717AA169100921F9956
:10108000169818AA15AB29F0C2EF280029F0C2EF74
:1010900000286DD02A48002104AA01AB07C310AB79
:1010A000284A00921D7F1A7D38002B0018A929F0CC
:1010B000B6EF050048D12000FF30813001790906E4
:1010C00023D5002C0CD00521C9016118496A0029DB
:1010D00006D010AB1A7F920060328B585B1C8B508D
:1010E00001794906490E01711C9829F084EF10AB73
:1010F0001D7F1F992A01521B52180E3200920100C7
:101100001B7D2A002000FFF79AFC00203060B1E729
:10111000CDC70200DCC70200D8C7020020C8020009
:10112000CCC7020044F9020084C50200C8C702000F
:10113000A2C802006400000488C502003CC6020088
:10114000C0280300A4C100C0356028891C9940193B
:1011500029F068EF0088A8802000FF30813010ABB4
:101160001B7F0126320001799A40914301711DE0F5
:1011700010AB197D009101952A8816991698643A4A
:10118000091D18AB29F052EF06001CD0200010AB4F
:101190001A7FFF3081300123017993409943017117
:1011A000288808382880B8880838B880002C08D0EB
:1011B0000520C0012018406A002802D0C16D491CDA
:1011C000C165300051E7002C14D00520C001201863
:1011D000416A00290ED010AB1A7F920060328B5802
:1011E0005B1C8B50416A0A69521C0A61406AC168E3
:1011F000491CC1601C9829F0FEEE010010AB187F5D
:101200001F9A03011B1A9A180E320092020010ABAB
:101210001B7D2000FFF713FCD3E700280CD005212D
:10122000C9014118486A002806D00269521C0261AF
:10123000486AC16C491CC1647047F7B590B015008D
:101240000E001098076800200B9008007C69403061
:101250000F9029F0D0EE0E9024300A90200013F069
:101260007CF9002813D00A98290009AA08AB29F0B4
:10127000E2EE00280BD0002C08D00520C001201879
:10128000406A0028F8D0016D491C016582E00E9883
:10129000008868287ED92A004C3268380304111F60
:1012A000081F0692021F059103921C3A04900C3904
:1012B00038380092203602910190307E1B0C460790
:1012C000760F1A000A990E98330029F0B8EE06003E
:1012D0000E9829F0A0EE002839D00CAA0BA9019293
:1012E000002000910B900A9A0E993B00300029F0E3
:1012F000AAEE00284ED0FF4A0092FF4AFF4B0E99FB
:10130000380029F0A4EE002802D11099086041E0CD
:10131000109907000860018908180F9929F082EEDA
:101320000E900B9800283FD00CAA00920A990E98B4
:101330002B003A0029F08EEE060035D11EE00E9803
:101340008079C107C90F200010F067FE22E0002E4F
:1013500022D03007800F0FD0002C1BD00520C001F9
:101360002118486A002815D0C26C521CC264486A11
:101370000169491C01610DE0B0070BD5002CDED0DE
:101380000520C0012018406A0028D8D00168491CF7
:101390000160D4E7002069E50E980E9900881438A2
:1013A0000880B8881438B8806B46998C089A280051
:1013B00029F054EE002E0AD1002C08D00520C001DF
:1013C0002018406A002802D0C16D491CC165012067
:1013D0004CE5F7B582B0140007000068009001905A
:1013E00003980025403029F006EE06000198F178B8
:1013F0004069490605D42030807E40072ED401255F
:101400002CE0002C02D1002005B0F0BDA17AC90764
:101410001DD0E079012805D1039922006846FFF725
:101420000CFF05E00399220004236846FFF706FE3F
:10143000050000983860B079C0070FD1002D0DD09D
:10144000A07980070AD5200000F0F3FC414C649A93
:1014500001000000EC1300000004000011450E1410
:1014600006E00521C9014018406A8168491C816075
:101470002800D3E7F0B5002697B002962AE10021B4
:1014800004910C990907C90FC90003910189081833
:1014900006A904F056FA169800280BD016980C30BE
:1014A00012F0DDFB1699040007F097FF002801D128
:1014B000002C05D1059800218180FFF7BCF909E1D6
:1014C00005994C61607A02280CD1200011F0C5FC0E
:1014D0000C300290607B169AC0060599C00F29F067
:1014E000CCED10E0207A169A012807D123009C3316
:1014F00029F0C6ED200012F0C8FF04E023009C3361
:10150000012029F0C2ED059801890918CA78D2078F
:1015100001D18F1D01E00F0012370522D201A5185D
:101520006A6A002A02D0136B5B1C13633A78D207F5
:1015300005D06A6A002A02D0536B5B1C5363828811
:10154000002A4FD0039A002A26D13A78D2071AD11E
:1015500023000A22FF338333009216999A1E29F042
:1015600098ED05988088002816D1200006A9FFF77D
:10157000C8FA0598FFF75FF9686A00289FD0016AEA
:10158000491C0162A6E05B22D200A21829F084ED7A
:10159000059880880028D4D0607A022827D12000BE
:1015A00006A90AF018F816990298C978007DC906AC
:1015B000C90F884202D0200009F0DCFC200008F0AE
:1015C0001DF8200008F01CF9012803D1169920000D
:1015D00009F04EF902984030007B032803D00599AA
:1015E000002088805BE005988088002857D01698F6
:1015F00029F056ED002812D00598434A8188444BC3
:101600004039818000920189404A091829F028ED6B
:1016100000285FD005900189081816903FE01698C1
:101620008079C00701D0E86900E0286A002801D06D
:1016300006000836002E42D0F079022801D0032897
:1016400010D1FF348134628816990120002A00D01D
:10165000002029F02AED05983B00320006A913F07E
:1016600015FE17E0012801D0002827D1002013F033
:101670004FFC0028FAD1320006A905A8FFF7B3FEF7
:10168000002804D10598002824D0002181800498E6
:10169000002804D0F079022808D0032806D0059845
:1016A000FFF7D8F8059806A9FFF7B3FA02F0B3F8E8
:1016B00000280FD0012002F0E5F814E0FEE7686A88
:1016C0008168491C81601698BF21C078084016992E
:1016D000C87084E70121002006AA04F0F1FA00286E
:1016E000059000D0CBE60B498020C043086105F08F
:1016F0001BFF002802D0042002F0C4F80649002095
:10170000C860086117B0F0BD98C100C0A0C100C09A
:10171000C028030000A5008084F70200074906489E
:1017200008600849064808607047074A0100012020
:10173000914200D000207047BB110000083B03001D
:10174000780000040C3B0300888E0000022110B5D5
:10175000017301000D481C220068042329F0F0EBFE
:1017600010BD40690069704710B5406912F0E4FB94
:1017700010BDB0207047010005A010B529F0ECEBBA
:1017800010BD10B5406914F048FE10BD88C50200B8
:101790007364696F00000000F3B5002406002500A3
:1017A000002881B014D0707A022811D002E0012004
:1017B00001F052FE28006D1C022807D20022110001
:1017C000FF4829F002EC0400F1D00AE0002C08D117
:1017D0000022FC48110003230EF0D7F8040000D1CA
:1017E000FEBD6661FFF7C5FF0004000C20810827DD
:1017F00005190F212800277329F0EAEB300013F0B8
:10180000BAFA28730F20287100206871380AAF7166
:10181000E871B07A2870F07A687002980F35056028
:101820002000FEBD10B50289123112189170090A0C
:10183000D1700F21FFF78AFF10BD0A00E24910B5F1
:101840000DF0E1FF10BD012070477CB51400069A31
:1018500001920A0001000093DC4823001A9D970BB7
:1018600001000000E817000000040000429FDD783E
:1018700029F028EC7CBDFFB583B01C000E00018967
:1018800042690F18100002A9FFF790FF050002D16E
:10189000012007B0F0BDD14A02983900931D00968F
:1018A00029F014EC0298817C01290DD000220092CD
:1018B000CA4A7130921D911F0023FFF7D0FF029991
:1018C0006031C873000A0874059902982300012248
:1018D00029F000EC01002800FFF7AEFF0020D8E758
:1018E0000100BF4810B529F0FAEB10BD10B5040097
:1018F0008EB0684629F0F6EB2000694614F071F8C6
:101900000EB010BDB64970B50400F2310800503871
:101910002822050029F0EAEB0120FFF7E1FF010092
:101920002B0001222000FFF7E1FF70BD10B54069D8
:10193000FFF7E8FFAA4901201E31C8670800803080
:101940000068002803D0817AFD22114081720020B6
:1019500010BD10B544690020FFF7C2FFA04B010085
:10196000CA3300222000FFF7C1FF9D4801211E302D
:101970004167826F002A02D1816729F0BCEB002009
:1019800010BDF0B505000E0029894069491985B0E0
:101990000191170003A9FFF709FF040002D10120FC
:1019A00005B0F0BD002200928C4A01990398931D66
:1019B00029F08CEB3100039801224031002329F0FB
:1019C0008AEB0290706F00280AD0607B01210843E7
:1019D000002F607301D0834800E08348A06108E0D5
:1019E000002F03D0280000F0AAFA02E02800FFF739
:1019F0009DFF02992000FFF71FFF0020D0E77CB574
:101A00000D00018942690E18100001A9FFF7CEFEF2
:101A1000040001D101207CBD002200926F4A019890
:101A20003100931D29F052EB290001980122403129
:101A3000002329F050EB617B0122114361736B4954
:101A4000A16101002000FFF7F7FE00207CBDF7B583
:101A500088B00025624C08981E34210029F04EEB16
:101A600006001CD05E4F781D29F04CEB22001100BF
:101A70004031203200280692079128D0781D29F0A5
:101A800046EB002806D0200040384178801C0DF03D
:101A9000D9FE02E0514829F03EEB050002D10020BA
:101AA0000BB0F0BD781D29F03AEB020021002000B8
:101AB000D431503002AB07C323000699079A019234
:101AC0000091099A0A99280029F02CEB0125079A20
:101AD000069908980023FFF7CEFE002801D00025C4
:101AE00008E0012D06D131000931200029F01EEB5C
:101AF0000020A0672800D3E770B50600384D1E35DA
:101B0000290029F018EB040001D1002070BD2079D4
:101B10000122022800D0002229003000FFF731FF07
:101B2000002801D0200070BD21000931280029F0D3
:101B3000FEEAEAE770B50600294D1E35290029F0B6
:101B4000FEEA04000AD029003000FFF758FF002801
:101B500004D121000931280029F0E8EA002070BDF5
:101B6000F8B505000E00008917004019817900249E
:101B7000090716D54079C00709D02800FFF7BCFF38
:101B8000F8BD012001F072FC641C2406240E3A000A
:101B900031002800FFF75BFF0028F1D1072CF0D3BC
:101BA000F8BD2800FFF7C6FFF8BDF3B581B00E0001
:101BB0000B4C1E34E01DF9300500006800282DD0C4
:101BC000FC20075D10F090FF01983200210000F02A
:101BD000BFF90DE03001000464000004A4C5020058
:101BE0007EE60200B71E0000A5180000CB1800001A
:101BF000FE4E002F13D0012F10D1B078FC4A401CAC
:101C0000B07021003800082329F09CEA019868612F
:101C1000F84AF9492000082329F098EAFEBDF44A61
:101C200021003800082329F08EEA7078401C70707B
:101C3000FEBD70B50D001100F04CFF2215321051A1
:101C4000EA480622123029F0D2E9E84806222900A3
:101C50000C3029F0CCE9EA4AEA492000082329F0AF
:101C60007AEA70BDF8B504000F00E4480C9A7F0BC7
:101C700001000000E41B000000040000B6F0A8CC46
:101C800015001E3800781E00C0070FD0E04829F06C
:101C900070EA3900DE4F2A00403FB81C29F0B0E955
:101CA0007D70069A31002000FFF7CDFFF8BDDB48BC
:101CB00040680006000E7047D148032110B529F096
:101CC0006CE9D3481C211E3829F096E9D04801223E
:101CD0001E3841781143417010BDCD4808B52038F9
:101CE000C1786B46197000795870009808BDC448D7
:101CF00080687047002809D0C1498968884205D1A9
:101D0000C3481E380078C007C00F704700207047D6
:101D1000BF491E390978CA07B94900D10020886037
:101D20007047B74900208860B9481E3801784908D3
:101D300049000170C0E7B64801221E3801781143FE
:101D40000170704770B50C0086B00A9916000B9AA6
:101D50000500002902D1002005A905900291A8499B
:101D6000AB480193039223002A00C91C1E38009639
:101D700029F002EA06B070BD70B50500A4480E0057
:101D8000403841781400801C8EB00DF065FD0028AD
:101D90000FD0010023003200684629F0F2E9280044
:101DA000694613F028FE9A4829F0E2E99849012093
:101DB00088670EB070BD70B50500954C1E3C20784C
:101DC000C00710D06078C0060DD5E078002200076B
:101DD000C10F2800FFF7D0FFE07801220007C10FF4
:101DE0002800FFF7C9FF70BD07B56B468448197816
:101DF000C1705978017119794171197A81710EBDDB
:101E00007F4B10B5DC7804701C79447058790870E9
:101E10009879107010BD7E4B10B5203BDC780470B3
:101E20001C794470587908709879107010BD10B5FD
:101E3000FFF742FF7248FF220421C01C28F094EDF6
:101E400076480024012112C028380477E03829F0B0
:101E50009CE96B48846010BD10B5704CA0680028E8
:101E600003D029F096E90020A06010BDF4E768498E
:101E70008031002808600BD09E390978C90703D04B
:101E80006349C96F002903D0817AFD221140817214
:101E90007047FFB583B0050010000E9F0D9E002215
:101EA0004A7020220A706A78A91C5418291D083526
:101EB00029F072E928786B46187268785872188988
:101EC000AA1C81008D1801060698090E29F068E900
:101ED00028786B4618716878AD1C58710095988801
:101EE000B100800045190C9829F086E86B46988867
:101EF000B04200D33000820000990C9829F080E8AD
:101F0000A54207D22800AD1C002F03D001783970FC
:101F100040787870A54206D22800AD1CA54202D2B6
:101F2000008800014519A54207D20F982900002812
:101F300003D00F98042229F064E80120B3E4394962
:101F4000374808603949384808603A4938480860D5
:101F5000704710B50400FFF7F3FC2000FFF703FD06
:101F6000002010BDFEB50C000600086F1700401CD5
:101F700006D1E06E401C03D1200029F006E9FEBD29
:101F8000FEF77BFA050002E00021FEF7EBF92A4894
:101F900029F00AE90028F7D12800FEF773FA30008B
:101FA00001A9FFF70DFC0500E9D0154A01980C3294
:101FB0003900931D009429F0FCE8154E1E3E701D5B
:101FC00029F0B6E8020030790007C30F7078800668
:101FD000C10F019829F0F0E8E16E491C0129E16682
:101FE00002D1206F401C206721000198012240315E
:101FF000002329F07AE801002800FFF727FCFEBD46
:1020000098C50200D9E2F003409C000005E3F0030C
:102010009CE60200809698002DE3F0039CE7020006
:10202000D31700003C3E0300C7170000403E0300EA
:10203000F71D0000143E03004807000470B500259A
:10204000038944691B185E78002E0BD0032E14D12F
:10205000637A022B02D114F096FA01E0FFF78AFDB1
:1020600001250AE0607A032801D0012805D11879FA
:10207000012802D1080029F0A4E82800EDD1E518D4
:1020800001000000E01F000000040000E52A7BA022
:1020900070BD10B50DF00CFCFFF7D3FE002010BD95
:1020A000F7E710B50400302014F080FC00F047FA88
:1020B000E00602D510F09FFD10BD10F041FD10BDEF
:1020C0000020EEE7042803D257498000085C7047DF
:1020D000FF2070470A00022010B5FFF7F3FF90427F
:1020E00001D1FFF7EDFF10BDFF280BD04E4A0021B4
:1020F0008B00D35C834202D10806000E7047491C56
:102100000429F5D3FF207047FF280CD0464A002150
:102110008B009B185B78834202D18800105C70476B
:10212000491C0429F4D3FF207047042804D23E49F7
:102130008000401840787047FF207047FF280CD07F
:10214000394A00218B00D35C834203D18800801878
:1021500040787047491C0429F4D3FF207047FF28BA
:102160000CD0314A00218B00D35C834203D188001C
:10217000801880787047491C0429F4D3FF207047E9
:10218000294A00218B00D35C834206D18800801845
:10219000C0784007C017401C7047491C0429F1D380
:1021A0000020704770B505000C00100000F07AF9AF
:1021B000200000F0B4F82800FFF7A6FF022805D0A1
:1021C000032803D0042801D0052802D1200000F004
:1021D0005BF870BD10B50400C00005D501221203E4
:1021E00011040C20FFF7DEFF200105D50122D202E9
:1021F00011040B20FFF7D6FF600105D501229202E2
:1022000011040A20FFF7CEFF10BD0120C00310B556
:1022100000F048F90120C00700F081F80349C868C0
:1022200080229043C86010BD4CC902000028008085
:10223000F8B506000F00FFF757FF05003000FFF765
:102240007DFF3000FFF78BFF0400002F16D1300018
:10225000FFF796FF002811D0231F28F0C0EF060FCC
:102260000F0F0F07040F0021102005E02649A800DA
:102270004018C0780021C00828F0B4EFFF223100D8
:102280001000FFF727FFF8BD10B50400C00203D50A
:1022900001210220FFF7CCFFA00203D5012103207A
:1022A000FFF7C6FF600203D501210420FFF7C0FF3E
:1022B000200203D501210520FFF7BAFF0120000706
:1022C000844205D04010844202D0401084421AD18A
:1022D000FF208206A11808D0891804D0C2068918E8
:1022E00004D10C2002E00B2000E00A20FFF70CFFD5
:1022F000022805D0032803D0042801D0052802D1E4
:102300000121FFF795FF10BD4CC9020008490A687A
:1023100002430A608A6802438A60012070470449C8
:102320000A6882430A608A6882438A600120704793
:10233000802200800A490A48403942685204FCD48D
:102340004A68002AF9D17047074906480860704773
:1023500010B528F04CEF10BD10B528F04CEF10BDB3
:1023600040E8008085220000403A0300BB48006836
:10237000816801221204114381608168FF222032AA
:1023800011430122520391438160416812111143AC
:1023900041604168D200114341607047AF48006816
:1023A000416801225204914341607047AB48006884
:1023B000416801225204114341607047A7480068F8
:1023C000816B002904DA816B0906090FFBD1704784
:1023D000806B704709040143A04800688161704721
:1023E0009E4909688A69120C120402438A61704787
:1023F0009A490968CA68120C12040243CA607047FD
:10240000964909684A69120C120402434A617047EE
:102410000904014391480068C16370478F49096806
:102420004A68120A120202434A6070478B480068E9
:10243000806BC007C00F7047884800684168012260
:10244000D20391434160704784480068816BC9079B
:10245000FCD041680122D2039143416070477F491B
:1024600009680A6B086348680122D2031043486078
:1024700070477A480068406A704778490968803137
:102480004A6A0001120F12070009024335A26809C7
:1024900001000000DC23000000040000CDBBFE1D95
:1024A0004A62704772480068C06A7047704909689C
:1024B000CA698243CA6170476D490968CA690243A3
:1024C000CA6170476A4909680A6A02430A6270472A
:1024D000674909680A6A82430A627047644800686B
:1024E0008030416849084900416070476048006891
:1024F00080304168012211434160704770B55C4DE6
:102500002868803001680122114301600168594C3C
:10251000490205D50168A14301600A2028F0C2ECF8
:102520002868803001682143016070BD5048006810
:10253000010080310A68520852000A60816BC900AC
:10254000FCD470474A48006880300068C007C00F5C
:1025500070474748006880300168464A91430160EF
:1025600070474348006880304168062291434160CB
:1025700070473F4A12688032536A09011B0F1B07DC
:1025800009090B435362116A4003C90CC904400B8B
:102590000143116210681F210904884301210905C4
:1025A00040181060106849000843106070473048B8
:1025B00000688030C068704770B52D4D29680E697D
:1025C0000C00012109040E432661210080310E69AF
:1025D000086148694B618869F0208861C869CA61EF
:1025E000A06810210843A060A06820229043A0604A
:1025F0002868416B436B8B42FCD0FFF7D8FF002863
:10260000F6D1286881681143816041680122520334
:102610001143416070BD1648006880300069704702
:102620001348006881682022114381607047104878
:102630000068816820229143816070470C490968D5
:1026400080310A681F23DB05C0069A430009024354
:102650000A600868012212071043086070470448A6
:10266000006880300168FF22521C114301607047EE
:10267000B0C5020000004000B44908220028C86824
:1026800001D0104300E09043C8607047B04900207B
:1026900010B5086004F002F910BDF0B503252D0354
:1026A000AA48AC4CC030C20D9302870C0029A74E3B
:1026B000016A0AD011430162016A99430162A0686C
:1026C0002843A0603068384309E091430162016A01
:1026D00019430162A068A843A0603068B843306025
:1026E000F0BD38B505000024684628F0A2EC0028AB
:1026F00019D0002D0BD16B465878C10713D0400676
:1027000011D598780007000F0BE001240BE0012D94
:1027100009D16B465878810705D5C00903D0987850
:1027200000090128F1D0200038BD73B56B460500C3
:102730005C79600705D586480168002901D101212F
:1027400001602800FFF7CDFF0106090E2800FFF702
:10275000A4FF600703D46B461879000900D001205C
:10276000FFF78AFF7CBD33B56B460028197902D18B
:102770000807000F02E0012813D10809764A7349BF
:10278000D443803100280DD0744B754D01280DD0F5
:10279000092810D00F2804D1C817C8600861C86183
:1027A00008623CBDCA600A61CC6102E0CB600A618C
:1027B000CD610C623CBDCB606A480861CD616A485E
:1027C000EEE7F0B50028047A45780679477926D0F7
:1027D00001290CD10599012909D1012A06D16540A9
:1027E000D90700D06640990700D567402C000178D2
:1027F0002A0609040A4321020A4354492243C031EC
:102800004A628279C37812041B021A4332438A62F5
:10281000C279807812043B021A430243CA62F0BDB7
:1028200038B505000024684628F0F2EC002803D1F2
:10283000280000F00FF838BD6B4618780007000F2D
:1028400001D0012804D10099280000F041F80400CB
:10285000200038BDF0B5002687B005006B46187D16
:102860003700340030001E75002D06960AD1012174
:102870005975997D002199751921187259729922FB
:1028800098720AE003216B465975997D002199756C
:102890001A2118725972162298726B464948FA0D1D
:1028A00001000000D8270000000400009E612D7187
:1028B000DA720390197405992800FFF740FF6B4600
:1028C000997D28000191FFF758FF06982300020721
:1028D000120F00923A00310002A8FFF77CFF01209E
:1028E00007B0F0BDF3B585B0002507002E002C0021
:1028F00002A928F0ACEB0028F2D006993800FFF7C7
:102900001EFF6B46997E38000191FFF736FF6B463C
:10291000587EC10601D4800600D5012528F0A2EB1F
:1029200000280FD01649C9696031C97B002909D038
:102930006B46D97A4140D972597A41405972197C13
:10294000414019746B46187E23000207120F009253
:102950003200290002A8FFF73EFF0120C0E7000077
:1029600000A70080B4C502000028008011DD55DDFD
:102970001FDF5FDFEF2FAF2FF1FDF5FDFEF2FAF263
:102980006C0400040121092000070160002141605E
:102990007047FF48016B8022114301637047FD4976
:1029A00010B5C96828F02EE88905800A084301D0CF
:1029B00028F082EA10BDF848016A0F221143016233
:1029C0000220ECE7F448016A0909090101620120CB
:1029D000E5E7F24970B50868082290430860F04ABC
:1029E000506840084000506010690B210843106196
:1029F000EC4908009369DB0601D4401EFAD29069C5
:102A0000800601D4491EFAD2FDF755FDE6490A6851
:102A100001246406A2430A60E34A80321368E34D4E
:102A20002B4013601368ED432B4313600A68224365
:102A30000A60FDF745FD0120FFF7B1FFFFF7BBFF7F
:102A4000FFF72EFE70BD70B5802028F0C8EAD1498E
:102A50000A78022A08D18A69521C8A61010600D4C8
:102A6000FEE728F0BCEA70BD4A69002A00D0FEE704
:102A7000486102200870CE4D01208861AC88800238
:102A80000440A8886B26A043F600B042EBD0022099
:102A900000F0F3FB0028E6D03443AC8070BDBD49A4
:102AA00010B58869401E886107D1486900224A61D3
:102AB000FF220A7028F092EA10BD0028FCDA80207C
:102AC00028F08CEAFEE770B5B24E7069002802D09B
:102AD000FDF7F1FCFEE7FDF7EEFCB54D7061AC884B
:102AE000012080020440A888A04382280BD02888B7
:102AF000F080002000F0C1FB002804D0A8883081BD
:102B000082200443AC8070BDA24910B5A84A0B894D
:102B100048699380CB88138000224A61FF220A70A3
:102B2000FDF7CEFC10BD10B59A4C6069002802D0AC
:102B3000FDF7C1FCFEE7FDF7BEFC9D49606188889A
:102B40000122920210408A888243022A08D00A8811
:102B5000E2801A220A808A88228102221043888019
:102B600010BD8C4910B5924A0B8948699380CB8877
:102B7000138000224A61FF220A70FDF7A1FC10BDFC
:102B800070B505000E0028F052EB894C20342581E9
:102B900028F04CEBA68028F04AEB70BD70B505001C
:102BA0000E0028F044EB824C2034258128F03EEBC7
:102BB000A68028F03CEB70BD70B5050028F036EB20
:102BC0007B4C2034258128F032EB207970BD70B524
:102BD00004000D00FFF7F0FF284301002000FFF77D
:102BE000DDFF70BD70B504000D00FFF7E5FFA843E1
:102BF00001002000FFF7D2FF70BD704710B5FFF74E
:102C0000C1FEFFF7C6FEFFF7E4FE10BD6148417844
:102C1000002909D1674909680122C9034270090FD7
:102C200002001C32515C817080787047624B596899
:102C30003822914310400843586070475E4B5968F2
:102C40000F2292019143104008435860704710B51D
:102C50000C00FFF7F3FF2000FFF7E8FF10BDFF2394
:102C600070B5C1332025FFF7D1FF2C01052803D013
:102C7000FFF7CCFF012800D1230029001800FFF73F
:102C8000E6FF4D4881684F22D205914381608168FB
:102C90000F22520291430522920211438160426841
:102CA0000721C9058A434260C2684323E38CC89662
:102CB00001000000D42B0000000400006A0E58C57B
:102CC000DB039A43C26042688A43426040490A6813
:102CD00040231A430A600A6822430A600A680523EF
:102CE0001A430A600168202211430160394900201B
:102CF0000860354800684007400F07280ED12F486C
:102D000080380068C00309D5334C0320C0066060DA
:102D10000120FFF74EFE03204004606070BD224892
:102D2000C178002901D10121C170007970471E4985
:102D300010B5486900224A61FF220A70FDF7CAFBFC
:102D400010BD70B5184C6069002802D0FDF7BDFBBE
:102D5000FEE7FDF7BAFB1B4D6061AC8801208002E5
:102D60000440A888B526A0433601B04206D0022010
:102D700000F08DFA002801D03443AC8070BD10B54E
:102D80000400FFF7DEFF2620FFF720FFC0096106E1
:102D9000C001490E01432620FFF70AFFFFF7C7FFD6
:102DA00010BD0000400C0090DCA000C080A100809D
:102DB00000A3008040A6008088130000002100804E
:102DC000FFEFFFEF00080090002000800029008046
:102DD000002300800024008000280080020010B53D
:102DE000FFF79DFFFB490B0D0028886803D01843AF
:102DF0008860002002E0984388601000FFF7BFFF62
:102E0000CEE710B5040004F079FA0028C8D1F248E2
:102E1000C168090909012143C160816809090901E3
:102E2000214381608268010C0A43826002691209B1
:102E300012012243026102690A43026182690A4364
:102E40008261E649A0000858E549C860A8E710B5C6
:102E5000E14CA068E349000900010843A060E06874
:102E60000722000900011043E06020690009000109
:102E700008432061A069C91F0843A0610920FFF72A
:102E8000C0FF2068D8490840206020680321490617
:102E900008432060D54800684007400F072810D13C
:102EA000CD4880380168C90302D5206861050DE06E
:102EB0000068C0030CD460680121490408436060C5
:102EC00006E0032804D12068012109070843206097
:102ED0002068C74908402060606880098001606000
:102EE0005020FFF77BFF5BE7BB4880380088000677
:102EF000000E7047B84880380068BE498872010CDF
:102F0000BC4820380185BC49496901637047B9480C
:102F1000203841690C2903D00C214161080070E779
:102F20007047B44920394A698869904201D04861A4
:102F300067E77047AF492039486888614A6982422B
:102F400001D048615DE77047AA49203988688861E7
:102F50004A69824201D0486153E77047A549203948
:102F6000C86888614A69824201D0486149E7704770
:102F7000A0492039086988614A69824201D04861C4
:102F80003FE7704794489D4A0168114301607047CC
:102F900091499A4A086890430860704770477047A3
:102FA0000020704710B58E4C607940280CD100206D
:102FB000607128F04AE9010606D58106890E4006AF
:102FC000617101D54842607105202056E8E6F8B5E8
:102FD000002425007F4EB06840218843B060B0686F
:102FE00080210843B0607E4F0621F86827F014ED79
:102FF0008905800A084301D027F068EFB068FF21F7
:10300000491C0843B060F868062127F006ED8905E1
:10301000800A084301D027F05AEF7D21C900B0682B
:10302000641C020202D48C42F9D300E0050EB068A1
:10303000FF21491C8843B060B06840210843B0605C
:10304000B06880218843B060FFF7ACFF281A000603
:10305000000EF8BD10B5FFF7BAFF0620FFF7A9FC78
:10306000FFF7B5FF9CE67047704770B5644CA06AE7
:103070000C21884308210843A062206A4D04A8431C
:103080002062206A2843206255480021C068001849
:1030900049418905800A084301D027F018EF206ACA
:1030A000A843206270BD10B5FFF74BFE03215320EB
:1030B000FFF797FD00212F20FFF77AFD38DC7CE831
:1030C00001000000D02F00000004000039D48BA9BB
:1030D00020213020FFF776FDFFF733FE6AE610B5BA
:1030E000FFF739FE03215320FFF790FD40212F20E9
:1030F000FFF768FD28213020FFF764FDFFF721FE70
:1031000058E610B5FFF727FE80213920FFF77EFD36
:1031100002213C20FFF756FD80213920FFF76BFD8F
:103120001420FFF75DFDC006FAD553213A20FFF7C2
:1031300049FDFFF706FE3DE610B5FFF70CFEFA214C
:103140002020FFF73FFD10213D20FFF73BFDFFF75B
:1031500071FD052803D0FFF76DFD012807D103217C
:103160005220FFF72FFDAC213120FFF72BFDF52179
:103170003320FFF727FDFFF7E4FDFFF7C2FF19F04B
:10318000A9FD17E610B50400FFF7E5FD5420FFF791
:1031900027FD012C02D11021084301E0EF21084056
:1031A00001005420FFF70EFDFFF7CBFD02E670474C
:1031B0001048006970471949174808607047F8B50A
:1031C000050018200090687829780A4F000208430B
:1031D0002C3701284CD16879297900020843182836
:1031E0001ED00020F8BD0000802800800021008053
:1031F000A8C20200DCA000C007800000FFF7DF4784
:1032000000200080FFDFBFFF8C04000400A80080C6
:103210000008208800230080C7280000683A0300C7
:10322000AC1D0020E178227809060A43A178637872
:1032300009041B0219430A43C1007B581E68C919BF
:1032400049688E43114031431960401C241D0628F3
:10325000E8DB194C206A01263605B0432062206A5B
:10326000304320620120FFF7AEFB206AB0432062AA
:10327000A81D0022D300F9580968DB195B68521CAD
:1032800019400B0A017043700B0C090E8370C1705A
:10329000001D062AEEDB00982871000A687100986C
:1032A000A0E710210A2802D204494000095A044824
:1032B00001800120704700000023008038A100C079
:1032C0000008009070B500243F4D01E08047641C69
:1032D000A00028580028F9D170BD10B527F0C2EF22
:1032E0000020FFF74FFFFFF7BCFD0020FFF799FC20
:1032F000FFF798FCFFF7C7FCFFF7BFFEFFF71CFFC7
:10330000FFF755FFFFF7BAFEFFF7B9FE002010BD2B
:1033100010B514F02FFF00F006FA00F077FA27F04E
:10332000A6EF002801D0012010BD27F0A4EF002057
:1033300010BD10B513F0D8FA25482449016025497D
:103340004160254981602548416B082291434163D2
:1033500023480168234A11400160002010BD224A21
:103360002248002110B500F024F821481022002145
:1033700000F01FF861221F491F48D20000F00EF82C
:1033800057221E491E48D20000F008F800F0B7F995
:10339000FFF702F8FFF70FFF002010BD30B59408CB
:1033A000002203E09300CD58521CC550A242F9D32D
:1033B00030BD9308002210B502E09400521C015168
:1033C0009A42FAD310BD000064A100C00F00200093
:1033D0008029008080808080800A808040A80080D2
:1033E00000280080FFCFFFCF84080000BC3103001D
:1033F000145C00040078F203403A0300087BF203F7
:10340000483D0300FEB5012202A80026B4490296F9
:1034100014F082FD002841D1B249012008700298C1
:1034200014F084FDB04CFF252D35A5222900200085
:1034300027F0CCEA0C22042101920091029822008C
:103440000A212B0014F061FE002801D00120FEBDEE
:103450000298002800D1FEE7050034350B22012137
:10346000383014F038FE020000D0FEE709200002D8
:1034700028182C00203486600021C46002E0002A55
:1034800000D0FEE720004C30491C090660640400AF
:10349000090E1E29F3D3403CA6632E600020FEBD1A
:1034A000FEB50D001600089F0A9A0999002800D160
:1034B000FEE70468002C00D1FEE702920191320081
:1034C00029002000009714F042FDFEBD95B203D7FD
:1034D00001000000CC330000000400008611AE1A89
:1034E00010B527F0D6EE0006000E10BD10B527F07F
:1034F000D4EE0006000E10BD002810B501D027F054
:10350000D0EE10BD38B514006A4627F0CEEE009814
:103510002070002038BD10B5040027F0CAEE2060EE
:10352000002010BD10B527F0C8EE10BDFFB585B066
:10353000002203A86F4914F0F9FC039D3435286874
:103540001E2802D11F2009B0F0BD0021C943281D4B
:1035500014F0D5FD092000022E18F4680027002C75
:1035600002D0606CF0606764A764B068002802D184
:10357000B460676403E08464B0686064B460286821
:10358000401C2860281D14F0C2FD0F9A0E9900916E
:1035900006A901920EC9200014F0C1FD0028049074
:1035A0000AD1069860630798A0630898E0630E98B4
:1035B0002064059804601DE00021C943281D14F013
:1035C0009EFDA06C002802D0616C416401E0606C3B
:1035D000B060606C002801D0A16C8164A76467644E
:1035E0002868401E28606764F0686064281DF460E5
:1035F00014F08DFD0498A6E7F8B5040000223D49BB
:10360000684614F093FC009D3435002C00D1FEE791
:10361000616B200014F09AFD060021D1411E281D87
:1036200014F06DFDA06C09210902002802D0626C23
:10363000426402E0606C6A189060606C002801D0FF
:10364000A26C82640020A06460642A68521E2A6012
:1036500060646818C1686164C460281D14F057FD77
:103660003000F8BD7CB50C001500069A002800D18A
:10367000FEE70068002800D1FEE7002101920091DA
:103680002A00210014F09BFC7CBD10B514F0B6FCA0
:1036900010BD10B514F0BDFC10BD002810B500D150
:1036A000FEE70068002800D1FEE714F0BBFC10BD67
:1036B00010B514F0C1FC10BD38B51400049A009286
:1036C000220014F0DEFC38BD002810B500D1FEE762
:1036D0000068002800D1FEE714F007FD10BD10B50A
:1036E00014F00DFD112800D1122010BD10B514F0FA
:1036F0000EFD10BD44090000B8C50200DCE7020061
:103700003B48C1690029FCD0816A042211438162CF
:10371000704739493748086039493848086039499D
:103720001E20086038490020C043086038493748E7
:103730000860394937480860704770B520212F4824
:1037400027F066EC2D212B48090127F062EC2B4A6B
:10375000284C00201821414395680919401C4D61EF
:103760001E289160F6D370BDF8B5050000200BE06F
:103770004F680E690C68280027F0A2ED002C02D0DB
:1037800039003000A04701202968002902D08A684A
:10379000002AEDD0F8BD70B5184D2869002804D076
:1037A0001E490868401C086070BD27F08EED27F0A8
:1037B00090ED040027F090EDE968A14200D9641E65
:1037C0006868210027F08CED281DFFF7CDFF6868A1
:1037D00000280AD027F07CED6A680100100027F06D
:1037E00080ED6868806827F080EDE86070BD0000BB
:1037F00000340080B8210300B43A03008824030099
:10380000A03A0300B83A0300A43A030010270000CE
:10381000A83A0300ED350000AC3A0300B03A0300CB
:103820001C480021C94341601B4841600169B02226
:1038300011430161816A0222114381621748816844
:10384000202211438160704770B5802027F0E4EB9F
:1038500011498D690F4900264A680C68954200D8C5
:1038600000E0641C27F0D8EB6D1C68423100801921
:10387000614170BD07480168491C01600021C943CE
:10388000416070470448806902494A68904200D804
:1038900048607047C0C502000034008000300080DE
:1038A0000022662110B5FF48006827F09EEB002833
:1038B00000D0012010BD10B502F044FA002805D058
:1038C00001F0A8FA002801D0012010BD002010BD91
:1038D00010B518F022FB10BD10B50C000B73D4917D
:1038E00001000000C837000000040000D5CB7D7641
:1038F0008968CA0010D5012212079143A16021787E
:1039000001224907490F10F097FD0101206E028B3B
:103910001207120F0A43028310BD10B50C001100EC
:10392000FFF7E4FF200018F0B2FB10BDE34810B52C
:103930004068FFF7E5FD10BD0100E04810B5806864
:103940000722FFF7BFFE002010BDF8B50600DB4CD4
:10395000606A401C6062FFF781FF0D0007002100D4
:103960001E221831300027F0CEEC0026002802D0AD
:10397000606B401C6063D24880692062FFF76EFF75
:10398000C71B206BA9410D00421CE06A216B00237C
:1039900048430021C019694127F0B8ECE062206B70
:1039A000401C2063A06A0021C01BA94100D3A76A64
:1039B000A762A069E169884201D9A06900E0E069D5
:1039C000E061626BA16A11201FF0DCF9F8BDF8B567
:1039D0000700BA4DFFF742FF04000E00B949380056
:1039E00027F098ECFFF73AFF041BA86BB1410B00DE
:1039F0000021001B994100D3AC6BAC63F8BDB24809
:103A00000088002804D0B14901200978042900D099
:103A10000020704720208FE7F8B5FCF774FDA74B16
:103A200000905869012700243D00002800D000259F
:103A30000020390081405A690E00164202D10C0064
:103A40000A435A61401C002C01D11F28F1DD002DD2
:103A500008D027F064EC9E48FFF777FF392000017B
:103A6000FFF7B5FF0098FCF753FD2000F8BD70B5D7
:103A70000400FCF748FD914905002268486990431D
:103A8000486100210028216007D16F20FFF79FFFC8
:103A900027F048EC0120FFF74FFF2800FCF738FD26
:103AA00070BD10B541690400487A022804D1200095
:103AB00007F074FC002802D12000FFF713FF002854
:103AC00002D1200027F0A6EA10BD38B505227B4CB4
:103AD0000021A068FFF7F6FD7E480522006800215E
:103AE000FFF7F0FD02E0009827F094EAE068042276
:103AF00000236946FFF7D7FD0F28F4D1764800254B
:103B0000057076480F2127F08EEA7548257005600C
:103B1000002038BD70B5040000890519286F002801
:103B20000DD0C079022804D1286E01881039018097
:103B300001E0032803D1200011F0CFFB70BD6669BE
:103B4000002E08D0707A022805D13100200007F03D
:103B500025FC0128F2D02A0021003000FFF7DDFE0D
:103B60000028EBD1200025F0A3FE00212000FCF767
:103B70003FFC70BD7023594A5843E03A10B5841891
:103B8000A088E288824201D1012010BD8200A218E3
:103B900092680A601821401C27F0C8EBA180A06E33
:103BA000401EA066002010BD70B50C00417A1600C2
:103BB00002290AD107F0ABFC012806D130001C38DD
:103BC00002210BF075FF01280CD07021434861439E
:103BD000E0380C18E5881821681C27F0A8EBA088AD
:103BE000884201D1012070BDA80020188660E180C4
:103BF000A06E401CA066002070BDFFB58DB0100007
:103C000001240029179D169A55D0052801D00628B1
:103C1000FBD12B0060330C9318730B90401F0606EA
:103C2000360E70202D4B7043E03B0590C018FF23EB
:103C30005B1CB3400A9021480693006917000340BB
:103C400009931023B3409E4603409C46069B1C3FAD
:103C500003430893069B984307900A986C30012908
:103C600004907ED10998154B002803964FD16046E9
:103C7000002876466DD119480599E038405C002847
:103C800037D12878002241070D98490F10F0D4FB56
:103C90006B46998800010907090F014301911879C2
:103CA0000009000118710199109817F083FD0C9814
:103CB000017B109816E057E084C50200C8C50200D9
:103CC00040A20080FFFF000044F9020085C8020006
:103CD000FF03000078C90200600000042006000411
:103CE0006CC9020027F026EBFA48016937AF4CE7B0
:103CF00001000000C43B00000004000021A408C231
:103D00000E4306612FE00898F74906430E610399B8
:103D10000D98FFF753FF002809D10A9910984870B1
:103D200052E061460029704606D0039956E03800FB
:103D30000021FCF767FB4AE00799702608431861E9
:103D40000398EA4F464308E00298A9788170B95D6C
:103D50001C38491CB955FFF7E7FE039802A9FFF785
:103D600013FF0028F0D0002C5CD003987023584338
:103D7000DE4A115C00E002E0491C115452E00229C5
:103D800050D10998D849002823D1604600287546AB
:103D900040D0D6480599405C002808D10B9910986E
:103DA00027F0D6EAD0490869A843086132E00898AC
:103DB000CD49A84308610D983100FFF7FFFE0028A8
:103DC000B5D10A98109941700498FCF7FCFB0024C7
:103DD00028E06346002B704606D131000D98FFF7AE
:103DE000EDFE0128F3D1A2E7079A702782437743BB
:103DF0000A6109E00298A9788170BC491C38CA5D43
:103E0000521CCA55FFF790FE300002A9FFF7BCFE16
:103E10000028EFD0002C05D070207043B3490A5C15
:103E2000521C0A54200011B0F0BDB048702110B5EA
:103E300027F002E9AC490020086110BDF0B500256B
:103E4000C5B02C000B950895FFF7EFFFA748E830A9
:103E500044900022D243A44F0092A549B86808229A
:103E60003CABFFF73DFC3C980028F2D0400607D55C
:103E700000200EF073FE9F484168420611434160E6
:103E80003C98C0060AD50EF089FE9B4807220068C0
:103E90001021FFF721FC28200AF00DFD3C980006B8
:103EA00001D515F0C2FC3C98C00501D515F0B3FC56
:103EB0003C98810602D5914A00211170400701D536
:103EC000FDF73CFB3C9880072FD521F09FFF012890
:103ED000BFD022E00D991C220A8108004C69B03045
:103EE0008A18C178FB231940C170417E037E090204
:103EF00019430907090F0176090A4176017E072354
:103F0000090909010176117819431170106604201E
:103F1000603210730D98FFF7CEFDF868042200237D
:103F20000DA9FFF7CAFB0F28D4D13C9809210842FC
:103F300072D010F06AF800288BD07869002888D1F8
:103F4000FFF767FD002884D121F060FF012880D0B1
:103F500038698005800F75D00026FF20624A401C1A
:103F6000B040116903000B4269D0702777435F4B63
:103F7000DB5D002B63D181431020B040084211610A
:103F80003DD05F495F480BF0E5FD584900205E4A8F
:103F90007918439114214143535C002B24D0439B57
:103FA000891889785B7899421ED114235843801868
:103FB0004290001D0FF0B7FE0300429800224178A6
:103FC000180010F043FA6B46998B00010907090F9E
:103FD00001430791187F000900011877439807995A
:103FE000407817F0F1FB02E0401C0228D2D3701D8C
:103FF00001064398090E407827F0A6E919E04349E5
:1040000040480BF0A7FD701D01063848090E38180E
:10401000407827F09EE90CE01EE33D4939480BF05B
:1040200099FD3F981C38FFF77FFD3049C85D401C63
:10403000C85530003FA9FFF7A7FD0028EDD0761C3A
:10404000022E8ADB002D4ED00020069028890F22F8
:10405000461926483100E03027F022E8707931799E
:104060000002224F08438019E03707903878002873
:104070000DD179780EF0A8FF0400007A012849D10B
:1040800007980FF050FE002844D0040042E00128B9
:1040900001D002283ED179780EF096FF04003BD083
:1040A000607A02283DD107980078C0070ED0200022
:1040B0000FF0CBF80028089033D008980921890127
:1040C0004018406900282CD1002425E007980FF003
:1040D0002AFE04000EF025FF002C1DD04030007E8B
:1040E0000328F1D11DE0B8E2C8C502004005000474
:1040F000FF01000040A50080FCCD020011263283A4
:1041000001000000C03F000000040000727EDBAE32
:1041100085C8020011111111BBBBBBBB30060004E6
:104120002222222233333333002C04D100212800F1
:10413000FCF772F99BE2FA4901206C61087004F007
:1041400030FD78887D218901884200D3FEE711A8DF
:104150007421109026F07AEF787BC0071FD000F012
:10416000B3FB08F056FE002812D0EE480078002875
:104170000ED1200010F06DFE00220121019200916D
:10418000797B02000907CB0F0121200000F091FC90
:1041900008F029FE0028C9D009F0FDFCC6E7207A06
:1041A000012802D0607A022804D10799200010F07B
:1041B0004EF902E0200025F037FA0C901098269670
:1041C00014302E9010992F910C9A34A800921790C9
:1041D000B98802008B19D449200000F0A9FBF888A7
:1041E000E62801D1002000E00C20CF4930AB4A88FE
:1041F000121A9A808A883018101830900020D871CE
:10420000087B082802D3C84800210173607A03287C
:1042100001D001280BD1200025F006FA002806D095
:10422000C14E2000317B25F0E8FA307312E0207A8D
:10423000012804D1200025F0F7F9002802D1607A86
:10424000022809D10799200010F001F9002803D0B5
:10425000B548007B30ABD87126002036307E002771
:10426000FE280AD07F2220AB1988D2004006914355
:10427000800D01430127198011E02000FF309D309F
:1042800027F074E820AB19887F224006D200800D09
:1042900091430143198017988079C0072BD01D984E
:1042A0000121090308431D9017988079C00722D087
:1042B0001D9809110843202188431D90607A022827
:1042C0000BD1089820304078002802D027F052E81F
:1042D00008E0200018F014F804E0002F0BD12000B3
:1042E00017F0FBFF400620AB1988800D7F22D2001B
:1042F00091430143198020AB18888105490E032999
:1043000008D88A49097F890604D57F21C9008843D6
:1043100028301880854901202031097EC9060AD439
:10432000617A022906D10899092292018918097F28
:10433000090700D400200990207A002813D1B07E0C
:10434000000710D420AB18888005400E27F016E82F
:104350000700122027F012E8874204D8B07E8007B9
:10436000C20F012103E0B07E09998007C20F2E9889
:1043700027F008E817996C4F6D4B387B891D0AAA06
:1043800027F004E800281BD020AB18888005400ED9
:104390001DF011FF002805D06649C8430BF0E4FB6F
:1043A000012605E063486449C0430BF0DDFB0226AB
:1043B0002F9801218068090708432F99886015E02C
:1043C0005C485E49C0430BF0CFFB0C9800260028E8
:1043D0000CD030ABD9790122200010F041F830AB7D
:1043E000998900010907090F014399811C2028813F
:1043F00028183E9010980C9A06A93D9003910296B9
:104400000492F8880B990206120E0192009129007D
:104410000FAA2FA80EAB14F01DF810AB3F904190DF
:10442000588F58810F98002800D07FE641980028C7
:10443000FBD00E98002813D00998002810D020AB8C
:1044400018888105490E03290AD97F21C9008843AC
:10445000183018801D9880218843202188431D90A2
:10446000449826F040EE420920AB188810218005C0
:10447000400E4090084352014499104326F04AEE02
:1044800001000698002800D02D9041982990002026
:1044900028AB14911874409810AB9871299830ABE0
:1044A000008B998900070909000F09010843299920
:1044B000088329988078000908280FD1449826F0AD
:1044C00012EEF9880122E62900D0002200920200B3
:1044D00030ABDB793D992E9826F05CEF607A0328AB
:1044E00001D0012809D1B97B3A7B4B003D992000CE
:1044F00025F093F9002898D029E0217A012901D0EC
:10450000022824D10C9800281DD0002E391DF8C88F
:1045100001000000BC43000000040000708703B8E5
:1045200018D03D9908AB074A187A6C3126F040EF55
:1045300017E0000060000004CBC702002006000462
:1045400000280300300600044444444455555555A2
:1045500066666666387B26F030EF26F032EF28ABD1
:1045600018740E98002809D1207A002802D0607AA9
:1045700003280DD11EF0CFFA002809D0DD4810AB7A
:10458000012E188104D014980E2126F01EEF1490ED
:104590002E993D9817F03EFD012E10D1D649D748EF
:1045A0000BF0ECFA08ABD649187A26F012EF1D98FA
:1045B000710708431D900A2010AB187609E0CE4918
:1045C000CE48C9430BF0DAFA2E9A3D99200017F035
:1045D000E0FB787B000706D500F080F91D980121EB
:1045E000C90708431D901D99139810AB08431390F9
:1045F000988C9882D88CD8822E9A3D99200017F0FA
:10460000E6FC1D9810AB000100091D9098881887E2
:104610003E983D997422279026F0D6EDB74FB949C0
:1046200038000BF0ABFA139938000BF0A7FA28AB5F
:10463000197C38000BF0A2FA3D993E9A019128AB03
:1046400000921A7C08AB1B7A31002000FFF7F3FAC6
:10465000002816D02800FFF77BFA002502F0DCFFC7
:1046600000280ED0FFF744F900280AD10420FFF7F4
:1046700081F901F08FFB002819D00120FFF77AF9AA
:1046800015E03C980821084202D014F0F5FE0BE03A
:104690009D4826F0EEED002804D19C4826F0E8ED78
:1046A000002801D004210173050000D0E0E49849FE
:1046B00000200870FFF7E1FB3EB500209449087028
:1046C000954C9448E06000F07AFB002820D1914896
:1046D0002038A06020000830FFF707F814F068FDCC
:1046E0008E4D8F48C122290026F0A2E989488D49C4
:1046F000B438606000228CA06B4607C32A0088494A
:10470000201D0B23FEF7FEFE002801D001203EBD38
:1047100000203EBD401F10B50406240E022C13D20B
:104720007020604382494018702126F09AEC7A4A42
:1047300001201169A04008431021A1400143FF203E
:10474000401CA0408143116110BDF8B5441F022CEC
:1047500024D2FBF7F6FE06006F4DFF20401C2969AE
:10476000A04008420AD003E000981C38FFF7F0F997
:1047700020006946FFF71CFA0028F5D0FF2112310E
:104780002869A14088432861702060436849401827
:10479000702126F066EC3000FBF7D8FEF8BDF8B5C6
:1047A000441F022C25D2FBF7CCFE06005A4DFF20F9
:1047B000401C2969A04008420BD004E00098002169
:1047C0001C38FBF733FE20006946FFF7F1F900289B
:1047D000F4D0FF2112312869A1408843286170205C
:1047E000604353494018702126F03AEC3000FBF743
:1047F000ADFEF8BDF8B5002425004D4EFF277F1C07
:10480000702060434449355438000969A04008428B
:1048100002D00120FFF7AEF8641C022CF0DBF8BDDB
:10482000F8B504000D000026052801D0062C34D16F
:10483000394A601F01211769814039422DD070210A
:1048400041433B4A535C002B01D05B1E5354FF2372
:104850005B1C83403B4205D0505C002802D1012004
:10486000FFF788F8002D18D02869002815D03149A5
:10487000234A002083005F18142343439B18DB78EE
:10488000A34207D12868006E008B0009401C012656
:10489000388002E0401C0228ECDB3000F8BDF8B59F
:1048A0000500FBF74EFE0600234914480BF066F99D
:1048B000FFF7D0F80090280010F018FC0024200624
:1048C000000E290016F0C8FE641C042CF7DB6846B5
:1048D000FFF7EBF83000FBF739FEF8BD174800880A
:1048E000002805D016480178032901D10421017060
:1048F00070470000FF7F000077777777BBBBBBBBBB
:1049000030060004999999995C070004480700044F
:104910006000000400F30200C8C5020038224D2BDD
:1049200001000000B847000000040000235DD0D45F
:104930006C07000088480004013D00004D41432001
:10494000547800004005000408C602001111FFFF62
:1049500044F9020085C80200FFB583B004001600C8
:104960000F00911C0C9800220291130069460CC1A3
:104970000122F979BB7909021943E92900D0002203
:10498000797BC907C90F26F032ED0500F879B979AE
:1049900000020843EA2803D1797B08221143797386
:1049A0005B21C9006218237A2100FF4F9C31012B43
:1049B00008D10B000699300026F01CED26E00120FE
:1049C000000327E0637A022B15D1069B0A000699A3
:1049D0009B1D300026F00EED012040020543B0790A
:1049E000C00718D10221200004F0A2FF012812D133
:1049F000400305430FE0E62801D10B0000E0069BD1
:104A0000300026F0F8ECFF20401C054338680079A0
:104A10000028D4D1054302980622058030001A30C0
:104A2000694626F05CEB07B0F0BDE0490020486025
:104A30007047DE49002088607047F8B50600DB4DFE
:104A4000A868002845D1FF21D94800222D3126F041
:104A50003EEB04003DD001200221A8602173666175
:104A6000617B0143D3486173A061B0202081FF20A6
:104A70008D30825BCC4800920068320003795B2065
:104A8000C00031189C32200026F0B8EC07001C2032
:104A9000251820817421280026F0ECEA30002F66CA
:104AA00017F02FFCA870C448A860C448007E800698
:104AB00004D4A878002801D0C148A860032060353C
:104AC0002873200017F028FB002804D1200026F0CE
:104AD000CAEA0020F8BD0120F8BDFFB585B0070087
:104AE0000898002803D0B148406800287DD1FF24F1
:104AF0002D3402E00120FEF731FD2100380004F0E2
:104B00003EFB0500F6D028894619380024F0A0FDA8
:104B1000002801D00C2000E0042003905B203A0024
:104B2000C0009C323918130001920091039A0221AF
:104B3000300026F068ECF07801210843EF210840AE
:104B400006992C00C907C90E0843F070FF20C01C4D
:104B50003071000A70710020307070701C20288144
:104B600002201C3428737421200026F084EA2000DF
:104B700060300F99049041732666089800280AD087
:104B80000120C0078949A06001204860697B01437A
:104B90008C486973A8610020208003980C281FD1DD
:104BA0000799380024F03DFE41072078490FC008DE
:104BB000C000084341072070490F380024F084FFEB
:104BC0000101206E028B1207120F0A430283206E2E
:104BD000017E09090901017620789F210840207093
:104BE00021003800079A002300E053E024F029FE5A
:104BF0000E98724E002806D10499042008733800DC
:104C000017F07FFB1FE0002138001DF0F3FA0328A6
:104C1000A0701ED9307EC00604D568486030807A06
:104C200040060CD5787A022813D10B208001381861
:104C3000806A092189014018007F000709D50321F6
:104C4000380017F019FBA070A06801210903084380
:104C5000A060307E800607D4A078002804D0A06829
:104C6000012189070843A060380021F0ABF8002833
:104C700005D038000EF0FBFA069920304173280069
:104C800017F04AFA002805D1280024F039FE280040
:104C900026F0E8E909B0F0BDFFB585B0FF240500B6
:104CA0002D3402E00120FEF759FC2100280004F019
:104CB00066FA0600F6D02800FF30297A87300129ED
:104CC000049002D0687A022804D1049928000FF0D9
:104CD000D2FB02E0280024F0BBFC6B46197EF322D5
:104CE000114008310028197603D00807000FC030A2
:104CF00002E00807000F40306B46187630892A0022
:104D000084195B20C0009C322918019200911F7EFB
:104D1000049B3809390702000390890F200026F010
:104D200072EBFF20C01C2071204A000A1D172F01C2
:104D300001000000B44B000000040000D732A56061
:104D4000607150886B460101401C5080607E227E5D
:104D5000000210430007000F08432076000A607627
:104D6000A770587EE070687A02280DD102212800D1
:104D700004F0E8FDE1788A06D20F1043C007DF2275
:104D8000800E11400143E1701C2030813718300043
:104D9000F46708997C3041730E99017303980C28CD
:104DA00002D16B46988B3880002128001DF02CFA28
:104DB000B870300017F0BAF901280FE094A000C0D5
:104DC0008CA100C0A0000004BB4800000214000039
:104DD0002028030002140040B348000002D0300035
:104DE00026F04AE960E708B50C22009291480422B7
:104DF00006238CA1FEF772FC002800D0012008BD1C
:104E000002008C4810B5006804210023FEF779FCED
:104E1000002804D10220FEF7C1FD002010BD0120B2
:104E200010BD854909680871844948617047824806
:104E300000680079704710B509F099FC002801D18D
:104E4000012010BD002010BD7D4870B50124006B0D
:104E5000400713D517F016FD7A4D00212E1F0AE0EA
:104E6000CA0053191B6892191268934200D000249B
:104E7000491C012C08D18142F2D905E07248816AAF
:104E8000C06A814200D00024200070BD10B5FFF739
:104E9000DBFF002808D06C482030018A808A8142DC
:104EA00002D126F0BEEA10BD002010BD674870B5E3
:104EB000007800284BD1664800220068082126F0BF
:104EC000D0E8002843D1FFF7E1FF00283FD0614838
:104ED00026F0AAEA04005F48082126F0AAEA0500A5
:104EE0005C48102126F0A4EA281884422FD15A48A1
:104EF00026F09AEA04005848082126F09AEA0500AC
:104F00005548102126F094EA281884421FD15348AE
:104F100026F08AEA04005148082126F08AEA0500B2
:104F20004E48102126F084EA281884420FD14C48BC
:104F300026F07AEA04004A48082126F07AEA0500B9
:104F40004748102126F074EA2818844201D0002036
:104F500070BD012070BD70B501200FF057F800281A
:104F60005ED1404C394D3A4E08E02078401C20700C
:104F70000120FEF713FD0120FEF7FAFA2878002839
:104F8000F3D130680022082126F06AE80028ECD12D
:104F900002E00120FEF7ECFAFFF778FF0028F8D0D6
:104FA0002C4826F042EA04002A48082126F040EA6C
:104FB00005002848102126F03CEA28188442E8D150
:104FC000254826F032EA04002348082126F030EA7A
:104FD00005002148102126F02CEA28188442D8D157
:104FE0001E4826F022EA04001C48082126F020EA88
:104FF00005001A48102126F01CEA28188442C8D15E
:10500000174826F012EA04001548082126F010EA95
:1050100005001348102126F00CEA28188442B8D164
:1050200070BD000054784D676D7438303231314DA9
:1050300073675100D4C5020094A000C040A6008050
:1050400040A3008034A9008000A00080600000041C
:1050500084C5020064000004A00000048001000474
:10506000300100048CA100C0FF309D300E2210B52D
:1050700026F0E2E910BDF84902200860F7490A204D
:105080000860F849F6480860F849F7480860F949A7
:10509000F7480860F949F8480860704710B50400FF
:1050A0000C235843F649401800210A000B000EC09B
:1050B000200026F0C6E9200026F0C6E9200026F0F0
:1050C000C8E910BDF7B584B015000400ED4A002012
:1050D000009203900598290003AA02AB26F0BCE9D0
:1050E0006B46187B052801D006284BD12D062D0EC6
:1050F000280026F076E926F078E90600607A032891
:1051000006D16B461B7A3200290020000FF0CEFE3C
:10511000FBF72BFA0700FEF7B1FCD9496B4601906B
:10512000D94A187B383926F09CE96B46197B187AE6
:1051300026F09AE96B46187BFFF71BFB60DF06CD74
:1051400001000000B04F00000004000084E8760C6D
:105150006B46187B2A003100230010F0C9F86B461B
:10516000197A300026F08EE96B46187B310016F074
:10517000CDFA01A8FEF7B7FC3800FBF705FA6B463D
:10518000197A059A200018F012FB6B46187AFFF77F
:105190008FFF012007B0F0BD0020FBE7F0B585B020
:1051A00014000600BC4A0F0000200092039021006A
:1051B000380003AA02AB26F05AE9BA4DB8492800D4
:1051C0000AF0FAFC6B46187B052801D006283AD174
:1051D000B54928000AF0F0FC2006000E26F00AE986
:1051E00026F00CE9FBF7CBF90400FEF751FCA949C6
:1051F0006B460190A94A187B383926F03CE96B468A
:10520000197B187A26F03AE96B46187BFFF7E5FA26
:1052100030000FF089FF6B46187A26F038E96B46AC
:10522000187B002116F036FA01A8FEF75CFC20007E
:10523000FBF7AAF96B46197A3A00300018F0B7FA72
:10524000012005B0F0BD0020FBE7F8B50D00060019
:105250000024FBF794F9904A07002906090E28322A
:10526000300025F06CEF0A280DD28B4A0021000196
:10527000283211548018C1602900300013F028F83A
:105280000EF03AFE01243800FBF77EF92000F8BD4D
:10529000F0B506000C00087885B00007400F16D165
:1052A00026F0F8E80700022811D07C4826F0F6E83E
:1052B0000500401C0BD03806000E2906090E02001E
:1052C00003902000029126F0EEE8002801D1002092
:1052D000B7E75B20C0003900301816F083FA2200CF
:1052E00003991432300018F04DFA707A032809D16E
:1052F000201D25F020EF0106039B029A090E3000C5
:105300000FF0DEFD029826F0D2E8280026F0D2E861
:10531000604A0120A900383A5050C83A0092029BD6
:10532000039A2100300026F0CAE85B4A00211420CD
:105330004843135C002B0DD08018C078A84209D1D7
:10534000880056490022091D43189A700122120351
:105350000A5202E0491C0229E9D30298FFF7F8F942
:10536000201D25F0E8EE0006000E26F044E826F0A9
:1053700046E80500FBF703F90700FEF789FB0190FB
:10538000201D25F0D8EE02060299120E33002800E7
:105390000FF0AEFF201D25F0CEEE02063300FF33E6
:1053A0000298120E8733290016F0DFF901A8FEF7E4
:1053B0009AFB3800FBF7E8F8012042E7F8B5002433
:1053C000354F14206043395C002929D0C519281DA8
:1053D0000EF0DBFC060023D06978002230000FF0CD
:1053E00067F86B46198800010907090F014300910E
:1053F0001878000900011870A878009916F016FABC
:105400002648A100001D0A186B461988901C09093E
:1054100011800021030091706978300015F00CF9BB
:10542000641C2406240E022CCBD3F8BD70B50500F5
:105430000C0026F014E80C226A43164B99584118C8
:10544000995020682160081A70BD70B505000C00E5
:1054500026F000E80C226A430E4952189168411860
:10546000916020682160081A70BD0000F03A0300C6
:10547000F43A0300593D0100F83A0300E79A0100AD
:10548000FC3A0300DD4E0000003B03003B460000F9
:10549000043B0300300700043006000404C6020089
:1054A0006666FFFFBBBBBBBB7777FFFF70B5050030
:1054B0000C0025F0D8EF0C226A43044952185168B9
:1054C0004118516020682160081ACDE730070004B8
:1054D00010B50A68FE4B002A03D11868401C1860FA
:1054E00010BD8A6A824203D05868401C586010BDC3
:1054F000F8480024026A002A0FD08A4210D09A6825
:10550000521C9A6003220A71C26A002A01D05163B8
:1055100000E08162C1624C6310BD012201620A7128
:10552000006A07228462EC4840210068FEF706F911
:1055300010BD10B50A68002A10D0E64A536B8342AA
:105540000CD1106A002809D0884207D19276B7E6BC
:1055500001000000AC530000000400003B2D53BFCD
:1055600000205063E148072200688021FEF7F0F830
:1055700010BDF0B5050085B000F0ECFB002000F098
:1055800019FC04007ED0286B2063D7480490416A40
:10559000491C4162216000F0E5FB25F09EEF03917C
:1055A0000290206800272E0039002036002803D101
:1055B000049A01205062206000232371307A6071C8
:1055C000A079717A800889078000890F0843F32148
:1055D000A0710840B17A8907090F0843CF21A07153
:1055E0000840F17A8907890E0843A0716969286922
:1055F000594008430DD02A6902986B690399121A21
:105600008B410AD3029A2869039B6969801A9941E0
:1056100002E0A869002800D00700029A039B00213D
:10562000B8185941E160A060E8692061286A6061AA
:10563000686AA0612868E06168682062A8686062A2
:1056400020002030417B327B490892074900D20F6D
:105650001143FD2241731140327B5207D20F520099
:105660001143417302218173317B090701D5062162
:105670008173327B0121D20700D102210173827B29
:10568000230000E00AE00092994828333A00210004
:1056900025F026EF002806D1206001E000F062FB33
:1056A000002005B0F0BD2068FBE7F8B505250E0029
:1056B00000F080FB04008C48016AA14216D1A06A68
:1056C000002803D025F0F0ED0020A062002E6661D6
:1056D0000CD000222300009285482833320021009C
:1056E00025F0FEEE0325002800D104252800F8BD92
:1056F000F8B50F00052600F05DFB7B4C0500216A24
:10570000814215D1606B002803D025F0CEED00203A
:105710006063002F0CD0744B002200927548343324
:105720003A00290025F0DCEE0326002800D10426EB
:105730003000F8BD70B5052500F03CFB6A4C216ACD
:10574000814207D1606B002803D025F0AEED002028
:1057500060630325280070BD38B50120FEF732F9DB
:10576000614C2C20236AC15C5A6A1868DB6998472F
:105770000AF053FA00F0EEFAFAF70BFF216A05007F
:105780000020086000F0EEFA00F0F2FA2062280033
:10579000FAF704FF17F0F3FE216A002908D02E2043
:1057A000425C0B000092544A5148283325F098EE91
:1057B000032038BDF8B505250F0000F0FBFA040002
:1057C0003CD0A06A0026002802D025F06EEDA6622B
:1057D000454D286AA0422FD100F0BCFA207901285B
:1057E00001D0022825D1267100F0BCFA286A2030A9
:1057F000072F07730BD0286A082F006B0FD11A22CE
:10580000002103F0DEFD262009F091F815E0286A5A
:105810001922006B002103F0D4FD2520F4E725F0C8
:1058200064EE286A1822006B002103F0CAFD2420D0
:10583000EAE700F097FA00E0266003252800F8BDAB
:1058400070B504000425FAF7A4FE06002648006A95
:10585000A04219D0217920680325032906D104210B
:105860002171E369626A0B2198470DE0A06A25F077
:105870001CED012808D1E369626A20680B21984772
:105880000021A162216021713000FAF787FE280013
:1058900070BD70B50500042400F05CFA280000F02B
:1058A00089FA002802D0FFF7CBFF040000F05AFA73
:1058B000200070BDF8B505000E0000F04BFA094F4E
:1058C000002438206043C019816900291BD0002DB5
:1058D00003D04521095C890712D4002E13D045213D
:1058E000095C0BE058F3020098F60200FCCD0200C0
:1058F0003153000093530000A0860100C90702D075
:105900001830FFF79DFF641C0F2CDAD300F02AFA41
:10591000F8BD01210020CDE710B525F0EAED002803
:1059200001D1012010BD002010BD38B525F0E4EDF7
:10593000FD4C1622206A0021006B03F042FD206A14
:105940001522006B002103F03CFD206A41790029FB
:1059500006D08179009141790098002258F8F760CB
:1059600001000000A85700000004000068F780D381
:10597000FFF7DCFF216A02200871206A8069002895
:1059800008D025F0B4ED256AAA68EB68801A994121
:10599000A9690860216ACB694A6A086803219847A7
:1059A000216A4869002809D08A6A002A06D1009233
:1059B0000B000200E248283325F09CED032038BD9F
:1059C00070B5060025F0A6EDDC4D2C202B6AC15CDD
:1059D0005A6A1868DB6998470400032811D1286ABD
:1059E000002E006B05D01622002103F0F4FC2220CB
:1059F00004E01722002103F0EEFC232008F0A1FFB1
:105A000000E00224200070BDF8B5040000200D0065
:105A100016001F002060FAF7C6FDC8490A6A002A6E
:105A20000FD01379022B0CD1126A002A09D0226000
:105A30000A6A12682A600A6A526A3260096A096B45
:105A40003960FAF7B5FDF8BDF7B586B00400160069
:105A5000002513002F0003AA04A905A8FFF7D4FF0F
:105A6000059B002B14D06069002802D13068012505
:105A70006061039A079901920091220000211E00A3
:105A800004980B00B0470700002D01D00020606192
:105A9000380009B0F0BDF0B587B006000F00002552
:105AA00004AA05A906A803ABFFF7AEFF069C002CCD
:105AB0000AD0049A01923300002200970598110041
:105AC000A047002800D00125280007B0F0BD70B520
:105AD00086B00600002503AA04A905A802ABFFF7BB
