:100000000100000000000000000200000447BA08E0
:100010001CF09FE51CF09FE51CF09FE51CF09FE5A0
:100020001CF09FE51CF09FE51CF09FE51CF09FE590
:100030000C450E2128AB020000AB020004AB02000D
:1000400008AB02000CAB020010AB020014AB0200C4
:1000500021AB0200000000EAB2A900EA28008FE20A
:10006000000C90E800A08AE000B08BE001704AE24A
:100070000B005AE1ABA9000A0F00BAE814E04FE206
:10008000010013E303F0471013FF2FE100C3020048
:10009000B0C3020001C08FE21CFF2FE18A18037871
:1000A00001309C07A40F01D1047801301D1101D14A
:1000B00005780130013C05D0067801300E70013121
:1000C000013CF9D1002D11D004781B0701309B0FA2
:1000D0000C1B032B01D1037801301B02E41A6B1CAB
:1000E000267801340E700131013BF9D59142D6D307
:1000F00070470000102052E27800B0287800A12854
:10010000FBFFFF8A822EB0E13000B0283000A1282A
:1001100000409045004081451EFF2FE10030A0E3E4
:100120000040A0E30050A0E30060A0E3102052E2F2
:100130007800A128FCFFFF8A822EB0E13000A128C0
:10014000003081451EFF2FE104309FE503308FE032
:1001500013FF2FE195A80200F8B5050001F0CBFAD6
:100160000027FF43002804D1686901F067FD0028DB
:100170002DD02A89501941790379090609141943A8
:100180000C180E3288180606360E280001F0A6FA62
:10019000002807D1617D227D08020836104336060B
:1001A000360E03E0607B217B0002084301F072FA07
:1001B00000280CD02200A11D28002E8101F0E2FEB3
:1001C000002804D0280000F0E6FA0020F8BD38002E
:1001D000F8BD0020704700003C4810B50468406836
:1001E000042B01D14C6102E0012B02D14C612AF0B9
:1001F00066ED002010BD70B50C00344D1600052BC7
:1002000016D120890019C17882780802DF1453E2E0
:1002100001000000FC01000000020000C092652304
:10022000104303D1200000F0C0FA04E02000FFF7E3
:100230009DFF002801D1012070BD320021002868F7
:1002400005230DE0032B06D1200001F04EFA320009
:100250002100032304E0022B04D1A868320021000E
:100260002AF036ED002070BD70B500F0B6F81C4CD9
:100270000500206800280CD101F041FA2060194ADD
:100280002021A0602AF028ED174A606820212AF07A
:1002900024ED280000F0A6F870BD002113A010B5D1
:1002A0002AF01EED0E4C6060FFF7DEFFFFF79BFFAC
:1002B0002068002803D000220D212AF00EED002036
:1002C00010BD70B5040000F088F80500012020730F
:1002D00020002AF00AED280000F084F870BD00002C
:1002E00034C40200C9010000E7010000776C616EB0
:1002F0000000000010B52AF07CEC2AF0FAEC002097
:1003000010BDF348012149034161F2490161F249FD
:100310004161052101617047F04810B50068000295
:100320002BD5EB4AEE4B0020C11C09015161146929
:1003300081005C50041D240154611469C918801C9B
:100340000C284C60F0DBFF21E64B2D3102E0401C15
:100350008842FCDB18780028F9D0DF48E030506193
:10036000E1481061012040035061E0481061DA4823
:10037000506105201061012010BDFEE7D94910B57C
:10038000486002F00FFF10BD10B502F0A9FFD84879
:1003900080212AF0B2ECD748DC212AF0AEECD54817
:1003A0001421DC302AF0A8ECD2485021F0302AF099
:1003B000A4EC002010BD202800D3FEE7CC4A80002A
:1003C0001358002B00D0FEE7115000207047C84A98
:1003D00000218000115008007047802010B52AF0DD
:1003E00090EC10BD10B52AF08CEC10BD026883684B
:1003F000C1681000184770B5052805D2BD4D8400AE
:10040000DC352B59002B01D0012070BD2C23434338
:10041000B84E9B192B5135000401F0355562CACBFB
:1004200001000000F803000000020000347ADB9EA7
:1004300028516019C260816000214160B34919618F
:100440005861002070BDFEB50E001700052816D2B9
:10045000AD490201F031AC4B55186968DC338400BA
:1004600000290DD101220197009602921859436983
:1004700002692AF054EC002801D101206860FEBD19
:1004800018591D002AF04EEC28593A0031002AF084
:100490004EEC28592AF04EECFEBD10B504002AF0AF
:1004A0004EEC206010BD70B5994D6C6AE00705D028
:1004B0002AF048EC03F0ACF8A8176862954EA00744
:1004C0000CD5A86A02218843A8622020F060491F49
:1004D0006962B1680143B16003F092F8600705D525
:1004E000A86A04218843A86203F01BF820070AD5F4
:1004F000A86A08218843A8628020F060C943696225
:10050000B1680143B160012070BD824870B50468D4
:100510007C4EA10706D500210161B26D01209047F4
:10052000022084432006000F03D0E02084431020E3
:10053000044300250AE0E00706D0A8003258002A4C
:1005400002D021002800904764086D1C002CF2D1D5
:10055000002070BD704810B50068002802D000214E
:100560002AF0F4EB012010BD70B50124694D8440E0
:10057000EC6014F095FFA8682043A860012070BDCE
:1005800064480121C90310B5C160644A136A634C11
:100590000023403C2360136282680A43826001208A
:1005A00010BD5C480121090410B5C1605B4A536A63
:1005B0005A4C0023403C6360536282680A43826065
:1005C000012010BDF0B500244B4F524E083708E013
:1005D000C5196868FFF7F9FE696801208840B060B6
:1005E000641CE00039580029F2D14D491720FFF76B
:1005F000ECFEFFF790FE0120C005B0600020F0BDCA
:10060000F8B5484DEC68E00702D0A817E860044050
:10061000200606D58020C043E860802084432AF06D
:100620009AEB200407D50126F603300086DBEAE6C4
:1006300001000000F4050000000200002D8205EE1C
:100640002AF092EBF043E860B4436003400F06D019
:100650000720000421000140C943E96084432003CE
:1006600007D50126F604300001F0D6FDF043E8601E
:10067000B443E000400F09D00727BF0626003E40E4
:10068000300001F067FDF043E860BC43E0060FD5A1
:100690001020C043E8601020844301F0F5FE0028DC
:1006A00006D006F088FD002802D0102001F0B1FC31
:1006B000600003D52148E860C0438443A00003D50F
:1006C0001F48E860C0438443002C05DA0120C007BE
:1006D00001F06AFD1B48E860134881680122920519
:1006E00011438160F8BD104B0122920510B5DA600C
:1006F000FFF790FF012010BD80290080070000FF58
:100700001020000000310080F8DC00C00000000470
:10071000FF0C0000070080FFB80E0004C0050004B5
:10072000C9030000003400800030008034C402009F
:1007300080E80080F502000080220080FFFFFFBFFC
:10074000FFFFFFDFFFFFFF7F10B50400002A03D08B
:1007500020002AF00EEB00E00024200010BD7CB544
:100760000C001500497923790906091419430B195E
:10077000818842692433602914D96039203281800C
:10078000517EC906CA0F00922A0001A92AF0F4EA94
:10079000A071000AE0710198001B2071000A6071CD
:1007A00001207CBD00207CBD30B5040020202081CC
:1007B00065692018AD7A05706469E47A4470017146
:1007C000090A4171110A8271C171190A8370C170DD
:1007D00030BD002810B507D00169002905D1418935
:1007E000C088032206F0ACFD10BD2AF092EA10BDCD
:1007F000FEB5040000200290019020890125071910
:10080000B8782E000007800F022800D00026A088AC
:10081000002867D007F0EBFA002864D038002AF0EF
:10082000B0EA002857D1002E12D0012220006946DC
:1008300007F0F5FC00280BD0009800280E20888CCB
:1008400001000000F007000000020000D96ABB535D
:1008500000D00120002848D000214F2007F039F9AE
:10086000029008E0200001A907F0D5FB002800D085
:100870000120002839D007F0A4FA002845D0FF4F06
:100880003D610EF080F80DF04EFF00280BD10EF008
:1008900042FA002807D1FA490860FA490880032083
:1008A000BD700EF021F80299FF2007F0B6FAF64D60
:1008B0002888002804D0F54904200856401C09D097
:1008C0000225012002F074FD6D1E08D0387A002840
:1008D000F7D104E007F039FA0020288038721C2094
:1008E0000EF002F80020F8600FE06B46187900283F
:1008F0000BD1A08020202073FEBD002EFCD0022250
:100900002000694607F095FC01E0002EF4D00DF0C0
:100910001EFF0028F0D0A0880028EDD00CF087FA48
:100920000028E9D10CF06DFA0028E5D120890019E2
:10093000C178CA0701D1801D00E01230D44A137D6E
:10094000002B0ED0128A092A0BD10078C00708D0DC
:10095000880602D50EF05CF8FEBD1A200DF0C4FF2B
:10096000FEBD0EF03EF8FEBDF7B500220700487848
:100970000E00097805020D432035280032300104AD
:10098000C448090C2AF00AEA040020D028001230DA
:10099000A08067612027E019122127812AF002EA4E
:1009A0002B04029A1B0C12212000FFF707FF3220B4
:1009B000208120182A0031002AF0F8E92000FFF7F2
:1009C00021FFA088002804D12000FFF70CFF0020A1
:1009D000FEBD27810DF0D0FE002802D005200DF0CD
:1009E00083FFFFF718FDAD4B0500AB4821001C68E5
:1009F000002200680523A0472800FFF711FD012011
:100A0000FEBDFFB50120904083B0039F0406240E75
:100A1000FF37813738790E00150020422FD1FF2291
:100A20009132462301A902A807F031F8002826D008
:100A30003879172120433871019C103420002AF0A6
:100A4000B2E90698002801D1052000E0969FF45AEB
:100A500001000000EC090000000200001E73B90E46
:100A60000D20607225722000627A0C990A302AF0FB
:100A7000A8E9310006220C31A01C2AF0A2E9607A14
:100A800001990A308872000AC8720299039806F028
:100A9000CFFF07B0F0BD1A0075E68288602A10D932
:100AA000603A828048790A790006001410432430A5
:100AB0000871000A4871E62088710020C871012081
:100AC0007047002070471FB501AA0400009202AAD7
:100AD00003AB0EF078FC0198020402981214010492
:100AE000091420000EF00CFE20000399C030418252
:100AF000019981820299C182200007F0FAFE1FBD90
:100B0000F1B500242600250086B005F0B3F90700F2
:100B100005A82AF05AE90028BBD06B46587DC106CB
:100B200001D48006B5D56B46187D0007000F01285B
:100B3000AFD10190380002A92AF04AE9012FA8D0CC
:100B400006990B200856002F03D16B46997D0D079F
:100B50002D0F584F3968884206DA7968884208DDD7
:100B6000B8680126002894D001242AF036E9F860FC
:100B70000BE02AF032E9F9682AF032E94E4988425E
:100B800003D8B868002884D00124B868A04221D0D6
:100B9000002E1FD1BC602AF028E900280FD0474959
:100BA000C9696031C97B002909D06B46D97A4140B7
:100BB000D972597A41405972197C414019746B4677
:100BC000187D01990207120F00922B00220002A843
:100BD00001F0ADFD5DE7F3B591B005000A20069088
:100BE0000020049002900190129800286AD0288971
:100BF0006E694119202208A82AF0E2E808A80790A7
:100C0000129818302AF0F4E808AB99780007C40F5E
:100C10000A070020920F022A03D10909090700D50B
:100C20000120129F20432037002819D0FFF7FDFB39
:100C30000090387E224A41070798490F0C302AF06D
:100C4000DCE80A28069008D2002C06D006981C4939
:100C500000014018C168491CC1600098D9151C6C7E
:100C600001000000E80B000000020000EA9B07B34F
:100C7000FFF7EAFB1298FFF74DFF288920216C1837
:100C8000203829812071000A6B466071188F000995
:100C90002072000A6072B07A2070F07A6070A888C2
:100CA00000281AE044E70200BCC6020068C6020041
:100CB00058C6020004C60200F0E602006004000408
:100CC00038C40200A8C4020038040004404B4C00A1
:100CD000380F000424110004BDE002D1287B202835
:100CE0003DD108ABD878800601D50120019008AB32
:100CF00098780107890F022931D10009000720D512
:100D0000FE48007800281CD00CF03CFE002818D0CB
:100D1000387EC00615D5FA480068002811D0F94879
:100D2000006800280DD00CF0C1FE002809D006F0A4
:100D3000DCFC012805D0F4480068002801D101201E
:100D400002900DF02DFD002809D007982AF036E812
:100D5000002804D1022013F0F4FB0AF0C0FE12991F
:100D60003000FFF7BAFE3100C03116201091085E46
:100D700005F020FB207310991220085E05F00DFB92
:100D800008AB607398780009000703D5387E4007E8
:100D9000400F00E0FF20A072A888002804D0079828
:100DA0002AF00CE8002838D00027A770E770A88840
:100DB000002802D1287B20282BD1A07A0CF01DFE20
:100DC000002809D00198002804D00021300003F049
:100DD00040FD01E0CD48077008AB98780199020901
:100DE00030000CF011FF0298012812D1C848008889
:100DF00000280BD0C74800220068462129F09EEF4A
:100E0000002803D0C4490120087002E015200DF02D
:100E10007FFD2800FFF7FBFC1DE0387EC00907D0EE
:100E2000129A21002800FFF742FE00287ED015E02C
:100E3000079B129A21002800FFF737FE00280DD1EA
:100E4000A070E070FFF7FBFA04002800FFF7DFFC5A
:100E50002000FFF7F9FA002013B0F0BDA888A070B9
:100E6000000A22000B32E0701298D11C4AFD402586
:100E700001000000E40D000000020000F363D9C38C
:100E800029F0D2EF707A02287ED1300012F033FAC6
:100E90001121490103904018077B002008AB059001
:100EA000987CC00706D001200590F80775D0B807D8
:100EB00073D41EE00CA8801C12F0D4FF002804900C
:100EC0006BD0707A022868D10498407BC00664D544
:100ED0000498F17AC07A81427ED106980A285CD3C0
:100EE000780702D4F80758D003E0F8077ED07807D7
:100EF0007CD48F48002201888E4803230EF08FFD9A
:100F00000028009046D00098A988818000F031FC2C
:100F100000990004000C0881009908220A730099C6
:100F200047180F21380029F05CEF1020387100209D
:100F30007871E079A17900020843B871000A00E0F5
:100F400054E0F8710398806A012807D104980028BA
:100F500004D0707B000701D5A07A387360792179BD
:100F600000060014084301193800AA88103029F03F
:100F70003CEF009831694161F07A7870B07A38704E
:100F8000A888B870000A00E007E0F8700098042113
:100F900000F0DCFB0598002828D00DF00BFC0028A1
:100FA00002D005200DF0BEFCFFF753FA634B07009B
:100FB000614829001D68002200680523A847380001
:100FC000FFF74CFAA07A0CF022FD002817D0019808
:100FD00001280FD1002100E003E0300003F043FCC2
:100FE0000DE03807D9D506980A28D6D30020A0707E
:100FF000E07018E70198002801D14949087008AB52
:1010000098780199020930000CF008FE0298012836
:1010100012D14448008800280BD0434800220068C1
:10102000462129F096EE002803D0404801210170A6
:1010300002E015200DF076FC012017E7FFB59DB00A
:10104000060008003768002115911F997C69002966
:1010500010D040301C9029F0E0EE20990500411896
:10106000C0782031400602D4B88821B0F0BD28886D
:10107000682801D80020F8E717AA169144B57ED851
:1010800001000000E00F000000020000078B677EF7
:1010900000921F99169818AA15AB29F0D4EE2800D3
:1010A00029F0D4EE00286DD02A48002104AA01AB13
:1010B00007C310AB284A00921D7F1A7D38002B0011
:1010C00018A929F0C8EE050048D12000FF30813072
:1010D0000179090623D5002C0CD00521C90161181E
:1010E000496A002906D010AB1A7F920060328B58F3
:1010F0005B1C8B5001794906490E01711C9829F03F
:1011000096EE10AB1D7F1F992A01521B52180E320A
:10111000009201001B7D2A002000FFF79AFC0020AE
:101120003060B1E79D000004AC000004A80000049A
:10113000F00000049C000004ECE8020034C402004B
:101140009800000472C602004C04000438C4020077
:10115000A8C40200101E0300E4C900C0356028893D
:101160001C99401929F07AEE0088A8802000FF30F1
:10117000813010AB1B7F0126320001799A409143E8
:1011800001711DE010AB197D009101952A88169917
:101190001698643A091D18AB29F064EE06001CD0BD
:1011A000200010AB1A7FFF3081300123017993407A
:1011B00099430171288808382880B8880838B88091
:1011C000002C08D00520C0012018406A002802D059
:1011D000C16D491CC165300051E7002C14D00520B9
:1011E000C0012018416A00290ED010AB1A7F92006E
:1011F00060328B585B1C8B50416A0A69521C0A6131
:10120000406AC168491CC1601C9829F010EE0100B9
:1012100010AB187F1F9A03011B1A9A180E32009206
:10122000020010AB1B7D2000FFF713FCD3E7002862
:101230000CD00521C9014118486A002806D002696E
:10124000521C0261486AC16C491CC1647047F7B501
:1012500090B015000E001098076800200B90080051
:101260007C6940300F9029F0E2ED0E9024300A9016
:10127000200013F080FA002813D00A98290009AA48
:1012800008AB29F0F4ED00280BD0002CEC0BEEDCC1
:1012900001000000DC110000000200007990C0CEC7
:1012A00008D00520C0012018406A0028F8D0016D40
:1012B000491C016582E00E98008868287ED92A00C2
:1012C0004C3268380304111F081F0692021F059153
:1012D00003921C3A04900C3938380092203602915F
:1012E0000190307E1B0C4607760F1A000A990E9863
:1012F000330029F0CAED06000E9829F0B2ED00285F
:1013000039D00CAA0BA90192002000910B900A9AE7
:101310000E993B00300029F0BCED00284ED0FB4A6E
:101320000092FB4AFB4B0E99380029F0B6ED0028DD
:1013300002D11099086041E0109907000860018906
:1013400008180F9929F094ED0E900B9800283FD0C3
:101350000CAA00920A990E982B003A0029F0A0EDF1
:10136000060035D11EE00E988079C107C90F200014
:1013700010F0C7FE22E0002E22D03007800F0FD0E1
:10138000002C1BD00520C0012118486A002815D068
:10139000C26C521CC264486A0169491C01610DE0BB
:1013A000B0070BD5002CDED00520C0012018406A04
:1013B0000028D8D00168491C0160D4E7002069E505
:1013C0000E980E99008814380880B8881438B880B0
:1013D0006B46998C089A280029F066ED002E0AD1F8
:1013E000002C08D00520C0012018406A002802D037
:1013F000C16D491CC16501204CE5F7B582B01400F0
:10140000070000680090019003980025403029F003
:1014100018ED06000198F1784069490605D420309E
:10142000807E40072ED401252CE0002C02D1002024
:1014300005B0F0BDA17AC9071DD0E079012805D11A
:10144000039922006846FFF70CFF05E0039922008C
:1014500004236846FFF706FE050000983860B0795F
:10146000C0070FD1002D0DD0A07980070AD520002C
:1014700000F0FBFC06E00521C9014018406A8168C4
:10148000491C81602800D3E7F0B5002697B002968A
:1014900032E1002104910C990907C90F6C91CCD558
:1014A00001000000D8130000000200008D787E7358
:1014B000C90003910189081806A904F0F8F91698E3
:1014C000002805D1059800218180FFF7C8F91DE1AA
:1014D00016980C3012F0E4FC040005D11699012096
:1014E000123112F0FBFC04001699200007F0C9FF2E
:1014F0000028E7D1002CE5D005994C61607A0228DC
:101500000CD1200011F081FD0C300290607B169A06
:10151000C0060599C00F29F0D6EC10E0207A169A83
:10152000012807D123009C3329F0D0EC200013F0D0
:10153000DDF804E023009C33012029F0CCEC059871
:1015400001890918CA78D20701D18F1D01E00F0067
:1015500012370522D201A5186A6A002A02D0136B3D
:101560005B1C13633A78D20705D06A6A002A02D05E
:10157000536B5B1C53638288002A4FD0039A002A66
:1015800026D13A78D2071AD123000A22FF338333B7
:10159000009216999A1E29F0A2EC059880880028DE
:1015A00016D1200006A9FFF7C0FA0598FFF757F9F2
:1015B000686A00288BD0016A491C0162A6E05B22A0
:1015C000D200A21829F08EEC059880880028D4D08B
:1015D000607A022827D1200006A90AF09CF8169903
:1015E0000298C978007DC906C90F884202D0200040
:1015F00009F060FD200008F062F8200008F09AF978
:10160000012803D11699200009F0D2F90298403040
:10161000007B032803D00599002088805BE00598B3
:101620008088002857D0169829F060EC002812D046
:1016300005983B4A81883C4B403981800092018962
:10164000384A091829F032EC00285FD0059001894A
:10165000081816903FE016988079C00701D0E86915
:1016600000E0286A002801D006000836002E42D08B
:10167000F079022801D0032810D1FF348134628828
:1016800016990120002A00D0002029F034EC05989A
:101690003B00320006A913F011FF17E0012801D02A
:1016A000002827D1002013F04BFD0028EE6C3DBF31
:1016B00001000000D4150000000200009480A00387
:1016C000FAD1320006A905A8FFF7ABFE002804D125
:1016D0000598002824D0002181800498002804D097
:1016E000F079022808D0032806D00598FFF7D0F833
:1016F000059806A9FFF7ABFA01F0FDFF00280FD00F
:10170000012002F02FF81BE0FEE7686A8168491C9F
:1017100081601698BF21C07808401699C87084E788
:101720000121002006AA04F08BFA0028059007D0BA
:10173000C3E60000D8C900C0E0C900C0101E030005
:101740000F498020C043086105F0DEFE002802D06A
:10175000042002F007F80B490020C860086117B0A8
:10176000F0BD0A49084808600A49094808607047FE
:10177000094A01000120914200D00020704700007A
:1017800000A5008044E702007F110000083B030031
:10179000600400040C3B0300888E0000022110B599
:1017A000017301000D481C220068042329F0F4EAAB
:1017B00010BD40690069704710B5406912F0E3FC44
:1017C00010BDB0207047010005A010B529F0ECEA6B
:1017D00010BD10B5406914F02CFF10BD38C40200D4
:1017E00075736200F3B5002406002500002881B05F
:1017F00014D0707A022811D002E0012001F01EFE00
:1018000028006D1C022807D200221100FF4829F091
:101810000CEB0400F1D00AE0002C08D10022FC48B7
:10182000110003230EF023F9040000D1FEBD666110
:10183000FFF7C7FF0004000C2081082705190F21BE
:101840002800277329F0F4EA300013F0B6FB287360
:101850000F20287100206871380AAF71E871B07AE2
:101860002870F07A687002980F3505602000FEBD80
:1018700010B50289123112189170090AD1700F2126
:10188000FFF78CFF10BD0A00E24910B529F040EBCC
:1018900010BD012070477CB51400069A01920A0021
:1018A00001000093DC48230029F036EB7CBDFFB536
:1018B00083B01C000E00018942690F1881F69DF06B
:1018C00001000000D01700000002000060681EBE8A
:1018D000100002A9FFF790FF050002D1012007B018
:1018E000F0BDD14A02983900931D009629F022EBF1
:1018F0000298817C01290DD000220092CA4A7130E1
:10190000921D911F0023FFF7D0FF02996031C87329
:10191000000A0874059902982300012229F00EEBB1
:1019200001002800FFF7AEFF0020D8E70100BF4804
:1019300010B529F008EB10BD10B504008EB0684654
:1019400029F004EB2000694614F06DF90EB010BDCB
:10195000B64970B50400F23108005038282205005D
:1019600029F0F8EA0120FFF7E1FF01002B00012236
:101970002000FFF7E1FF70BD10B54069FFF7E8FFF9
:10198000AA4901201E31C86708008030006800287D
:1019900003D0817AFD2211408172002010BD10B564
:1019A00044690020FFF7C2FFA04B0100CA330022A8
:1019B0002000FFF7C1FF9D4801211E304167826F63
:1019C000002A02D1816729F0CAEA002010BDF0B5D3
:1019D00005000E0029894069491985B00191170059
:1019E00003A9FFF709FF040002D1012005B0F0BDF3
:1019F000002200928C4A01990398931D29F09AEADB
:101A00003100039801224031002329F098EA029026
:101A1000706F00280AD0607B01210843002F60739B
:101A200001D0834800E08348A06108E0002F03D084
:101A3000280000F0AAFA02E02800FFF79DFF0299B3
:101A40002000FFF71FFF0020D0E77CB50D000189C3
:101A500042690E18100001A9FFF7CEFE040001D163
:101A600001207CBD002200926F4A01983100931D35
:101A700029F060EA2900019801224031002329F071
:101A80005EEA617B0122114361736B49A161010030
:101A90002000FFF7F7FE00207CBDF7B588B00025D9
:101AA000624C08981E34210029F05CEA06001CD024
:101AB0005E4F781D29F05AEA220011004031203291
:101AC00000280692079128D0781D29F09234C7B1DA
:101AD00001000000CC19000000020000A7711CE307
:101AE00054EA002806D0200040384178801C0DF0D0
:101AF00025FF02E0514829F04CEA050002D1002000
:101B00000BB0F0BD781D29F048EA0200210020004A
:101B1000D431503002AB07C323000699079A0192D3
:101B20000091099A0A99280029F03AEA0125079AB2
:101B3000069908980023FFF7CEFE002801D0002563
:101B400008E0012D06D131000931200029F02CEAEE
:101B50000020A0672800D3E770B50600384D1E3579
:101B6000290029F026EA040001D1002070BD207967
:101B70000122022800D0002229003000FFF731FFA7
:101B8000002801D0200070BD21000931280029F073
:101B90000CEAEAE770B50600294D1E35290029F048
:101BA0000CEA04000AD029003000FFF758FF002893
:101BB00004D121000931280029F0F6E9002070BD88
:101BC000F8B505000E00008917004019817900243E
:101BD000090716D54079C00709D02800FFF7BCFFD8
:101BE000F8BD012001F03EFC641C2406240E3A00DE
:101BF00031002800FFF75BFF0028F1D1072CF0D35C
:101C0000F8BD2800FFF7C6FFF8BDF3B581B00E00A0
:101C10000B4C1E34E01DF9300500006800282DD063
:101C2000FC20075D11F01FF801983200210000F040
:101C3000BFF90DE0180500044C04000454C4020070
:101C400092E102008B1E0000791800009F1800002E
:101C5000FE4E002F13D0012F10D1B078FC4A401C4B
:101C6000B07021003800082329F0AAE901986861C2
:101C7000F84AF9492000082329F0A6E9FEBDF44AF4
:101C800021003800082329F09CE97078401C70700E
:101C9000FEBD70B50D001100F04CFF221532105141
:101CA000EA480622123029F0DCE8E848062229003A
:101CB0000C3029F0D6E8EA4AEA492000082329F046
:101CC00088E970BDF8B504000F00E44815001E381F
:101CD00000781E00C0070FD0E04829F018475E9238
:101CE00001000000C81B0000000200005399A25E22
:101CF0007EE93900DE4F2A00403FB81C29F0BAE8DF
:101D00007D70069A31002000FFF7CDFFF8BDDB485B
:101D100040680006000E7047D148032110B529F035
:101D20006EE8D3481C211E3829F0A0E8D0480122D3
:101D30001E3841781143417010BDCD4808B5203898
:101D4000C1786B46197000795870009808BDC44876
:101D500080687047002809D0C1498968884205D148
:101D6000C3481E380078C007C00F70470020704776
:101D7000BF491E390978CA07B94900D100208860D7
:101D80007047B74900208860B9481E380178490873
:101D900049000170C0E7B64801221E38017811439E
:101DA0000170704770B50C0086B00A9916000B9A46
:101DB0000500002902D1002005A905900291A8493B
:101DC000AB480193039223002A00C91C1E380096D9
:101DD00029F010E906B070BD70B50500A4480E00EA
:101DE000403841781400801C8EB00DF0B1FD002801
:101DF0000FD0010023003200684629F000E92800D6
:101E0000694613F024FF9A4829F0F0E89849012028
:101E100088670EB070BD70B50500954C1E3C2078EB
:101E2000C00710D06078C0060DD5E078002200070A
:101E3000C10F2800FFF7D0FFE07801220007C10F93
:101E40002800FFF7C9FF70BD07B56B4684481978B5
:101E5000C1705978017119794171197A81710EBD7A
:101E60007F4B10B5DC7804701C7944705879087089
:101E70009879107010BD7E4B10B5203BDC78047053
:101E80001C794470587908709879107010BD10B59D
:101E9000FFF742FF7248FF220421C01C28F09AEC91
:101EA00076480024012112C028380477E03829F050
:101EB000AAE86B48846010BD10B5704CA06800287B
:101EC00003D029F0A4E80020A06010BDF4E7684921
:101ED0008031002808600BD09E390978C90703D0EB
:101EE0006349C96F002903D0817AFD225C011BC8B8
:101EF00001000000C41D0000000200004A617C2EA9
:101F0000114081727047FFB583B0050010000E9F2D
:101F10000D9E00224A7020220A706A78A91C54186B
:101F2000291D083529F080E828786B4618726878F2
:101F300058721889AA1C81008D1801060698090E8E
:101F400029F076E828786B4618716878AD1C5871CE
:101F500000959888B100800045190C9828F090EF02
:101F60006B469888B04200D33000820000990C98EC
:101F700028F08AEFA54207D22800AD1C002F03D01D
:101F80000178397040787870A54206D22800AD1CDF
:101F9000A54202D2008800014519A54207D20F9838
:101FA0002900002803D00F98042228F06EEF0120AA
:101FB000B3E43949374808603949384808603A4934
:101FC00038480860704710B50400FFF7F3FC2000A4
:101FD000FFF703FD002010BDFEB50C000600086FE2
:101FE0001700401C06D1E06E401C03D1200029F0F0
:101FF00014E8FEBDFEF77DFA050002E00021FEF7C1
:10200000ECF92A4829F018E80028F7D12800FEF753
:1020100075FA300001A9FFF70DFC0500E9D0154A5B
:1020200001980C323900931D009429F00AE8154EEE
:102030001E3E701D28F0C4EF020030790007C30F68
:1020400070788006C10F019828F0FEEFE16E491C00
:102050000129E16602D1206F401C20672100019810
:1020600001224031002328F088EF01002800FFF70B
:1020700027FCFEBD48C40200D9E2F003409C0000EA
:1020800005E3F003B0E10200809698002DE3F00331
:10209000B0E20200A71700003C3E03009B170000BF
:1020A000403E0300CB1D0000143E03001412000448
:1020B00070B50025038944691B185E78002E0BD08B
:1020C000032E14D1637A022B02D114F07CFB01E0C1
:1020D000FFF78AFD01250AE0607A032801D0012874
:1020E00005D11879012802D1080028F0B2EF2800A4
:1020F00070BD10B50DF058FCFFF7D3FE7B9CE61BBE
:1021000001000000C01F000000020000BE89C29351
:10211000002010BDF7E710B50400302014F060FD7A
:1021200000F03BFAE00602D510F06AFE10BD10F098
:10213000D0FD10BD0020EEE77047022010B500F082
:102140000BF80400022000F04AF8020021000220EF
:1021500000F01EF810BD0000042803D25B49800087
:10216000085C7047FF2070470A00022010B5FFF797
:10217000F3FF904201D1FFF7DDFF10BD0A000220FE
:1021800010B5FFF7E9FF904201D1FFF7D5FF10BD71
:10219000012910B501D100F0F1F810BDFF280BD0D6
:1021A0004A4A00218B00D35C834202D10806000E0C
:1021B0007047491C0429F5D3FF207047FF280CD035
:1021C000424A00218B009B185B78834202D1880031
:1021D000105C7047491C0429F4D3FF207047042881
:1021E00004D23A498000401840787047FF20704779
:1021F000FF280CD0354A00218B00D35C834203D1E9
:102200008800801840787047491C0429F4D3FF20C7
:102210007047FF280CD02D4A00218B00D35C8342ED
:1022200003D18800801880787047491C0429F4D3B2
:10223000FF20704770B505000C00100000F060F939
:10224000200028F014EE2800FFF7B8FF012802D183
:10225000200000F063F870BD10B50400C00005D583
:102260000122120311040C20FFF7E4FF200105D521
:102270000122D20211040B20FFF7DCFF600105D51B
:102280000122920211040A20FFF7D4FF10BD0120A1
:10229000C00310B500F02EF90120C00728F0E6EECB
:1022A0000B48C16880221143C16010BD0120C003EA
:1022B00010B500F025F90120C00728F0D8ED044939
:1022C000C86880229043C86010BD00001CC702008F
:1022D0000028008070B50500FFF760FF06002800A9
:1022E000FFF786FF2800FFF794FF0400022E05D1B8
:1022F000082000F005F9B00428F0B8ED032C07D051
:10230000082C05D0092C03D100211020626AAD2AC7
:1023100001000000BC21000000020000B656334E50
:1023200028F0B2EEFF2229001000FFF727FF70BD52
:1023300010B50400000302D50120FFF7D5FF0122EC
:10234000100011078C4200D0002001231100DB0691
:102350009C4200D000210843012189068C4200D014
:102360000022104313D0FF208206A11808D089183C
:1023700004D0C206891804D10C2002E00B2000E032
:102380000A20FFF725FF012801D1FFF7ADFF10BD9F
:10239000F8B505000E0017000800FFF744FF040021
:1023A000022D0AD1032F08D1082000F0ADF8082033
:1023B00000F0B6F8A80428F064EE032C07D0082C2F
:1023C00005D0092C03D10121102028F05EEEFF2258
:1023D00031001000FFF7DCFEF8BD0000BB480068CC
:1023E000816801221204114381608168FF2220323A
:1023F000114301225203914381604168121111433C
:1024000041604168D200114341607047AF480068A5
:10241000416801225204914341607047AB48006813
:10242000416801225204114341607047A748006887
:10243000816B002904DA816B0906090FFBD1704713
:10244000806B704709040143A048006881617047B0
:102450009E4909688A69120C120402438A61704716
:102460009A490968CA68120C12040243CA6070478C
:10247000964909684A69120C120402434A6170477E
:102480000904014391480068C16370478F49096896
:102490004A68120A120202434A6070478B48006879
:1024A000806BC007C00F70478848006841680122F0
:1024B000D20391434160704784480068816BC9072B
:1024C000FCD041680122D2039143416070477F49AB
:1024D00009680A6B086348680122D2031043486008
:1024E00070477A480068406A7047784909688031C7
:1024F0004A6A0001120F1207000902434A6270473C
:1025000072480068C06A704770490968CA698243A6
:10251000CA6170476D490968CA6902430D14B50163
:1025200001000000B82300000002000042BE8DF34D
:10253000CA6170476A4909680A6A02430A627047B9
:10254000674909680A6A82430A62704764480068FA
:102550008030416849084900416070476048006820
:1025600080304168012211434160704770B55C4D75
:102570002868803001680122114301600168594CCC
:10258000490205D50168A14301600A2028F0D4EB77
:102590002868803001682143016070BD50480068A0
:1025A000010080310A68520852000A60816BC9003C
:1025B000FCD470474A48006880300068C007C00FEC
:1025C00070474748006880300168464A914301607F
:1025D000704743480068803041680622914341605B
:1025E00070473F4A12688032536A09011B0F1B076C
:1025F00009090B435362116A4003C90CC904400B1B
:102600000143116210681F21090488430121090553
:102610004018106010684900084310607047304847
:1026200000688030C068704770B52D4D29680E690C
:102630000C00012109040E432661210080310E693E
:10264000086148694B618869F0208861C869CA617E
:10265000A06810210843A060A06820229043A060D9
:102660002868416B436B8B42FCD0FFF7D8FF0028F2
:10267000F6D12868816811438160416801225203C4
:102680001143416070BD1648006880300069704792
:102690001348006881682022114381607047104808
:1026A0000068816820229143816070470C49096865
:1026B00080310A681F23DB05C0069A4300090243E4
:1026C0000A60086801221207104308607047044836
:1026D000006880300168FF22521C1143016070477E
:1026E00060C4020000004000B44908220028C86805
:1026F00001D0104300E09043C8607047B04900200B
:1027000010B5086004F0B5F810BDF0B503252D0331
:10271000AA48AC4CC030C20D9302870C0029A74ECA
:10272000016A0AD011430162016A9943B45F7227BA
:1027300001000000B4250000000200005B46538346
:102740000162A0682843A0603068384309E09143E3
:102750000162016A19430162A068A843A060306861
:10276000B8433060F0BD38B505000024684628F055
:10277000B8EB002819D0002D0BD16B465878C10753
:1027800013D0400611D598780007000F0BE0012404
:102790000BE0012D09D16B465878810705D5C0099A
:1027A00003D0987800090128F1D0200038BD73B516
:1027B0006B4605005C79600705D5864801680029ED
:1027C00001D1012101602800FFF7CDFF0106090EAC
:1027D0002800FFF7A4FF600703D46B4618790009AF
:1027E00000D00120FFF78AFF7CBD33B56B4600287F
:1027F000197902D10807000F02E0012813D1080956
:10280000764A7349D443803100280DD0744B754DFE
:1028100001280DD0092810D00F2804D1C817C8608E
:102820000861C86108623CBDCA600A61CC6102E00F
:10283000CB600A61CD610C623CBDCB606A48086127
:10284000CD616A48EEE7F0B50028047A457806794C
:10285000477926D001290CD10599012909D1012AEE
:1028600006D16540D90700D06640990700D567407A
:102870002C0001782A0609040A4321020A4354491C
:102880002243C0314A628279C37812041B021A4380
:1028900032438A62C279807812043B021A430243AF
:1028A000CA62F0BD38B505000024684628F004EC83
:1028B000002803D1280000F00FF838BD6B461878C7
:1028C0000007000F01D0012804D10099280000F072
:1028D00041F80400200038BDF0B5002687B005009F
:1028E0006B46187D3700340030001E75002D0696AB
:1028F0000AD101215975997D002199751921187204
:102900005972992298720AE003216B465975997D94
:10291000002199751A2118725972162298726B4605
:10292000DA720390197405992800FFF740FF6B468F
:10293000997D28000191FFF758FF0698A1945B77D5
:1029400001000000B027000000020000AFAEED3E25
:1029500023000207120F00923A00310002A8FFF78D
:102960007CFF012007B0F0BDF3B585B0002507005E
:102970002E002C0002A928F0C2EA0028F2D0069905
:102980003800FFF71EFF6B46997E38000191FFF774
:1029900036FF6B46587EC10601D4800600D501255E
:1029A00028F0B8EA00280FD01649C9696031C97B00
:1029B000002909D06B46D97A4140D972597A4140F1
:1029C0005972197C414019746B46187E2300020726
:1029D000120F00923200290002A8FFF73EFF0120EB
:1029E000C0E7000000A7008064C402000028008047
:1029F00011DD55DD1FDF5FDFEF2FAF2FF1FDF5FD9F
:102A0000FEF2FAF2380F00040121092000070160EC
:102A1000002141607047FF48016B80221143016330
:102A20007047FD4910B5C96827F040EF8905800A55
:102A3000084301D028F094E910BDF848016A0F223C
:102A4000114301620220ECE7F448016A0909090117
:102A500001620120E5E7F24970B508680822904359
:102A60000860F04A506840084000506010690B212F
:102A700008431061EC4908009369DB0601D4401E4D
:102A8000FAD29069800601D4491EFAD2FDF763FD9F
:102A9000E6490A6801246406A2430A60E34A8032D8
:102AA0001368E34D2B4013601368ED432B43136011
:102AB0000A6822430A60FDF753FD0120FFF7B1FFCA
:102AC000FFF7BBFFFFF72EFE70BD70B5802028F02A
:102AD000D6E9D1490A78022A08D18A69521C8A614A
:102AE000010600D4FEE728F0CAE970BD4A69002A51
:102AF00000D0FEE7486102200870CE4D01208861B9
:102B0000AC8880020440A8886B26A043F600B0423F
:102B1000EBD0022000F0F3FB0028E6D03443AC8079
:102B200070BDBD4910B58869401E886107D14869EC
:102B300000224A61FF220A7028F0A0E910BD002897
:102B4000FCDA802028F09AE9FEE770B51336E6CE6D
:102B500001000000AC2900000002000068B7EF632C
:102B6000B24E7069002802D0FDF7FFFCFEE7FDF7CA
:102B7000FCFCB54D7061AC88012080020440A8883F
:102B8000A04382280BD02888F080002000F0C1FBF1
:102B9000002804D0A888308182200443AC8070BD16
:102BA000A24910B5A84A0B8948699380CB88138045
:102BB00000224A61FF220A70FDF7DCFC10BD10B54F
:102BC0009A4C6069002802D0FDF7CFFCFEE7FDF7C4
:102BD000CCFC9D49606188880122920210408A885D
:102BE0008243022A08D00A88E2801A220A808A8850
:102BF000228102221043888010BD8C4910B5924A70
:102C00000B8948699380CB88138000224A61FF2298
:102C10000A70FDF7AFFC10BD70B505000E0028F07E
:102C200064EA894C2034258128F05EEAA68028F0E9
:102C30005CEA70BD70B505000E0028F056EA824CC3
:102C40002034258128F050EAA68028F04EEA70BD95
:102C500070B5050028F048EA7B4C2034258128F027
:102C600044EA207970BD70B504000D00FFF7F0FF55
:102C7000284301002000FFF7DDFF70BD70B50400A0
:102C80000D00FFF7E5FFA84301002000FFF7D2FF8A
:102C900070BD704710B5FFF7C1FEFFF7C6FEFFF726
:102CA000E4FE10BD61484178002909D167490968EF
:102CB0000122C9034270090F02001C32515C81706D
:102CC00080787047624B596838229143104008431E
:102CD000586070475E4B59680F2292019143104033
:102CE00008435860704710B50C00FFF7F3FF200051
:102CF000FFF7E8FF10BDFF2370B5C1332025FFF7B4
:102D0000D1FF2C01052803D0FFF7CCFF012800D10B
:102D1000230029001800FFF7E6FF4D4881684F2285
:102D2000D2059143816081680F22520291430522AE
:102D300092021143816042680721C9058A434260BB
:102D4000C2684323DB039A43C26042688A434260FD
:102D500040490A6840231A430A600A6872D9E11D93
:102D600001000000A82B0000000200009C5F51DE63
:102D700022430A600A6805231A430A600168202278
:102D80001143016039490020086035480068400758
:102D9000400F07280ED12F4880380068C00309D59E
:102DA000334C0320C00660600120FFF74EFE032075
:102DB0004004606070BD2248C178002901D1012122
:102DC000C170007970471E4910B5486900224A61F8
:102DD000FF220A70FDF7D8FB10BD70B5184C606972
:102DE000002802D0FDF7CBFBFEE7FDF7C8FB1B4D2B
:102DF0006061AC88012080020440A888B526A04309
:102E00003601B04206D0022000F08DFA002801D031
:102E10003443AC8070BD10B50400FFF7DEFF262000
:102E2000FFF720FFC0096106C001490E01432620BB
:102E3000FFF70AFFFFF7C7FF10BD0000400C00902E
:102E40001CA900C080A1008000A3008040A60080D3
:102E50008813000000210080FFEFFFEF00080090C2
:102E600000200080002900800023008000240080D2
:102E700000280080020010B5FFF79DFFFB490B0DF5
:102E80000028886803D018438860002002E0984337
:102E900088601000FFF7BFFFCEE710B5040004F014
:102EA0004AFA0028C8D1F248C1680909090121433A
:102EB000C160816809090901214381608268010CB0
:102EC0000A43826002691209120122430261026907
:102ED0000A43026182690A438261E649A0000858F8
:102EE000E549C860A8E710B5E14CA068E3490009CE
:102EF00000010843A060E0680722000900011043B8
:102F0000E06020690009000108432061A069C91F31
:102F10000843A0610920FFF7C0FF2068D849084096
:102F2000206020680321490608432060D5480068D6
:102F30004007400F072810D1CD4880380168C903E9
:102F400002D5206861050DE00068C0030CD46068FC
:102F5000012149040843606006E0032804D1206889
:102F600001210907084320602068C749695CF0E730
:102F700001000000A42D00000002000085A78FAE14
:102F80000840206060688009800160605020FFF781
:102F90007BFF5BE7BB48803800880006000E704767
:102FA000B84880380068BE498872010CBC48203897
:102FB0000185BC49496901637047B94820384169B6
:102FC0000C2903D00C214161080070E77047B44917
:102FD00020394A698869904201D0486167E77047A3
:102FE000AF492039486888614A69824201D0486106
:102FF0005DE77047AA492039886888614A6982423A
:1030000001D0486153E77047A5492039C8688861F5
:103010004A69824201D0486149E77047A049203996
:10302000086988614A69824201D048613FE7704778
:1030300094489D4A016811430160704791499A4A3A
:1030400008689043086070477047704700207047D9
:1030500010B58E4C607940280CD10020607128F0AA
:103060005CE8010606D58106890E4006617101D52E
:103070004842607105202056E8E6F8B50024250096
:103080007F4EB06840218843B060B068802108431B
:10309000B0607E4F0621F86827F026EC8905800A8B
:1030A000084301D027F07AEEB068FF21491C08439D
:1030B000B060F868062127F018EC8905800A0843FB
:1030C00001D027F06CEE7D21C900B068641C0202BB
:1030D00002D48C42F9D300E0050EB068FF21491CF0
:1030E0008843B060B06840210843B060B068802178
:1030F0008843B060FFF7ACFF281A0006000EF8BD49
:1031000010B5FFF7BAFF0620FFF7A9FCFFF7B5FFE0
:103110009CE67047704770B5644CA06A0C218843E8
:1031200008210843A062206A4D04A8432062206A57
:103130002843206255480021C0680018494189058C
:10314000800A084301D027F02AEE206AA8432062B3
:1031500070BD10B5FFF74BFE03215320FFF797FD1D
:1031600000212F20FFF77AFD20213020FFF776FD88
:10317000FFF733FE6AE610B5FFF739FE455AD67BF6
:1031800001000000A02F000000020000714F311369
:1031900003215320FFF790FD40212F20FFF768FD0A
:1031A00028213020FFF764FDFFF721FE58E610B517
:1031B000FFF727FE80213920FFF77EFD02213C200A
:1031C000FFF756FD80213920FFF76BFD1420FFF734
:1031D0005DFDC006FAD553213A20FFF749FDFFF700
:1031E00006FE3DE610B5FFF70CFEFA212020FFF7A2
:1031F0003FFD10213D20FFF73BFDFFF771FD052846
:1032000003D0FFF76DFD012807D103215220FFF7FE
:103210002FFDAC213120FFF72BFDF5213320FFF7E7
:1032200027FDFFF7E4FDFFF7C2FF19F097F817E657
:1032300010B50400FFF7E5FD5420FFF727FD012C32
:1032400002D11021084301E0EF2108400100542081
:10325000FFF70EFDFFF7CBFD02E67047104800694F
:1032600070471949174808607047F8B505001820DD
:103270000090687829780A4F000208432C3701280B
:103280004CD1687929790002084318281ED0002003
:10329000F8BD0000802800800021008048C10200A5
:1032A0001CA900C007800000FFF7DF470020008056
:1032B000FFDFBFFF580F000400A80080000820882F
:1032C0000023008083280000683A0300AC1D002022
:1032D000E178227809060A43A178637809041B0281
:1032E00019430A43C1007B581E68C91949688E43B7
:1032F000114031431960401C241D0628E8DB194C9D
:10330000206A01263605B0432062206A30432062DD
:103310000120FFF7AEFB206AB0432062A81D002207
:10332000D300F9580968DB195B68521C19400B0A75
:10333000017043700B0C090E8370C170001D062ACA
:10334000EEDB00982871000A68710098A0E7102150
:103350000A2802D204494000095A04480180012089
:10336000704700000023008078A900C0000800908A
:1033700070B500243F4D01E08047641CA000285830
:103380000028F9D170BD10B527F0D4EE3538FC5BBC
:10339000010000009C310000000200000F5496A3C1
:1033A0000020FFF74FFFFFF7BCFD0020FFF799FC5F
:1033B000FFF798FCFFF7C7FCFFF7BFFEFFF71CFF06
:1033C000FFF755FFFFF7BAFEFFF7B9FE002010BD6B
:1033D00010B514F04BFA00F05CF900F0CDF914F0E0
:1033E00005FA002801D0012010BD14F01BFA0020BE
:1033F00010BD10B513F0C4FB24480121490501603C
:1034000023494160234981602348416B082291434D
:10341000416322480168224A11400160002010BD2A
:10342000204A2148002110B500F024F81F4810223E
:10343000002100F01FF861221D491E48D20000F053
:103440000EF857221C491D48D20000F008F800F081
:103450000CF927F07EEEFFF70EFF002010BD30B50F
:103460009408002203E09300CD58521CC550A2429C
:10347000F9D330BD9308002210B502E09400521C2D
:1034800001519A42FAD310BDA4A900C0802900803E
:1034900080808080800A808040A800800028008092
:1034A000FFCFFFCF84080000BC310300145C000490
:1034B0000078F203403A0300087BF203483D030022
:1034C0003EB5002001220290342102A814F052F8E7
:1034D00000281BD15E4901200870029814F054F8AE
:1034E0005C4CFF252D35A5222900200027F0E0E9BE
:1034F0000C22042101920091029822000A212B0043
:1035000014F031F9002801D001203EBD00203EBD5D
:10351000FEB50D001600089F0A9A0999002800D1EF
:10352000FEE70468002C00D1FEE702920191320010
:1035300029002000009714F038F8FEBD10B527F0E0
:103540000CEE0006000E10BD10B527F00AEE0006C6
:10355000000E10BD002810B501D027F006EE10BDFA
:1035600038B514006A4627F004EE00982070002059
:1035700038BD10B5040027F000EE2060002010BD1B
:1035800010B527F0FEED10BD7CB50D001600079AB2
:103590000699002800D1FEE70468002C6278426298
:1035A000010000009833000000020000FBBC281E50
:1035B00000D1FEE70192009132002900200014F0B2
:1035C000DCF8002800D165637CBD10B5416B14F0B8
:1035D000EBF810BD7CB50C001500069A002800D150
:1035E000FEE70068002800D1FEE70021019200916B
:1035F0002A00210014F011F87CBD10B514F02CF84D
:1036000010BD10B514F033F810BD002810B500D16E
:10361000FEE70068002800D1FEE714F031F810BD85
:1036200010B514F037F810BD38B51400049A0092A4
:10363000220014F054F838BD002810B500D1FEE780
:103640000068002800D1FEE714F07DF810BD10B529
:1036500014F083F8112800D1122010BD10B514F019
:1036600084F810BD50000004000700043B48C16905
:103670000029FCD0816A04221143816270473949D4
:103680003748086039493848086039491E200860C1
:1036900038490020C0430860384937480860394934
:1036A00037480860704770B520212F4827F01EEC7E
:1036B0002D212B48090127F01AEC2B4A284C002019
:1036C0001821414395680919401C4D611E289160DD
:1036D000F6D370BDF8B5050000200BE04F680E6909
:1036E0000C68280027F05AED002C02D03900300079
:1036F000A04701202968002902D08A68002AEDD05D
:10370000F8BD70B5184D2869002804D01E49086816
:10371000401C086070BD27F046ED27F048ED04001E
:1037200027F048EDE968A14200D9641E68682100CD
:1037300027F044ED281DFFF7CDFF686800280AD068
:1037400027F034ED6A680100100027F038ED686852
:10375000806827F038EDE86070BD0000003400801C
:1037600000170300B43A0300D0190300A03A030085
:10377000B83A0300A43A030010270000A83A030057
:1037800055340000AC3A0300B03A03001C48002155
:10379000C94341601B4841600169B0221143016186
:1037A000816A022211438162174881682DC3127D0C
:1037B000010000009435000000020000E244F66EB3
:1037C000202211438160704770B5802027F09CEB68
:1037D00011498D690F4900264A680C68954200D846
:1037E00000E0641C27F090EB6D1C684231008019EA
:1037F000614170BD07480168491C01600021C9434F
:10380000416070470448806902494A68904200D884
:103810004860704768C402000034008000300080B7
:103820000022662110B5FF48006827F05AEB0028F7
:1038300000D0012010BD10B502F094FA002805D088
:1038400001F0F8FA002801D0012010BD002010BDC1
:1038500010B517F0A6FE10BD10B50C008968CA009F
:1038600010D5012212079143A16021780122490756
:10387000490F10F062FF0101206E028B1207120F38
:103880000A43028310BD10B50C001100FFF7E4FFDE
:10389000200017F039FF10BDE34810B54068FFF76E
:1038A00067FE10BD0100E04810B580680722FFF7F1
:1038B000C1FE002010BDF8B50600DB4C606A401C5C
:1038C0006062FFF781FF0D00070021001E22183102
:1038D000300027F086EC0026002802D0606B401CE8
:1038E0006063D24880692062FFF76EFFC71B206BC0
:1038F000A9410D00421CE06A216B002348430021CE
:10390000C019694127F070ECE062206B401C206315
:10391000A06A0021C01BA94100D3A76AA762A069C1
:10392000E169884201D9A06900E0E069E061626B69
:10393000A16A11201EF0ECFBF8BDF8B50700BA4DE6
:10394000FFF742FF04000E00B949380027F050ECA1
:10395000FFF73AFF041BA86BB1410B000021001BCD
:10396000994100D3AC6BAC63F8BDB2480088002825
:1039700004D0B14901200978042900D00020704703
:1039800020208FE7F8B5FCF72CFEA74B0090586974
:10399000012700243D00002800D000250020390028
:1039A00081405A690E00164202D10C000A435A6146
:1039B000401C002C01D11F28F1DD002D3E2A36EFDE
:1039C00001000000903700000002000016AC48D350
:1039D00008D027F01CEC9E48FFF777FF3920000144
:1039E000FFF7B5FF0098FCF70BFE2000F8BD70B59F
:1039F0000400FCF700FE91490500226848699043E5
:103A0000486100210028216007D16F20FFF79FFF48
:103A100027F000EC0120FFF74FFF2800FCF7F0FD36
:103A200070BD10B541690400487A022804D1200015
:103A300007F0AEFD002802D12000FFF713FF002899
:103A400002D1200027F05EEA10BD38B505227B4C7C
:103A50000021A068FFF7F8FD7E48052200680021DC
:103A6000FFF7F2FD02E0009827F04CEAE06804223C
:103A700000236946FFF7D9FD0F28F4D176480025C9
:103A8000057076480F2127F046EA754825700560D5
:103A9000002038BD70B5040000890519286F002882
:103AA0000DD0C079022804D1286E01881039018018
:103AB00001E0032803D1200011F081FD70BD66698B
:103AC000002E08D0707A022805D13100200007F0BE
:103AD0005FFD0128F2D02A0021003000FFF7DDFE53
:103AE0000028EBD1200025F0EFFA00212000FCF7A0
:103AF000F6FC70BD7023594A5843E03A10B584185B
:103B0000A088E288824201D1012010BD8200A21863
:103B100092680A601821401C27F080EBA180A06EFB
:103B2000401EA066002010BD70B50C00417A160042
:103B300002290AD107F0E5FD012806D130001C3822
:103B400002210CF077F801280CD070214348614322
:103B5000E0380C18E5881821681C27F060EBA08875
:103B6000884201D1012070BDA80020188660E18044
:103B7000A06E401CA066002070BDFFB58DB0100087
:103B800001240029179D169A55D0052801D0062832
:103B9000FBD12B0060330C9318730B90401F06066B
:103BA000360E70202D4B7043E03B0590C018FF236C
:103BB0005B1CB3400A90214806930069170003403C
:103BC00009931023B3409E4603409C469323A63C92
:103BD000010000008C39000000020000D1B54A8EBF
:103BE000069B1C3F03430893069B984307900A9843
:103BF0006C30012904907ED10998154B002803965A
:103C00004FD16046002876466DD119480599E038B5
:103C1000405C002837D12878002241070D98490FD1
:103C200010F09FFD6B46998800010907090F0143B9
:103C3000019118790009000118710199109817F085
:103C400049F90C98017B109816E057E034C4020043
:103C50005800000440A20080FFFF0000ECE80200D2
:103C600055C60200FF0300004CC7020048040004D0
:103C7000EC10000440C7020027F0DEEAFF480169AB
:103C80000E4306612FE00898FC4906430E61039934
:103C90000D98FFF753FF002809D10A991098487032
:103CA00052E061460029704606D0039956E038007C
:103CB0000021FCF71EFC4AE00799702608431861B2
:103CC0000398EF4F464308E00298A9788170B95DE8
:103CD0001C38491CB955FFF7E7FE039802A9FFF706
:103CE00013FF0028F0D0002C5CD0039870235843B9
:103CF000E34A115C00E002E0491C115452E0022941
:103D000050D10998DD49002823D160460028754626
:103D100040D0DB480599405C002808D10B991098E9
:103D200027F08EEAD5490869A843086132E008986F
:103D3000D249A84308610D983100FFF7FFFE002823
:103D4000B5D10A98109941700498FCF7B4FC00248E
:103D500028E06346002B704606D131000D98FFF72E
:103D6000EDFE0128F3D1A2E7079A7027824377433B
:103D70000A6109E00298A9788170C1491C38CA5DBE
:103D8000521CCA55FFF790FE300002A9FFF7BCFE97
:103D90000028EFD0002C05D070207043B8490A5C91
:103DA000521C0A54200011B0F0BDF8B514180600DA
:103DB0001C203518002930811DD060782178000240
:103DC000084300271E2803D91E382070000A01E08E
:103DD000380A277060707421280027F06470AA04E4
:103DE00001000000883B000000020000255DF43364
:103DF000A6E87069007A032803D005F062F901286B
:103E000002D10520A87000E0AF70E078FB210840E7
:103E1000E070607E217E000208430007000F2076DC
:103E2000000A6076207E07210009000120762878AC
:103E3000084328702C660420603528733000FFF793
:103E400004FEF8BD70B5944827F08CE9040017D043
:103E500020890519697828780FF0F2F9002810D028
:103E6000606168792A7921890002104308180204E8
:103E7000120C01212000FFF7A2FF0120FFF730FD07
:103E800070BD200027F052E870BD8248702110B547
:103E900027F054E87E490020086110BDF0B50025E8
:103EA000C3B02C000A950795FFF7EFFF7948E8307B
:103EB00042900022D243764F00927849B868082297
:103EC0003BABFFF7D9FB3B980028F2D0400607D563
:103ED00000200EF052FF724948684A0610434860BD
:103EE0003B98C0060AD50EF068FF6E4807220068AE
:103EF0001021FFF7BDFB28200AF0FAFD3B980006D1
:103F000001D515F022F83B98C00501D515F013F83E
:103F10003B98810602D5644A00211170400701D503
:103F2000FDF784FB3B98800711D521F0CDF90128DE
:103F3000BFD004E00C98B0220021FFF740FFF868E2
:103F4000042200230CA9FFF784FB0F28F2D13B9831
:103F50000921084278D0FFF775FF10F0D7F9002843
:103F6000A7D078690028A4D1FFF71DFD0028A0D1B3
:103F70000AF0E4FD00289CD021F0A6F9012898D091
:103F800038698005800F75D00026FF20404A401C0C
:103F9000B040116903000B4269D0702777433D4B55
:103FA000DB5D002B63D181431020B04008421161DA
:103FB0003DD03E493E480BF099FE364900203D4A2F
:103FC0007918419114214143535C002B24D0419B2B
:103FD000891889785B7899421ED114235843801838
:103FE0004090001D10F024F803004098A0EAD8ABE0
:103FF00001000000843D0000000200003CA52A43AF
:1040000000224178180010F0C0FB6B46198B0001AC
:104010000907090F01430691187E0009000118766F
:1040200041980699407816F069FF02E0401C02288A
:10403000D2D3701D01064198090E407827F010E98F
:1040400019E022491F480BF05BFE701D010616485F
:10405000090E3818407827F008E90CE020E31C49E5
:1040600018480BF04DFE3E981C38FFF731FD0E4905
:10407000C85D401CC85530003EA9FFF759FD002817
:10408000EDD0761C022E8ADB002D6FD0002005902B
:10409000FFF7E2FE28890F22461903483100E0307D
:1040A00018E00000580000040C1000045012000436
:1040B000FF01000040A5008068C9020055C602004B
:1040C00011111111BBBBBBBBFC1000042222222228
:1040D0003333333326F078EF7079317900020843B7
:1040E000FF4F80190690387800280DD179780FF0AD
:1040F000B1F80400007A012832D106980FF0A2FF2F
:1041000000282DD004002BE0012801D0022827D15F
:1041100079780FF09FF8040024D0607A022826D125
:1041200006980078C0070ED020000FF0D4F90028C0
:1041300007901CD007980921890140184069002880
:1041400015D100240EE006980FF07CFF04000FF05C
:104150002EF8002C06D04030007E0328F1D106E076
:10416000002C04D100212800FCF7D7F999E2DD49A1
:1041700001206C61087004F0CCFD78887D218901F4
:10418000884200D3FEE710A874210F9026F0E0EEDD
:10419000787BC0071FD000F0B1FB08F056FF002865
:1041A00012D0D148007800280ED1200010F0CDFFA9
:1041B0000022012101920091797B02000907CB0FB7
:1041C0000121200000F08FFC08F029FF0028C9D051
:1041D00009F003FEC6E7207A012802D0607A02289F
:1041E00004D10699200010F0C7FA02E0200024F064
:1041F00031FE0B900F98259614302D90AEF7A94301
:1042000001000000803F000000020000C84D94FE45
:104210000F992E910B9A33A800921690B98802003C
:104220008B19B449200000F0A7FBF888E62801D1DB
:10423000002000E00C20AF4930AB4A88121A1A80E7
:104240008A88301810182F900020D870087B082812
:1042500002D3A84800210173607A032801D0012805
:104260000BD1200024F000FE002806D0A14E200033
:10427000317B24F0E2FE307312E0207A012804D171
:10428000200024F0F1FD002802D1607A022809D133
:104290000699200010F07AFA002803D09548007B98
:1042A00030ABD87026002036307E0027FE280AD09A
:1042B0007F2210AB998FD20040069143800D0143BD
:1042C0000127998711E02000FF309D3026F0DAEFBA
:1042D00010AB998F7F224006D200800D914301439D
:1042E000998716988079C0072BD01C980121090363
:1042F00008431C9016988079C00722D01C98091199
:104300000843202188431C90607A02280BD107982B
:1043100020304078002802D026F0B8EF08E02000D6
:1043200017F048FB04E0002F0BD1200017F02FFB03
:10433000400610AB998F800D7F22D200914301433C
:10434000998710AB988F8105490E032908D86C49CD
:10435000097F890604D57F21C900884328309887C2
:10436000674901202031097EC9060AD4617A0229F1
:1043700006D10799092292018918097F090700D4FB
:1043800000200890207A002813D1B07E000710D4B6
:1043900010AB988F8005400E26F07CEF07001220AE
:1043A00026F078EF874204D8B07E8007C20F012143
:1043B00003E0B07E08998007C20F2D9826F06EEFBB
:1043C00016994C4F4F4B387B891D09AA26F06AEF8E
:1043D00000281BD010AB988F8005400E1DF0CFF841
:1043E000002805D04849C8430BF094FC012605E09D
:1043F00045484649C0430BF08DFC02262E9801210A
:104400008068090708432E99886015E066B65375E1
:10441000010000007C410000000200002D1AC9F9D3
:104420003E484049C0430BF07FFC0B980026002813
:104430000CD030ABD9780122200010F0BAF930ABA3
:10444000198900010907090F014319811C202881DE
:1044500028183D900F9805A90B9A3C90039102965D
:104460000492F8880A990206120E0192009129001E
:104470000EAA2EA80DAB13F091FB10AB3E90D98E77
:10448000D9800E99002900D080E60028FCD00D9834
:10449000002813D0200017F084FA10AB998F7F22E8
:1044A0004006D200800D9143014399871C988021DA
:1044B000884320218843C90108431C90429826F074
:1044C000B0ED420910AB988F10218005400E3F904F
:1044D000084352014299104326F0BAED01000598B5
:1044E000002800D02C903E982890002028AB1391F3
:1044F00018733F9810AB9870289830AB008B1989CF
:104500000007000F09090FE0EC1000044804000444
:104510009B000004501D0300FC100004444444446C
:1045200055555555666666660901084328990883FE
:1045300028988078000908280FD1429826F070ED5D
:10454000F9880122E62900D000220092020030AB57
:10455000DB783C992D9826F0B4EE607A032801D0E0
:10456000012809D1B97B3A7B4B003C99200024F00B
:104570007EFD002888D018E0217A012901D0022888
:1045800013D10B9800280CD0002E07D03C9908AB13
:10459000EA4A18796C3126F098EE06E0387B26F06E
:1045A00098EE26F09AEE28AB18730D98002809D1E2
:1045B000207A002802D0607A03280DD11DF08FFCEC
:1045C000002809D0DE4810AB012E988004D0139843
:1045D0000E2126F086EE13902D993C9817F075F871
:1045E000012E10D1D749D8480BF09EFB08ABD34918
:1045F000187926F07AEE1C98710708431C900A205F
:1046000010AB187509E0CF49CF48C9430BF08CFBBC
:104610002D9A3C99200016F014FF787B4CB5E2E20D
:10462000010000007843000000020000D9F2774446
:10463000000706D500F080F91C980121C90708433E
:104640001C901C99129810AB08431290188C188279
:10465000588C58822D9A3C99200017F01AF81C9813
:1046600010AB000100091C90188898863D983C9971
:104670007422269026F04AEDB84FB94938000BF065
:104680005DFB129938000BF059FB28AB197B380001
:104690000BF054FB3D9A3C99019128AB00921A7B98
:1046A00008AB1B7931002000FFF7A3FA002816D0D1
:1046B0002800FFF72BFA002503F00CF800280ED095
:1046C000FFF7F4F800280AD10420FFF731F901F0D0
:1046D0008FFB002819D00120FFF72AF915E03B983D
:1046E0000821084202D014F06BFA0BE09D4826F036
:1046F00062ED002804D19C4826F05CED002801D032
:1047000004210173050000D0DEE498490020087000
:10471000FFF7F7FB3EB5002094490870954C94488C
:10472000E06000F07AFB002820D191482038A0609A
:1047300020000830FEF7B9FF14F0DEF88E4D8F48E8
:10474000C122290026F00EE989488D49B4386060FD
:1047500000228CA06B4607C32A008849201D0B232A
:10476000FEF730FF002801D001203EBD00203EBDF5
:10477000401F10B50406240E022C13D27020604393
:1047800082494018702126F002EC7A4A0120116912
:10479000A04008431021A1400143FF20401CA0403D
:1047A0008143116110BDF8B5441F022C24D2FBF7E0
:1047B0005EFF06006F4DFF20401C2969A0400842A3
:1047C0000AD003E000981C38FFF7A0F920006946E2
:1047D000FFF7CCF90028F5D0FF2112312869A1405C
:1047E000884328617020604368494018702126F092
:1047F000CEEB3000FBF740FFF8BDF8B5441F022CAC
:1048000025D2FBF734FF06005A4DFF20401C2969D2
:10481000A04008420BD004E0009800211C38FBF7B0
:104820009AFE20006946FFF7A1F900289157718789
:10483000010000007445000000020000C00AA93415
:10484000F4D0FF2112312869A140884328617020EB
:10485000604353494018702126F0A2EB3000FBF76B
:1048600015FFF8BDF8B5002425004D4EFF277F1C2D
:10487000702060434449355438000969A04008421B
:1048800002D00120FFF75EF8641C022CF0DBF8BDBB
:10489000F8B504000D000026052801D0062C34D1FF
:1048A000394A601F01211769814039422DD070219A
:1048B00041433B4A535C002B01D05B1E5354FF2302
:1048C0005B1C83403B4205D0505C002802D1012094
:1048D000FFF738F8002D18D02869002815D0314985
:1048E000204A002083005F18142343439B18DB7881
:1048F000A34207D12868006E008B0009401C0126E6
:10490000388002E0401C0228ECDB3000F8BDF8B52E
:104910000500FBF7B6FE0600234915480BF018FA10
:10492000FFF780F80090280010F07AFD00242006A0
:10493000000E290016F03EFA641C042CF7DB6846D2
:10494000FFF79BF83000FBF7A1FEF8BD1748008881
:10495000002805D016480178032901D104210170EF
:1049600070470000FC100004FF7F00007777777726
:10497000BBBBBBBB9999999928120004141200047F
:104980004804000414090004580000046C070000E7
:1049900088540004353C00004D4143205478000009
:1049A0000C10000474C402001111FFFFECE80200B7
:1049B00055C60200FFB583B0040016000F00911C1D
:1049C0000C9800220291130069460CC10122F9796A
:1049D000BB7909021943E92900D00022797BC90774
:1049E000C90F26F09AEC0500F879B979000208435E
:1049F000EA2803D1797B0822114379735B21C9002E
:104A00006218237A2100FF4F9C31012B08D10B0043
:104A10000699300026F084EC26E00120000327E010
:104A2000637A022B15D1069B0A0006999B1D300064
:104A300026F076EC012040020543B0797B74E42433
:104A400001000000704700000002000034E21789F6
:104A5000C00718D10221200005F086F8012812D1E4
:104A6000400305430FE0E62801D10B0000E0069B60
:104A7000300026F060ECFF20401C054338680079C8
:104A80000028D4D1054302980622058030001A3050
:104A9000694626F0CCEA07B0F0BDE0490020486046
:104AA0007047DE49002088607047F8B50600DB4D8E
:104AB000A868002845D1FF21D94800222D3126F0D1
:104AC000AEEA04003DD001200221A8602173666196
:104AD000617B0143D3486173A061B0202081FF2036
:104AE0008D30825BCC4800920068320003795B20F5
:104AF000C00031189C32200026F020EC07001C205A
:104B0000251820817421280026F054EA30002F66F1
:104B100016F065FFA870C448A860C448007E8006EF
:104B200004D4A878002801D0C148A86003206035CB
:104B30002873200016F05FFE002804D1200026F024
:104B400032EA0020F8BD0120F8BDFFB585B00700AE
:104B50000898002803D0B148406800287DD1FF2480
:104B60002D3402E00120FEF763FD2100380004F03F
:104B7000DCFB0500F6D028894619380024F09CF9A2
:104B8000002801D00C2000E0042003905B203A00B4
:104B9000C0009C323918130001920091039A02213F
:104BA000300026F0D0EBF07801210843EF210840D7
:104BB00006992C00C907C90E0843F070FF20C01CDD
:104BC0003071000A70710020307070701C202881D4
:104BD00002201C3428737421200026F0ECE9200008
:104BE00060300F99049041732666089800280AD017
:104BF0000120C0078949A06001204860697B01430A
:104C00008C486973A8610020208003980C281FD16C
:104C10000799380024F039FA41072078490FC00875
:104C2000C000084341072070490F380024F080FB82
:104C30000101206E028B1207120F0A430283206EBD
:104C4000017E09090901017620789F21DFAD4A64C0
:104C5000010000006C49000000020000F3FB15D4C5
:104C60000840207021003800079A002300E053E03C
:104C700024F025FA0E98724E002806D104990420DB
:104C80000873380016F0B5FE1FE0002138001CF054
:104C9000B3FC0328A0701ED9307EC00604D5684836
:104CA0006030807A40060CD5787A022813D10B2028
:104CB00080013818006B092189014018007F000726
:104CC00009D50321380016F04FFEA070A06801211D
:104CD00009030843A060307E800607D4A07800282E
:104CE00004D0A068012189070843A060380020F0A3
:104CF000EFFA002805D038000EF01DFC0699203090
:104D00004173280016F081FD002805D1280024F009
:104D100035FA280026F050E909B0F0BDFFB585B09E
:104D2000FF2405002D3402E00120FEF78BFC21005A
:104D3000280004F004FB0600F6D02800FF30297A92
:104D400087300129049002D0687A022804D104999E
:104D500028000FF04DFD02E0280024F0B7F86B4664
:104D6000197EF322114008310028197603D0080774
:104D7000000FC03002E00807000F40306B46187685
:104D800030892A0084195B20C0009C3229180192C6
:104D900000911F7E049B3809390702000390890F98
:104DA000200026F0DAEAFF20C01C2071204A000A09
:104DB000607150886B460101401C5080607E227EED
:104DC000000210430007000F08432076000A6076B7
:104DD000A770587EE070687A02280DD10221280061
:104DE00004F0CCFEE1788A06D20F1043C007DF2220
:104DF000800E11400143E1701C20308137183000D3
:104E0000F46708997C3041730E99017303980C285C
:104E100002D16B46988B3880002128001CF0ECFBF7
:104E2000B870300016F0F1FC01280FE0D4A800C0E3
:104E3000CCA900C088040004C3470000021400008D
:104E4000701D030002140040BB47000002D0300078
:104E500026F0B2E860E708B50C220092B9A3F8CAC0
:104E600001000000684B0000000200000713AB695E
:104E70009148042206238CA1FEF724FC002800D0D0
:104E8000012008BD02008C4810B5006804210023F1
:104E9000FEF72BFC002804D10220FEF771FD002054
:104EA00010BD012010BD8549096808718449486119
:104EB0007047824800680079704710B509F09BFD83
:104EC000002801D1012010BD002010BD7D4870B523
:104ED0000124006B400713D517F060F87A4D0021CC
:104EE0002E1F0AE0CA0053191B68921912689342D8
:104EF00000D00024491C012C08D18142F2D905E0E0
:104F00007248816AC06A814200D00024200070BDCE
:104F100010B5FFF7DBFF002808D06C482030018A6D
:104F2000808A814202D126F026EA10BD002010BD01
:104F3000674870B5007800284BD1664800220068A9
:104F4000082126F03CE8002843D1FFF7E1FF0028C4
:104F50003FD0614826F012EA04005F48082126F09D
:104F600012EA05005C48102126F00CEA2818844259
:104F70002FD15A4826F002EA04005848082126F0AA
:104F800002EA05005548102126F0FCE92818844261
:104F90001FD1534826F0F2E904005148082126F0B9
:104FA000F2E905004E48102126F0ECE92818844269
:104FB0000FD14C4826F0E2E904004A48082126F0C7
:104FC000E2E905004748102126F0DCE92818844270
:104FD00001D0002070BD012070BD70B501200FF020
:104FE000BEF900285ED1404C394D3A4E08E0207899
:104FF000401C20700120FEF7C3FC0120FEF72CFBB3
:1050000028780028F3D130680022082125F0D6EF57
:105010000028ECD102E00120FEF71EFBFFF778FF2D
:105020000028F8D02C4826F0AAE904002A480821D4
:1050300026F0A8E905002848102126F0A4E9281840
:105040008442E8D1254826F09AE904002348082143
:1050500026F098E905002148102126F094E9281847
:105060008442D8D11E4826F08AE90400AFAE82CA35
:1050700001000000644D0000000200001EEB7519E5
:105080001C48082126F088E905001A48102126F05E
:1050900084E928188442C8D1174826F07AE9040028
:1050A0001548082126F078E905001348102126F05C
:1050B00074E928188442B8D170BD000054784D6757
:1050C0006D7438303231314D736751006400000423
:1050D000D4A800C040A6008040A3008034A900806E
:1050E00000A000804804000434C402004C04000402
:1050F000880400046805000418050004CCA900C059
:10510000FF309D300E2210B526F04AE910BDF84957
:1051100002200860F7490A200860F849F64808604C
:10512000F849F7480860F949F7480860F949F8482C
:105130000860704710B504000C235843F649401826
:1051400000210A000B000EC0200026F02EE92000EE
:1051500026F02EE9200026F030E910BDF7B584B026
:1051600015000400ED4A00200092039005982900E4
:1051700003AA02AB26F024E96B46187B052801D070
:1051800006284BD12D062D0E280026F0DEE826F04D
:10519000E0E80600607A032806D16B461B7A3200ED
:1051A0002900200010F030F8FBF793FA0700FEF713
:1051B00061FCD9496B460190D94A187B383926F0F1
:1051C00004E96B46197B187A26F002E96B46187BD6
:1051D000FFF71BFB6B46187B2A003100230010F001
:1051E0002BFA6B46197A300026F0F6E86B46187BEE
:1051F000310015F043FE01A8FEF767FC3800FBF70D
:105200006DFA6B46197A059A200017F016FF6B4667
:10521000187AFFF78FFF012007B0F0BD0020FBE7F1
:10522000F0B585B014000600BC4A0F0000200092C3
:1052300003902100380003AA02AB26F0C2E8BA4D61
:10524000B84928000AF0ACFD6B46187B052801D050
:1052500006283AD1B54928000AF0A2FD2006000E22
:1052600026F072E826F074E8FBF733FA0400FEF744
:1052700001FCA9496B460190A94A187BB885529D4B
:1052800001000000604F000000020000EA03CBA410
:10529000383926F0A4E86B46197B187A26F0A2E884
:1052A0006B46187BFFF7E5FA300010F0EBF86B4621
:1052B000187A26F0A0E86B46187B002115F0ACFDAB
:1052C00001A8FEF70CFC2000FBF712FA6B46197AD6
:1052D0003A00300017F0BBFE012005B0F0BD002001
:1052E000FBE7F8B50D0006000024FBF7FCF9904A37
:1052F00007002906090E2832300025F0DCEE0A28C6
:105300000DD28B4A00210001283211548018C1604F
:105310002900300012F09EFB0EF0A5FF012438009A
:10532000FBF7E6F92000F8BDF0B506000C000878A0
:1053300085B00007400F16D126F060E8070002286C
:1053400011D07C4826F05EE80500401C0BD03806E2
:10535000000E2906090E020003902000029126F09B
:1053600056E8002801D10020B7E75B20C0003900D3
:10537000301815F0F9FD220003991432300017F0AF
:1053800051FE707A032809D1201D25F090EE010608
:10539000039B029A090E30000FF040FF029826F09E
:1053A0003AE8280026F03AE8604A0120A900383A95
:1053B0005050C83A0092029B039A2100300026F018
:1053C00032E85B4A002114204843135C002B0DD0C7
:1053D0008018C078A84209D1880056490022091DCA
:1053E00043189A70012212030A5202E0491C022952
:1053F000E9D30298FFF7F8F9201D25F058EE0006D2
:10540000000E25F0ACEF25F0AEEF0500FBF76BF9D1
:105410000700FEF739FB0190201D25F048EE02063B
:105420000299120E3300280010F010F9201D25F00B
:105430003EEE02063300FF330298120E8733290036
:1054400015F055FD01A8FEF74AFB3800FBF750F9AF
:10545000012042E7F8B50024354F14206043395C41
:10546000002929D0C519281D0EF046FE060023D0BC
:105470006978002230000FF0E2F96B4619880001CC
:105480000907090F01430091187800099F17EB489D
:10549000010000005C5100000002000094186C1430
:1054A00000011870A878009915F08CFD2648A1001D
:1054B000001D0A186B461988901C090911800021EB
:1054C000030091706978300014F082FC641C24069B
:1054D000240E022CCBD3F8BD70B505000C0025F0CE
:1054E0007CEF0C226A43164B99584118995020685A
:1054F0002160081A70BD70B505000C0025F068EF3A
:105500000C226A430E495218916841189160206834
:105510002160081A70BD0000F03A0300F43A03005D
:10552000373F0100F83A0300DB900100FC3A03002A
:10553000E54D0000003B030043450000043B030031
:10554000FC110004FC10000470C402006666FFFF3A
:10555000BBBBBBBB7777FFFF70B505000C0025F028
:1055600040EF0C226A4304495218516841185160B7
:1055700020682160081ACDE7FC11000410B50A6804
:10558000FE4B002A03D11868401C186010BD8A6ABF
:10559000824203D05868401C586010BDF84800246F
:1055A000026A002A0FD08A4210D09A68521C9A6070
:1055B00003220A71C26A002A01D0516300E08162AD
:1055C000C1624C6310BD012201620A71006A0722A8
:1055D0008462EC4840210068FEF7B8F810BD10B5B1
:1055E0000A68002A10D0E64A536B83420CD1106A35
:1055F000002809D0884207D100205063E1480722E3
:1056000000688021FEF7A2F810BDF0B5050085B056
:1056100000F0ECFB002000F019FC04007ED0286BA9
:105620002063D7480490416A491C4162216000F020
:10563000E5FB25F006EF03910290206800272E007D
:1056400039002036002803D1049A012050622060DE
:1056500000232371307A6071A079717A80088907FC
:105660008000890F0843F321A0710840B17A8907AF
:10567000090F0843CF21A0710840F17A8907890EEC
:105680000843A07169692869594008430DD02A6907
:1056900002986B690399121A8B410AD3F1B89EF7ED
:1056A00001000000585300000002000060F0D2A981
:1056B000029A2869039B6969801A994102E0A869E6
:1056C000002800D00700029A039B0021B818594116
:1056D000E160A060E8692061286A6061686AA06191
:1056E0002868E06168682062A86860622000203055
:1056F000417B327B490892074900D20F1143FD22BA
:1057000041731140327B5207D20F52001143417353
:1057100002218173317B090701D506218173327B18
:105720000121D20700D102210173827B230000E016
:105730000AE00092994828333A00210025F08EEEC5
:10574000002806D1206001E000F062FB002005B0D7
:10575000F0BD2068FBE7F8B505250E0000F080FBE2
:1057600004008C48016AA14216D1A06A002803D027
:1057700025F064ED0020A062002E66610CD00022AE
:1057800023000092854828333200210025F066EE80
:105790000325002800D104252800F8BDF8B50F0026
:1057A000052600F05DFB7B4C0500216A814215D186
:1057B000606B002803D025F042ED00206063002FCD
:1057C0000CD0744B00220092754834333A00290003
:1057D00025F044EE0326002800D104263000F8BD51
:1057E00070B5052500F03CFB6A4C216A814207D167
:1057F000606B002803D025F022ED002060630325B4
:10580000280070BD38B50120FEF7E2F8614C2C206D
:10581000236AC15C5A6A1868DB6998470AF005FB7D
:1058200000F0EEFAFAF773FF216A05000020086025
:1058300000F0EEFA00F0F2FA20622800FAF76CFFAE
:1058400017F0F8FA216A002908D02E20425C0B00DC
:105850000092544A5148283325F000EE032038BD09
:10586000F8B505250F0000F0FBFA04003CD0A06A53
:105870000026002802D025F0E2ECA662454D286AF9
:10588000A0422FD100F0BCFA2079012801D00228D3
:1058900025D1267100F0BCFA286A2030072F077343
:1058A0000BD0286A082F006B0FD11A224F9E983711
:1058B00001000000545500000002000079080CD9D6
:1058C000002103F07CFE262009F094F915E0286AF7
:1058D0001922006B002103F072FE2520F4E725F069
:1058E000CCED286A1822006B002103F068FE24200A
:1058F000EAE700F097FA00E0266003252800F8BDEB
:1059000070B504000425FAF70CFF06002648006A6B
:10591000A04219D0217920680325032906D104214A
:105920002171E369626A0B2198470DE0A06A25F0B6
:1059300090EC012808D1E369626A20680B2198473E
:105940000021A162216021713000FAF7EFFE2800EA
:1059500070BD70B50500042400F05CFA280000F06A
:1059600089FA002802D0FFF7CBFF040000F05AFAB2
:10597000200070BDF8B505000E0000F04BFA094F8D
:10598000002438206043C019816900291BD0002DF4
:1059900003D04521095C890712D4002E13D045217C
:1059A000095C0BE010E3020050E6020068C9020047
:1059B000395200009B520000A0860100C90702D0A6
:1059C0001830FFF79DFF641C0F2CDAD300F02AFA81
:1059D000F8BD01210020CDE710B525F052ED0028DB
:1059E00001D1012010BD002010BD38B525F04CEDCF
:1059F000FD4C1622206A0021006B03F0E0FD206AB6
:105A00001522006B002103F0DAFD206A417900299C
:105A100006D081790091417900980022FFF7DCFFE0
:105A2000216A02200871206A8069002808D025F0C8
:105A30001CED256AAA68EB68801A9941A96908607B
:105A4000216ACB694A6A086803219847216A486934
:105A5000002809D08A6A002A06D100920B000200B1
:105A6000E248283325F004ED032038BD70B5060068
:105A700025F00EEDDC4D2C202B6AC15C5A6A1868AB
:105A8000DB6998470400032811D1286A002E006BB7
:105A900005D01622002103F092FD222004E01722F7
:105AA000002103F08CFD232009F0A4F800E002247B
:105AB000200070BDF8B5040000200D00012AC87C4C
:105AC0000100000050570000000200008DE0B264A9
:105AD00016001F002060FAF72EFEC8490A6A002A45
