:100000000100000000000000000200000447BA08E0
:100010001CF09FE51CF09FE51CF09FE51CF09FE5A0
:100020001CF09FE51CF09FE51CF09FE51CF09FE590
:100030000B450E7ABC59000040590000445900009D
:100040009C590000A0590000A4590000A8590000C4
:10005000B5590000000000EA700000EA28008FE2B5
:10006000000C90E800A08AE000B08BE001704AE24A
:100070000B005AE16900000A0F00BAE814E04FE2F1
:10008000010013E303F0471013FF2FE170C70400D2
:1000900060C8040001C08FE21CFF2FE18A180378BA
:1000A00001309C07A40F01D1047801301D1101D14A
:1000B00005780130013C05D0067801300E70013121
:1000C000013CF9D1002D11D004781B0701309B0FA2
:1000D0000C1B032B01D1037801301B02E41A6B1CAB
:1000E000267801340E700131013BF9D59142D6D307
:1000F00070470000102052E27800B0287800A12854
:10010000FBFFFF8A822EB0E13000B0283000A1282A
:1001100000409045004081451EFF2FE10030A0E3E4
:100120000040A0E30050A0E30060A0E3102052E2F2
:100130007800A128FCFFFF8A822EB0E13000A128C0
:10014000003081451EFF2FE104309FE503308FE032
:1001500013FF2FE17504000010B5040000F096E8CD
:100160000068005D000706D5DF2C04D02000203891
:1001700010BC08BC18472000FAE710B4042A0ED3BC
:1001800003000B439B070AD108C810C9A34202D140
:10019000121F042AF8D2A34201D0001F091F002A0F
:1001A00002D1002010BC7047D30701D0521C05E0DB
:1001B00003780C78401C491CA34207D103780C78C3
:1001C000401C491CA34201D1921EF1D1181BE9E742
:1001D00003000B43020070B49B0710D10F4CE501E4
:1001E00000E008C208C91E1B9E432E42F9D0190622
:1001F000090E1170521C00290DD01B0AF7E70C786C
:10020000491C531C002C147005D00C7815D768B706
:1002100001000000FC01000000020000C092652304
:10022000491C5A1C002C1C70F3D170BC7047000094
:10023000010101010000A0E13A0000EB03002DE9FB
:100240009A0000EB0300BDE8620000FA0F002DE900
:10025000990000EB0F00BDE81CC09FE50FC08CE0CB
:1002600001001CE30DE08F120FE0A0011CFF2FE145
:1002700001C08FE21CFF2FE100F04AF8959F0300B8
:1002800001402DE90000A0E1810000FA0140BDE835
:10029000000000EA0000E0E3060000EA1EFF2FE194
:1002A00010402DE9090000EB1040BDE8040080E299
:1002B0001EFF2FE12D0000000C109FE51800A0E3A9
:1002C000563412EF1EFF2FE1D4FFFFFF260002007D
:1002D00004009FE51EFF2FE11EFF2FE1A848050047
:1002E00010B5C046C046080007D00178002904D0E8
:1002F00005A100F024E9002804D10448784410BC8A
:1003000008BC18470020FAE743000000ECC30400D3
:1003100010B5C046C0460400C046C0462000FFF7E6
:10032000B0EF10BC08BC18470E40A0E1660000EB1F
:1003300004E0A0E101402DE97B0000EB0040A0E1DA
:100340000140BDE813402DE90100A0E3121DA0E328
:10035000081084E5000084E51340BDE80010A0E12A
:10036000040084E50EF0A0E110402DE903002DE922
:100370006D0000EB0040A0E10300BDE8042094E51F
:100380000D30A0E100E082E003005EE1002081E5A5
:100390000B00008A0E3093E0011A8EE26330A0E178
:1003A000071081E20730C3E30710C1E3030051E106
:1003B0000310A081041084E51040BDE8020041E074
:1003C0001EFF2FE10020A0E10000A0E30000A0E15B
:1003D0001040BDE81EFF2FE1F0B585B0C046C04615
:1003E00005000C004BF0FEED002001950294C04684
:1003F000C046039001A8FFF7B2EE040001A80D006B
:10040000009303C81600C046C046C046C04605F06B
:10041000B4EB00210800C046C04607000E4E0DFF99
:1004200001000000F803000000020000347ADB9EA7
:10043000FFF758EF0490002107600800FFF75AFF0C
:10044000411C0498416000210800C046C0460100DC
:100450000498816000210800C046C046010004984D
:10046000C16000210800C046C04601000498016137
:10047000C046C046C046C046C046C046C046C0464C
:10048000C046C046C046C046C046C046C046C0463C
:10049000C046C046009B05B02000049C29003200E5
:1004A000A646F0BC01B0704710B5C046C04600205B
:1004B000C046C046C046C046C046C04610BC08BC88
:1004C000184700000000E0E30210E0E31EFF2FE108
:1004D00010402DE90000A0E11040BDE81EFF2FE113
:1004E0000E50A0E1430000EB05E0A0E10050A0E1C8
:1004F0000700C0E30D10A0E10A30A0E100D0A0E1A8
:1005000060D08DE220402DE9726100FA2040BDE804
:100510000060A0E30070A0E30080A0E300B0A0E3CF
:100520000710C1E305C0A0E1C009ACE8C009ACE810
:10053000C009ACE8C009ACE801D0A0E11EFF2FE182
:1005400004009FE51EFF2FE11EFF2FE198480500E4
:10055000030010E3030011031700001A00402DE907
:1005600084E09FE5042090E4043091E40EC042E072
:1005700002C0CCE18EC31CE003005201F8FFFF0A69
:100580000040BDE8030CA0E1020C50E0FF0E1C038C
:100590000700001A0308A0E1020850E0FF0C1C034A
:1005A0000300001A0304A0E1020450E0FF081C034A
:1005B000020053006000A0111EFF2FE10120D0E4D3
:1005C0000130D1E4010052E3030052210400001A7B
:1005D0000120D0E40130D1E4010052E303005221B4
:1005E000F5FFFF0A030042E01EFF2FE101010101B8
:1005F00010B410BC7047000000009FE51EFF2FE103
:100600008848050004009FE51EFF2FE11EFF2FE133
:100610008C48050070B505000C0037F07FFE0028FF
:1006200014D0686900F0A8FE00280FD03604896550
:1006300001000000F4050000000200002D8205EE1C
:100640006079217900060014084320340019C1792B
:100650008279080224491043884201D1012070BDEB
:10066000002070BDF8B5050000F089FE0027FF43AB
:10067000002808D137F05CFE002804D1686900F03A
:1006800085FE00282DD02989481942790379120660
:1006900012141A4314180E3150180606360E28008C
:1006A00000F068FE002807D1617D227D080208362F
:1006B00010433606360E03E0607B217B00020843C0
:1006C00000F01CFE00280CD02200A11D28002E8165
:1006D00011F02FF9002804D0280000F097F800202E
:1006E000F8BD3800F8BD0000888E00002A4810B51B
:1006F00004684068042B01D14C6102E0012B02D157
:100700004C6105F052EA002010BDF8B50D0017004D
:10071000214E1C00052B01D0162C14D1288940191C
:10072000C17882780802104304D1280000F06EF8E6
:100730000220F8BD2800FFF795FF002801D1012015
:10074000F8BD052C01D0172C04D13A0029003068DF
:1007500005230EE0032C06D1280000F008FE3A0025
:100760002900032305E0022C05D1B0683A002900D6
:10077000022305F01AEA0020F8BD70B5040000F06D
:100780000DF8050001202073200005F012EA280072
:1007900000F009F870BD0000E4C80400802010B526
:1007A00005F00AEA10BD10B505F006EA10BD10B557
:1007B000040005F006EA206010BD124870B5046818
:1007C000114EA10706D500210161B26D01209047AD
:1007D000022084432006000F03D0E0208443102031
:1007E000044300250AE0E00706D0A8003258002A9A
:1007F00002D021002800904764086D1C002CF2D123
:10080000002070BD0028008018200004002810B5CA
:1008100007D00169002905D14189C088032205F06C
:10082000D4E910BD05F0C4E910BD10B50189C1229D
:100830000818418D0024D200914208D16D8E94A2F7
:1008400001000000F007000000020000D96ABB535D
:100850000100062212310C30FFF7B7FC002800D14E
:100860000124200010BDFEB5040000200700029006
:100870000190208901260519A8780007800F022819
:1008800000D000266069407902280CD12000FFF7D3
:10089000D6FF012807D12020A7802073FF490868D0
:1008A000401C0860FEBDA0880028FBD000F04FFD72
:1008B000002867D0280005F096E900285AD1002EBC
:1008C00012D001222000694639F016FF00280BD013
:1008D0000098002800D0012000284BD000214F2094
:1008E00037F0A2FA029008E0200001A937F07EFC60
:1008F000002800D0012000283CD000F01DFD002879
:1009000047D0E7480125056140F0DCFA02F09AFD86
:1009100000280CD142F008FE002808D1E148076009
:10092000E1480780DE488570032042F0A9FD029966
:10093000FF2037F07DFDDD4D2888002804D0DC49FC
:1009400004200856401C0AD0022501200CF0EFFBC1
:100950006D1E09D0D248007A0028F6D104E037F0A5
:10096000F1FBCF482F8007721D2042F089FDCC4853
:10097000C7600EE06B46187900280AD12020A780B6
:100980002073FEBD002E04D002222000694639F0FB
:10099000B3FE02F05AFD0028F3D0A0880028F0D062
:1009A00037F0A2FF0028ECD138F0B2F80028E8D1E7
:1009B000002EE6D020890019C278D10701D1801D10
:1009C00000E01230BB49CB7B002B0ED009890929EE
:1009D0000BD10078C00708D0900602D540F00AFA83
:1009E000FEBD1B2042F04CFDFEBD01F0BAFF012808
:1009F000FAD040F00FFAFEBD7CB50C001500497925
:100A000023790906091419430B1981884269243393
:100A1000602914D9603920328180517DC906CA0FFE
:100A200000922A0001A905F0E2E8A071000AE07135
:100A30000198001B2071000A607101207CBD00201C
:100A40007CBD1A00D8E78288602A10D9AF0F8AD0FF
:100A500001000000EC090000000200001E73B90E46
:100A6000603A828048790A790006001410432430E5
:100A70000871000A4871E62088710020C8710120C1
:100A80007047002070471FB501AA0400009202AA17
:100A900003AB39F05EF901980204029812140104C4
:100AA0000914200038F0D0FF20000399C0304182A3
:100AB000019981820299C182200002F039F91FBD9B
:100AC000F3B595B005000A20099000200790049026
:100AD00003901698002802D1002017B0F0BD288995
:100AE0006E69411920220BA805F08EE80BA808AB0F
:100AF0000A90D87BC10775486844149002D10A98BF
:100B0000801D00E014980590169820301390007D09
:100B1000C006800F012807D91698183005F078E82C
:100B2000000701D5012400E0002408AB997B0020D8
:100B30000A07920F022A03D10909090700D50120EB
:100B4000204326D0FFF73EFE07001398604A007E40
:100B500041070A98490F0C3005F05EE80A28099011
:100B600014D2002C06D00998594900014018C168D8
:100B7000491CC160A888002808D10998554900017E
:100B8000411810AB988800093FF0EAFC3800FFF7E5
:100B90001EFE288920216C18203829812071000A26
:100BA00010AB6071988800092072000A6072B079F9
:100BB0002070F0796070A888002802D1287B202856
:100BC0003ED108ABD87B800601D50120039008AB4D
:100BD000987B0107890F022932D11399097EC90632
:100BE00020D5000900071DD53B480078002819D002
:100BF00038F01AF8002815D038480068002811D0BD
:100C00003748006800280DD040F07CF8002809D053
:100C10003DF010FC012805D032480068002801D1C1
:100C20000120049002F023FC002809D00A9804F067
:100C3000E4EF002804D1022003F04CF940F086F9DB
:100C400016993000FFF71FFF3100C0311620085EF3
:100C50000F0001F0CCFF20731220385E3D3C02B43F
:100C600001000000E80B000000020000EA9B07B34F
:100C700001F0BAFF08AB6073987B0009000704D548
:100C80001398007E4007400F00E0FF20A072A88864
:100C9000002804D00A9804F0BAEF002870D000278A
:100CA000A770E770A888002802D1287B202862D18D
:100CB000A07A37F02BFF002826D00398002821D0F7
:100CC00000211BE07400000414FE04009CCD04000D
:100CD0003CCD04002CCD040004C9040050070500DD
:100CE0003E000000E82300041826000466CC04003F
:100CF00078CC040074CC0400C8CC0400300012F09E
:100D000083FB01E0FF48077005980078C00715D104
:100D100026F0C8FA00281398007E07D0C006C30F3B
:100D2000049A0399300026F059FB06E0C006C30F71
:100D3000049A0399300025F023F9049008AB987BBE
:100D40000399020930003FF013FB0498012812D1E7
:100D5000ED48008800280BD0EC48002200684621AE
:100D600004F068EF002803D0E9490120087002E090
:100D7000162042F099FB2800FFF766FDB6E6FFE774
:100D80001398007EC00905D0169A21002800FFF7AD
:100D90006EFE05E00A9B169A21002800FFF765FE0B
:100DA00000287ED0A888A070000A22000B32E070D4
:100DB0001698D11C04F042EF7079022872D13000ED
:100DC00003F06DF8112149010690401807780020C2
:100DD00008AB0890987FC00706D001200890F8075C
:100DE00070D0B8076ED41DE0149803F0A8F800285E
:100DF000079067D07079022864D10798407AC006BE
:100E000060D50799F079C97988427ED109980A2876
:100E100058D3780702D4F80754D003E0F807C0D0BD
:100E200078073ED4BB4800220188BB48032302F068
:100E3000B3FB0028019042D00198A98881800198D5
:100E4000B0210181019808210173019F0F21B03762
:100E5000380004F0F8EE1020387100207871E07945
:100E6000A17900020843B871000AF8710DDB8F1BED
:100E700001000000E40D000000020000F363D9C38C
:100E80000698406A012807D10798002804D0707A94
:100E9000000701D5A07A3873607921790006001423
:100EA000084301193800AA88103004F0C2EE0199F5
:100EB000F068486101E04FE00EE0F0797870B079B9
:100EC0003870A888B870000AF8700198042100F002
:100ED0006BFA089800283FD0FFF788FC0290954BEA
:100EE00093481F680022290000681623B8470700AE
:100EF0000298FFF780FC022F3ED0012F30D002F085
:100F0000CAFA002802D0052042F0D8FA09980A2827
:100F10000ED20998884900014018083000E016E018
:100F200003C8002358405940084301D036F0F4FF6D
:100F3000FFF75CFC7F4B07007D4829001D680022FD
:100F400000681723A8473800FFF755FC14E038075E
:100F5000C2D509980A28BFD30020A070E07014E71A
:100F600009980A2808D2099873490001411810AB62
:100F7000988800093FF008FBA07A37F0D1FD0028DF
:100F80000CD00398012804D10021300012F046FA59
:100F900004E00398002801D15F49087005980078A3
:100FA000C00715D126F088F900281398007E07D0D5
:100FB000C006C30F049A0399300026F019FA06E020
:100FC000C006C30F049A0399300024F0E3FF049095
:100FD00008AB987B0399020930003FF0D3F90498DD
:100FE000012812D14D48008800280BD04C4800221F
:100FF0000068462104F028EE002803D0494901206A
:10100000087002E0162042F059FA012079E5F0B5A7
:10101000002697B03400029602F04AFA002806D063
:1010200000F0A8F90028FAD044480121C1606BE122
:101030000020049024F0F8F810AB197B0020C906BA
:10104000890F012902D90C980007C00F0390059859
:101050000189081806A901F046FD1698002805D157
:10106000059800218180FFF7F9FB4DE116980C30BF
:1010700002F06FFF040005D116990120F1C4A15DB3
:1010800001000000E00F000000020000078B677EF7
:10109000123102F086FF04001699200001F0FCFFD7
:1010A000002801D00024E5E7002CE3D005994C612D
:1010B000607902280CD1200002F0DCFE0C30029096
:1010C000607A169AC0060599C00F04F0D4ED10E0BE
:1010D0002079169A012807D12300983304F0CEED29
:1010E000200002F035FF04E023009833012004F0D3
:1010F000CAED059801890918CA78D20701D18F1D58
:1011000001E00F0012370522D201A518EA6A002A71
:1011100002D0136B5B1C13633A78D20705D0EA6ADE
:10112000002A02D0536B5B1C536313E065CC0400B0
:10113000840A0500E4C8040061CC040046CD040024
:1011400030010004E8C8040064CA04001826000442
:1011500014FE0400039A002A25D18288002A4CD06C
:101160003A78D2071AD123000A22FF336B33009258
:1011700016999A1E04F08AED05988088002816D1E9
:10118000200006A9FFF79DFC0598FFF771FBE86AB0
:10119000002802D0016A491C0162BFE017225201F7
:1011A000A21804F078ED059880880028D7D06079DF
:1011B000022827D1200006A902F026F916990298E4
:1011C000C978007DC906C90F884202D0200019F0F5
:1011D000F1F8200001F0C2FF200001F0F9FF012822
:1011E00003D11699200046F029FE02984030007C79
:1011F000032803D005990020888074E00598808832
:10120000002870D03878C0070AD123F06FFE00287C
:1012100006D1059808AB8188DA7C06A824F00EFF79
:10122000169804F03CED00281ED0059881884039BE
:1012300081801699097E090707D11699C97849074F
:1012400003D41699098881804DE0494A00920189AA
:10125000484A494B091804F026ED00285ED0059055
:101260000189081816903EE016988079C00701D0D1
:10127000686A00E0A86A002801D006000836002E3F
:1012800041D0F079022801D003280FD1316E84A813
:1012900001000000DC110000000200007990C0CEC7
:1012A000FF226B32125B16990120002A00D0002029
:1012B00004F006ED0598320006A900F0A7F917E042
:1012C000012801D0002827D1012000F01FF90028B3
:1012D000FAD1320006A905A808F0EDFA002804D1D9
:1012E0000598002824D0002181800498002804D08B
:1012F000F079022808D0032806D00598FFF7E5FA10
:10130000059806A9FFF704FC29F074F900280FD00E
:10131000012013F043F814E0FEE7E86A8168491CF5
:1013200081601698BF21C07808401699C8706BE795
:101330000121002006AA01F00CFC0028059000D035
:101340008AE613498020C043086104F0BEEC0028FF
:1013500002D0042013F022F80E490020C860002CAF
:10136000086106D00B2080012018806B032138F023
:1013700043F95FE6084A01000120914200D00020B5
:1013800070470000A82E01C0B02E01C0048E0500D9
:1013900000A5008014FE0400888E00000A49002089
:1013A0004968002904D009490978002900D00120A2
:1013B0007047054900204968002904D0034949784D
:1013C000002900D001207047FCC8040014FE04006E
:1013D000022110B50173010009481C220068042392
:1013E00004F01EEC10BD4069C068704710B540693C
:1013F00002F0B3FD10BD10B540690AF095FB10BDB9
:10140000E8C804000B2189014018406B002803D074
:101410002030407DC007C00F704703000A0000B5B0
:10142000FFF7F0FFFD21002814D00B2080011818D1
:10143000436BC0335A61406B0300C033002A08D0AD
:101440002030407DC00701D0186909E0907A08403B
:10145000907200BD002AFCD0187A4307F6D5C00769
:101460000028F3D100BD0000034800688030006808
:10147000C007C00F7047000050C9040038B5140001
:10148000049A009222000BF0CEFE38BDFFB581B069
:1014900004001D000F00802004F0CAEB90B52B471C
:1014A00001000000D8130000000200008D787E7358
:1014B0001A4E002D306007D1216D002904D104F0AF
:1014C000C2EB0F2005B0F0BD04F0BCEB039A2B007B
:1014D000390020000BF066FF050009D1802004F0E0
:1014E000B2EB3060216D491E216504F0ACEB03E0E6
:1014F000112D01D11420E5E72800E3E710B50BF02A
:1015000089FE10BD10B50BF061FF112800D112202B
:1015100010BD10B50BF072FF10BD000024CF040009
:10152000FF4980000858704770B58400FC4D285969
:10153000002803D12EF09CFF0120285170BD10B56A
:10154000016800242200782900D04A1C41688A42A0
:1015500001D1002208E024224A43230012180C3251
:10156000782900D04B1C4360100010BD30B500241A
:101570000A682300282A01D0272A04D02300282A19
:1015800000D0531C5B1C4D68AB4201D1002030BD24
:101590002300282A00D0531C9A000B605118886041
:1015A000012030BD016800231A00282900D04A1C00
:1015B00041688A4201D1002206E08A00121892682E
:1015C000282900D04B1C43601000704770B50500FF
:1015D000FFF72AF90400D24800210068002814D13E
:1015E000CF48D04B203805611A68282A00D0511CFA
:1015F0005868814205D08000C0188068002800D05B
:10160000FEE7280002F065FD06E0C6492800FFF766
:10161000ADFF002800D1FEE72000FFF70AF970BDFA
:10162000F7B50D001600FFF7FFF80400BC4840684E
:1016300000281AD1BB4A0021AC321068782800D0AB
:10164000411C5068814205D02423584380180C3037
:1016500000D0FEE732002900684602F0CEFD0028E7
:101660000DD1009800F077F909E0AE4B00983200F8
:101670002900AC3300F00FF9002800D1FEE720006C
:10168000FFF7D7F8FEBDF0B503220021A44EA44F0A
:10169000203E33681202012B85B065D1002863D14A
:1016A000A14B18689043186031603960459D8835BA
:1016B00001000000D4150000000200009480A00387
:1016C0003069018945690C18B168002D4A8801927A
:1016D00003D10021FFF7A1F8D8E06B465A795207F1
:1016E0001DD46979022902D02979062904D129005B
:1016F00001F0B6FD0028EFD16B4618790007800F86
:10170000022808D131692200280000F09EF9002843
:10171000E2D13069DDE7306928F00CFEB6E00A88D6
:10172000080020301018236FC01C8608D879B60036
:1017300002281BD1687902280CD18879C00709D00A
:10174000280002F0DEFB0D2189014018408B0206C3
:10175000120E00E000223088002110383080009204
:10176000236F2268300002F07FFC94E003287ED1D2
:1017700022680021300008F0F9F88CE07368012B32
:10178000AAD10128A8D16E4B18681C6894431C602C
:10179000716079606B490C6808310291B1696569C3
:1017A000491CB161010702D5F169491CF161002DA5
:1017B00019D0010764481AD57169491C716104F098
:1017C00064EA80780007800F02280CD10520C00150
:1017D0002918C86A002806D04268521C4260C86AAC
:1017E0000169491C0161200000F0BFF84EE0039040
:1017F00004F04AEA8079C00709D1F1688879800746
:1018000005D56879022802D02800FFF71AFEF06893
:10181000C079022805D1039804F036EA018810390E
:1018200006E0032805D1039804F02EEA0188223946
:101830000180A0884038A080039804F026EA8078D0
:101840000007800F02281ED1404A00922089404A9A
:101850000119404B200004F044EA002816D004008F
:101860000520C0012818C06A002804D000E015E057
:10187000C16D491CC1652000FFF73BF802992000AB
:10188000FFF75AF902E0200038F01AFC2A492A48EA
:10189000AC3100F074F83868002804D1786800286A
:1018A00001D12EF0E5FD05B0F0BDF8B51C000F002C
:1018B0001D6800263100782D01D0772D9A438021B4
:1018C00001000000D01700000002000060681EBE8A
:1018D00004D03100782D00D0691C491C63689942FE
:1018E00001D10020F8BD782D00D06E1C2421714359
:1018F00026600919C860206824235843391D00193F
:1019000002612068182258430019143004F0C2E91B
:10191000206824235843011938002030037E020038
:101920000B77407E4877206824235843127D0019A6
:101930002030C178D206C723920F1940D20011433C
:10194000C1703800403011E09C000004E0E8040061
:1019500000A0009000A80090E42100042C220004C4
:10196000A82E01C0B02E01C0048E050004F096E937
:101970002168242359430919C8620120F8BD10B514
:101980000169002902D1FEF79BFF10BD38F096FBDC
:1019900010BDF3B581B0254835E00298FFF7E3FDAF
:1019A000040034D06768002F2AD00298250081688F
:1019B00008350E000836009118222900301D04F069
:1019C0006AE93100287A20310876687A4876087DFD
:1019D000E7221040EA7B18239206920E1A40104329
:1019E0000875E81804F05AE93100403104F08EE936
:1019F00000993A000831200002F013FC002806D1BB
:101A00002068FFF7BCFF094840680028C5D0074898
:101A10000068002809D10198FFF7D8FD002804D0FC
:101A200002492039086102F068FBFEBD9C000004F9
:101A300010B50C008968CA0010D501221207914325
:101A4000A160217801224907490F21F067FF0101B8
:101A5000206E028B1207120F0A43028310BD70B56D
:101A60000D0004001100FFF7E3FF2079012804D1E5
:101A70000121280043F002FB70BD23F09FFE0028E7
:101A800022D0288944191434280003F023FAE1698C
:101A900028003CF02BF8002811D023F04FFA002842
:101AA00002D023F0CFF808E037F004F9002802D084
:101AB000002024F0E7FB25F08FF8012070BD2800FE
:101AC00003F021FA002070BD280003F074EF89DFD5
:101AD00001000000CC19000000020000A7711CE307
:101AE0001DFB70BD70B5040000890519286F002822
:101AF0000DD0C079022804D1286E018810390180E8
:101B000001E0032803D12000FFF77EFD70BD666968
:101B1000002E08D07079022805D13100200001F094
:101B2000B3FB0128F2D02A0021003000FFF7A1FF0B
:101B30000028EBD120004AF035F800212000FEF704
:101B400080FE70BDFFB58DB0100001240029179DE7
:101B5000169A72D0052801D00628FBD12B006033DD
:101B60000C9318730B90401F0606360EC02070436E
:101B7000FF4B0590C018FF235B1CB3400A90FD4843
:101B8000069340691700034009931023B3409E4613
:101B900003409C46069B1C3F03430893069B9843C7
:101BA00007900A98BC300129049068D10998F14B3C
:101BB0000028039636D160460028764655D1EC4879
:101BC0000599405C00281FD12878002241070D9814
:101BD000490F21F0ADFE6B46998800010907090FF6
:101BE00001430191187900090001187101991098B9
:101BF0003CF080FB0C98017B109804F096E8DD48DF
:101C000041690E43466130E00898DA4906434E6167
:101C100003990D9828F0F8FB002809D10A9910982B
:101C2000487051E061460029704607D0039955E09D
:101C300038000021FEF705FE49E01FE00799C026A5
:101C4000084358610398CA4F464308E00298A978B0
:101C50008170B95D1C38491CB955FFF743FF0398E3
:101C600002A928F08BFC0028F0D0002C5AD0039851
:101C7000C0235843BE4A115C491C115452E002294A
:101C800050D10998BB49002823D1604600287546E9
:101C900040D0B7480599405C002808D10B991098AE
:101CA00004F046E8B3494869A843486132E008981F
:101CB000B049A84348610D98310028F0A5FB0028E1
:101CC000B6D10A98109941700498FEF7D4FD00240B
:101CD00028E06346002B704606D1310040BEF65A1C
:101CE00001000000C81B0000000200005399A25E22
:101CF0000D9828F093FB0128F3D1A3E7079AC0279A
:101D0000824377434A6109E00298A97881709D492E
:101D10001C38CA5D521CCA55FFF7EEFE300002A9FE
:101D200028F036FC0028EFD0002C05D0C0207043EE
:101D300094490A5C521C0A54200011B0F0BDFFB552
:101D400083B00C00FF2189050500C81301903420E1
:101D50000091405D7F260027F600FE2807D0218DE8
:101D60004006B143800D0143012721850EE0280084
:101D7000FF30893003F0EAEF218D4006800DB1433A
:101D80000143218506980078C00728D0E069012129
:101D900009030843E06106990978C9071FD0FF21AC
:101DA000491C084320218843E061687902280AD150
:101DB0000598002803D0059803F0CCEF08E0280030
:101DC00003F03EF904E0002F2BD128003BF029FB63
:101DD000218D4006800DB1430143218521E06879C2
:101DE00002281ED1208D00218005420E012003F023
:101DF000B6EF009B019A184000231140594058400B
:101E000008430ED0280002F071F880300079C10735
:101E100007D0800705D5E069202108438021884349
:101E2000E061208D8105490E032906D857490978BC
:101E3000890602D5B0432830208507B0F0BDF8B53B
:101E4000141806001C203518002930811DD0607838
:101E500021780002084300271E2803D91E3820706D
:101E6000000A01E0380A277060707421280003F02E
:101E70007AEF70690079032803D039F0C7FD012893
:101E800002D10520A87000E0AF70E078FB21084087
:101E9000E070607E217E000208430007000F20767C
:101EA000000A6076207E072100090001207628784C
:101EB000084328702C66042060352873300028F011
:101EC00057FAF8BD70B5324803F050EF040017D050
:101ED000208905196978287802F018F8002810D0B0
:101EE000606168792A792189000210434DC08A8691
:101EF00001000000C41D0000000200004A617C2EA9
:101F000008180204120C01212000FFF7A2FF012093
:101F100012F080FA70BD200003F0C2EE70BDFEB575
:101F20001E4841698905890F7BD01B4F0024FF2083
:101F30001A4A401CA040516903000B426ED0C025D4
:101F400065437B5D002B69D181431020A04008428E
:101F5000516145D01449154817F031F8144A002052
:101F6000EE1914214143535C002B2FD08918897836
:101F7000737899422AD1142358438118081D02917D
:101F800002F037F802990022497821F0E5FC6B460F
:101F90001988000109070DE030220004F8C9040087
:101FA000DC6B0004F426000411111111BBBBBBBB98
:101FB000C0230004090F01430091187800090001B3
:101FC0001870707800993CF0A9F902E0401C0228D2
:101FD000C7D3601D01067078090E03F0BAEE0AE05F
:101FE000FE49FF4816F0EBFF601D0106E819407836
:101FF000090E03F0B2EEFA4E0AE0FA49300016F08C
:10200000DEFF01981C38FFF781FD785D401C785594
:10201000200001A928F0C6FA0028EED0641C022C8A
:1020200085D3FEBDF0B50020C7B013901090EE48E8
:102030000C2201210AF0D4FF28F0D0FAEB48469098
:102040000022E94DD2430092103DE949A8680822D8
:1020500041ABFFF74FFA41980028F1D0400607D571
:10206000002010F025FFE34841684206114341601B
:102070004198C0060AD547F0A3F8DF480722006858
:102080001021FFF76DFA372041F068FA419880057A
:102090001ED5002003F078EE0B270400BF010026B8
:1020A00014E0172040012018007AC1070AD0400729
:1020B00008D5E119CA6A086B904203D320000E6369
:1020C00047F0A4FA200003F060EE0400002CE8D1F1
:1020D0004198000601D526F06DFD4198C00501D557
:1020E00026F0E4FD4198810602D5C44A0021117012
:1020F000400501D500F0C4FC41984007C4E1C0DFB1
:1021000001000000C01F000000020000BE89C29351
:1021100001D5FEF7D6FF4198800711D503F042EEB6
:10212000012897D004E01298B0220021FFF79BFE0F
:10213000E8680422002312A9FFF7EEF90F28F2D174
:102140004198092108427DD0FFF7D0FE01F09AFFA7
:1021500000288CD0A869002800D07BE728F06AF816
:102160000028FAD141F0C0F90028F6D003F01AEEA9
:102170000128F2D0FFF7DDFE13980025002849D092
:102180000020070009900790FFF7B0FE13980F2278
:10219000018909189A484291083803F0A4ED98493A
:1021A000429808398A8810180C9048887D2292013C
:1021B000904200D3FEE792480838007B082803D3FA
:1021C0008F480021083801738D480C9908380FAAF0
:1021D00000F07CFC0128089012D108AB187F00F0B9
:1021E00070FC070080304569280001F0BCFE3E000D
:1021F00014363900743116970120B9611190D4E07A
:102200000C99139800F07BFB050004D11398002172
:10221000FEF735FBC9E2280001F0A5FE040068794D
:102220000C990126032802D12900983100260622A4
:102230000AA803F058ED7248764B0838007B0FAAC5
:102240000AA900E0D1E203F0B2ED002806901DD00B
:1022500071480068002819D070480068007900288B
:1022600014D1674908AB187F2A000839330000F001
:102270005AFC07007421169003F088ED1698390077
:102280000600143674318161012046E00120099076
:1022900017A87421169003F07AED39A8169E1D90A8
:1022A000574814360838407BC00728D028F018F863
:1022B00036F092FB00281BD059480078002817D12F
:1022C00023F0D4FA002811D0280049F067F8012142
:1022D00000914B49002201920839497B020009070D
:1022E000CB0F0121280010F03BFF01E025F02AFA76
:1022F00036F086FC002889D041F09AFA86E72879E2
:10230000012802D06879022804D10C999B91C04819
:1023100001000000BC21000000020000B656334E50
:10232000280001F0D2FE02E0280002F0FDFF11902B
:10233000E27F0C9B31002800FFF71FFD3E49012082
:102340000979C90609D46979022905D113214901FE
:1023500061180978090700D400200D902879002819
:1023600016D1280020304590807D000710D4308D94
:102370008005400E03F028ED0400122003F024ED48
:10238000844205D84598807D8007C20F012104E072
:102390003620405D0D998007C20F300003F018ED24
:1023A0000698002817D0308D8005400E02F096FF69
:1023B000002807D01449C943C84316F014FE012071
:1023C0000E900EE01D49104816F00DFE02200E90F2
:1023D0000120099005E01A490B4816F004FE002080
:1023E000F5E718490120087000F027FE089A0092CE
:1023F000119A42983300290000F05DFA0006000EA1
:102400001C2121E022222222BBBBBBBB333333334E
:1024100008CA0400B8230004FF0F000040A5008094
:1024200044CC040029CD0400C0230004B8000004FB
:102430005CD5040064CC0400DC6B00045555555594
:1024400066666666A4000004139A30AB1181139986
:102450001C314391169C0021A18013994D61169C5B
:10246000FE4934944A88121A1A83429A89881018AD
:10247000081835900020D8766879032801D0012803
:102480000CD1280002F050FF002807D0F348017B50
:10249000280002F055FFF149087312E0287901285D
:1024A00004D1280002F040FF002802D168790228F8
:1024B00009D10C99280001F008FE002803D0E74854
:1024C000007B30ABD8760E98002807D034980121D5
:1024D000806809070843349988600FE01198002844
:1024E0000CD030ABD97E0122280021F049FA30AB64
:1024F000198C00010907090F01431984089A1199E1
:1025000007A803AB07C36B46D4480E9AC0880106E0
:102510001098090E07C315AA139934A8612BD46E1D
:1025200001000000B82300000002000042BE8DF34D
:1025300014AB01F0D5FE718CE1801599002900D013
:1025400078E60028FCD02066469803F0E4EB00090A
:102550004699000103F016EC318D10228905490ED1
:1025600011430843469903F00EECE060206E30AB57
:10257000018B1A8C09071209090F120111430183FB
:10258000BB48407B000706D527F0BEFEA0680121AE
:10259000C907084302E0A06840004008A0606879CD
:1025A000032801D0012808D1B148817B027B4B0070
:1025B0002100280002F007FF0EE01198002803D048
:1025C000AB48007B03F012ECA9490200897B28008C
:1025D0004B00210002F0CEFE0028B1D01498002854
:1025E00009D12879002802D0687903281CD102F08B
:1025F00093FE002818D09E48C088DF2802D13721DA
:102600006D2001559B48002FA08005D008AB187F96
:1026100000F03AFA00F052FA0E98012804D0E0686F
:102620000E2103F0E8EBE060A088002803D0310021
:10263000200002F037FE4298306443987064F089BD
:1026400060820898012820D18948C088E62820782F
:1026500002D18021084301E04006400E08AB207003
:102660008549187F03F0CAEB6C20005DC023401F32
:102670005843824A115C491C115420883084439885
:102680007422210003F0BEEBA0E01498002813D0C0
:1026900028003AF0EEFE318D7F224006D200800DF8
:1026A000914301433185F069A02188430121090349
:1026B0000843F061012009902879012802D0687947
:1026C000022815D1119800280ED00E98002807D0A6
:1026D000210008AB684A187F6C3103F098EB07E0E3
:1026E0006348007B03F082EB03F094EB6C21085508
:1026F000B08920820798002800D02067308D80059F
:10270000400EA070206E80780009082810D14698ED
:1027100003F000EB56490122C988E62900D00022C7
:102720000092020030ABDB7E21003000AAA3D73A32
:1027300001000000B4250000000200005B46538346
:1027400003F076EB0E98012810D15249524816F04A
:102750005EFC08AB4D49187F03F05AEBA0680121DD
:1027600049070843A0600A20307009E049494A48F7
:10277000C94316F04CFC32002100280009F020FF6C
:1027800032002100280002F0C5FC4449424816F0FE
:102790003EFC4148A16816F03AFC200060304490AD
:1027A000017B3D4816F033FC208830844398742226
:1027B000210003F032EB4399009144980194027B8D
:1027C00008AB1B7F0E992800FFF7F8F900280AD004
:1027D0000998002804D1BC4202D101208037387703
:1027E0001398FFF7BBF941980821084202D006F080
:1027F000A3F80BE02A4803F0ECEA002804D12948AA
:1028000003F0E6EA002801D00421017300281390A8
:1028100000D0D3E4002D06D00B2080012818806B57
:10282000032136F04DFF20490020087030E4F8B550
:1028300004000D000026052801D0062C4DD11B4AAE
:10284000601F012157698140394246D0C021414370
:102850000F4A535C002B01D05B1E5354FF235B1CBB
:1028600083403B4205D0505C002802D1012011F08A
:10287000F9FD002D31D0286900282ED00C49034ADB
:10288000002017E0B0230004FF7F0000C0230004F5
:102890003022000477777777BBBBBBBB99999999B6
:1028A000CC260004B8260004A4000004F8C90400E3
:1028B000B000000483005F18142343439B18DB78A7
:1028C000A34207D12868006E008B0009401C012636
:1028D000388002E0401C0228D3DB3000F8BDF8B598
:1028E00004000800344D0699AF8800263C195F6843
:1028F000012916D1EB88020021009832E62B09D07D
:102900000379012B06D04079022801D1891D02E00C
:10291000062B00D1110038001230062203F000EA25
:1029200005E00092244923003A0000F047F8E888C7
:10293000E62800D00C263000F8BD70B5EDDFE0D7FA
:1029400001000000B027000000020000AFAEED3E25
:102950000D001E481D4900784978002400280CD13C
:1029600001F010FB0400007901282DD1280001F0AE
:1029700072FB002828D0040026E0012801D002289C
:1029800022D101F0FFFA04001ED0607902281BD189
:102990002878C0070BD0200001F00DFB002813D0D1
:1029A000092189014018806900280DD10BE0280019
:1029B00001F051FB040001F0D5FA002C04D04030A6
:1029C000007F032800D00024200070BDB023000445
:1029D000FFB583B0040016000F00911C0C98002274
:1029E0000291130069460CC10122F979BB790902F1
:1029F0001943E92900D00022797BC907C90F03F0E8
:102A000026EA0500F879B97900020843EA2803D1DB
:102A1000797B0822114379731721490162182379C0
:102A20002100224F9831012B08D10B00069930006C
:102A300003F010EA26E00120000327E06379022B6F
:102A400015D1069B0A0006999B1D300003F002EA8F
:102A5000012040020543B079C00718D102212000AF
:102A600045F0A8FA012812D1400305430FE0E628FB
:102A700001D10B0000E0069B300003F0ECE9FF20E1
:102A8000401C0543386800790028D4D105430298DA
:102A90000622058030001A30694603F04CE907B081
:102AA000F0BD024800680079704700005CD5040062
:102AB00010B50400FDF71CFF374A01215368A140FF
:102AC00019435160FDF719FF0120800211F0D4FC79
:102AD00010BD3149032010B548600120800211F07B
:102AE000CBFC10BD70B5FDF703FF2C4D2A4E002125
:102AF0000C007268D30704D0A0234B435B198033CA
:102B00001C775208491C02297260F2D3FDF7F5FECA
:102B100070BDA0235843214940187047F7B5050000
:102B200000261E4F3400A0206043C0198030017F72
:102B300001291BD16978027E914217D12978827EC2
:102B4000914213D1297B427E91420FD1FCC71E775F
:102B500001000000AC2900000002000068B7EF632C
:102B6000C17E002908D041690198FF316F310622EA
:102B7000FDF7D5FB002803D102980126047002E07E
:102B8000641C022CD9D33000FEBD30B51C00A0233C
:102B90005843074B4D78C018030080331D760D78DD
:102BA0009D765A61097B5976DC7630BDA800000419
:102BB000D8240004FFB581B0050000201E4C286019
:102BC000206A0E001700002817D0FDF79BFE216A2F
:102BD000002910D00A79022A0DD1096A00290AD0E9
:102BE0002960216A09683160216A496A3960216A6D
:102BF0000A6B04990A60FDF78AFE05B0F0BDF0B5D6
:102C000087B006000F00002504AA05A906A803AB9B
:102C1000FFF7D0FF069C002C0AD0049A01923300E3
:102C20000022009705981100A047002800D0012538
:102C3000280007B0F0BD0000B0060500402101816A
:102C40007047F8B50024160025000028009424D110
:102C50003000694600F0D2F804000CD06B461A88A8
:102C6000642A04D3E188032003F002E902E0032090
:102C700003F002E960816B461888002805D04020E7
:102C800020811888001FA08007E0002C05D03100AB
:102C90002000A580FDF7B4FF00242000F8BDF8B5A2
:102CA0000C000026012B26D0184D042B04D00F2B2E
:102CB0002AD11748210016E0154F143F00F077FC89
:102CC000002804D0022001F0A5F93EF0DFF92089A8
:102CD0000019C179827908021043E52801D10C4F0F
:102CE00028372100380003F0CCE8286807220121AA
:102CF000FEF772FC08E006482100143003F0C0E83B
:102D00006069022106F082FA3000F8BD00CA0400B2
:102D1000CC260004002801DD002004E06521C94321
:102D2000884200DA08004042000600167047662814
:102D300001DD662002E0002800DA0020000600160F
:102D400070470000F8B5040032D025002035287DFA
:102D5000E77EC006860F2000143002F000FD3359D4
:102D600001000000A82B0000000200009C5F51DE63
:102D7000FAEF0002000A002E0DD0012E0FD0022E15
:102D800001D0032E0FD10106CA0F4106490E1000D3
:102D900003F084E808E0380003F084E804E0380039
:102DA00003F084E800E0FF20E076287DC006810F74
:102DB0000B20205616F0E4FBE0720720205616F098
:102DC000C3FBE071F8BD2B4810B5C16944690A0521
:102DD000120DD308006ADB00E3180405240DA2429B
:102DE00005D1012212031140104081420ED15868D2
:102DF00021490068000C884208D020490868401C1E
:102E00000860002010F09AF8002010BD012010BDCD
:102E1000F8B50D0007001A4800260E80006B154912
:102E2000000C1431C860FFF7CEFF00281FD003202C
:102E3000694603F040E8040019D040222100380020
:102E400002F08CEF3800FFF787FF6B461988E180AE
:102E500026610221200021733900403040310600F4
:102E600002F0B8EF3088001D28802000F8BD002057
:102E7000F8BD0000A4270004EFBE0000C82E01C06A
:102E8000C0A30080F1B56120C04384B00027039047
:102E900002900498B90009180520C00109180C6BAC
:102EA000002C7ED0617822780E020F211643890112
:102EB0000E40F6D0064208D00398623005D104983F
:102EC00036F029FF000400140390FF204130064231
:102ED00008D00298623005D1049836F013FF000440
:102EE000001402900025300614D530210A5D0399A4
:102EF00001208A4200DD0020802100912300220071
:102F0000010004985E33303201971FF0A5FE0028BF
:102F100000D08025B00517D53C21095D039A01201A
:102F2000914200DA00200121490200912300220091
:102F3000010004985F333C3201971FF08DFE00289A
:102F400002D0012040020543700616D52A21095DF2
:102F5000029A01204942914200DD00204021009167
:102F600023002200010004985C332A32C180F7BF9D
:102F700001000000A42D00000002000085A78FAE14
:102F800001971FF073FE002801D040200543F00593
:102F900018D53621095D029A01204942914200DA92
:102FA0000020FF26761C23005D332200363201000C
:102FB0000197009600E015E004981FF057FE0028E6
:102FC00000D03543002D0DD0002F0BD104981521D2
:102FD00049014018818A2943818201210498C90648
:102FE00006F028F97F1C3F063F0E012F00D25AE75A
:102FF00005B0F0BDF3B500240500260081B0A000A7
:1030000005214019C9014018006B00284BD04178B8
:10301000027809021143490745D502990969002937
:103020000CD101006031330A4E708B70C07C0A00F5
:103030000121002800D00100117034E0010060314E
:103040008A784B7812021A43521C1204120C130A8B
:103050004A708B700B78002B25D0877CBA4222D324
:103060005B1E1A06120E0A701DD1320A4E708A704B
:10307000C27C002A01D00A7008E041780278090277
:103080001143042291430170090A4170002C0AD1B6
:10309000152040012818818A04221143818251069B
:1030A000280006F0C7F8641C2406240E012CA6D3C1
:1030B000FEBD4349C868401CC8607047F0B51D009C
:1030C0001FB40020C04384B00090019004980521F3
:1030D000C9014018046B002C42D0607821780002AE
:1030E00008434005002700283ADA02F0F2EE069A7B
:1030F0000E002B00121A8B41029005D2069A0298FC
:103100003100801AA94107E0069A00980199801AB7
:10311000029AA94180187141060020000D004A3032
:1031200002F02AEE2B00321ABB411BD3244EF0884A
:10313000401C05042D0C20004E30F58002F01CEEE2
:10314000A8420DD8F7800498152149014018818ABA
:1031500001229202114381820498510406F06AF818
:1031600009B0F0BD1648C780FAE70522D2018018E1
:1031700010B5046B002C1FD060782278701D5D5A4A
:1031800001000000A02F000000020000714F311369
:1031900000021043400519D5487D02F0A8EE4034E6
:1031A000E179A2790B0213430A49002298420ED812
:1031B0008888401C0004000C8880637A247A1B02F3
:1031C0002343834202D8012008818A8010BD0A81EE
:1031D000FBE70000BC000004F8B504000020060076
:1031E00000900D000127200000F00DFFA879C00716
:1031F00004D1002C04D0607AC00620D50020F8BD90
:1032000028002CF06DFA0028009023D0009820F0C0
:103210005FFB040004D1032000F005FF040019D077
:103220002079022804D1200017F01FF8002811D0BF
:10323000207903280BD1607900280BD007E020000B
:1032400035F0E0FC002801D0022700E00127287BB0
:10325000C00701D001261FE02079290038F010FDB9
:10326000B84219D901260727032800D0062760791C
:103270000C35022805D13A00290020001AF0C4FAC2
:103280000AE0009802F036EE002805D13A00290045
:103290002000002302F032EE3000F8BD70B50500CA
:1032A00000F0B1FE0400280000F084FE0100C668B2
:1032B0004C30027C28000C318030012A0CD90A7D68
:1032C000012A04D10722D201A218126809E00D22B6
:1032D0009201A218D26B04E0012A03D1427D520070
:1032E000521C0A60C18A094802F00CEEB0420BD3AE
:1032F000280017F07FFA002806D0FF207530415BC8
:103300000022280018F026F870BD00008813000085
:1033100070B5050000F04EFE0400280000F073FEBA
:10332000112201005201891849880C34002001291A
:1033300003D1616F012900D1012070BD10B58978DA
:103340000A07930F022B04D10B09042B08D00C2B76
:1033500006D0920F02D10909052901D044F0DEFD03
:1033600010BD0000F3B583B00600370000890025CA
:10337000811901200190049802912CF021FA00900B
:10338000049800F040FE02990C6EA27832D3B44348
:10339000010000009C310000000200000F5496A3C1
:1033A00011078B0F05D11209052A02D100200190C7
:1033B00079E0A279D2072BD0C3229200801800684E
:1033C0000028F3D0E078C009F0D1880F09D1049823
:1033D000310017F013F9060018D0A0780007800F0D
:1033E0000ED00121300046F0C1F9002808D07D48F8
:1033F000316981420AD1300046F014FA032805D120
:103400000498310017F058FA00284CD001254CE000
:103410000098007D0128C9D104980622FF30A11D23
:103420006F30FCF7A4FF0028C0D1A0780107890FF6
:1034300005D100090C2802D1049817F04FF904981F
:10344000310017F0F9FB0028E0D0A0780007800FCA
:1034500009D10498310017F0D1F80600D6D0A07831
:103460000007800F0ED00121300046F07FF90028C0
:1034700008D05C4831698142C8D1300046F0D2F9A9
:103480000328C3D10498310017F016FA00280AD097
:10349000012500F0B4F8002807D0022000F0E2FD7A
:1034A0003DF01CFE01E0BE4223D0002F17D0A078D3
:1034B0000007800F06D0029800216030007BFFF7E4
:1034C000F2F908E0002D06D0029A0498210017F0C6
:1034D000CFFE002803D000213800FDF72AFA002D86
:1034E00007D0002E05D0BE4203D000213000FDF7EA
:1034F00020FA019805B0F0BDF8B50D0006001700E0
:10350000FDF728FA0400002E24D030002CF062F9D8
:103510006D214A5D0021312A16D0322A1AD160303D
:10352000027A012A16D1427A002A04D0521E1206CB
:10353000120E42720ED1012F0AD128784107490F8D
:10354000300017F090FC05E060300172417200E03D
:10355000017281722000FDF702FAF8BDF3B581B067
:103560000E0001982CF036F904003820805D4507E4
:103570006D0F280002F080EC01000198002830D087
:1035800001980B2292018018C069002829D02000E0
:1035900060300700007A012823D0E06E3DA2C4D03D
:1035A000010000009833000000020000FBBC281E50
:1035B00017F027FC00281ED0207D01281BD13000E9
:1035C000403002F0F8EBC178C90614D580780107C5
:1035D000890F02290FD1000900070CD5012038728C
:1035E000A17FC80703D00198002206F005FF0198CB
:1035F000290017F042FCFEBD300100041E4800689F
:1036000070471D480068002801D101207047002044
:10361000704710B540F0ABFD002805D0FFF7F1FF73
:10362000002801D0012010BD002010BD10B540F0D1
:1036300099FD002805D0FFF7E4FF002801D0012004
:1036400010BD002010BD10B50400FDF751FF00288B
:1036500005D1052C05D100F0BDF8002801D00020CF
:1036600010BD08F03FFB002803D10448006B002880
:10367000F6D0012010BD000008CD0400102C00047D
:10368000154810B50068002816D1144800220068BB
:10369000462102F098EB00280ED111490A78002A41
:1036A00002D00870162005E00E490A78002A03D0DF
:1036B00008701B203FF0C0FF10BD10B50A4CA08859
:1036C000002807D0FDF714FF002803D034F016FEC1
:1036D0000020A08010BD0000C8CC0400E4C8040095
:1036E00061CC040062CC040028CD040070B5354ADA
:1036F0000169914201D0002070BDC07B32490C5C51
:10370000FDF732F9304BA100304C103B5A58645849
:10371000A24204D92D4D2D1F2C68641C2C60521E12
:103720005A50FDF726F9E6E7FFB581B000240700FF
:103730002448874206D0039A0299380002F0FAEB37
:1037400005B0F0BDFDF710F9009004981F49850001
:103750001D48495910384059884201D201260CE0D1
:103760001A49091F0968002906D01849103149591A
:10377000884201D2022600E00026002E1CD0039AC7
:103780000299380002F0D6EB040015D0E17B0E4A16
:1037900004985054100010384159491C4151607B25
:1037A0000121084360730A48022EA061015E94194A
:1037B000010000009435000000020000E244F66EB3
:1037C00004D10749091F0868401E08600098FDF7EA
:1037D000DAF82000BEE7000030010004B4680004FD
:1037E00084020004D534000001488089704700003D
:1037F00044CD0400F0B5002593B02EF06FF8FF4FD4
:103800003C69FE4840300668300706D506F0BAF835
:10381000FA480821C94340300160301EF84E17DADB
:1038200014202EF0E5F9F748C06B00280CD0B068E2
:10383000401CB060402010F065FEF0484030416808
:1038400049004908416003E0EC49EF484031086015
:10385000EE4920000840EE4909780843716A0843A0
:103860007062FFF7D8FE002817D0706A002814D1C4
:10387000E848002200681B2102F0AEEA716A0843A2
:103880007062706A002808D1E248002200680821AE
:1038900002F0A2EA716A0843706202F05AEBE0019A
:1038A00001D5DD48386120060CD5DC480168491C8B
:1038B000016008F021FA002802D0042010F022FE56
:1038C0003CF0B0FEA00301D5D5483861002C07DAE2
:1038D000D448072200680221FDF7BAFECA483861C1
:1038E000200502D5D04801253861D04861011290E9
:1038F00071D500200390029007AA08A90CA806AB76
:1039000039F076FE002804900DD002200543000611
:103910008443C043386108980C3000F0E2FB002873
:10392000029000D1049040F027FC002806D0C04946
:103930000020C861BE49202040310860049800285A
:103940007DD002980079012803D102F0EAEA716380
:103950003063FFF775FE00280AD0B648806C002857
:1039600004D101210298890305F08CFC15F0CEFDED
:10397000029802F0F2EA00287ED00298007901282D
:103980002AD1089900294DD00298123120F05AFC12
:10399000002847D01299002002F04EEA9948C0381A
:1039A000806BA44900200865B06A00283AD1A2487B
:1039B0000068401C36D00121029889027F0393FFE2
:1039C00001000000903700000002000016AC48D350
:1039D00005F062FC0120B06202990B2080010818FA
:1039E000806B042135F0C6FE26E0EEE000201AF0E0
:1039F000CFF8039040F0CFFB00281BD0029840F096
:103A00008FF8019002F096EA019AFF32521C11924F
:103A1000D16190610799119A4B68086853626B46AF
:103A200010621A8B0C310C3A052002F0A4EA119AAC
:103A30008078906243F0D2F83FF0FCFD0006000E63
:103A400005900C98C17E0B91C17A0A91C1790991B8
:103A500000E0B8E0FFF7BCF90C99029840F0E9FEED
:103A60000C980B99C1760A99C1720999C17140F0FD
:103A700097FB002874D0FFF7D8FD002870D003987A
:103A800000286DD0059800286AD100E08BE040F056
:103A900082FB002864D1FDF73FFD002803D12AF006
:103AA000E1FC00285CD0F069012807D06848008854
:103AB000002851D06748008800284DD06B461A8BEB
:103AC00007990C3A0C31052002F054EA01000298E3
:103AD0003BF026FC019060480068002806D002F008
:103AE0007EE9022108430199084233D14E48002261
:103AF00000681B2102F07AE900282BD1029810F00F
:103B00002CF8002826D1554802F068E901990842AE
:103B100020D15048008800281CD051490198084203
:103B200018D16B461A8B0799029802F028EA0028F0
:103B300010D0022085431AF025F8052002F022EA71
:103B40000004000C052102F022EA0298012105F090
:103B5000A3FB01E001203062002070620DE0FFE76E
:103B6000F069012807D03A480088002805D0394874
:103B70000088002801D001203062029804F07CFF08
:103B8000002814D00598002811D0FFF74EFD00281A
:103B90000AD034F099FF002806D135F0A9F80028A2
:103BA00002D10120306202E0082010F0B5FC306A3A
:103BB000012808D10020F0612649088002208543B1
:103BC00003203FF04DFD274838612001ADD4ADFA08
:103BD000010000008C39000000020000D1B54A8EBF
:103BE0007ED53868800705D5002101201FF036FEFC
:103BF0000C900BE03868C00773D030781FF04AFE95
:103C00000C9016F064FB0028F6D00C980028F3D036
:103C10000C988030006B406820300B900C9836F088
:103C2000ABFB2BE000A5008080CD0400C0A8008085
:103C3000FFFFFF7F80880000A4000004E4C80400A8
:103C4000FFFFFFFE74CC0400FFFFFDFF4CCF04001C
:103C5000FFF7FFFF386C000400A600805C2C050015
:103C60007CCD0400840A05003CCD040000C904009A
:103C700024CC04000B800000FFFFFFFB0B98807A30
:103C8000C00731D00C98407902282DD10C9816F03D
:103C90001EFB012828D10C9800F0E7F94721C90044
:103CA0000A90401809902030007900281CD0099A09
:103CB000099925320C982D31109202F076E90A9874
:103CC000406C002810D00999109A0C982E313BF0C6
:103CD000CBFD0A984030807A800705D50C9801E02A
:103CE00088E04BE00FF04BFF0B98807A800745D5BA
:103CF00040F056FA002806D0BB490020C861BA49F6
:103D000020204031086015F04FFCB848806B0D90C2
:103D100015F064FB02F04CE90C9802F04EE9002823
:103D20002CD0B34800680F90401C27D0129802F0A6
:103D300060E80D994018129902F092E801003428C9
:103D400005D1B06A002802D0AA4A012010650800F7
:103D50000F99884212D3B06A00280FD01299002020
:103D600002F07EE801210C98490205F09FFA00203C
:103D7000B06202F026E99F4900200865FFF767FC62
:103D8000002835D0022000F095F90A903FF0D2FECD
:103D900009900A9800F069F908900A983FF0BCFE73
:103DA000079007203FF066FC8F480169026A079878
:103DB000008802281CD1002901D0012A18D10998B5
:103DC000C030007E002813D107984068C00707D094
:103DD000089809218901401880690028CD2072BA0D
:103DE00001000000883B000000020000255DF43364
:103DF00008D104E0FF2010F019FC002802D01320A5
:103E00003FF042FC81483861A00101D5804838610B
:103E1000002D05D07F48072200682900FDF736FCF9
:103E2000E00073D540F0C6F9002807D0012149040D
:103E3000002005F045FA74490020886421F032F929
:103E4000002801D020F038FF3868C0075CD07248E5
:103E5000806A0006000E30701FF026FD05002BD092
:103E60002800A0308179491C0906090E8171427928
:103E700091427ED10021817101790029F9D16649F1
:103E8000496B427B01239340FF22521C1343624A39
:103E900019435163697902290ED15849407B403159
:103EA000886056480169006A012901D0012803D1C0
:103EB0000121280016F0D0FD287903281DD1280003
:103EC0001FF022FE0C906879022807D10C98203050
:103ED000007B800702D5280011F088FE0C99152080
:103EE000800108180E904068002806D0082128009C
:103EF00002F074E80E9800214160FFF7B2FB002841
:103F000002D006203FF0C0FB44483861E0020DD5E6
:103F1000012020F0C1F9002806D03B48012181642E
:103F20008903002005F0CCF93D483861E00702D054
:103F30000120C0433861A0070DD57068401C706037
:103F4000102010F0FDFA0220C04338610120C003A8
:103F50008443C0433861200405D5324807220068F5
:103F60000121FDF793FB600707D5F068401CF06066
:103F700000E026E00420C0433861200705D5306901
:103F8000401C30610820C0433861E00605D57069E7
:103F9000401C70611020C0433861A00605D5B0698F
:103FA000401CB0612020C0433861F069002801D175
:103FB0002DF070FC1C488168420D1143816013B0E4
:103FC000F0BD154B586B317801228A409043D90DD2
:103FD0000843586370E770B504000D00102018F016
:103FE00057F9002807D1104901208002B27E2A9596
:103FF00001000000843D0000000200003CA52A43AF
:10400000C86029002000FFF71DFC012070BD0000E2
:1040100000A6008000A800807CCD04005C2C050078
:10402000FFFFFFF7FFFFFFFD44CC0400C0A20080AC
:10403000FFFFFFEFFFFFEFFF4CCF040000280080E1
:10404000002100280AD00279022A02D103210902A4
:1040500003E0032A02D16121C9004118080070471A
:1040600070B505000E00FCF7B1FC62494C680AE02F
:10407000A179A94206D1E179B14203D1FCF7ABFCA9
:10408000200070BD2468002CF2D1FCF7A4FC0020B5
:1040900070BD01000020002906D003230A791B020D
:1040A000C918022A01D108687047032AFCD1886820
:1040B000704770B50500FCF789FC4E494C6807E075
:1040C0002179A94203D1FCF786FC200070BD246849
:1040D000002CF5D1FCF77FFC002070BD454902287B
:1040E00001D108697047C868704710B5FCF76EFCCD
:1040F0004049496807E04A7AD20603D5FCF76BFCD1
:10410000012010BD09680029F5D1FCF764FC0020EE
:1041100010BD2030407DC006C00F704710B50400B0
:1041200001F06AEF0321090261184860002008725B
:1041300010BD70B50600FCF749FC05002D48446829
:104140000EE02000FF30062231006F30FCF74BF903
:10415000002804D12800FCF73EFC200070BD246834
:10416000002CEED12800FCF736FC002070BDF8B51D
:1041700005000F00FCF72AFC06001E48446810E00A
:104180002079A8420CD12000062239009830FCF793
:104190002AF9002804D13000FCF71DFC2000F8BDEE
:1041A0002468002CECD13000FCF715FC0020F8BD91
:1041B00070B5FCF70BFC05000E48446800E024686D
:1041C000002C09D0200001F01CEF0128F7D12800B5
:1041D000FCF701FC012070BD2800FCF7FCFB00206F
:1041E00070BD0978C90701D000207047407A0007E8
:1041F000C00F7047A04E01C07FB582B095E9C18362
:1042000001000000803F000000020000C84D94FE45
:1042100004000C336F480A9E04601D000020FDF767
:104220005FFA6D4901200860E07840210843E070A2
:10423000A88D20842000002120308170B101203120
:10424000C170A86A6062FCF7CBFB06006B46187C65
:1042500000224107490F0192230000912188283351
:104260002A00200001F0DAEE208810302080300093
:10427000FCF7BBFBA88D401C0004000CA88502D1F4
:10428000A86A401CA86206B070BDF8B501890C1878
:10429000256F4069E979266E022917D141790229F3
:1042A0000BD1B179C90708D0FFF7FDFE0D218901B7
:1042B0004018408B0206120E00E000220092226895
:1042C0002B0000213000FFF7A1FF07E0032905D1F3
:1042D00022682B000021300005F01AFC0020F8BDF8
:1042E000F7B588B004000F0046690800403001F0BF
:1042F0009EED069024300590C07880062ED5A088CB
:10430000103805042D0CA580603D002D26DD3800F9
:1043100020300790007E314A41070698490F0C3043
:1043200001F088ED2E49096888421AD3300020F048
:1043300023F8002815D00A99059804AA03AB01F0C8
:1043400072EE00280DD0002E08D00520C0013018D4
:10435000C06A002802D0416D491C416500200BB0A5
:10436000F0BD2048442204603900083001F05AEDC5
:104370000120FDF7B5F91C49012008601B490A9886
:10438000086007980122007ED2024107490F01927E
:1043900000910A9B2A0405990698120C0C3301F02F
:1043A00046EE6B46198A039A0A9801F044EE012002
:1043B000D5E710B5D37904000020022B03D1206883
:1043C000FFF78EFF10BD032BFCD1206810F0A0FD7D
:1043D00010BD0000840000047C000004E8230004F9
:1043E000582D0104E421000480000004880000042A
:1043F00010B501F024EE10BDFFB5DFB005000020C0
:104400005C90686800275A9006205997850E63B41F
:10441000010000007C410000000200002D1AC9F9D3
:1044200036975890FFA005C83E000B973492339002
:1044300008894018099048690A90FFF73EFE0890E5
:104440002C6869981434E62800D1589700200E9003
:104450000D900C9060688079C107F4480A9902D0E9
:104460000818406A01E00818806A002802D06B9999
:10447000083008606D98002818D160688079C007FE
:1044800003D10A98007AC00710D06B980068002802
:104490000CD10A98007A400704D40A982030407D55
:1044A000000703D561980121016082E228000830ED
:1044B00058AA33A96B465E9007C30BAA619B5A9911
:1044C000699801F0CAED629908600A98007900289D
:1044D0002BD1D7498A7B022A27D26998052801D196
:1044E0005A980CE06998E62802D15A98143006E0F0
:1044F00008AB187B589BC01A5A9BC018801D0378C4
:10450000082B11D14378002B0ED1801C03781B0996
:10451000042B01D1407A02E0062B05D180790628D0
:1045200002D1521C8A7300E08F736B9800210068DF
:10453000002803D0827AD20700D0012162689379E3
:10454000DA0703D10A9A127A92072BD5689A032ABE
:1045500028D00A9A2032527D1207D20F0E9221D112
:104560000A9A127A57070CD5C279012A01D101277C
:1045700000E000270D970127022A00D000270C97A2
:1045800010E0D20603D5002901D001260AE00A9ADC
:104590001279012A06D1002904D0C279022A01D158
:1045A00001220C920A9F012220377F7D3F0707D40A
:1045B000002904D0002802D0807A800700D400228D
:1045C0006898032814D062980068002807D10A98D8
:1045D000007A80070CD4D80700D163E708E0002AEE
:1045E00006D0002001000E900C900D906B98016099
:1045F000002E06D062980068002802D06B98002632
:10460000066061990020086035AA36A901920091E0
:104610000C9A0D990E98330001F022ED72EC2125D1
:10462000010000007843000000020000D9F2774446
:104630006D98012802D10120A8725EE00C990D98B6
:1046400008430E99304308430FD060684022C17878
:104650001143C1706B980068002802D0807AC007AF
:1046600003D1619901200860ADE16998E62802D084
:104670006A98002801D001200DE00A98589AA030CD
:104680000088599000922E8930AB1A7D6C993300C6
:1046900059A801F0F4ECA872E069C005CBD4A87A5F
:1046A000012827D960680422C1781143C170664887
:1046B0000079C0060AD40A98407902281AD10898CD
:1046C0001321490140180078000713D5208D80057B
:1046D000400E03280ED95C494031897D490609D432
:1046E00038F050FF4006218D800D7F22D20091438B
:1046F00001432185A87A012812D108AB197B5A9869
:1047000030AB40185899401A597D401A2038099901
:1047100080088000743188425B9006D25B9104E08F
:1047200009987430800880005B905B985C900FA8BB
:1047300050ABE860998C08AB187B5AAA04AE07C648
:1047400035A95E9A589801AE07C65BAA0092A87A6E
:1047500048AA0FA938AB01F096ECA97AE868491E7F
:1047600001F094EC589A002A05D0E86833A98068D3
:10477000801A01F06CEB6768489860606D980028BB
:1047800017D16998E6280FD06A9801280CD038987C
:10479000BA1D01040A98090C00F02FFD002803D06F
:1047A000E06901F078ECE061E06901218902884369
:1047B000E061002603E10D99002907D0401EB042B8
:1047C00004D1B00038A90A5808320A50B00038A9FC
:1047D0005D9008580204120C3A80A87A401EB0423C
:1047E00051D1F878FB210840F870E069810701D0C9
:1047F0001E2100E01821091D51180904090C6184CB
:104800006C9A002A01D0891C6184410508D50204F4
:10481000208D120C8005410E0A9806F06DF8B880C4
:10482000E06981061AD56C9A5D99009258BF82C3DF
:10483000010000007445000000020000C00AA93415
:1048400038AA5158BB880A04120C09E0AAAA03002E
:10485000000000008002000050070500DC6B00042F
:104860000104208D090C8005400E06F0A7F812E027
:1048700001060FD56C9A5D99009238AA5158BB88F1
:104880000A040104208D120C8005090C400E01F071
:1048900010EC00E00020E0814AE0E069410510D51D
:1048A0006C9A5D99009238AA891849680204208D93
:1048B0000B048005410E0A981B0C120C06F071F8CF
:1048C000B880002E34D1E069810616D50204208D0F
:1048D000120C8005410E0A9806F018F803006C9A35
:1048E000389800920204E069120C0104208D090C32
:1048F0008005400E06F062F819E0010616D50204A4
:10490000208D120C8005410E0A9805F0FFFF030070
:104910006C9A389800920204E069120C0104208D10
:10492000090C8005400E01F0C4EB00E00020A081DE
:10493000288A48A900090001304338835D98202265
:104940000858390001F08CEA30AB187E012809D1F3
:104950006B9838A902685D9848AB0958185801F05F
:10496000ACEB35E0022833D15D9848A9095837915E
:1049700038A9085830AB197D401A37990004000C4B
:104980000880A97A491EB14202D1379908380880B7
:104990000A98407902280BD137988079C00707D050
:1049A00008980D2189014018408B03061B0E00E07A
:1049B00000236B98E97A02683798FFF737FDA87AE9
:1049C000401EB04204D137983799008808300880DB
:1049D000761CA87AB04200D9F7E65C9863B0F0BDC7
:1049E000F0B50026B7B01D961C960022D243FA48B7
:1049F000009200690822032135ABFCF743FE35988D
:104A00000028F2D080072BD568461A9023E00620B4
:104A100001F0FEEA0004000C062101F0FEEA1A9CF7
:104A200020000C30FFF7ADFB05002100FEF742FC33
:104A3000012810D0002D0ED0A07800070B6745CAC2
:104A400001000000704700000002000034E21789F6
:104A5000800F012809D12A6B0AA9002A02D0280058
:104A6000904702E0280029F0B9FF0AA838F040FE7C
:104A70000028D6D13598C007C1D000201B90A8E2ED
:104A80001E98209F4569FBF7D3FF0400002F06D036
:104A90001E9800F028FB002801D0012000E0002033
:104AA0001F902000FBF7C9FF012020AB3490587EF7
:104AB0002499000208431E993C6E48811F980028E3
:104AC00054D0002D02D1FBF7B3FFFEE72099280058
:104AD00020AA21F083FD012803D11E9800F0EAFAF4
:104AE00077E22879012806D1386E8079C00702D193
:104AF0002800FFF745FBA079C0071BD16879022881
:104B000018D1209901222800FEF764FDA078000743
:104B1000800F022805D12498002802D12800FEF732
:104B200035FC2800FEF76CFC002803D0210028008B
:104B3000FEF77CFCFEF7D1FD002817D020986030EE
:104B4000407B142812D0152810D035280ED0249878
:104B500000280BD1A0780107890F02D10009052890
:104B600004D00220FFF7ECFA3CF026FBB868800086
:104B70001F984FD500284CD020F0D0FA002801D043
:104B800020F0CEF9209820A96030007BFDF7F9FED7
:104B9000012800D11B90FEF798FD00281BD0E0787B
:104BA000C006C00F401E28430AD12879012807D02B
:104BB00034F070F9002803D134F004F900280AD049
:104BC0008B490868401C08603CF064FAB86800280B
:104BD00001DA3EF0F5FE22F001FE34F0F3F8002891
:104BE0000FD034F0D5F800280BD182480078002887
:104BF00007D081480068032803D2002128003BF039
:104C000043FD1E980021FBF702FF280020A92BF08E
:104C100011F8D8E100287ED020A825F075F9002DE4
:104C200000D02879B868002801DA3EF0C9FE20F0EB
:104C300075FA002807D06C20C05D072803D204282D
:104C400001D020F06DF9A07801078A0F06A3184D56
:104C5000010000006C49000000020000F3FB15D4C5
:104C6000022A74D1280020A9FEF750FA209820A922
:104C70006030007BFDF78FFE012800D11B902800DB
:104C800020A93FF038FE62498872000AC8722800E5
:104C900020A92AF0D9FF280020A9FEF7F2FA6879A6
:104CA000032801D0012803D1280020A900F0DCFC52
:104CB000FEF715FD002813D0E078C0060AD5287944
:104CC000012807D034F0F0F8002803D134F084F83C
:104CD000002805D04B490868401C08603CF0E4F906
:104CE00022F086FD34F078F800280FD034F05AF81E
:104CF00000280BD144480078002807D043480068BA
:104D0000032803D2002128003BF0C8FCFEF7EFFC8B
:104D1000002820D020986030407B14281BD1280028
:104D20003EF04AFF2499002900E052E100880FD1AB
:104D3000022801D113260EE028003EF04BFF0600AA
:104D400001F052E98036F164B0641E2603E07FE092
:104D5000022800D01F26A0780009042801D00C28C2
:104D60002AD16037787B13283FD015DC10282CD04F
:104D7000112821D012281FD1249800281CD120F0FE
:104D8000B3FE002818D0E078C00615D501F02CE954
:104D9000204A516510650FE0152816D016282BD033
:104DA000352809D12498002806D0FF207530415BB2
:104DB0000122280016F050FB20986030407B3028FC
:104DC0002AD11E982AF060FC07E124980028E07898
:104DD00005D1C00601D50E26EEE70D26ECE7C0068C
:104DE00001D51126E8E71026E6E72498002801D12E
:104DF0002F26E1E73026DFE7249820F0EDF9DBE706
:104E00003CCF040078CC040063CC040080CC0400C8
:104E10002C6C0004D02B0004372805D11E992800E3
:104E20000EF0A4F90028CFD1A0780009042806D0FC
:104E30000C2804D020986030407B5A2803D11E985B
:104E400001F00AE8C9E01C991E98FBF7EAFDC4E0EE
:104E5000890F49D1697902291DD1209AF550A86C92
:104E600001000000684B0000000200000713AB695E
:104E70002100280016F07EFA3490A07800090D2851
:104E800036D1249801273900002800D000211E982F
:104E900024F064FBA07800090D2829D12879032883
:104EA00026D139001EE000211FE0030901F026E9A8
:104EB0000E202020202020202020082020200D202F
:104EC0000020349014F0E4F912E024980124210029
:104ED000002800D000211E9824F040FB28790328E8
:104EE00006D1210024980028DDD11E9845F052FB00
:104EF0000020359034980028ABD178E0012A76D193
:104F00000009082838D00A2802D00E28A1D06EE067
:104F1000FBF7A2FD040021F01FFD524A1078002883
:104F200009D051498868401C886000200100107039
:104F300028003BF0BDFB1E9800F098EF2498002855
:104F400014D01D980A2811D20FF067FB00280DD14C
:104F50001D98401C0006000E1D9020F0E7FD002863
:104F600006D1012128003BF0A3FB01E000201D90A9
:104F70002000FBF776FD3AE01994FBF76DFD002465
:104F80001A903A49A0004018871C189014206043DA
:104F900037490A5C002A1FD040183690417819988A
:104FA000203040780009814216D136981999001DA9
:104FB0000622891DFBF75DFA00280DD1387018987C
:104FC000012100880903884206D03698189A417852
:104FD0003B00280024F074FC641C022CD1D31A98E6
:104FE000FBF73FFD35E720480168491C0160002EB2
:104FF00003D030003EF098FB002620A800F0A5F971
:1050000000281E9000D04FE520F09CF8002811D019
:1050100020F09CFD002807D020F08EF8154A536937
:105020001269121A8B4103D322F07CFA002801D0B6
:105030001FF00CFF1B98002801D024F0D3FC0F496F
:105040000D4808610E4801694069814200D1EAE4D7
:10505000054807224168491C416000690121FCF7AD
:1050600065FBE0E4B2C904003CCF0400BD379E6993
:1050700001000000644D0000000200001EEB7519E5
:10508000B0000004C023000498010500FF7FFFFF6B
:1050900000A5008000A0008010B5040005F004FA0F
:1050A000002801D1012200E00022002A16D1294B5C
:1050B0002069E17B984201D100200DE0264B984207
:1050C00001D1282008E0254B984201D12F2003E090
:1050D000234B984202D13420FF2905D13720002AE2
:1050E00001D0012100E0002140180006000E10BD93
:1050F000F8B50500FFF7D0FF1A49C0004418206832
:10510000194E002803D0B088401CB080F8BD684616
:105110002560FBF7B4FC009860603078401C30706C
:10512000F8BD10B50400FFF7B7FF0E49C0004018E6
:1051300002680D49A24204D0C888401CC8800020E3
:1051400010BD002213000CC00878401E087001201A
:1051500010BD0000300100046C010004FC010004DB
:105160004C020004FC68000450CF0400F7B584B082
:1051700004001500FBF77AFC002C02900CD060793B
:10518000022809D0FDF74BFD0100059800F0C4EF9F
:10519000B9490A6880180860B848AC000059039003
:1051A000B64838300659072D17DAB54F3859002858
:1051B00013D0B4480059012807D102E0280038F084
:1051C0002BFD38590028F9D107E000203851AC48B0
:1051D00038300059C105C90D3160AA48005901286D
:1051E00005D105983200290000F09AEF1DE01FF06C
:1051F000B3FF002809D020F0B3FC002805D0072D0C
:1052000003D10598290020F015F99F4A0092039ACE
:1052100005983300290000F088EF002805D1029896
:10522000FBF729FC002007B0F0BD0298FBF723FC38
:105230000120F8E7C03010B5027A0100407A8242BE
:1052400001D3100010BD887AC97A8842FAD200F0E2
:1052500070EF002801D1032010BD092010BD70B5EA
:10526000040010780D001100C00719D12079012821
:1052700002D06079022803D12000FFF7EE13C69612
:1052800001000000604F000000020000EA03CBA410
:1052900002F802E0200000F02DF90006000E01D017
:1052A0001E2000E01C208034E18B2818884201D9A0
:1052B000012070BD002070BDF8B514000600D06953
:1052C0008F78C00407D488688000C10F30000DF0CB
:1052D000A7FCE062F8BD3900300023F0E4FE0500D1
:1052E0000020002D02D1300023F0B6FE03006C48F0
:1052F000390000798006C20F00922A00200000F0D9
:1053000026EF172040013018007AC10701D180072D
:10531000E0D5208D20348005410E207AC007C00FD3
:1053200033F09CFD0028A07A02D04021084301E020
:10533000BF210840A072F8BD70B5040000890619AD
:105340002000FFF7DFFE35006035143608E020004E
:10535000FFF7F1FE012008F052F82000FFF7D2FE1F
:105360002A7B60693100FFF70BFF0028EFD0012096
:1053700070BDFEB5012104000020216106002060FF
:10538000FBF77EFB01904748026801694769C80541
:10539000F905C00DC90D88425BD03806000E0D21FD
:1053A0001043090208430568002D4DD0502120000C
:1053B00000F0DCED686C2060016E060089781C3E10
:1053C0000907890F71690091E96961606A88D207EC
:1053D000D20F22618068800036D4287820736878E4
:1053E0006073C80415D5288D8005420E2800203032
:1053F0000290007A4107C007C90FC00F00F0AAEE63
:10540000207560750298807A0007000FA075002053
:1054100000E0E86AA0606888C00711D120612168B7
:10542000012014F02BF92068006E80780007800FAF
:10543000022809D16B692A690098FDF7E9FE03E0AB
:105440002168002014F01AF93F1D1649F805C00D17
:1054500048610198FBF719FB3000FEBD38B5040028
:105460000D0000F0E0ED04226066A25E00920200F2
:1054700028000B0000F072EEA088002804D0688895
:105480000121C9030843688038BD0000970C3E57CE
:10549000010000005C5100000002000094186C1430
:1054A0007CCC0400A4020004F4E703C088240004B8
:1054B000704F01C0DC6B000400A0008002000021DE
:1054C000012010B500F058ED054A136852681840E5
:1054D0000023114059405840084300D0012010BD1E
:1054E00088DB04000748807C002808D10548002399
:1054F0004038C16E806E59405840084300D00120AA
:105500007047000080310500002805D00B2189017B
:105510004018C06B002801D1002070470078704708
:1055200003000A0000B5FFF7EFFF002807D00B20AB
:1055300080011818C16B60205043AC30085C00BD7E
:10554000FFB5080014001D006E46924F8ECF8EC628
:10555000103E818800290ED18F496200496AA43229
:105560008B5A8E4FBB4212D0AB4202D8002004B0FF
:10557000F0BD895A8180A100715809688288511A4A
:10558000491B09040914818001D101218180012076
:10559000EDE7FFB581B00E0007000120844600252D
:1055A0003800FFF7B1FF34006034002802D03879AA
:1055B000012802D1002020731EE0FF2A19D06021AB
:1055C00051430B20800138180A00C06BAB31455C99
:1055D000A932825C049B31003800FFF7B1FF00283C
:1055E0000AD1B178012238002AF08EFB002005B0E4
:1055F000F0BD0020844600E025736046F7E7F3B570
:105600008DB00C0000260D683021286E0C901435EA
:10561000684600F0B6EC200069463FF03DF90024F2
:105620006F4617E00D98FFF76FFF0C9903000A888B
:10563000E96920000904090C00F09EED8619E8696B
:10564000210002040D98120C05F09CF98619385DB2
:10565000401E3855385D0028E4D1641C2406240E11
:105660002F2CF7D330000FB0F0BDF8B50400602345
:10567000096808780D6E0E004007400F0B21890164
:1056800058436118C96BB230085C0F2382009B013C
:10569000D2181436891814F0A7FBFF343B410CB81C
:1056A00001000000585300000002000060F0D2A981
:1056B000F16907008934606BCC340904005D2A88E5
:1056C000090C012300F062ED7843F8BDF3B581B019
:1056D0000E000D682C6E00F0BAEC0198FFF71EFF6B
:1056E00000283ED001980B2189014018C16B306819
:1056F00060230078228B4007400F5843120940185E
:10570000A030477A0282A07800092AD0082801D068
:105710000C2826D11420784344182079000720D57E
:10572000A868800004D501983100FFF7A8FF03E0C6
:1057300001983100FFF76DFF218AC002000C00299B
:105740000FD0227D002A0CD1628A10180004000CB0
:105750008842608205D9012020750198390046F001
:10576000A5FCFEBD03000A0000B5FFF7D7FE002828
:1057700007D00B2080011818C16B60205043AE3059
:10578000085A00BD03000A0000B5FFF7C7FE002855
:1057900009D00B208001181860235A43C16BAE3228
:1057A000885A431C8B5200BD08C404009820000492
:1057B000FFFF0000F8B505000024F04E012806D1D7
:1057C0007D21EF480022090100F054EC07E0022D92
:1057D00021D100223188EB481300FEF745F8040080
:1057E00019D008202073B020E74F022D208108D166
:1057F0002118328828000FF0E7F93868401C38601B
:1058000009E021003922B031520128000FF0DCF903
:105810007868401C78602000F8BD38B504200090FE
:10582000FBF742F9D94C050020680022442100F022
:105830006AEB206814216A4600F064EB2800FBF74D
:1058400038F938BD10B5FDF7F1FFD14810BD70B57E
:1058500006000C0047D0022B47D0032B0ED0052B9F
:1058600041D1202025182081E878A978000208433A
:1058700017D12000FBF750F9012070BD20890022CC
:105880000419C448251F28604421300000F03AEB79
:10589000E078A17800020843001D0204120C2900E0
:1058A00039E0FEF737F8002804D0BB48D20C9E2719
:1058B00001000000545500000002000079080CD9D6
:1058C000210000F0BAEB18E0B44900228868401CBF
:1058D00088604421300000F020EBE878A9780002CD
:1058E000084369792A79090609141143401802040A
:1058F000120C290002200FF07FF9002070BD2089D2
:1059000000220019C17A0400807A09020143C91CEF
:10591000A74808348D082060AD004421300000F015
:10592000FCEA08352A04120C21000120E3E7F8B54F
:1059300019001C39994F1D00FF680024083D0E1FF7
:105940007F1C012A01D0022A12D101280AD1964ACD
:105950001868904201D1080001E028002038FBF7C8
:10596000E5F820E002281ED18C48C7603000F6E739
:1059700001280DD18C481A68824206D12020088166
:105980000C0008003EF0D4FC07E02C00203C04E0B2
:10599000022802D181483400C7602000FBF7C6F816
:1059A00001200EF04FFE0020F8BDF8B505001C00E8
:1059B00016001F00B03C102016F0ECFC002803D0AD
:1059C0000120000516F090FF012E01D0022E03D118
:1059D0002000FBF7ABF856E0012D01D0022D52D18B
:1059E000714A3868734E6D4D0121904239D120893A
:1059F0003F1D001D208110202073607B08436073D1
:105A00006D48A061380033F00FFB00281FD038002C
:105A100008303AF079FF002819D113E001890918FC
:105A2000A868401CA860C8788A78000210434A79A8
:105A30000B79120612141A4380180204120C022069
:105A40000FF0DAF8594800F0B4EA0028E6D13668D9
:105A50000022210059480123B0476868401E686051
:105A600011E002202073607B0022084360735448D9
:105A7000A0613668210051480423B0472868401EC1
:105A8000286000D5FEE70020F8BD444810B58168C5
:105A9000C068814204D1454800F086EB002800D060
:105AA000012010BD70B543296CD01BDC1B2948D0E8
:105AB00013DC08294AD0142968D11468211F15F471
:105AC0000100000050570000000200008DE0B264A9
:105AD000FAF7FEFF050040480078032836D3042C6F
